:020000040800F2
:1000000000000120E5260008C11A0008C31A0008F4
:10001000C51A0008C71A0008C91A00080000000025
:10002000000000000000000000000000CB1A0008E3
:10003000CD1A000800000000CF1A0008D11A0008ED
:100040002D2700082D2700082D270008D91A0008A1
:100050002D270008E91A0008EB1A0008F51A000815
:100060002D2700082D270008FF1A00082D2700085B
:100070002D2700082D2700082D270008091B000840
:100080002D2700082D2700082D2700082D27000800
:10009000191B00082D2700082D2700082D27000810
:1000A0002D2700082D2700082D2700082D270008E0
:1000B0002D2700082D270008291B00082D270008E0
:1000C0002D2700082D2700082D2700082D270008C0
:1000D0002D270008391B00082D270008491B0008A0
:1000E0002D270008591B00082D2700082D27000880
:1000F0002D2700082D2700082D2700082D27000890
:100100002D2700082D2700082D2700082D2700087F
:100110002D2700082D2700082D2700082D2700086F
:100120002D2700082D2700082D2700082D2700085F
:1001300000000000000000000000000000000000BF
:1001400000000000000000000000000000000000AF
:10015000000000000000000000000000000000009F
:10016000000000000000000000000000000000008F
:10017000000000000000000000000000000000007F
:10018000000000000000000000000000000000006F
:10019000000000000000000000000000000000005F
:1001A000000000000000000000000000000000004F
:1001B000000000000000000000000000000000003F
:1001C000000000000000000000000000000000002F
:1001D000000000000000000000000000000000001F
:0401E0005FF8E0F1F3
:1001E8004FF0FF0C1CEAD0521EBF1CEAD15392EA12
:1001F8000C0F93EA0C0F6FD01A4480EA010C4002EE
:1002080018BF5FEA41211ED04FF0006343EA501047
:1002180043EA5111A0FB01310CF00040B1F5000F89
:100228003EBF490041EAD3715B0040EA010062F138
:100238007F02FD2A1DD8B3F1004F40EBC25008BF22
:1002480020F00100704790F0000F0CF0004C08BF40
:1002580049024CEA502040EA51207F3AC2BFD2F10D
:10026800FF0340EAC250704740F400004FF000031B
:10027800013A5DDC12F1190FDCBF00F00040704755
:10028800C2F10002410021FA02F1C2F1200200FA93
:1002980002FC5FEA310040F1000053EA4C0308BF5A
:1002A80020EADC70704792F0000F00F0004C02BFAB
:1002B800400010F4000F013AF9D040EA0C0093F026
:1002C800000F01F0004C02BF490011F4000F013B80
:1002D800F9D041EA0C018FE70CEAD15392EA0C0FEE
:1002E80018BF93EA0C0F0AD030F0004C18BF31F059
:1002F800004CD8D180EA010000F00040704790F02F
:10030800000F17BF90F0004F084691F0000F91F0D2
:10031800004F14D092EA0C0F01D142020FD193EA98
:100328000C0F03D14B0218BF084608D180EA010020
:1003380000F0004040F0FE4040F40000704740F0FC
:10034800FE4040F44000704781F0004102E000BFE9
:1003580083F0004330B54FEA41044FEA430594EA7D
:10036800050F08BF90EA020F1FBF54EA000C55EAB8
:10037800020C7FEA645C7FEA655C00F0E2804FEA89
:100388005454D4EB5555B8BF6D420CDD2C4480EA6B
:10039800020281EA030382EA000083EA010180EA9B
:1003A800020281EA0303362D88BF30BD11F0004FE9
:1003B8004FEA01314FF4801C4CEA113102D040421F
:1003C80061EB410113F0004F4FEA03334CEA13335A
:1003D80002D0524263EB430394EA050F00F0A78072
:1003E800A4F10104D5F1200E0DDB02FA0EFC22FA6D
:1003F80005F2801841F1000103FA0EF2801843FA61
:1004080005F359410EE0A5F120050EF1200E012A51
:1004180003FA0EFC28BF4CF0020C43FA05F3C0188F
:1004280051EBE37101F0004507D54FF0000EDCF108
:10043800000C7EEB00006EEB0101B1F5801F1BD3B1
:10044800B1F5001F0CD349085FEA30004FEA3C0CB5
:1004580004F101044FEA445212F5800F80F09A80AB
:10046800BCF1004F08BF5FEA500C50F1000041EBAF
:10047800045141EA050130BD5FEA4C0C404141EBB3
:100488000101013C28BFB1F5801FE9D291F0000FAE
:1004980004BF01460020B1FA81F308BF2033A3F15D
:1004A8000B03B3F120020CDA0C3208DD02F1140C54
:1004B800C2F10C0201FA0CF021FA02F10CE002F18F
:1004C8001402D8BFC2F1200C01FA02F120FA0CFC88
:1004D800DCBF41EA0C019040E41AA2BF01EB0451D1
:1004E800294330BD6FEA04041F3C1CDA0C340EDCCF
:1004F80004F11404C4F1200220FA04F001FA02F312
:1005080040EA030021FA04F345EA030130BDC4F1CF
:100518000C04C4F1200220FA02F001FA04F340EAC4
:100528000300294630BD21FA04F0294630BD94F075
:10053800000F83F4801306BF81F480110134013D5C
:100548004EE77FEA645C18BF7FEA655C29D094EACD
:10055800050F08BF90EA020F05D054EA000C04BF4B
:100568001946104630BD91EA030F1EBF0021002036
:1005780030BD5FEA545C05D14000494128BF41F0D5
:10058800004130BD14F580043CBF01F5801130BD39
:1005980001F0004545F0FE4141F470014FF00000C4
:1005A80030BD7FEA645C1ABF194610467FEA655C75
:1005B8001CBF0B46024650EA013406BF52EA033517
:1005C80091EA030F41F4002130BD00BF90F0000F05
:1005D80004BF0021704730B54FF4806404F1320441
:1005E8004FF000054FF0000150E700BF90F0000FFA
:1005F80004BF0021704730B54FF4806404F1320421
:1006080010F0004548BF40424FF000013EE700BFF0
:1006180042004FEAE2014FEA31014FEA02701FBF80
:1006280012F07F4393F07F4F81F06051704732F0B2
:100638007F4208BF704793F07F4F04BF41F4002109
:10064800704730B54FF4607401F0004521F0004167
:100658001CE700BF50EA010208BF704730B54FF0F1
:1006680000050AE050EA010208BF704730B511F0F2
:10067800004502D5404261EB41014FF4806404F12A
:1006880032045FEA915C3FF4D8AE4FF003025FEAB0
:10069800DC0C18BF03325FEADC0C18BF033202EB34
:1006A800DC02C2F1200300FA03FC20FA02F001FA8E
:1006B80003FE40EA0E0021FA02F11444BDE600BF31
:1006C8004FF0FF3C06E000BF4FF0010C02E000BF16
:1006D8004FF0010C4DF804CD4FEA410C7FEA6C5CF9
:1006E8004FEA430C18BF7FEA6C5C1BD001B050EA9C
:1006F800410C0CBF52EA430C91EA030F02BF90EA87
:10070800020F0020704710F1000F91EA030F58BF45
:10071800994208BF90422CBFD8176FEAE37040F0A7
:10072800010070474FEA410C7FEA6C5C02D150EA45
:10073800013C07D14FEA430C7FEA6C5CD6D152EA00
:10074800033CD3D05DF8040B704700BF84461046C5
:1007580062468C461946634600E000BF01B5FFF7C4
:10076800B7FF002848BF10F1000F01BD4DF808ED94
:10077800FFF7F4FF0CBF012000205DF808FB00BF65
:100788004DF808EDFFF7EAFF34BF012000205DF8BF
:1007980008FB00BF4DF808EDFFF7E0FF94BF01200C
:1007A80000205DF808FB00BF4DF808EDFFF7CEFF0D
:1007B80094BF012000205DF808FB00BF4DF808ED4C
:1007C800FFF7C4FF34BF012000205DF808FB00BF1D
:1007D8004FEA410C7FEA6C5C02D150EA013C0AD135
:1007E8004FEA430C7FEA6C5C02D152EA033C02D127
:1007F8004FF0000070474FF0010070474FEA410288
:1008080012F5001215D211D56FF47873B3EB62525A
:1008180012D94FEAC12343F0004343EA505311F081
:10082800004F23FA02F018BF404270474FF0000013
:10083800704750EA013005D111F0004008BF6FF051
:10084800004070474FF00000704700BF4FEA410278
:10085800B2F1E04324BFB3F5001CDCF1FE5C0DD916
:1008680001F0004C4FEAC0024CEA5070B2F1004F60
:1008780040EB830008BF20F00100704711F0804F63
:1008880021D113F13872BCBF01F00040704741F428
:1008980080114FEA5252C2F11802C2F1200C10FA2C
:1008A8000CF320FA02F018BF40F001004FEAC12310
:1008B8004FEAD32303FA0CFC40EA0C0023FA02F3B4
:1008C8004FEA4303CCE77FEA625307D150EA01338A
:1008D8001EBF4FF0FE4040F44000704701F000405A
:1008E80040F0FE4040F40000704700BF80F0004038
:1008F80002E000BF81F0004142001FBF5FEA4103F0
:1009080092EA030F7FEA226C7FEA236C6AD04FEAEF
:100918001262D2EB1363C1BFD21841404840414034
:10092800B8BF5B42192B88BF704710F0004F40F4E6
:10093800000020F07F4018BF404211F0004F41F402
:10094800000121F07F4118BF494292EA030F3FD0CE
:10095800A2F1010241FA03FC10EB0C00C3F12003E1
:1009680001FA03F100F0004302D5494260EB400070
:10097800B0F5000F13D3B0F1807F06D340084FEADB
:10098800310102F10102FE2A51D2B1F1004F40EBD0
:10099800C25008BF20F0010040EA03007047490038
:1009A80040EB0000013A28BFB0F5000FEDD2B0FAD5
:1009B80080FCACF1080CB2EB0C0200FA0CF0AABFF8
:1009C80000EBC25052421843BCBFD0401843704796
:1009D80092F0000F81F4000106BF80F4000001329C
:1009E800013BB5E74FEA41037FEA226C18BF7FEA73
:1009F800236C21D092EA030F04D092F0000F08BFB5
:100A08000846704790EA010F1CBF0020704712F09B
:100A18007F4F04D1400028BF40F00040704712F1DA
:100A280000723CBF00F50000704700F0004343F03F
:100A3800FE4040F4000070477FEA226216BF084675
:100A48007FEA23630146420206BF5FEA412390EA38
:100A5800010F40F4800070474FF0000304E000BF2E
:100A680010F0004348BF40425FEA000C08BF7047DF
:100A780043F0964301464FF000001CE050EA0102A3
:100A880008BF70474FF000030AE000BF50EA0102B8
:100A980008BF704711F0004302D5404261EB4101A5
:100AA8005FEA010C02BF84460146002043F0B643CA
:100AB80008BFA3F18053A3F50003BCFA8CF2083AEF
:100AC800A3EBC25310DB01FA02FC634400FA02FCF8
:100AD800C2F12002BCF1004F20FA02F243EB0200FF
:100AE80008BF20F00100704702F1200201FA02FC61
:100AF800C2F1200250EA4C0021FA02F243EB020054
:100B080008BF20EADC70704780EA010C1CF0030F74
:100B180037D110F0030C20F0030021F0030150F846
:100B2800042B08BF51F8043B0ED08CF0030C6FF077
:100B38007F434FEACC0C23FA0CFC51F8043B42EA01
:100B48000C0243EA0C0300BFA2F1013C9A4201BF28
:100B58002CEA020C1CF0803F50F8042B51F8043B9F
:100B6800F2D04FEA02604FEA1222012828BFB0EB08
:100B7800036F08BF1B0AF4D003F0FF03000EC01A6E
:100B8800704710F0030F0AD010F8012B11F8013B41
:100B9800012A28BF9A42F4D0A2EB030070474DF80F
:100BA800045D50F8042B01F0030521F0030151F80E
:100BB800043B022D26D04DD822F07F45B5EB132FEC
:100BC800A2F1013C2CEA020C0DD11CF0803C08BFBC
:100BD80051F8043B0AD185EA0205B5EB036F0CD145
:100BE80050F8042BE8E74FEA13235BE03CF07F4C16
:100BF80054D10B784FEA126554E04FEA126503F0BE
:100C0800FF034FE04FEA0245A2F1013C4FEA1545C8
:100C18002CEA020CB5EB134F18D11CF0803C08BF2E
:100C280051F8043B07D185EA0205B5EB034F09D11A
:100C380050F8042BE6E75FEA0C4C2FD10B884FEAFB
:100C480012452FE04FEA03434FEA12454FEA134398
:100C580028E000BF02F0FF05B5EB136FA2F1013CDD
:100C68002CEA020C0DD11CF0803C08BF51F8043B63
:100C78000AD185EA0205B5EB032F0AD150F8042BF7
:100C8800E8E74FEA13630DE012F0FF0F06D051F8C2
:100C9800043B4FEA122523F07F4303E04FF00000A6
:100CA80020BC704705F0FF0203F0FF00012828BFB1
:100CB800904204BF2D0A1B0AF4D0A2EB000020BC0E
:100CC800704700BF844641EA000313F0030349D18B
:100CD800403A23D30B6803604B6843608B6883609A
:100CE800CB68C3600B6903614B6943618B6983619E
:100CF800CB69C3610B6A03624B6A43628B6A836286
:100D0800CB6AC3620B6B03634B6B43638B6B83636D
:100D1800CB6BC36340304031403ADBD230320BD327
:100D28000B6803604B6843608B688360CB68C36063
:100D380010301031103AF3D20C3205D351F8043B7D
:100D480040F8043B043AF9D2043208D0D2071CBF59
:100D580011F8013B00F8013B01D30B880380604682
:100D6800704700BF082A13D38B07B1D010F00303D4
:100D7800AED0C3F10403D21ADB071CBF11F8013B44
:100D880000F8013BA4D331F8023B20F8023B9FE76F
:100D9800043AD9D3013A11F8013B00F8013BF9D2E2
:100DA8000B7803704B7843708B788370604670477C
:100DB80070B54FF0FF0C4CF4E06C1CEA11541DBFE9
:100DC8001CEA135594EA0C0F95EA0C0F00F0DEF8B4
:100DD8002C4481EA030621EA4C5123EA4C5350EA99
:100DE800013518BF52EA033541F4801143F48013EA
:100DF80038D0A0FB02CE4FF00005E1FB02E506F07B
:100E08000042E0FB03E54FF00006E1FB03569CF0CF
:100E1800000F18BF4EF0010EA4F1FF04B6F5007FD5
:100E280064F5407404D25FEA4E0E6D4146EB060647
:100E380042EAC62141EA55514FEAC52040EA5E50D0
:100E48004FEACE2EB4F1FD0C88BFBCF5E06F1ED87A
:100E5800BEF1004F08BF5FEA500E50F1000041EBB1
:100E6800045170BD06F0004646EA010140EA02005E
:100E780081EA0301B4EB5C04C2BFD4EB0C0541EA80
:100E8800045170BD41F480114FF0000E013C00F395
:100E9800AB8014F1360FDEBF002001F0004170BDB9
:100EA800C4F10004203C35DA0C341BDC04F11404D2
:100EB800C4F1200500FA05F320FA04F001FA05F25E
:100EC80040EA020001F0004221F0004110EBD3702B
:100ED80021FA04F642EB06015EEA430E08BF20EA57
:100EE800D37070BDC4F10C04C4F1200500FA04F3FA
:100EF80020FA05F001FA04F240EA020001F000418C
:100F080010EBD37041F100015EEA430E08BF20EAFE
:100F1800D37070BDC4F1200500FA05F24EEA020E46
:100F280020FA04F301FA05F243EA020321FA04F075
:100F380001F0004121FA04F220EA020000EBD3702C
:100F48005EEA430E08BF20EAD37070BD94F0000F2C
:100F58000FD101F00046400041EB010111F4801F60
:100F680008BF013CF7D041EA060195F0000F18BF11
:100F7800704703F00046520043EB030313F4801F4D
:100F880008BF013DF7D043EA0603704794EA0C0F07
:100F98000CEA135518BF95EA0C0F0CD050EA41061D
:100FA80018BF52EA4306D1D181EA030101F000419A
:100FB8004FF0000070BD50EA410606BF10461946C2
:100FC80052EA430619D094EA0C0F02D150EA0136CE
:100FD80013D195EA0C0F05D152EA03361CBF10460F
:100FE80019460AD181EA030101F0004141F0FE41AE
:100FF80041F470014FF0000070BD41F0FE4141F432
:10100800780170BD70B54FF0FF0C4CF4E06C1CEA31
:1010180011541DBF1CEA135594EA0C0F95EA0C0FE6
:1010280000F0A7F8A4EB050481EA030E52EA0335A1
:101038004FEA013100F088804FEA03334FF08055C2
:1010480045EA131343EA12634FEA022245EA1115EF
:1010580045EA10654FEA00260EF000419D4208BFA0
:10106800964244F1FD0404F5407402D25B084FEA4D
:101078003202B61A65EB03055B084FEA32024FF4F9
:1010880080104FF4002CB6EB020E75EB030E22BF56
:10109800B61A754640EA0C005B084FEA3202B6EB16
:1010A800020E75EB030E22BFB61A754640EA5C00C5
:1010B8005B084FEA3202B6EB020E75EB030E22BF55
:1010C800B61A754640EA9C005B084FEA3202B6EB56
:1010D800020E75EB030E22BFB61A754640EADC0015
:1010E80055EA060E18D04FEA051545EA16754FEA77
:1010F80006164FEAC30343EA52734FEAC2025FEA95
:101108001C1CC0D111F4801F0BD141EA00014FF023
:1011180000004FF0004CB6E711F4801F04BF0143F4
:101128000020B4F1FD0C88BFBCF5E06F3FF6AFAE10
:10113800B5EB030C04BFB6EB020C5FEA500C50F1A0
:10114800000041EB045170BD0EF0004E4EEA113123
:1011580014EB5C04C2BFD4EB0C0541EA045170BD2A
:1011680041F480114FF0000E013C90E645EA060E6E
:101178008DE60CEA135594EA0C0F08BF95EA0C0F9C
:101188003FF43BAF94EA0C0F0AD150EA01347FF4E4
:1011980034AF95EA0C0F7FF425AF104619462CE7BB
:1011A80095EA0C0F06D152EA03353FF4FDAE10461E
:1011B800194622E750EA410618BF52EA43067FF46F
:1011C800C5AE50EA41047FF40DAF52EA43057FF4FF
:1011D800EBAE12E74A0011D212F5001211D20DD56A
:1011E8006FF47873B3EB62520ED44FEAC12343F025
:1011F800004343EA505323FA02F070474FF00000CF
:10120800704750EA013002D14FF0FF3070474FF07D
:101218000000704753B94AB9002908BF00281CBF0D
:101228004FF0FF314FF0FF3000F00CB8ADF1080C73
:101238006DE904CE18F020FDDDF804E0DDE90223B5
:1012480004B07047704700BF0348044B834202D084
:10125800034B03B118477047EC070020EC07002048
:10126800000000000548064B1B1AD90F01EBA3012B
:10127800491002D0034B03B118477047EC07002010
:10128800EC0700200000000010B5064C237843B995
:10129800FFF7DAFF044B13B10448AFF300800123D2
:1012A800237010BDEC07002000000000349F0108E7
:1012B80008B5054B1BB105490548AFF30080BDE8EB
:1012C8000840FFF7CFBF00BF00000000F007002074
:1012D800349F010800B583B00A4B5A6942F00102F5
:1012E8005A615B6903F001030193019B00221146D7
:1012F8000F2002F097FF0F2002F0A4FF03B05DF863
:1013080004FB00BF0010024030B587B000230293F1
:10131800039304930593134B1B680BB107B030BDBF
:10132800104B01221A60104B5A6942F480725A61BC
:101338005B6903F480730193019B4FF680730293FA
:10134800022503950324059402A9084803F086FAA8
:101358004CF6B37302930395059402A9044803F06D
:101368007DFADBE708080020001002400018014061
:101378000014014010B588B0002201920292039235
:10138800049205920692079216484FF02043036094
:1013980003F5827343608260C2600261102141617B
:1013A8008261C261026242624FF480538362C26208
:1013B8000263426382630F2301930293FF24039421
:1013C800049305911123069301A906F056F830B944
:1013D800054AD36943F48063D36108B010BD00F0B7
:1013E800FFF8F5E70C0800200000014008B5FFF7FA
:1013F8008BFF08BD2DE9F0478AB0002406940794B6
:1014080008940994474B9A6942F010029A619A69C4
:1014180002F010020192019A9A6942F004029A615C
:101428009A6902F004020292029A9A6942F008024A
:101438009A619A6902F008020392039A9A6942F043
:1014480040029A619A6902F040020492049A9A69E9
:1014580042F020029A619B6903F020030593059BE3
:10146800DFF8C49001222021484603F01AFBDFF878
:10147800BC8001220421404603F013FB2C4F224676
:101488004FF40041384603F00CFB01260696DFF8BE
:10149800A4A0CDF81CA00225089506A9384603F09B
:1014A800DDF912230693CDF81CA0089606A9384644
:1014B80003F0D4F92023069307960894099506A902
:1014C800484603F0CBF90423069307960894099538
:1014D80006A9404603F0C2F94FF400430693079665
:1014E8000894099506A9384603F0B8F92246294612
:1014F800062002F097FE062002F0A4FE22462946A6
:10150800072002F08FFE072002F09CFE22462946A3
:101518000A2002F087FE0A2002F094FE0AB0BDE815
:10152800F08700BF0010024000100140000C01408D
:10153800000801400000111038B502680C4B9A42AF
:1015480000D038BD0B4C204602F09AFA78252A467E
:10155800002120460DF09AFE2A462146064806F04C
:1015680087FE064B1A68136823F004031360E8E744
:10157800003801405C080020A40A0020180A002056
:1015880010B50446002200F10C0105F099F9134B3F
:10159800DB78E27B934204D1104B5978637B994204
:1015A80015D00221204605F073FA627B03212046FC
:1015B80005F06EFAA27B0421204605F069FAE27B69
:1015C800064BDA70627B5A70A27B9A7010BD034B8F
:1015D8009978A37B9942E4D1F8E700BF540800202A
:1015E80072B6FEE700B597B0282200210CA80DF0CE
:1015F8004DFE00230793089309930A930B930193D5
:101608000293039304930593069309230C934FF4D1
:1016180080330D9301221092129202221392149396
:101628004FF4E01315930CA804F09EFAD8B90F23D1
:10163800079302210891002309934FF480620A92CC
:101648000B9307A804F0C2FC78B9112301934FF457
:10165800007302930023069301A804F093FD30B9A8
:1016680017B05DF804FBFFF7BBFFFFF7B9FFFFF703
:10167800B7FF000008B502F057FDFFF7B3FF184C9D
:10168800204600F035F8FFF7B5FEFFF723FEFFF719
:1016980071FE00F09BFA00F0F1FA00F031F900F069
:1016A80007FB08F07DF90BF013FC00F091F800F04F
:1016B8007BF900F08FFE78220A49204606F0D8FD13
:1016C800094B1A68136823F00403136007480DF0E8
:1016D800EDFB02F0ADFA02F009FC02F059FBFCE761
:1016E800A40A00205C080020180A0020509F010866
:1016F80008B5054B1860054B1868002302221946E7
:1017080080680DF0DBFB08BDD8080020C00600206B
:10171800022801D80120704708B50EF0D5F8092332
:101728000360002008BD000010B5013801280AD860
:1017380014464FF0FF3392B20748006806F02CFABF
:1017480040B9204610BD0EF0BFF8092303604FF0E2
:10175800FF30F7E70520F5E7D8080020022801D870
:101768000020704708B50EF0AFF8092303604FF06A
:10177800FF3008BD08B50EF0A7F8092303604FF045
:10178800FF3008BD08B548B94FF0FF3301220848BB
:10179800006806F060FA40B9012008BD0EF094F820
:1017A800092303604FF0FF30F7E70520F5E700BF96
:1017B800D808002008B5022804D84FF400534B601D
:1017C800002008BD0EF080F809230360F8E7000048
:1017D80010B582B00023ADF804308DF806300093C0
:1017E8002D482E4B03604FF0FF3343604FF4807356
:1017F800836005F0D1F878BB27480268136843F086
:1018080001031360012105F04BF941F2342398429A
:1018180025D000228DF804208DF805208DF80620AB
:1018280001A91D4804F0FBFE78BB01238DF80030A8
:101838008DF801308DF8023000228DF803206946BA
:10184800154804F0D3FF18BB41F234220121124895
:1018580005F01EF902B010BDFFF7C2FECCE70E4C32
:101868000221204605F01CF9E0730321204605F00B
:1018780017F960730421204605F012F9A0730022BD
:1018880001A9204604F02CFFE4E7FFF7A9FECCE706
:10189800FFF7A6FED8E700BFDC08002000280040BC
:1018A8000268144B9A4200D0704700B583B004F028
:1018B8003FF9114BDA6942F00062DA61DB6903F043
:1018C80000630193019B0D4B0122C3F83C240022C5
:1018D8000321084602F0A6FC032002F0B3FC002214
:1018E8000321292002F09EFC292002F0ABFC03B062
:1018F8005DF804FB0028004000100240000042424E
:10190800054B064A1A6000225A609A60DA601A612A
:101918005A6104229A617047F00800200080014053
:1019280030B589B0002304930593069307930268A2
:101938001A4B9A4201D009B030BD03F510435A69D9
:1019480042F480625A615A6902F480620192019AF3
:101958009A6942F010029A619A6902F010020292A2
:10196800029A9A6942F020029A619B6903F0200367
:101978000393039B4FF4885304930225059503248E
:10198800079404A9064802F069FF04230493059507
:10199800079404A9034802F061FFCCE700800140E6
:1019A800001001400014014008B50E480E4B0360BA
:1019B8004FF48273436000238360C3600361436113
:1019C8004FF4007282610822C2610362436283623B
:1019D8000A23C36205F0F6FC00B908BDFFF700FE54
:1019E800FBE700BF740900200030014010B586B045
:1019F800002302930393049305930268164B9A42BB
:101A080001D006B010BD03F560439A6942F48052D4
:101A18009A619A6902F480520092009A9A6942F097
:101A280004029A619B6903F004030193019BA023BC
:101A380002930223039303230593084C02A920462B
:101A480002F00CFF4023029300230393049302A99E
:101A5800204602F003FFD4E70030014000080140AF
:101A680000B583B0124B9A6942F001029A619A69F3
:101A780002F001020092009ADA6942F08052DA61BB
:101A8800DB6903F080530193019B00221146052076
:101A980002F0C8FB052002F0D5FB064A536823F084
:101AA800E06343F00073536003B05DF804FB00BFCC
:101AB8000010024000000140FEE7FEE7FEE7FEE7F7
:101AC800FEE770477047704708B502F03FFB08BD56
:101AD80008B5024804F0B9FF08BD00BFDC080020C3
:101AE800704708B5012002F0E3FF08BD08B50220E1
:101AF80002F0DEFF08BD08B5102002F0D9FF08BDCE
:101B080008B5024802F034FD08BD00BF180A0020DD
:101B180008B5024803F0CEFD08BD00BFE41B002055
:101B280008B5024805F00DFD08BD00BFD00900202A
:101B380008B5024806F0ACF908BD00BFA40A0020A9
:101B480008B5024806F0A4F908BD00BF5C0A0020E9
:101B580008B5024804F0E8FE08BD00BFDC08002014
:101B68000120704708B50DF0AFFE162303604FF053
:101B7800FF3008BD08B54FF0FF31FFF7F3FFFEE770
:101B880010B503460C4A0D490D48006840B10C4891
:101B980000680344521A934206D8094A136010BDDC
:101BA8000748084C0460F2E70DF08EFE0C23036032
:101BB8004FF0FF30F3E700BF0000012000040000F1
:101BC800CC090020E82100207047000000B587B04C
:101BD80000230293039304930593009301931548FC
:101BE800154A026047224260836040F2E732C260D1
:101BF8000361836105F0AEFD90B94FF48053029301
:101C080002A90C4805F0DEFD68B900230093019392
:101C18006946084805F056FE40B907B05DF804FB70
:101C2800FFF7DEFCE9E7FFF7DBFCEEE7FFF7D8FCA0
:101C3800F3E700BFD00900200008004002680E4BFF
:101C48009A4200D0704700B583B003F50233DA69D1
:101C580042F00402DA61DB6903F004030193019B9B
:101C6800002201211E2002F0DDFA1E2002F0EAFA0D
:101C780003B05DF804FB00BF0008004008B50A483F
:101C88000A4B03604FF4E133436000238360C36071
:101C980003610C2242618361C36105F04DFF00B905
:101CA80008BDFFF79DFCFBE7A40A002000380140AF
:101CB80008B50A480A4B03604FF4E1334360002338
:101CC8008360C36003610C2242618361C36105F0D4
:101CD80033FF00B908BDFFF783FCFBE75C0A00206F
:101CE8000048004070B588B000230493059306931C
:101CF80007930368404A934204D0404A934248D02D
:101D080008B070BD04463E4B9A6942F480429A611D
:101D18009A6902F480420092009A9A6942F0040299
:101D28009A619B6903F004030193019B4FF40073CC
:101D380004930223059303230793324E04A93046E4
:101D480002F08CFD4FF480630493002505950695F9
:101D580004A9304602F082FD2B482C4B03604560F5
:101D680085608023C360056145618561C56102F0B6
:101D7800A1FA58B9244BE3635C62002202212520B2
:101D880002F050FA252002F05DFAB9E7FFF728FCC7
:101D9800F0E71B4BDA6942F48022DA61DA6902F46F
:101DA80080220292029A9A6942F008029A619B691B
:101DB80003F008030393039B4FF480630493022307
:101DC800059303250795124E04A9304602F046FDF7
:101DD8004FF40063049300240594069404A9304644
:101DE80002F03CFD22462946272002F01BFA272054
:101DF80002F028FA84E700BF00380140004800409C
:101E08000010024000080140180A00205800024053
:101E1800000C0140034B044A1A60044B023A1A6052
:101E2800704700BF0010002000000260FC0F002077
:101E38000B4B2A225A812B229A812C221A810022AA
:101E48009A71F0221A804FF4A0725A80054B1B68D1
:101E580036221A80044B1B6808221A80704700BF7C
:101E6800EC0F0020FC0F00200010002070B5174E6A
:101E78003468174DB5F80AC0A4F800C0154C4FEAED
:101E8800102CD4F800E0AEF800C0C0B2D4F800C0FE
:101E9800ACF8000020684FEA122CA0F800C02068B7
:101EA800D2B202803268A88910802268080A10809D
:101EB8002268C9B211802268190A11802268DBB22F
:101EC800138033682A891A8070BD00BFFC0F002078
:101ED800EC0F00200010002010B504460A4B1A88A9
:101EE8005B88013B013A9BB292B200210846FFF79A
:101EF800BDFF002303E0054A126814800133B3F5DF
:101F0800963FF8D310BD00BFEC0F00200010002052
:101F18000020704700207047002070472DE9F843E3
:101F28008046894616461F46BDF82050BDF8244015
:101F38001EE0194A12681580013B002B08DB41FAA4
:101F480003F212F0010FF4D0134A12681480F3E779
:101F580002301F2806DC335C3218517841EA03212D
:101F68000F23EAE708F110082036B8F1E00F11DC7A
:101F78003B46013FBFB26BB11FFA88F01FFA89F1E7
:101F880001F10F0300F10F029BB292B2FFF76EFF4F
:101F98000020DEE7BDE8F883001000202DE9F843B3
:101FA8008046894616461F46BDF82050BDF8244095
:101FB8001AE0174A12681580013B002B08DB41FA2A
:101FC80003F212F0010FF4D0114A12681480F3E7FB
:101FD8000130472802DC315C0723EEE708F11808D6
:101FE8004836B8F1D80F11DC3B46013FBFB26BB1A0
:101FF8001FFA88F01FFA89F101F1170300F117029F
:102008009BB292B2FFF732FF0020E2E7BDE8F88307
:10201800001000202DE9F8438046894616461F46E1
:10202800BDF82050BDF824401AE0174A1268158000
:10203800013B002B08DB41FA03F212F0010FF4D048
:10204800114A12681480F3E701307F2802DC315C02
:102058000723EEE708F120088036B8F1D00F11DC2D
:102068003B46013FBFB26BB11FFA88F01FFA89F1F6
:1020780001F11F0300F11F029BB292B2FFF7F6FEB7
:102088000020E2E7BDE8F883001000202DE9F047C2
:1020980007468A4690461D46BDF8206010460DF05A
:1020A80057FC5FFA80F900242DE0B8B21FFA8AF1D4
:1020B800CB1D421D9BB292B2FFF7D8FE18F8040060
:1020C8002038C000002111E0144B1B681D800CF162
:1020D800FF3CBCF1010F08DD42FA0CF313F0010FCD
:1020E800F2D00E4B1B681E80F1E70131072905DC91
:1020F80043180B4AD25C4FF0070CEAE70637E92F82
:102108000ADC0134E4B24C4506D218F90430002B3D
:10211800CBDA0134E4B2F1E7BDE8F0870010002023
:102128001CD601082DE9F04F83B007468A46904631
:102138001C46BDF8305010460DF00AFC5FFA80F9D5
:10214800002633E0B8B21FFA8AF101F10F03C21D6D
:102158009BB292B2FFF78AFE18F8060020380001F9
:10216800002116E0234B1B681C800CF1010C1FFAA0
:102178008CFCBCF1070F0AD8CCF1070342FA03F331
:1021880013F0010FEED01B4B1B681D80EDE70131EA
:1021980089B20F2905D84318174AD25C4FF0000CB2
:1021A800E7E708370136F6B2E82F20DC4E451ED2A5
:1021B80008EB060118F90630002BC3DA14220F4881
:1021C800FFF7A6FE834610B90236F6B2ECE7019592
:1021D8000094C0F34F13094A51463846FFF79EFE54
:1021E80007EB5B0706EB1B1B5FFA8BF6DCE703B01C
:1021F800BDE8F08F001000202CD00108EC0A002068
:102208002DE9F04F85B08046039191461C46BDF8F4
:10221800385010460DF09CFB5FFA80FB002637E033
:102228001FFA88F0BDF80C1001F1170300F10B023A
:102238009BB292B2FFF71AFE19F80630203B03EB67
:102248004303284F07EB0317002011E0264A1268C2
:102258001480013B9BB2032B08D941FA03F212F018
:10226800010FF3D0204A12681580F2E7023080B2DD
:102278002F2806D83B5C3A18517841EA03210F23EE
:10228800E9E708F10C080136F6B2B8F1E40F26DCEC
:102298005E4524D209EB060119F90630002BBFDA96
:1022A80014221248FFF736FE074610B90236F6B276
:1022B800EBE70F4BA3FB003A01950094CAF30F1309
:1022C8000A4A03994046FFF769FE0A4BA3FB073702
:1022D80008EB570806EBDA0A5FFA8AF6D5E705B085
:1022E800BDE8F08F8CBE010800100020EC0A002029
:1022F800398EE338ABAAAAAA2DE9F04F83B08046FD
:102308008B4617461C46BDF8305010460DF020FB92
:102318005FFA80F9002634E01FFA88F01FFA8BF183
:1023280001F11F0300F10F029BB292B2FFF79EFD6D
:10233800BB5D203B244A02EB831C00200FE0234AAC
:1023480012681480013B002B08DB41FA03F212F0FB
:10235800010FF4D01D4A12681580F3E702303F28B8
:1023680008DC1CF800300CEB0002517841EA03212C
:102378000F23E8E708F110080136F6B2B8F1E40FC8
:102388001EDC4E451CD2B919BB57002BC4DA1422E7
:102398000F48FFF7C1FD824610B90236F6B2EDE7E5
:1023A80001950094C0F3CF13094A59464046FFF7F8
:1023B80031FE08EB9A0806EB9A1A5FFA8AF6DDE70F
:1023C80003B0BDE8F08F00BF0CA701080010002083
:1023D800EC0A00202DE9F04F83B0FFF71BFDA64D56
:1023E8002B68CF221A80A54B1A68002414801A681B
:1023F800C9211180196830220A802968ED200880D7
:102408001968642008801968032008801968122058
:1024180008801968812008802968E82008801968E0
:1024280085200880196810270F8019687A2008808D
:102438002968CB20088019683920088019682C2061
:10244800088019680C8019683420088019680220EF
:1024580008802968F720088019684FF02009A1F83A
:1024680000902968EA20088019680C8019680C8097
:102478002968C020088019681B2008802968C120A5
:10248800088019680C802968C520088019680A80A6
:1024980019680A802A68C72111801A68B721118033
:1024A8002A684FF03608A2F800801A6808261680B5
:1024B8002A683A2111801A68552111802A68B121A9
:1024C80011801A6814801A681A2111802A68B621A6
:1024D80011801A680A2111801A68A22010802A68BF
:1024E800F22010801A6814802A68262010801A6842
:1024F8004FF0010EA2F800E02A68E020108018686A
:102508000F22028018684FF02A0AA0F800A0186865
:102518004FF0280CA0F800C01868068018684FF023
:102528000E0CA0F800C01868068018684FF0540C0C
:10253800A0F800C018684FF0A90CA0F800C01868EF
:102548004FF0430CA0F800C01868018019680A8091
:1025580019680C8019680C8019680C8019680C803F
:102568002968E120088019680C80196815200880FE
:1025780019681720088019680720088019684FF023
:10258800110BA1F800B019680620088019684FF0EF
:102598002B0CA1F800C019685620088019683C2047
:1025A800088019680520088019680F8019680A8052
:1025B80018683F21018018680180186802802A681D
:1025C800A2F800C01A6814801A6814801A68A2F861
:1025D80000E01A6811802A68A2F800A01A6814801E
:1025E8001A6814801A6814801B68EF221A802B68F6
:1025F800A3F800B0782001F0BBFD2B6829221A80CF
:10260800FFF716FC1E4AD36843F40043D3604FF427
:102618007840FFF761FCC82001F0AAFD4FF4FC6088
:10262800FFF75AFCC82001F0A3FD1F20FFF754FC58
:10263800C82001F09DFD4FF6FF70FFF74DFCC82044
:1026480001F096FD4FF4784500954FF6FF730D4A5B
:1026580021462046FFF766FDDFF82CA000954FF6CF
:10266800FF7352462146A020FFF710FD4FF6FF7575
:1026780000952346524609E0FC0F00200010002078
:1026880000080140649F01087C9F01083146A02092
:10269800FFF7FCFC4FF4FC6300932B460C4A3946C9
:1026A8002046FFF73FFD1F2300932B46094A494662
:1026B8002046FFF7A5FD4BF6404300932B46064AFC
:1026C80041462046FFF718FE03B0BDE8F08F00BF73
:1026D8008C9F0108A49F0108BC9F0108FFF774FAAA
:1026E8000B480C490C4A002302E0D458C450043368
:1026F800C4188C42F9D3094A094C002301E013603D
:102708000432A242FBD30DF0E5F8FEF7B3FF7047A1
:1027180000000020EC070020A4480208EC07002075
:10272800E8210020FEE7000020B3844621B3884258
:1027380024D000B50DE086460B78124AD25C02F030
:102748000302012A10D09E4510D1C8B10CF1010C2A
:1027580001319CF800000B4B1B5C03F00303012BB9
:10276800E9D100F1200EE7E72033ECE7AEEB0300F8
:102778005DF804FB01207047012070470020704776
:102788000020F5E761DA01082E2070472DE9F84F9F
:1027980082468B4614461D4621F00049164623F012
:1027A80000473B464946FEF709F808B156464F46EA
:1027B80022462B4650465946FDF7CAFD044621F0ED
:1027C80000450022084B30463946FEF7F1FA02462A
:1027D8000B46012620462946FDF7DCFF00B90026F6
:1027E8003046BDE8F88F00BF0000B03C84460022A8
:1027F80010460BE0A1F14103DBB2052B12D80B18F0
:10280800A3F13700022A00D800010132032A12D8A6
:102818001CF80210A1F13003DBB2092BEAD80844F6
:102828003038EFE7A1F16103DBB2052B04D80B18B0
:10283800A3F15700E6E7704700207047F8B50B1A78
:10284800052B61DD06460F4615460230FFF7CEFF21
:102858000446A0F55C43B3F5806F57D3A0F5584301
:10286800B3F5806F1CD2B31DFF1A052F50DDB37965
:102878005C2B4FD1F379752B4ED106F10800FFF789
:10288800B5FFA0F55C43B3F5806F47D2254B03EA4B
:102898008423C0F30900034303F580340C2002E0CD
:1028A8007F280CD90620B4F5006F0ED3B4F5803F0D
:1028B8000ED3B4F5881F33D2F027042602E0062091
:1028C80000270126731EDBB20EE0C0270226F9E7B7
:1028D800E0270326F6E704F03F012A6841F080016B
:1028E800D154A409013BDBB2002BF4D1012E06D947
:1028F8002B6827431F702B6833442B6005E02B6837
:1029080004F07F041C70F6E70020F8BD0020FCE707
:102918000020FAE70020F8E70020F6E70020F4E7B7
:102928000020F2E700FC0F002DE9F04182B080465C
:102938000E460F688B685D1C3D4400220192F81812
:10294800FB5C222B43D12C46944600E00134E11B6A
:10295800726891420BD22378222B08D05C2BF5D1D8
:102968000134E31B934232D20CF1010CEEE79142A1
:102978002DD22378222B2AD1201AA0EB0C00336900
:1029880001309847074610B3019030E0631B002BD5
:102998001ADD6B78752B17D85C2B11D35C3B192B80
:1029A80012D8DFE803F04C11111111111D1111118A
:1029B8003011111111111111371111113E11455317
:1029C800222B3CD02F2B3AD0736938469847002DDC
:1029D80054D03368ED1AB560002002B0BDE8F0812C
:1029E800019B5A1C019208221A7002231D44A54219
:1029F80035D22B785C2BC9D0019B5A1C019215F853
:102A0800012B1A70F3E7019B5A1C01920C221A70D1
:102A18000223EBE7019B5A1C01920A221A70022337
:102A2800E4E7019B5A1C01920D221A700223DDE78C
:102A3800019B5A1C019209221A700223D6E7019BB6
:102A48005A1C01926A781A700223CFE701AA21461C
:102A58002846FFF7F3FE03460028C7D1B4E7019BD9
:102A680000221A701023C8F80C30C8F810703368A8
:102A7800E41AB4600134B4600120AEE70020ACE78A
:102A88000246D0B110B40468ACB183684068834290
:102A980002D30AE0013393609368984202D9E15C5B
:102AA8002029F7D99368984202D0104610BC704785
:102AB800013B9360F9E72246F7E7704701604860F9
:102AC8007047A1B138B504460D4690B1814212D085
:102AD80083683BB1586880B1FFF7F0FFA3685D6079
:102AE800012038BD816049600B600120F9E70020B2
:102AF80070470020F5E70020F3E70120F1E7704771
:102B080050B138B50546006828B1AC6820440CF0CF
:102B18001FFF0444AC6038BD704770B5064670B1FD
:102B28000D460CF015FF441C2B68204698470546B7
:102B380018B122463146FEF7C5F8284670BD05464D
:102B4800FBE768B32DE9F0410D4614461E460746DB
:102B580041B34AB3904229D0069BBBB10846FFF760
:102B6800CEFF8046E56845F40075E36813F4007FFE
:102B780003D1206A08B173689847C4F82080E560DB
:102B880021463846FFF79DFFBDE8F08131462846CB
:102B9800FFF7C3FF804658B1E56825F40075E4E700
:102BA800002070470020EFE70020EDE70020EBE76A
:102BB8000698E9E770B50546002846D0066836B39A
:102BC800436813B18268934241D9002941DBAA685E
:102BD800114401318B420AD22B69002B3BD1B1F150
:102BE800804F08D3002904DB6FF0004404E016444A
:102BF8000DE000260BE04C002B6A8BB121463046D5
:102C08009847064628B16C602E60AB681E44304673
:102C180070BDEB692868984700236B602B60F6E766
:102C2800AB6920469847064640B1AA680132296830
:102C3800FEF748F8EB6928689847E4E7EB692868E5
:102C4800984700236B602B60E1E70646DFE7002624
:102C5800DDE70026DBE70026D9E710B50368282062
:102C68009847044618B1282200210CF00FFB204693
:102C780010BD000038B5044678B1006878B1A56881
:102C88007DB92B1D6268934207D203220649284466
:102C98000CF04CFB08B90335A560204638BD044646
:102CA800FBE70024F9E700BFD49F010800000000FB
:102CB8002DE9F04393B005460C4600231193FFF726
:102CC80063FD002C65D02368002B64D0002330E01E
:102CD800652A28D048336B44002203F8442C0DF1B0
:102CE800040911A948460BF085FF06460F46DDF892
:102CF8004480C84551D0C5E9066729A3D3E9002314
:102D0800FDF752FD002833D06FF000436B610823B4
:102D1800EB60A36801AAA8EB02084344A360012062
:102D280013B0BDE8F08303F14801694401F8442C6D
:102D380001333E2BCED8A2681A4461688A42C9D2B0
:102D480021688A5C452AC3D82B2AC3D3A2F12B0653
:102D5800F6B20121B140144E0E40002EE3D111F01D
:102D6800080FB7D003F148026A4402F8440CDFE7C1
:102D780000220E4B30463946FDF70CFD18B14FF0D6
:102D880000436B61C3E730463946FDF737FD68619C
:102D9800BDE70020C4E70020C2E70020C0E700BF6D
:102DA8000000C0FFFFFFDF41E57F00040000E0C135
:102DB800002900F09480F8B50546084615B12A4662
:102DC800002614E00321FFF7F5FE002800F08980B3
:102DD800464A118892780180827001207EE05C2B3F
:102DE80003D01F2B02D8053600E0013601321378D4
:102DF80063B1222BF3D8082BF3D3A3F10804E4B270
:102E08003B49E14011F0010FEFD1EAE7521B941959
:102E1800E11CFFF7CFFE0746002864D026B106461E
:102E2800222306F8013B30E0222600F8016B2246F7
:102E38002946FDF747FF631CFE54023400233B5527
:102E480001204BE030465C2300F8013B2A78222A17
:102E580015D8082A36D3A2F108031A2B32D8DFE88E
:102E680003F0222E2831252B3131313131313131E6
:102E78003131313131313131313131311F005C2A59
:102E880020D15C2373700135461C2B78FBB11F2BB6
:102E9800D8D9222BD6D05C2BD4D033703046F2E769
:102EA80022237370EFE762237370ECE76623737075
:102EB800E9E76E237370E6E772237370E3E7742320
:102EC8007370E0E70B490CF0CBF8701DDBE7631C6F
:102ED8002222FA54023400233B550120F8BD002079
:102EE80070470020FAE70020F8E700BFD89F0108E4
:102EF80037000004DC9F010808B50069FFF758FF98
:102F080008BD00002DE9F0478AB082460C46D0E99A
:102F18000667002303930493059306930793089386
:102F2800ADF82430FFF730FC00220023CDE9002360
:102F3800002C76D0054632463B4630463946FDF7EA
:102F480047FC88B927F000494FF0FF32374B30462D
:102F58004946FDF73DFCB8B94FF0FF32334B3046D8
:102F68004946FDF717FC78B9314B93E80300039005
:102F78008DF810104FF004084646B8F1190F32D9F1
:102F880000200AB0BDE8F087DAF814804046FDF763
:102F98002DFB32463B46FDF7E9FB30B14246254959
:102FA80003A80CF05DF88046E6E732463B46224926
:102FB80003A80CF055F880466A46204903A80CF08F
:102FC80071F8012807D132463B46DDE90001FFF7D9
:102FD800DDFB0028D0D132463B46194903A80CF046
:102FE8003FF88046C8E708F101012046FFF7E2FDF7
:102FF8000146C0B1002302E02E22CA5401339E428A
:1030080008D903F128026A4412F81C2CAA42F3D00A
:10301800CA54F3E70022CA54A3681E44A6600120DC
:10302800AFE70020ADE70020ABE700BFFFFFEF7F71
:10303800E49F0108EC9F0108F09F0108F89F010830
:10304800FC9F010870B500286CD00D460646002983
:103058006AD0047B202C16DC002C67D0631E1F2B43
:1030680066D8DFE803F0364265286565654F656513
:10307800656565656553656565656565656565650A
:10308800656565656557402C48D0802C11D100696D
:10309800002856D00CF05CFC441C21462846FFF75B
:1030A80089FD00284FD022463169FDF70BFE012427
:1030B8003FE000243DE005212846FFF77BFD03465D
:1030C800002838D0214A1068186012791A71012432
:1030D8002FE006212846FFF76DFD034668B31C4A1A
:1030E8001068186092889A8023E005212846FFF727
:1030F80061FD034618B3174A1068186012791A71EF
:10310800012416E0FFF7FEFE044612E0FFF7F4FE86
:1031180004460EE000F06EF804460AE000F0BEF83F
:10312800044606E0002404E0002402E0002400E055
:103138000024204670BD0024FBE70024F9E70024A2
:10314800F7E70024F5E70024F3E700BFE49F010850
:1031580004A001080CA0010870B58AB006460D4607
:1031680014462422002101A80CF090F823684FF49B
:1031780080709847034601904FF48072029206953A
:1031880094E807000AAD05E9070023B101A9304614
:10319800FFF758FF40B9019D1DB16368284698475D
:1031A800002528460AB070BD01A8FFF7A9FCA3684E
:1031B8004BB1039901310198984705460028EAD098
:1031C80000230193EDE723680398013098470546EB
:1031D8000028E0D0039A0132029B9A4228BF1A467F
:1031E8000199FDF76FFD039B0022EA54636801987B
:1031F8009847D6E770B58568002946D00C46012166
:103208002046FFF7D7FC002842D05B220270A36853
:103218000133A360E3680133E36007E0012616E0A9
:1032280000221A70A3683344A3602D68FDB12146BB
:103238002846FFF707FF034640B32046FFF760FC28
:103248002B68002BF1D06369002BE7D00226711C94
:103258002046FFF7AFFCE8B103462C2103F8011B19
:1032680061690029DCD0831C20214170D8E7022144
:103278002046FFF79FFC78B15D2202700022427061
:10328800E368013BE360012300E00023184670BDBA
:103298000023FBE70023F9E70023F7E770B585680B
:1032A800002900F0A3800C464B69A3B10226711CCB
:1032B8002046FFF77FFC002800F09B807B230370EB
:1032C800E3680133E36063690BB10A234370A368C1
:1032D8003344A36022E00126E9E7E1682046FFF7CE
:1032E80069FC0346002800F08680002203E00921DB
:1032F80003F8011B0132E1689142F8D8A368194428
:10330800A16010E001261CE0002637E0002339E028
:1033180000221A70A3683344A3602D68002D44D09E
:103328006369002BD9D12146286AFFF741FD03467E
:1033380000285CD02046FFF7E3FB6369002BE1D04F
:10334800022631462046FFF735FC002855D03A22A0
:10335800027062690AB109224270A3683344A3600B
:1033680021462846FFF76EFE034600283FD0204638
:10337800FFF7C6FB6369002BC6D001262B68002B1C
:10338800C4D001231E44711C2046FFF713FC0346DA
:10339800A8B32A6812B12C2203F8012B6269002A0B
:1033A800B6D00A2203F8012BB2E763698BB1E16852
:1033B80001312046FFF7FEFB034610B362699AB954
:1033C8007D221A7000225A70E368013BE3600123F2
:1033D8000DE00221EDE7092203F8012B0131E26833
:1033E800013A8A42F7D8EBE70021F8E700231846AC
:1033F80070BD0023FBE70023F9E70023F7E700236C
:10340800F5E70023F3E738B50446C8B10D46C9B15E
:1034180084680AB90AE024687CB1216A69B128463F
:10342800FDF772FB0028F6D107E024682CB1216A69
:103438002846FFF779F90028F7D12CB1236A2BB178
:10344800204638BD0C46FBE70024F9E70024F7E7DF
:1034580038B5044616E0E36813F4807F04D1206988
:1034680010B10F4B5B689847E36813F4007F04D1F1
:10347800206A10B10A4B5B689847094B5B68204685
:1034880098472C4654B12568E36813F4807FE2D14D
:10349800A0680028DFD0FFF7DBFFDCE738BD00BFFE
:1034A80004000020CB68B3F57A7F80F08B802DE98B
:1034B800F04106460C460133CB60002900F08480B9
:1034C8008B684A68934280F081800A68D25C7B2AC4
:1034D80002D00020BDE8F08101338B600846FFF779
:1034E800CFFAA3686268934203D22268D35C7D2B2B
:1034F80059D0A3686268934204D2013BA3600025B7
:103508002F4634E0013BA3600020E3E70746A368A9
:103518000133A3602046FFF7B3FA21462846FFF798
:1035280003FA002839D02046FFF7AAFA2B692B6244
:1035380000232B61A368626893422ED22268D25C72
:103548003A2A2AD10133A3602046FFF799FA214687
:10355800284600F03FF800B32046FFF791FAA36829
:103568006268934211D22268D35C2C2B0DD1A846F5
:1035780004F11000FFF771FB054670B1002FC5D0AC
:10358800C8F80000C0F80480C1E7A36862689342E5
:1035980003D22268D35C7D2B07D0CFB13846FFF722
:1035A80057FF002096E700252F46E368013BE360BC
:1035B80007B17D604023F360B760A3680133A3605F
:1035C800012087E700207047002083E7002081E77B
:1035D80000207FE700296AD02DE9F84380460D4690
:1035E8000F68002F65D08C6804F104094E68B14556
:1035F80005D80422314938190BF098FE50B3631DE1
:103608009E4205D305222E4938190BF08FFE48B388
:10361800B14505D804222B4938190BF087FE40B371
:10362800B44202D23B5D222B2DD0B44206D23B5D80
:103638002D2B2DD0303BDBB2092B29D9B44202D235
:103648003B5D5B2B29D0B44236D23B5D7B2B29D026
:1036580000202FE00423C8F80C30AB680433AB60BB
:10366800012027E00120C8F80C00AA680532AA60EA
:1036780020E00223C8F80C300120C8F81400AA681A
:103688000432AA6016E029464046FFF74DF911E0DA
:1036980029464046FFF70CFB0CE02946404600F05F
:1036A80013F807E029464046FFF7FCFE02E0002039
:1036B80070470020BDE8F8830020FBE7E49F01087D
:1036C80004A001080CA00108CB68B3F57A7F6DD27D
:1036D8002DE9F04106460C460133CB600A688B6839
:1036E800D25C5B2A02D00020BDE8F08101338B60F8
:1036F8000846FFF7C5F984B1A3686268934203D20C
:103708002268D35C5D2B42D0A3686268934204D2DE
:10371800013BA36000252F461CE0A368013BA36082
:103728000020E1E70746A3680133A3602046FFF7BE
:10373800A7F921462846FFF74DFF10B32046FFF7AB
:103748009FF9ACB1A3686268934211D22268D35C36
:103758002C2B0DD1A84604F11000FFF77EFA054680
:1037680078B1002FDED0C8F80000C0F80480DAE78E
:103778003CB1A3686268934203D22268D35C5D2B94
:1037880007D0AFB13846FFF763FE0020ACE700254D
:103798002F46E368013BE36007B17D602023F360B7
:1037A800B760A3680133A36001209DE7002070473C
:1037B800002099E7F0B58BB015461E460024039407
:1037C800049405940694079408940994294B1C6062
:1037D8005C60044600B1B9B9002C49D001940023BB
:1037E8000293059A049B9A423DD2029215B1029B1C
:1037F80023442B601F4B01AA92E8030083E80300CF
:10380800002738460BB0F0BD039004911A4B93E89B
:1038180007000AAF07E907001846FFF71EFA074630
:103828000028D9D003A8FFF725FAFFF729F90146A0
:103838003846FFF7CFFE90B136B9002DE1D0039B93
:10384800059A13442B60DCE703A8FFF719F9059BD9
:10385800049A934203D2039AD35C002BEDD03846E6
:10386800FFF7F6FDB8E7002BC0D0013B0293BDE798
:103878002746C6E7041000200400002070B504465F
:1038880048B10D4616460CF063F833462A46411CEB
:103898002046FFF78FFF70BD08B500221146FFF7DD
:1038A800EDFF08BD08B5024A0121FFF755FC08BD28
:1038B8000400002008B50122FFF7A5FD08BD00009F
:1038C80070B504460D461648FFF7C7F9064670B1AD
:1038D8000823C360C0E906450FA3D3E900232046A7
:1038E8002946FCF761FF20B16FF000437361304651
:1038F80070BD00220B4B20462946FCF74BFF18B140
:103908004FF000437361F2E720462946FCF776FF43
:103918007061ECE7AFF300800000C0FFFFFFDF41FC
:10392800040000200000E0C170B582B005460E46D4
:1039380010461946FFF7C4FF044600230093074BBF
:10394800024631462846FFF7FCF810B1204602B07F
:1039580070BD2046FFF77CFD0024F7E70400002037
:1039680038B504460A48FFF778F9054640B11023F0
:10397800C36007492046FFF7D0F80446286108B11C
:10398800284638BD2846FFF763FD2546F8E700BFFF
:103998000400002070B582B005460E461046FFF7B9
:1039A800DFFF044600230093074B024631462846B2
:1039B800FFF7C7F810B1204602B070BD2046FFF7E8
:1039C80047FD0024F7E700BF0400002008B50348BE
:1039D800FFF743F908B14023C36008BD0400002085
:1039E80028B1007B082814BF002001207047002060
:1039F800704728B1007B102814BF002001207047B1
:103A080000207047C8B130B583B014461D46B1B127
:103A1800BAB1C3B1009313460A460F490BF042FBF3
:103A2800032812D12368013B0B2B10D82B68013BCC
:103A38001E2B0ED8002003B030BDFF207047FF209A
:103A4800F9E7FF20F7E7FF20F5E7FD20F3E7FC2083
:103A5800F1E7FB20EFE700BF14A0010800B583B031
:103A6800009313460A4605490BF01CFB032803D0B4
:103A7800002003B05DF804FB0120FAE720A001084C
:103A880010B588B004463D490BF0FCFD10B13C4B25
:103A980001221A703B4920460BF0F4FD10B1384B57
:103AA80002221A70364B1B78012B09D0344B1B7835
:103AB800022B37D0214634480BF098F908B010BDD6
:103AC80032480BF0F3F932480BF0F0F905AB06AACF
:103AD80007A92046FFF796FF0146F8B9059B069A05
:103AE80007992C480BF082F9079A2B4981FB023180
:103AF800D317C3EB6113642101FB13238DF807303F
:103B08009DF818308DF805309DF814308DF8063082
:103B1800002201A9214802F069FEC7E720480BF0FE
:103B280065F9C3E71F480BF0C1F91F480BF0BEF950
:103B380002AB03AA04A92046FFF790FF014601281B
:103B480003D01A480BF052F9B4E7029B039A049980
:103B580017480BF04BF99DF810308DF800309DF8A0
:103B68000C308DF801309DF808308DF802300022B5
:103B780069460A4802F053FD9CE700BF2CA00108E3
:103B88000C10002034A0010820A301083CA0010863
:103B98005CA0010874A001081F85EB51DC08002017
:103BA80094A00108ACA00108D0A001080CA101084C
:103BB800E4A0010810B50446012804D0022C12D054
:103BC800102C20D010BD0121174800F063FF0128F8
:103BD800F4D10121144800F05DFF0128F9D0134BFE
:103BE80001221A70EAE702210F4800F053FF00286B
:103BF800E6D102210C4800F04DFF0028F9D00B4B0C
:103C080002221A70DCE71021074800F043FF002861
:103C1800D8D11021044800F03DFF0028F9D0034B0B
:103C280003221A70CEE700BF0008014058080020A0
:103C380070B5A0B04FF6FF70FEF74EF92E4B1B780B
:103C4800012B1AD04FF4784400944FF6FF732B4A97
:103C580000210846FEF7D4FA00944FF6FF73284A6D
:103C680000210846FEF7CCFA142000F081FA4FF63E
:103C7800FF70FEF731F920B070BD4FF4FC6400947A
:103C88004FF6FF731F4A00210846FEF7B9FA009461
:103C98004FF6FF731C4A19210020FEF7B1FA1B4E9C
:103CA800706DFCF7D9FE0546B06DFCF7D5FE2946C8
:103CB800FCF796FA4FF06A51FCF792FA4FF06A5106
:103CC800FCF78EFAFCF7A4FC02460B46104902A842
:103CD8000BF0C6F900944FF6FF7302AA31210020B9
:103CE800FEF78EFA00944FF6FF730A4A4921002026
:103CF800FEF786FAB8E700BFD40800206CA10108D7
:103D080080A1010824A1010838A10108F0080020B9
:103D18004CA101085CA1010810B58CB0194C002217
:103D28000BA9204602F0DCFC00220AA9204602F07A
:103D3800C7FD9DF82A3000939DF829309DF82B2067
:103D4800114902A80BF08CF91F2400944FF6FF7359
:103D580002AA00213C20FEF753FA9DF82E3000936A
:103D68009DF82D309DF82C20084902A80BF078F911
:103D780000944FF6FF7302AA19214820FEF740FA73
:103D88000CB010BDDC08002094A10108A8A101080E
:103D980008B5FFF7C1FF08BD30B585B0002203A9FB
:103DA800374802F08DFD102009F0D6FA05469DF837
:103DB8000E3000939DF80D309DF80F2031490BF01F
:103DC8004FF9FFF703FE04462A462F49FFF7E2FDA5
:103DD8002E4B1868FCF71CFC02460B462C49204663
:103DE800FFF7A2FD2B4A2C492046FFF7D3FD2B4AAB
:103DF8002B492046FFF7CEFD2046FFF753FD04462A
:103E08002849294808F025FF08BB28480BF04EF838
:103E180007222749244808F01DFA014658BB2548BF
:103E28000BF044F820460BF093FD024602AB214606
:103E38001D4808F0F6FBB0B11B4808F06EFD284697
:103E480009F092FA204609F08FFA05B030BD1548FE
:103E580008F04FFF18B918480BF028F8D8E71748AA
:103E68000BF024F8D4E716480BF020F82146154843
:103E78000AF0BCFFE0E714480AF0B8FFDFE700BF2C
:103E8800DC08002094A10108B8A101081000002056
:103E9800C0A10108C8A10108D0A10108DCA101083E
:103EA800E8A10108ECA1010820100020F4A10108F4
:103EB80044A2010858A2010808A2010828A2010882
:103EC80070A2010888A2010890A2010808B5012281
:103ED8000449054808F0BEF900B908BDFFF75CFFC2
:103EE8000120FAE744A201082010002070B582B032
:103EF800FFF7ECFF00285DD001225D495D4808F01E
:103F0800A9F900285AD15B4BD3F80C4221465A48EC
:103F18000AF06CFF574D2146284608F012FDD5F8E7
:103F280008620021284608F00CFD701C09F014FAFC
:103F3800044601AB32460146284608F07CFA0028C0
:103F480046D04C4808F0E9FC2046FFF7A5FC05469A
:103F5800002845D049492846FFF7ACFC064618B169
:103F6800FFF747FD002842D145480AF09FFF454921
:103F78002846FFF79FFC064600283FD0FFF730FD94
:103F880000283BD073693BB100220023D6E9060123
:103F9800FCF7ECFB002831D1D6E90601FCF756FC0A
:103FA800394B1860FCF734FB02460B4637480AF0D9
:103FB8001DFF29E036480AF079FF9DE735480AF0E9
:103FC80075FF2C4BD3F80C4233480AF06FFF9DE77E
:103FD800019B0022E254214630480AF007FFB0E76F
:103FE8002F480AF063FF204609F0BEF9B2E73169AD
:103FF8002C4B19602C480AF0F9FEB8E72B480AF058
:1040080055FF214B2A4A1A602A492846FFF752FCD5
:10401800064610B1FFF7EDFCE0B927480AF046FF65
:10402800264B274A1A6027492846FFF743FC0646CD
:1040380010B1FFF7DEFCA0B923480AF037FF234B85
:10404800234A1A602846FFF703FA204609F08CF93C
:1040580002B070BD3169194B19601E480AF0C6FEDE
:10406800E1E73169194B19601B480AF0BFFEE9E71F
:1040780044A2010820100020F8A20108B8A10108F4
:1040880044A30108C0A101081000002054A301089E
:10409800ACA20108C0A20108E0A2010814A301080B
:1040A80024A301081810002038A3010864A30108FC
:1040B80000004040D0A1010884A30108141000208A
:1040C800C8A10108E8A10108A4A301081010002054
:1040D800DCA1010874A3010898A3010810B50446DF
:1040E8000E4B1A784FF47A73B3FBF2F30C4A10684C
:1040F800B0FBF3F000F0B4F868B90F2C01D9012037
:104108000AE0002221464FF0FF3000F08BF8054B03
:104118001C60002000E0012010BD00BF140000203A
:10412800000000201800002008B5074A136843F073
:1041380010031360032000F063F80020FFF7CEFFA0
:10414800FDF78EFC002008BD00200240034A1168DC
:10415800034B1B780B441360704700BF1C100020F2
:1041680014000020014B1868704700BF1C10002085
:1041780038B50446FFF7F6FF0546B4F1FF3F02D015
:10418800044B1B781C44FFF7EDFF401BA042FAD3F9
:1041980038BD00BF14000020002808DB0901C9B29F
:1041A80000F1604000F5614080F80013704700F0AE
:1041B8000F000901C9B2014B1954704714ED00E012
:1041C80000B500F00700C0F1070CBCF1040F28BFD0
:1041D8004FF0040C031D062B0FD9C31E4FF0FF3EF2
:1041E8000EFA0CF021EA000199400EFA03FE22EAC9
:1041F8000E0241EA02005DF804FB0023EEE700002E
:10420800074AD36823F4E0631B041B0C000200F484
:10421800E060034343F0BF6343F40033D360704767
:1042280000ED00E010B50446054BD868C0F3022045
:10423800FFF7C6FF01462046FFF7AEFF10BD00BFDF
:1042480000ED00E0002807DB00F01F024009012311
:104258009340024A42F82030704700BF00E100E076
:104268000138B0F1807F0BD24FF0E0235861054A46
:10427800F02182F823100020986107221A61704704
:104288000120704700ED00E030B40124056CAC401B
:10429800C56B6C60046863604368102B05D00368C5
:1042A80099600368DA6030BC704703689A600368F5
:1042B800D960F8E7002838D010B4024601681C4BD2
:1042C800994227D81B4B0B441B48A0FB03031B092F
:1042D8009B001364194BD363022382F821300868CA
:1042E8006FF30D10536894682343D468234314690B
:1042F80023435469234394692343D46923430343E1
:104308000B6000209063012382F8213082F820009E
:1043180010BC70470A4B0B440748A0FB03031B095A
:104328009B001364074BD363D6E70120704700BF97
:1043380007040240F8FFFDBFCDCCCCCC0000024002
:10434800F8FBFDBF0004024038B5044690F8200091
:10435800012832D0012084F8200094F82100C0B24E
:10436800012804D0002384F82030022038BD022020
:1043780084F821000020A0632568286820F0010047
:1043880028602046FFF780FFE36A5BB12268136864
:1043980043F00E0313602268136843F001031360AF
:1043A8000020E3E72268136823F0040313602268FF
:1043B800136843F00A031360EDE70220D6E70346CB
:1043C80090F82120D2B2022A06D004228263002269
:1043D80080F820200120704701680A6822F00E0248
:1043E8000A6001680A6822F001020A60026CC06B68
:1043F800012101FA02F2426083F82110002083F8BB
:104408002000704708B590F82130DBB2022B03D0AA
:1044180004238363012008BD0268136823F00E0398
:1044280013600268136823F00103136003684C4AA1
:1044380093424ED9783A934224D01432934230D0E2
:10444800143293422FD0143293422FD01432934215
:104458002FD0143293422FD0143293422FD002F52A
:10446800627293422ED0143293422DD0143293426A
:104478002CD01432934202D04FF4803203E04FF430
:10448800805200E00122374B5A60012380F8213026
:10449800002380F82030436B002B5ED09847002023
:1044A800B9E71022EFE74FF48072ECE74FF480523F
:1044B800E9E74FF48032E6E74FF48012E3E74FF084
:1044C8008072E0E70122DEE71022DCE74FF4807219
:1044D800D9E7254A934224D01432934225D0143286
:1044E800934224D01432934224D01432934224D0DD
:1044F8001432934224D01432934224D002F56272CB
:10450800934223D01432934222D01432934221D0C2
:104518001432934202D04FF4803203E04FF48052B9
:1045280000E00122114B5A60AFE71022FAE74FF47E
:104538008072F7E74FF48052F4E74FF48032F1E7E6
:104548004FF48012EEE74FF08072EBE70122E9E7C3
:104558001022E7E74FF48072E4E700205BE700BF32
:1045680080000240000402400800024000000240AF
:1045780038B5C36B1A6804682568016C04238B403E
:10458800134200F09B8015F0040F00F09780236819
:1045980013F0200F03D1236823F00403236003687A
:1045A8009A4A934246D9783A934224D01432934295
:1045B80028D01432934227D01432934227D0143291
:1045C800934227D01432934227D01432934227D0F3
:1045D80002F56272934226D01432934225D01432E7
:1045E800934224D01432934202D04FF4802203E045
:1045F8004FF4804200E00422854B5A60C36A03B13D
:10460800984738BD4022F7E74FF48062F4E74FF44B
:104618008042F1E74FF48022EEE74FF48002EBE7A7
:104628004FF08062E8E70422E6E74022E4E74FF42F
:104638008062E1E7774A934224D01432934225D02E
:104648001432934224D01432934224D01432934229
:1046580024D01432934224D01432934224D002F549
:104668006272934223D01432934222D0143293427E
:1046780021D01432934202D04FF4802203E04FF449
:10468800804200E00422644B5A60B7E74022FAE710
:104698004FF48062F7E74FF48042F4E74FF480224A
:1046A800F1E74FF48002EEE74FF08062EBE7042277
:1046B800E9E74022E7E74FF48062E4E702238B4012
:1046C800134200F0AB8015F0020F00F0A7802368BA
:1046D80013F0200F06D1236823F00A032360012377
:1046E80080F821300368494A93424BD9783A93427B
:1046F80024D0143293422DD0143293422CD0143249
:1047080093422CD0143293422CD0143293422CD0A2
:10471800143293422CD002F5627293422BD0143299
:1047280093422AD01432934229D01432934202D0B1
:104738004FF4003203E04FF4005200E00222344B01
:104748005A60002380F82030836A002B3FF459AF69
:10475800984756E72022F2E74FF40072EFE74FF44C
:104768000052ECE74FF40032E9E74FF40012E6E7B5
:104778004FF00072E3E70222E1E72022DFE74FF47F
:104788000072DCE7234A934224D01432934225D0A6
:104798001432934224D01432934224D014329342D8
:1047A80024D01432934224D01432934224D002F5F8
:1047B8006272934223D01432934222D0143293422D
:1047C80021D01432934202D04FF4003203E04FF468
:1047D800005200E00222104B5A60B2E72022FAE7AA
:1047E8004FF40072F7E74FF40052F4E74FF4003249
:1047F800F1E74FF40012EEE74FF00072EBE7022208
:10480800E9E72022E7E74FF40072E4E7800002407E
:1048180000040240080002400000024008238B40C8
:1048280013423FF4EEAE15F0080F3FF4EAAE2368EA
:1048380023F00E032360026CC16B012303FA02F21A
:104848004A60836380F82130002380F82030036BAE
:10485800002B3FF4D6AE9847D3E600BF70B582B0C0
:104868000024A446ABE0854DAB4214D00CD8A5F586
:104878008015AB420FD005F57025AB420BD0A5F5DE
:104888008015AB4210D106E07D4DAB4203D005F553
:104898008035AB4208D18B68002B5AD0012B53D0FE
:1048A8004261082400E0CC68BEF1FF0F53D80646E9
:1048B8004FEA8C0233680F25954023EA050304FA72
:1048C80002F2134333604B6813F0805F75D06D4B71
:1048D8009A6942F001029A619B6903F0010301930E
:1048E800019B4FEA9C02951C674B53F825600CF01E
:1048F8000305AD000F23AB4026EA0306634B98423D
:1049080030D003F58063984200F0968003F5806309
:10491800984200F0938003F58063984200F09080FD
:1049280003F58063984200F08D8003F58063984218
:1049380016D0062317E0CC680434B5E7CC680834F1
:10494800B2E7CC680C34AFE702610824ACE7002476
:10495800AAE70424A8E7061DACF108029200A9E71B
:10496800052300E00023AB4033430232464D45F8AF
:1049780022304B6813F4801F66D0454A936843EA97
:104988000E0393604B6813F4001F63D0404AD3684A
:1049980043EA0E03D3604B6813F4003F60D03C4AEF
:1049A800536843EA0E0353604B6813F4803F5DD0AD
:1049B800374A136843EA0E0313600CF1010C0B68C5
:1049C80033FA0CF258D0012202FA0CF203EA020E72
:1049D80032EA0303F1D14B68122B3FF644AF122B96
:1049E8003FF662AF01A555F823F000BF9F480008C5
:1049F800AF4800084549000857490008B148000871
:104A0800B1480008B1480008B1480008B14800089A
:104A1800B1480008B1480008B1480008B14800088A
:104A2800B1480008B1480008B1480008B14800087A
:104A38003F4900084B490008012394E7022392E705
:104A4800032390E704238EE7114A936823EA0E03B1
:104A5800936097E70E4AD36823EA0E03D3609AE778
:104A68000B4A536823EA0E0353609DE7084A13680C
:104A780023EA0E031360A0E702B070BD0000221005
:104A88000000311000100240000001400008014001
:104A9800000401408368194201D0012070470020BA
:104AA80070470AB10161704709040161704700004D
:104AB80008B5054B5B69034200D108BD024B58613C
:104AC800FFF778F8F9E700BF0004014038B512F4A1
:104AD800804F44D00468B4F850309BB291F800C0BD
:104AE80003EBCC03023304EB4304B4F80044C4F3EF
:104AF80009048B69A34228D31B1B8B618B697BB983
:104B0800056835F82C309BB223F4804323F07003FA
:104B180083F4005343F4004343F0800325F82C301A
:104B280012F0400F0ED002680D7832F825309BB293
:104B380023F4E04323F0700343F4004343F0C0033D
:104B480022F8253024B9204638BD00238B61D5E7EB
:104B580023460A894969006804F00AFFF3E70468F4
:104B6800B4F850309BB291F800C003EBCC03063385
:104B780004EB4304B4F80044C4F309048B69A3426A
:104B88002FD31B1B8B618B697BB9056835F82C30DB
:104B98009BB223F4804323F0700383F4005343F45F
:104BA800004343F0800325F82C3012F0400F0FD15A
:104BB800026891F800C032F82C309BB223F4E0432D
:104BC80023F0700343F4004343F0C00322F82C3071
:104BD800002CB8D023464A894969006804F0C8FE09
:104BE800B1E700238B61CEE770B586B0002800F0EE
:104BF8008180044690F8A932EBB1032384F8A932E6
:104C0800206803F044FF254655F8106BEC460FCD9D
:104C1800ACE80F002B68CCF80030231D0ECB3046D3
:104C280003F025FF054658B1022384F8A93201256F
:104C3800284606B070BD80F8A83208F077FADCE79D
:104C48000021206803F02DFF2B4616E05A1C02EBCA
:104C5800820104EBC1010120487002EB820104F8D3
:104C6800313004EBC1000021C17003EB830004EB79
:104C7800C0008163C1630164D3B261688B42E5D32C
:104C880016E005EB850304EBC303002283F86921D2
:104C980083F8685183F86B21C3F87821C3F87C2125
:104CA80005EB850304EBC303C3F880210135EDB29E
:104CB800A942E6D8254655F8106BEC460FCDACE86E
:104CC8000F002B68CCF80030231D0ECB304603F0C4
:104CD800EAFE054620B1022384F8A9320125A7E798
:104CE800002384F82430012384F8A932206804F0D2
:104CF8003DFA9DE701259BE738B590F8A832012BCE
:104D080011D00446012580F8A852006803F0B6FEC9
:104D18002946204608F01FFB206804F025FA0020E9
:104D280084F8A80238BD0220FCE770B505460C4699
:104D3800164612F0400F00F00E810268B2F85030AB
:104D48009BB2097803EBC103023302EB4302B2F8CA
:104D58000024C2F30902A36993424ED99B1AA361A6
:104D6800A369002B66D16378002B49D12B68B3F86F
:104D7800502092B2134403EB0113B3F80424C2F396
:104D88000902A3F80424B3F804246FEA42426FEA44
:104D9800524292B2A3F804242B686278002A3CD1CC
:104DA800B3F8502092B21344227803EB0213B3F8FD
:104DB8000C24C2F30902A3F80C24B3F80C246FEAFC
:104DC80042426FEA524292B2A3F80C242178284654
:104DD80008F0E0F916F4804F41D02A68217832F8BB
:104DE80021309BB223F4E04323F0700343F44043A3
:104DF80043F0800322F8213031E00023A361AFE7BC
:104E0800012BC9D12B68B3F8502092B2134403EB9D
:104E180001130022A3F80424BEE7012AD6D1B3F86F
:104E2800502092B21344227803EB02130022A3F815
:104E38000C24CBE716F4804F0DD0286830F82130C9
:104E48009BB223F4E04323F0700343F4404343F060
:104E5800800320F8213094F82430012B12D02A68DE
:104E6800217832F821309BB223F4E04323F0400349
:104E780083F0300343F4004343F0800322F82130E9
:104E8800002070BD636913446361E3691344E361FF
:104E9800216A2369994224D3C91A21626278002AB7
:104EA80044D12A68B2F8501089B20A44217802EB3A
:104EB8000112B2F80414C1F30901A2F804143E2B3C
:104EC8001BD9580913F01F0F00D10138B2F8041488
:104ED80089B2800280B2014341F40041A2F804146F
:104EE80026E021B9002384F824301346D6E70023AE
:104EF80084F8243023620B46D0E74BB9B2F8041487
:104F08006FEA41416FEA514189B2A2F804140FE0F7
:104F1800590813F0010F00D00131B2F8040480B22F
:104F2800890289B20143A2F8041401E0012A06D0DB
:104F38009BB222896169286804F020F98FE72A6802
:104F4800B2F8501089B20A44217802EB011299B2E2
:104F5800A2F80414ECE70268B2F850309BB2097862
:104F680003EBC103063302EB4302B2F80024C2F399
:104F78000902A36993424FD39B1AA361A369002B2B
:104F880067D16378002B4AD12B68B3F8502092B2CE
:104F9800134403EB0113B3F80424C2F30902A3F882
:104FA8000424B3F804246FEA42426FEA524292B2F0
:104FB800A3F804242B686278002A3DD1B3F8502066
:104FC80092B21344227803EB0213B3F80C24C2F311
:104FD8000902A3F80C24B3F80C246FEA42426FEAE2
:104FE800524292B2A3F80C242178284608F0D2F84D
:104FF80016F4804F7FF433AF2A68217832F82130D5
:105008009BB223F4E04323F0700343F4404343F09E
:10501800800322F8213022E70023A361AEE7012BA9
:10502800C8D12B68B3F8502092B2134403EB011394
:105038000022A3F80424BDE7012AD5D1B3F85020F3
:1050480092B21344227803EB02130022A3F80C2433
:10505800CAE716F4804F0DD1286830F821309BB28A
:1050680023F4E04323F0700343F4404343F0800308
:1050780020F8213094F82430012B7FF4F0AE6369D6
:1050880013446361E3691344E361216A2369994224
:1050980024D3C91A21622A686178002943D1B2F859
:1050A800501089B20A44217802EB0112B2F80C14AC
:1050B800C1F30901A2F80C143E2B1BD9580913F0AF
:1050C8001F0F00D10138B2F80C1489B2800280B2E7
:1050D800014341F40041A2F80C1426E021B9002351
:1050E80084F824301346D6E70023236284F824305A
:1050F8000B46D0E74BB9B2F80C146FEA41416FEA9E
:10510800514189B2A2F80C140FE0590813F0010FAD
:1051180000D00131B2F80C0480B2890289B201438F
:10512800A2F80C1401E0012906D09BB262896169DA
:10513800286804F023F892E6B2F8501089B20A44BD
:10514800217802EB011299B2A2F80C14EDE72DE9CF
:10515800F04105462868B0F8443013F4004F00F0D9
:105168009282B0F84440A3B214F00F0440F0E280F9
:1051780013F0100F6BD003889AB213F4006F40F04D
:105188009D8012F4004FE5D0038823F070031B05BF
:105198001B0D43F0800303802868B0F850309BB2A1
:1051A80095F8682103EBC203063300EB4303B3F819
:1051B8000034C3F30903C5F884318BB1D5F87C11E9
:1051C80071B1B5F86E2104F0D3FBD5F87C31D5F870
:1051D80084211344C5F87C310021284607F0CEFF0E
:1051E8002A68138899B213F4006FB3D101F44051BF
:1051F800B1F5405FAED0B2F850309BB21A44B2F865
:105208000C34C3F30903A2F80C34D5F878313E2BDB
:1052180077D9590913F01F0F00D10139B2F80C34AE
:105228009BB2890289B20B4343F40043A2F80C34C1
:105238002A6813889BB223F4804323F0700383F415
:10524800405343F4004343F08003138082E703880C
:105258009BB223F4E14323F070036FEA43436FEA00
:1052680053439BB203802A68B2F850309BB295F83A
:10527800281003EBC103023302EB4302B2F80034F7
:10528800C3F309036B64EA6B1A44EA6300212846F6
:1052980007F080FF95F82430002B3FF45BAF2B6CB0
:1052A800002B7FF457AF95F824302A6843F0800329
:1052B800A2F84C30002385F824304BE7B0F8503082
:1052C8009BB295F8682103EBC203063300EB430356
:1052D800B3F80034C3F30903C5F88431B5F86E2177
:1052E80005F52C7104F044FB2A68138823F0700339
:1052F8001B051B0D43F080031380284607F036FF7B
:1053080028E74BB9B2F80C346FEA43436FEA5343CA
:105318009BB2A2F80C348BE7590813F0010F00D0A8
:105328000131B2F80C3498B28B029BB20343A2F855
:105338000C347DE730F824309EB213F4004F4CD182
:1053480016F0800F3FF406AF621C02EB820105EBFA
:10535800C101286830F824309BB223F4E14323F0DC
:1053680070036FEA43436FEA53439BB220F824303B
:10537800CB78012B00F0F28016F4807F40F07E811C
:105388002868B0F850309BB2621C02EB820215F814
:10539800326003EBC603023300EB4303B3F8003477
:1053A800C3F3090304EB840205EBC202126C9A42B0
:1053B80040F24C8104EB840705EBC707D21A3A6424
:1053C80004EB840205EBC202126C002A40F045810E
:1053D8003146284607F0DEFEBCE630F8243023F0DC
:1053E80070031B051B0D43F0800320F8243004EBE9
:1053F8008401C90001F5B47105EB010804EB8403CD
:1054080005EBC30393F87431002B42D12868B0F838
:1054180050309BB204EB840205EBC20292F868217B
:1054280003EBC203063300EB4303B3F80074C7F37E
:10543800090717BB04EB840305EBC303D3F88421E6
:105448003A44C3F88421D3F87C213A44C3F87C2138
:10545800D3F880313BB104EB840305EBC303D3F8E5
:1054680078319F4275D204EB840305EBC30393F8AC
:105478006811284607F082FE62E704EB840105EB19
:10548800C1013B46B1F86E21D1F87C1104F070FAE5
:10549800D0E704EB840305EBC30393F86B31022BCD
:1054A80035D0296804EB840205EBC20292F8680142
:1054B80031F820309BB223F4E04323F0700343F427
:1054C800004343F0C00321F82030286892F868218F
:1054D80030F8223013F4804F20D0B0F850309BB20F
:1054E80003EBC203023300EB4303B3F80074C7F3C2
:1054F8000907002F9ED004EB840105EBC1013B4650
:10550800B1F87021D1F87C1104F032FA92E73246F2
:1055180041462846FFF7DAFA07468BE7B0F85030DD
:105528009BB203EBC203063300EB4303B3F80074EA
:10553800C7F30907002F3FF47DAF04EB840105EBA7
:10554800C1013B46B1F87221D1F87C1104F010FA80
:1055580070E74146286803F024FEF1E604EB840373
:1055680005EBC30300221A6493F83430FBB116F03C
:10557800400F37D04B781BBB2B68B3F8502092B242
:105588001344621C02EB820215F8322003EB02136B
:10559800B3F80424C2F30902A3F80424B3F80424DA
:1055A8006FEA42426FEA524292B2A3F804240134ED
:1055B80004EB840415F83410284607F0EBFDC9E520
:1055C800012BF4D12B68B3F8502092B21344621C1B
:1055D80002EB820215F8322003EB02130022A3F833
:1055E8000424E4E72A68631C03EB830305EBC30385
:1055F8005B78D3B9B2F850309BB21344621C02EB0B
:10560800820215F8322003EB0213B3F80C24C2F31C
:105618000902A3F80C24B3F80C246FEA42426FEA9B
:10562800524292B2A3F80C24C1E7012BBFD1B2F8C1
:1056380050309BB21344621C02EB820215F83220F0
:1056480003EB02130022A3F80C24B0E704EB840256
:1056580005EBC20200271764B2E604EB840205EBEF
:10566800C202D66B1E44D663526C04EB840405EB6D
:10567800C4041344636403F094FD6BE53246284682
:10568800FFF753FB66E50020BDE8F08190F8A832EB
:10569800012B0DD010B50446012380F8A83280F8FC
:1056A8002410006803F05AFD002084F8A80210BDF9
:1056B8000220704710B584B00446006803F058FD16
:1056C80010F4004F20D110F4806F21D110F4804FD6
:1056D8002FD110F4005F37D110F4805F3ED110F461
:1056E800006F40F0878010F4007F40F0AE8010F427
:1056F800807F27D02268B2F844309BB223F48073AD
:105708009BB2A2F844301DE02046FFF720FD19E0C7
:105718002268B2F844309BB223F480639BB2A2F8AB
:105728004430204607F047FD00212046FFF7AEFF32
:1057380008E02268B2F844309BB223F480439BB25D
:10574800A2F8443004B010BD2268B2F844309BB2CD
:1057580023F400539BB2A2F84430F3E72268B2F86E
:1057680040309BB223F004039BB2A2F84030226879
:10577800B2F840309BB223F008039BB2A2F8403045
:10578800204607F03BFD2268B2F844309BB223F470
:1057980080539BB2A2F84430D4E7226832F8231031
:1057A80004AA02EB430222F8101C0133DBB2072BD8
:1057B800F3D92268B2F840309BB243F00103A2F853
:1057C80040302268B2F840309BB223F001039BB20C
:1057D800A2F840302368B3F8442012F4806FF9D05F
:1057E800B3F8442092B222F4806292B2A3F8442023
:1057F80000230BE00023DAE7226804A901EB430148
:1058080031F8101C22F823100133DBB2072BF3D92F
:105818002268B2F840309BB243F00803A2F8403047
:105828002268B2F844309BB223F400639BB2A2F81A
:1058380044302268B2F840309BB243F00403A2F827
:105848004030204607F0CAFC7CE72268B2F84430B2
:105858009BB223F400739BB2A2F84430204607F0B1
:10586800A4FC6FE710B50446084611F0800F25D157
:1058780001F0070C0CEB8C01C90001F5B47E04EBB8
:105888000E010CEB8C0C04EBCC0C4FF0000E8CF8DA
:1058980069E100F0070008700A61CB70022B1AD08A
:1058A80094F8A832012B19D0012384F8A832206873
:1058B80003F00EF9002084F8A80210BD01F0070CCF
:1058C8000CF1010C0CEB8C0104EBC1014FF0010E43
:1058D80081F801E0DDE700230B71E1E70220ECE746
:1058E80010B504460B4611F0800F1FD101F00702D6
:1058F80002EB8201C90001F5B471014402EB820296
:1059080000EBC202002082F8690103F007030B7064
:1059180094F8A832012B13D0012384F8A832206808
:1059280003F0BBFA002084F8A80210BD01F00702BA
:10593800013202EB820100EBC10101204870E4E76B
:105948000220F2E710B501F0070C0CEB8C01C9003E
:1059580001F5B4710CEB8C0E00EBCE0ECEF87C2169
:10596800CEF880310024CEF884418EF869418EF853
:1059780068C10144006803F014FC204610BD01F022
:10598800070101EB810100EBC100D0F884017047E9
:1059980038B501F0070404F1010C0CEB8C0104EBA1
:1059A800840E00EBCE0ECEF83C20CEF8403001221B
:1059B8008EF84C20CEF848300025CEF8445000EB45
:1059C800C1035A7000F831401946006803F0E9FB3A
:1059D800284638BD38B501F007054268954231D8E8
:1059E80004460B4611F0800F1ED101EB8101C9005E
:1059F80001F5B471014403EB830300EBC3030022F8
:105A080083F8692101238B700D7094F8A832012B5B
:105A18001AD0012384F8A832206803F029FB5DB16D
:105A2800002084F8A80238BD6B1C03EB830100EB4F
:105A3800C10101224A70E5E704F52C71206803F0E2
:105A48009BFBEDE70120EEE70220ECE70B4601F0B7
:105A58000F014268914230D810B5044613F0800F08
:105A680021D103F0070202EB8201C90001F5B471EC
:105A7800014402EB820200EBC202002082F86901B5
:105A880000228A7003F007030B7094F8A832012BE8
:105A980015D0012384F8A832206803F00EFB0020FB
:105AA80084F8A80210BD03F00702013202EB82015C
:105AB80000EBC10101204870E2E701207047022095
:105AC800F0E790F8A832012B14D010B50446012352
