:020000040800F2
:1000000000000120F5220008D1160008D3160008D0
:10001000D5160008D7160008D91600080000000001
:10002000000000000000000000000000DB160008D7
:10003000DD16000800000000DF160008E1160008C9
:100040003D2300083D2300083D230008E916000871
:100050003D230008F9160008FB16000805170008E4
:100060003D2300083D2300080F1700083D2300082A
:100070003D2300083D2300083D2300081917000810
:100080003D2300083D2300083D2300083D230008D0
:10009000291700083D2300083D2300083D230008E0
:1000A0003D2300083D2300083D2300083D230008B0
:1000B0003D2300083D230008391700083D230008B0
:1000C0003D2300083D2300083D2300083D23000890
:1000D0003D230008491700083D2300085917000870
:1000E0003D230008691700083D2300083D23000850
:1000F0003D2300083D2300083D2300083D23000860
:100100003D2300083D2300083D2300083D2300084F
:100110003D2300083D2300083D2300083D2300083F
:100120003D2300083D2300083D2300083D2300082F
:1001300000000000000000000000000000000000BF
:1001400000000000000000000000000000000000AF
:10015000000000000000000000000000000000009F
:10016000000000000000000000000000000000008F
:10017000000000000000000000000000000000007F
:10018000000000000000000000000000000000006F
:10019000000000000000000000000000000000005F
:1001A000000000000000000000000000000000004F
:1001B000000000000000000000000000000000003F
:1001C000000000000000000000000000000000002F
:1001D000000000000000000000000000000000001F
:0401E0005FF8E0F1F3
:1001E8004FF0FF0C1CEAD0521EBF1CEAD15392EA12
:1001F8000C0F93EA0C0F6FD01A4480EA010C4002EE
:1002080018BF5FEA41211ED04FF0006343EA501047
:1002180043EA5111A0FB01310CF00040B1F5000F89
:100228003EBF490041EAD3715B0040EA010062F138
:100238007F02FD2A1DD8B3F1004F40EBC25008BF22
:1002480020F00100704790F0000F0CF0004C08BF40
:1002580049024CEA502040EA51207F3AC2BFD2F10D
:10026800FF0340EAC250704740F400004FF000031B
:10027800013A5DDC12F1190FDCBF00F00040704755
:10028800C2F10002410021FA02F1C2F1200200FA93
:1002980002FC5FEA310040F1000053EA4C0308BF5A
:1002A80020EADC70704792F0000F00F0004C02BFAB
:1002B800400010F4000F013AF9D040EA0C0093F026
:1002C800000F01F0004C02BF490011F4000F013B80
:1002D800F9D041EA0C018FE70CEAD15392EA0C0FEE
:1002E80018BF93EA0C0F0AD030F0004C18BF31F059
:1002F800004CD8D180EA010000F00040704790F02F
:10030800000F17BF90F0004F084691F0000F91F0D2
:10031800004F14D092EA0C0F01D142020FD193EA98
:100328000C0F03D14B0218BF084608D180EA010020
:1003380000F0004040F0FE4040F40000704740F0FC
:10034800FE4040F44000704781F0004102E000BFE9
:1003580083F0004330B54FEA41044FEA430594EA7D
:10036800050F08BF90EA020F1FBF54EA000C55EAB8
:10037800020C7FEA645C7FEA655C00F0E2804FEA89
:100388005454D4EB5555B8BF6D420CDD2C4480EA6B
:10039800020281EA030382EA000083EA010180EA9B
:1003A800020281EA0303362D88BF30BD11F0004FE9
:1003B8004FEA01314FF4801C4CEA113102D040421F
:1003C80061EB410113F0004F4FEA03334CEA13335A
:1003D80002D0524263EB430394EA050F00F0A78072
:1003E800A4F10104D5F1200E0DDB02FA0EFC22FA6D
:1003F80005F2801841F1000103FA0EF2801843FA61
:1004080005F359410EE0A5F120050EF1200E012A51
:1004180003FA0EFC28BF4CF0020C43FA05F3C0188F
:1004280051EBE37101F0004507D54FF0000EDCF108
:10043800000C7EEB00006EEB0101B1F5801F1BD3B1
:10044800B1F5001F0CD349085FEA30004FEA3C0CB5
:1004580004F101044FEA445212F5800F80F09A80AB
:10046800BCF1004F08BF5FEA500C50F1000041EBAF
:10047800045141EA050130BD5FEA4C0C404141EBB3
:100488000101013C28BFB1F5801FE9D291F0000FAE
:1004980004BF01460020B1FA81F308BF2033A3F15D
:1004A8000B03B3F120020CDA0C3208DD02F1140C54
:1004B800C2F10C0201FA0CF021FA02F10CE002F18F
:1004C8001402D8BFC2F1200C01FA02F120FA0CFC88
:1004D800DCBF41EA0C019040E41AA2BF01EB0451D1
:1004E800294330BD6FEA04041F3C1CDA0C340EDCCF
:1004F80004F11404C4F1200220FA04F001FA02F312
:1005080040EA030021FA04F345EA030130BDC4F1CF
:100518000C04C4F1200220FA02F001FA04F340EAC4
:100528000300294630BD21FA04F0294630BD94F075
:10053800000F83F4801306BF81F480110134013D5C
:100548004EE77FEA645C18BF7FEA655C29D094EACD
:10055800050F08BF90EA020F05D054EA000C04BF4B
:100568001946104630BD91EA030F1EBF0021002036
:1005780030BD5FEA545C05D14000494128BF41F0D5
:10058800004130BD14F580043CBF01F5801130BD39
:1005980001F0004545F0FE4141F470014FF00000C4
:1005A80030BD7FEA645C1ABF194610467FEA655C75
:1005B8001CBF0B46024650EA013406BF52EA033517
:1005C80091EA030F41F4002130BD00BF90F0000F05
:1005D80004BF0021704730B54FF4806404F1320441
:1005E8004FF000054FF0000150E700BF90F0000FFA
:1005F80004BF0021704730B54FF4806404F1320421
:1006080010F0004548BF40424FF000013EE700BFF0
:1006180042004FEAE2014FEA31014FEA02701FBF80
:1006280012F07F4393F07F4F81F06051704732F0B2
:100638007F4208BF704793F07F4F04BF41F4002109
:10064800704730B54FF4607401F0004521F0004167
:100658001CE700BF50EA010208BF704730B54FF0F1
:1006680000050AE050EA010208BF704730B511F0F2
:10067800004502D5404261EB41014FF4806404F12A
:1006880032045FEA915C3FF4D8AE4FF003025FEAB0
:10069800DC0C18BF03325FEADC0C18BF033202EB34
:1006A800DC02C2F1200300FA03FC20FA02F001FA8E
:1006B80003FE40EA0E0021FA02F11444BDE600BF31
:1006C80080F0004002E000BF81F0004142001FBFFF
:1006D8005FEA410392EA030F7FEA226C7FEA236C08
:1006E8006AD04FEA1262D2EB1363C1BFD2184140FD
:1006F80048404140B8BF5B42192B88BF704710F093
:10070800004F40F4000020F07F4018BF404211F035
:10071800004F41F4000121F07F4118BF494292EA9D
:10072800030F3FD0A2F1010241FA03FC10EB0C00C9
:10073800C3F1200301FA03F100F0004302D5494256
:1007480060EB4000B0F5000F13D3B0F1807F06D303
:1007580040084FEA310102F10102FE2A51D2B1F1FB
:10076800004F40EBC25008BF20F0010040EA0300F0
:100778007047490040EB0000013A28BFB0F5000F70
:10078800EDD2B0FA80FCACF1080CB2EB0C0200FA26
:100798000CF0AABF00EBC25052421843BCBFD04075
:1007A8001843704792F0000F81F4000106BF80F4EF
:1007B80000000132013BB5E74FEA41037FEA226CB2
:1007C80018BF7FEA236C21D092EA030F04D092F07D
:1007D800000F08BF0846704790EA010F1CBF0020B1
:1007E800704712F07F4F04D1400028BF40F000400E
:1007F800704712F100723CBF00F50000704700F02E
:10080800004343F0FE4040F4000070477FEA226254
:1008180016BF08467FEA23630146420206BF5FEA25
:10082800412390EA010F40F4800070474FF0000325
:1008380004E000BF10F0004348BF40425FEA000CEC
:1008480008BF704743F0964301464FF000001CE094
:1008580050EA010208BF70474FF000030AE000BFEA
:1008680050EA010208BF704711F0004302D5404228
:1008780061EB41015FEA010C02BF8446014600209A
:1008880043F0B64308BFA3F18053A3F50003BCFAB5
:100898008CF2083AA3EBC25310DB01FA02FC634462
:1008A80000FA02FCC2F12002BCF1004F20FA02F269
:1008B80043EB020008BF20F00100704702F120025C
:1008C80001FA02FCC2F1200250EA4C0021FA02F2BD
:1008D80043EB020008BF20EADC707047844641EA17
:1008E800000313F0030349D1403A23D30B68036094
:1008F8004B6843608B688360CB68C3600B69036196
:100908004B6943618B698361CB69C3610B6A03627D
:100918004B6A43628B6A8362CB6AC3620B6B036365
:100928004B6B43638B6B8363CB6BC363403040314A
:10093800403ADBD230320BD30B6803604B6843601C
:100948008B688360CB68C36010301031103AF3D2E3
:100958000C3205D351F8043B40F8043B043AF9D271
:10096800043208D0D2071CBF11F8013B00F8013B44
:1009780001D30B8803806046704700BF082A13D351
:100988008B07B1D010F00303AED0C3F10403D21A21
:10099800DB071CBF11F8013B00F8013BA4D331F879
:1009A800023B20F8023B9FE7043AD9D3013A11F8F9
:1009B800013B00F8013BF9D20B7803704B78437088
:1009C8008B7883706046704770B54FF0FF0C4CF41D
:1009D800E06C1CEA11541DBF1CEA135594EA0C0F75
:1009E80095EA0C0F00F0DEF82C4481EA030621EAB0
:1009F8004C5123EA4C5350EA013518BF52EA0335EB
:100A080041F4801143F4801338D0A0FB02CE4FF09C
:100A18000005E1FB02E506F00042E0FB03E54FF0CC
:100A28000006E1FB03569CF0000F18BF4EF0010EC4
:100A3800A4F1FF04B6F5007F64F5407404D25FEAC0
:100A48004E0E6D4146EB060642EAC62141EA555173
:100A58004FEAC52040EA5E504FEACE2EB4F1FD0CB5
:100A680088BFBCF5E06F1ED8BEF1004F08BF5FEA33
:100A7800500E50F1000041EB045170BD06F00046E5
:100A880046EA010140EA020081EA0301B4EB5C0492
:100A9800C2BFD4EB0C0541EA045170BD41F480118A
:100AA8004FF0000E013C00F3AB8014F1360FDEBFAF
:100AB800002001F0004170BDC4F10004203C35DA8B
:100AC8000C341BDC04F11404C4F1200500FA05F30E
:100AD80020FA04F001FA05F240EA020001F00042AF
:100AE80021F0004110EBD37021FA04F642EB060125
:100AF8005EEA430E08BF20EAD37070BDC4F10C044F
:100B0800C4F1200500FA04F320FA05F001FA04F212
:100B180040EA020001F0004110EBD37041F10001FE
:100B28005EEA430E08BF20EAD37070BDC4F1200509
:100B380000FA05F24EEA020E20FA04F301FA05F271
:100B480043EA020321FA04F001F0004121FA04F219
:100B580020EA020000EBD3705EEA430E08BF20EAE9
:100B6800D37070BD94F0000F0FD101F00046400023
:100B780041EB010111F4801F08BF013CF7D041EAA5
:100B8800060195F0000F18BF704703F000465200A9
:100B980043EB030313F4801F08BF013DF7D043EA7A
:100BA8000603704794EA0C0F0CEA135518BF95EA30
:100BB8000C0F0CD050EA410618BF52EA4306D1D1B7
:100BC80081EA030101F000414FF0000070BD50EAD6
:100BD800410606BF1046194652EA430619D094EA60
:100BE8000C0F02D150EA013613D195EA0C0F05D14A
:100BF80052EA03361CBF104619460AD181EA03019E
:100C080001F0004141F0FE4141F470014FF0000055
:100C180070BD41F0FE4141F4780170BD70B54FF0F0
:100C2800FF0C4CF4E06C1CEA11541DBF1CEA135570
:100C380094EA0C0F95EA0C0F00F0A7F8A4EB050452
:100C480081EA030E52EA03354FEA013100F0888049
:100C58004FEA03334FF0805545EA131343EA126312
:100C68004FEA022245EA111545EA10654FEA0026C7
:100C78000EF000419D4208BF964244F1FD0404F580
:100C8800407402D25B084FEA3202B61A65EB0305DC
:100C98005B084FEA32024FF480104FF4002CB6EB99
:100CA800020E75EB030E22BFB61A754640EA0C0019
:100CB8005B084FEA3202B6EB020E75EB030E22BF59
:100CC800B61A754640EA5C005B084FEA3202B6EB9A
:100CD800020E75EB030E22BFB61A754640EA9C0059
:100CE8005B084FEA3202B6EB020E75EB030E22BF29
:100CF800B61A754640EADC0055EA060E18D04FEAE7
:100D0800051545EA16754FEA06164FEAC30343EA86
:100D180052734FEAC2025FEA1C1CC0D111F4801F53
:100D28000BD141EA00014FF000004FF0004CB6E74C
:100D380011F4801F04BF01430020B4F1FD0C88BFEB
:100D4800BCF5E06F3FF6AFAEB5EB030C04BFB6EBF6
:100D5800020C5FEA500C50F1000041EB045170BDE9
:100D68000EF0004E4EEA113114EB5C04C2BFD4EB16
:100D78000C0541EA045170BD41F480114FF0000E9A
:100D8800013C90E645EA060E8DE60CEA135594EA16
:100D98000C0F08BF95EA0C0F3FF43BAF94EA0C0F19
:100DA8000AD150EA01347FF434AF95EA0C0F7FF48E
:100DB80025AF104619462CE795EA0C0F06D152EAE2
:100DC80003353FF4FDAE1046194622E750EA4106C6
:100DD80018BF52EA43067FF4C5AE50EA41047FF4D7
:100DE8000DAF52EA43057FF4EBAE12E74FF0FF3C3C
:100DF80006E000BF4FF0010C02E000BF4FF0010C0D
:100E08004DF804CD4FEA410C7FEA6C5C4FEA430C85
:100E180018BF7FEA6C5C1BD001B050EA410C0CBFD4
:100E280052EA430C91EA030F02BF90EA020F002036
:100E3800704710F1000F91EA030F58BF994208BF9D
:100E480090422CBFD8176FEAE37040F0010070475A
:100E58004FEA410C7FEA6C5C02D150EA013C07D1B1
:100E68004FEA430C7FEA6C5CD6D152EA033CD3D0FC
:100E78005DF8040B704700BF8446104662468C46F6
:100E88001946634600E000BF01B5FFF7B7FF002829
:100E980048BF10F1000F01BD4DF808EDFFF7F4FF52
:100EA8000CBF012000205DF808FB00BF4DF808EDDD
:100EB800FFF7EAFF34BF012000205DF808FB00BF00
:100EC8004DF808EDFFF7E0FF94BF012000205DF822
:100ED80008FB00BF4DF808EDFFF7CEFF94BF0120D7
:100EE80000205DF808FB00BF4DF808EDFFF7C4FFD0
:100EF80034BF012000205DF808FB00BF4FEA410C19
:100F08007FEA6C5C02D150EA013C0AD14FEA430CFB
:100F18007FEA6C5C02D152EA033C02D14FF0000038
:100F280070474FF0010070474FEA410212F5001276
:100F380015D211D56FF47873B3EB625212D94FEA18
:100F4800C12343F0004343EA505311F0004F23FA02
:100F580002F018BF404270474FF00000704750EA57
:100F6800013005D111F0004008BF6FF00040704714
:100F78004FF00000704700BF0348044B834202D083
:100F8800034B03B118477047DC070020DC0700203B
:100F9800000000000548064B1B1AD90F01EBA301FE
:100FA800491002D0034B03B118477047DC070020F3
:100FB800DC0700200000000010B5064C237843B978
:100FC800FFF7DAFF044B13B10448AFF300800123A5
:100FD800237010BDDC07002000000000081D010878
:100FE80008B5054B1BB105490548AFF30080BDE8BE
:100FF8000840FFF7CFBF00BF00000000E007002057
:10100800081D010800B583B00A4B5A6942F0010275
:101018005A615B6903F001030193019B00221146A9
:101028000F2001F099FA0F2001F0A6FA03B05DF83D
:1010380004FB00BF0010024030B587B000230293C4
:10104800039304930593134B1B680BB107B030BD92
:10105800104B01221A60104B5A6942F480725A618F
:101068005B6903F480730193019B4FF680730293CD
:10107800022503950324059402A9084801F038FDC8
:101088004CF6B37302930395059402A9044801F042
:101098002FFDDBE7F8070020001002400018014090
:1010A8000014014010B588B0002201920292039208
:1010B800049205920692079216484FF02043036067
:1010C80003F5827343608260C2600261102141614E
:1010D8008261C261026242624FF480538362C262DB
:1010E8000263426382630F2301930293FF240394F4
:1010F800049305911123069301A904F0C0F930B9AE
:10110800054AD36943F48063D36108B010BD00F089
:10111800ABF8F5E7FC0700200000014008B5FFF731
:101128008BFF08BD2DE9F0478AB000240694079488
:1011380008940994474B9A6942F010029A619A6997
:1011480002F010020192019A9A6942F004029A612F
:101158009A6902F004020292029A9A6942F008021D
:101168009A619A6902F008020392039A9A6942F016
:1011780040029A619A6902F040020492049A9A69BC
:1011880042F020029A619B6903F020030593059BB6
:10119800DFF8C49001222021484601F0C5FDDFF8A0
:1011A800BC8001220421404601F0BEFD2C4F22469E
:1011B8004FF40041384601F0B7FD01260696DFF8E6
:1011C800A4A0CDF81CA00225089506A9384601F070
:1011D8008FFC12230693CDF81CA0089606A9384662
:1011E80001F086FC2023069307960894099506A922
:1011F800484601F07DFC0423069307960894099558
:1012080006A9404601F074FC4FF400430693079684
:101218000894099506A9384601F06AFC2246294631
:10122800062001F099F9062001F0A6F92246294680
:10123800072001F091F9072001F09EF9224629467E
:101248000A2001F089F90A2001F096F90AB0BDE8F0
:10125800F08700BF0010024000100140000C014060
:10126800000801400000111072B6FEE700B597B003
:10127800282200210CA808F02BFE002307930893CE
:1012880009930A930B930193029303930493059391
:10129800069309230C934FF480330D930122109287
:1012A80012920222139214934FF4E01315930CA890
:1012B80002F09CFDD8B90F2307930221089100235F
:1012C80009934FF480620A920B9307A802F0C0FFBB
:1012D80078B9112301934FF4007302930023069306
:1012E80001A803F091F830B917B05DF804FBFFF7D7
:1012F800BBFFFFF7B9FFFFF7B7FF000008B501F024
:10130800ADF8FFF7B3FF104800F022F8FFF70AFF27
:10131800FFF778FEFFF7C6FE00F060FA00F0B6FAB5
:1013280000F0F6F800F0CCFA06F01EFA08F0F8F82B
:1013380000F07EF800F040F900F054FE034808F091
:1013480083FC00F0F9FFFEE7140A0020201D0108C5
:1013580008B5054B1860054B18680023022219468A
:10136800806808F079FC08BD480800203401002096
:10137800022801D80120704708B508F04DFE09235E
:101388000360002008BD000010B5013801280AD804
:1013980014464FF0FF3392B20748006804F0EEFBA2
:1013A80040B9204610BD08F037FE092303604FF00E
:1013B800FF30F7E70520F5E748080020022801D8A4
:1013C8000020704708B508F027FE092303604FF096
:1013D800FF3008BD08B508F01FFE092303604FF071
:1013E800FF3008BD08B548B94FF0FF33012208485F
:1013F800006804F022FC40B9012008BD08F00CFE8A
:10140800092303604FF0FF30F7E70520F5E700BF39
:101418004808002008B5022804D84FF400534B6050
:10142800002008BD08F0F8FD09230360F8E7000074
:1014380000B583B00023ADF804308DF80630009372
:1014480019481A4B03604FF0FF3343604FF4807321
:10145800836003F0B1FAE8B900228DF804208DF812
:1014680005208DF8062001A90F4803F0A0F9A0B9BE
:1014780001238DF800308DF801308DF802300022FC
:101488008DF803206946084803F0F2F940B903B023
:101498005DF804FBFFF7E8FEDEE7FFF7E5FEE7E7A8
:1014A800FFF7E2FEF3E700BF4C08002000280040E9
:1014B8000268144B9A4200D0704700B583B002F01E
:1014C80079FC114BDA6942F00062DA61DB6903F0FA
:1014D80000630193019B0D4B0122C3F83C240022B9
:1014E8000321084601F038F8032001F045F80022EE
:1014F8000321292001F030F8292001F03DF803B03C
:101508005DF804FB00280040001002400000424241
:10151800054B064A1A6000225A609A60DA601A611E
:101528005A6104229A6170476008002000800140D7
:1015380030B589B000230493059306930793026896
:101548001A4B9A4201D009B030BD03F510435A69CD
:1015580042F480625A615A6902F480620192019AE7
:101568009A6942F010029A619A6902F01002029296
:10157800029A9A6942F020029A619B6903F020035B
:101588000393039B4FF48853049302250595032482
:10159800079404A9064801F0ABFA042304930595BF
:1015A800079404A9034801F0A3FACCE7008001409E
:1015B800001001400014014008B50E480E4B0360AE
:1015C8004FF48273436000238360C3600361436107
:1015D8004FF4007282610822C2610362436283622F
:1015E8000A23C36203F0F0FE00B908BDFFF73CFE12
:1015F800FBE700BFE40800200030014010B586B0CA
:10160800002302930393049305930268164B9A42AE
:1016180001D006B010BD03F560439A6942F48052C8
:101628009A619A6902F480520092009A9A6942F08B
:1016380004029A619B6903F004030193019BA023B0
:1016480002930223039303230593084C02A920461F
:1016580001F04EFA4023029300230393049302A956
:10166800204601F045FAD4E7003001400008014067
:1016780000B583B0124B9A6942F001029A619A69E7
:1016880002F001020092009ADA6942F08052DA61AF
:10169800DB6903F080530193019B0022114605206A
:1016A80000F05AFF052000F067FF064A536823F050
:1016B800E06343F00073536003B05DF804FB00BFC0
:1016C8000010024000000140FEE7FEE7FEE7FEE7EB
:1016D800FEE770477047704708B500F0D1FE08BDB7
:1016E80008B5024803F0C2F908BD00BF4C08002045
:1016F800704708B5012001F01DFB08BD08B50220A0
:1017080001F018FB08BD08B5102001F013FB08BD57
:1017180008B5024801F076F808BD00BF8809002026
:1017280008B5024802F008F908BD00BF10190020EA
:1017380008B5024803F007FF08BD00BF40090020B4
:1017480008B5024804F06AFB08BD00BF140A00206F
:1017580008B5024804F062FB08BD00BFCC090020B0
:1017680008B5024803F0F0F808BD00BF4C08002097
:101778000120704708B508F04FFC162303604FF0AE
:10178800FF3008BD08B54FF0FF31FFF7F3FFFEE764
:1017980010B503460C4A0D490D48006840B10C4885
:1017A80000680344521A934206D8094A136010BDD0
:1017B8000748084C0460F2E708F02EFC0C2303608D
:1017C8004FF0FF30F3E700BF0000012000040000E5
:1017D8003C090020181F00207047000000B587B0A2
:1017E80000230293039304930593009301931548F0
:1017F800154A026047224260836040F2E732C260C5
:101808000361836103F0A8FF90B94FF480530293FA
:1018180002A90C4803F0D8FF68B90023009301938C
:101828006946084804F050F840B907B05DF804FB71
:10183800FFF71AFDE9E7FFF717FDEEE7FFF714FDDD
:10184800F3E700BF400900200008004002680E4B83
:101858009A4200D0704700B583B003F50233DA69C5
:1018680042F00402DA61DB6903F004030193019B8F
:10187800002201211E2000F06FFE1E2000F07CFED9
:1018880003B05DF804FB00BF0008004008B50A4833
:101898000A4B03604FF4E133436000238360C36065
:1018A80003610C2242618361C36104F037F900B916
:1018B80008BDFFF7D9FCFBE7140A002000380140F7
:1018C80008B50A480A4B03604FF4E133436000232C
:1018D8008360C36003610C2242618361C36104F0C9
:1018E8001DF900B908BDFFF7BFFCFBE7CC090020D4
:1018F8000048004070B588B0002304930593069310
:1019080007930368404A934204D0404A934248D020
:1019180008B070BD04463E4B9A6942F480429A6111
:101928009A6902F480420092009A9A6942F004028D
:101938009A619B6903F004030193019B4FF40073C0
:1019480004930223059303230793324E04A93046D8
:1019580001F0CEF84FF480630493002505950695B1
:1019680004A9304601F0C4F82B482C4B03604560AD
:1019780085608023C360056145618561C56100F0AC
:101988001DFE58B9244BE3635C6200220321252025
:1019980000F0E2FD252000F0EFFDB9E7FFF764FC59
:1019A800F0E71B4BDA6942F48022DA61DA6902F463
:1019B80080220292029A9A6942F008029A619B690F
:1019C80003F008030393039B4FF4806304930223FB
:1019D800059303250795124E04A9304601F088F8AF
:1019E8004FF40063049300240594069404A9304638
:1019F80001F07EF822462946272000F0ADFD272079
:101A080000F0BAFD84E700BF0038014000480040FC
:101A180000100240000801408809002058000240D8
:101A2800000C0140034B044A1A60044B023A1A6046
:101A3800704700BF700F0020000002606C0F00208C
:101A48000B4B2A225A812B229A812C221A8100229E
:101A58009A71F0221A804FF4A0725A80054B1B68C5
:101A680036221A80044B1B6808221A80704700BF70
:101A78005C0F00206C0F0020700F002070B5174E0F
:101A88003468174DB5F80AC0A4F800C0154C4FEAE1
:101A9800102CD4F800E0AEF800C0C0B2D4F800C0F2
:101AA800ACF8000020684FEA122CA0F800C02068AB
:101AB800D2B202803268A88910802268080A108091
:101AC8002268C9B211802268190A11802268DBB223
:101AD800138033682A891A8070BD00BF6C0F0020FC
:101AE8005C0F0020700F002010B504460A4B1A88BE
:101AF8005B88013B013A9BB292B200210846FFF78E
:101B0800BDFF002303E0054A126814800133B3F5D2
:101B1800963FF8D310BD00BF5C0F0020700F002067
:101B28000020704700207047002070472DE9F843D7
:101B38008046894616461F46BDF82050BDF8244009
:101B48001EE0194A12681580013B002B08DB41FA98
:101B580003F212F0010FF4D0134A12681480F3E76D
:101B680002301F2806DC335C3218517841EA032121
:101B78000F23EAE708F110082036B8F1E00F11DC6E
:101B88003B46013FBFB26BB11FFA88F01FFA89F1DB
:101B980001F10F0300F10F029BB292B2FFF76EFF43
:101BA8000020DEE7BDE8F883700F00202DE9F84338
:101BB8008046894616461F46BDF82050BDF8244089
:101BC8001AE0174A12681580013B002B08DB41FA1E
:101BD80003F212F0010FF4D0114A12681480F3E7EF
:101BE8000130472802DC315C0723EEE708F11808CA
:101BF8004836B8F1D80F11DC3B46013FBFB26BB194
:101C08001FFA88F01FFA89F101F1170300F1170292
:101C18009BB292B2FFF732FF0020E2E7BDE8F883FB
:101C2800700F00202DE9F8438046894616461F4666
:101C3800BDF82050BDF824401AE0174A12681580F4
:101C4800013B002B08DB41FA03F212F0010FF4D03C
:101C5800114A12681480F3E701307F2802DC315CF6
:101C68000723EEE708F120088036B8F1D00F11DC21
:101C78003B46013FBFB26BB11FFA88F01FFA89F1EA
:101C880001F11F0300F11F029BB292B2FFF7F6FEAB
:101C98000020E2E7BDE8F883700F00202DE9F04747
:101CA80007468A4690461D46BDF82060104608F053
:101CB800E9F95FFA80F900242DE0B8B21FFA8AF139
:101CC800CB1D421D9BB292B2FFF7D8FE18F8040054
:101CD8002038C000002111E0144B1B681D800CF156
:101CE800FF3CBCF1010F08DD42FA0CF313F0010FC1
:101CF800F2D00E4B1B681E80F1E70131072905DC85
:101D080043180B4AD25C4FF0070CEAE70637E92F75
:101D18000ADC0134E4B24C4506D218F90430002B31
:101D2800CBDA0134E4B2F1E7BDE8F087700F0020A8
:101D3800E04F01082DE9F04F83B007468A469046E8
:101D48001C46BDF83050104608F09CF95FFA80F93F
:101D5800002633E0B8B21FFA8AF101F10F03C21D61
:101D68009BB292B2FFF78AFE18F8060020380001ED
:101D7800002116E0234B1B681C800CF1010C1FFA94
:101D88008CFCBCF1070F0AD8CCF1070342FA03F325
:101D980013F0010FEED01B4B1B681D80EDE70131DE
:101DA80089B20F2905D84318174AD25C4FF0000CA6
:101DB800E7E708370136F6B2E82F20DC4E451ED299
:101DC80008EB060118F90630002BC3DA14220F4875
:101DD800FFF7A6FE834610B90236F6B2ECE7019586
:101DE8000094C0F34F13094A51463846FFF79EFE48
:101DF80007EB5B0706EB1B1B5FFA8BF6DCE703B010
:101E0800BDE8F08F700F0020F04901085C0A00203F
:101E18002DE9F04F85B08046039191461C46BDF8E8
:101E28003850104608F02EF95FFA80FB002637E09C
:101E38001FFA88F0BDF80C1001F1170300F10B022E
:101E48009BB292B2FFF71AFE19F80630203B03EB5B
:101E58004303284F07EB0317002011E0264A1268B6
:101E68001480013B9BB2032B08D941FA03F212F00C
:101E7800010FF3D0204A12681580F2E7023080B2D1
:101E88002F2806D83B5C3A18517841EA03210F23E2
:101E9800E9E708F10C080136F6B2B8F1E40F26DCE0
:101EA8005E4524D209EB060119F90630002BBFDA8A
:101EB80014221248FFF736FE074610B90236F6B26A
:101EC800EBE70F4BA3FB003A01950094CAF30F13FD
:101ED8000A4A03994046FFF769FE0A4BA3FB0737F6
:101EE80008EB570806EBDA0A5FFA8AF6D5E705B079
:101EF800BDE8F08F50380108700F00205C0A002000
:101F0800398EE338ABAAAAAA2DE9F04F83B08046F0
:101F18008B4617461C46BDF83050104608F0B2F8FC
:101F28005FFA80F9002634E01FFA88F01FFA8BF177
:101F380001F11F0300F10F029BB292B2FFF79EFD61
:101F4800BB5D203B244A02EB831C00200FE0234AA0
:101F580012681480013B002B08DB41FA03F212F0EF
:101F6800010FF4D01D4A12681580F3E702303F28AC
:101F780008DC1CF800300CEB0002517841EA032120
:101F88000F23E8E708F110080136F6B2B8F1E40FBC
:101F98001EDC4E451CD2B919BB57002BC4DA1422DB
:101FA8000F48FFF7C1FD824610B90236F6B2EDE7D9
:101FB80001950094C0F3CF13094A59464046FFF7EC
:101FC80031FE08EB9A0806EB9A1A5FFA8AF6DDE703
:101FD80003B0BDE8F08F00BFD0200108700F0020CB
:101FE8005C0A00202DE9F04F83B0FFF71BFDA64DDA
:101FF8002B68CF221A80A54B1A68002414801A680F
:10200800C9211180196830220A802968ED200880CA
:10201800196864200880196803200880196812204C
:1020280008801968812008802968E82008801968D4
:1020380085200880196810270F8019687A20088081
:102048002968CB20088019683920088019682C2055
:10205800088019680C8019683420088019680220E3
:1020680008802968F720088019684FF02009A1F82E
:1020780000902968EA20088019680C8019680C808B
:102088002968C020088019681B2008802968C12099
:10209800088019680C802968C520088019680A809A
:1020A80019680A802A68C72111801A68B721118027
:1020B8002A684FF03608A2F800801A6808261680A9
:1020C8002A683A2111801A68552111802A68B1219D
:1020D80011801A6814801A681A2111802A68B6219A
:1020E80011801A680A2111801A68A22010802A68B3
:1020F800F22010801A6814802A68262010801A6836
:102108004FF0010EA2F800E02A68E020108018685D
:102118000F22028018684FF02A0AA0F800A0186859
:102128004FF0280CA0F800C01868068018684FF017
:102138000E0CA0F800C01868068018684FF0540C00
:10214800A0F800C018684FF0A90CA0F800C01868E3
:102158004FF0430CA0F800C01868018019680A8085
:1021680019680C8019680C8019680C8019680C8033
:102178002968E120088019680C80196815200880F2
:1021880019681720088019680720088019684FF017
:10219800110BA1F800B019680620088019684FF0E3
:1021A8002B0CA1F800C019685620088019683C203B
:1021B800088019680520088019680F8019680A8046
:1021C80018683F21018018680180186802802A6811
:1021D800A2F800C01A6814801A6814801A68A2F855
:1021E80000E01A6811802A68A2F800A01A68148012
:1021F8001A6814801A6814801B68EF221A802B68EA
:10220800A3F800B0782000F04DF92B6829221A8035
:10221800FFF716FC1E4AD36843F40043D3604FF41B
:102228007840FFF761FCC82000F03CF94FF4FC60EF
:10223800FFF75AFCC82000F035F91F20FFF754FCBF
:10224800C82000F02FF94FF6FF70FFF74DFCC820AB
:1022580000F028F94FF4784500954FF6FF730D4AC2
:1022680021462046FFF766FDDFF82CA000954FF6C3
:10227800FF7352462146A020FFF710FD4FF6FF7569
:1022880000952346524609E06C0F0020700F00208D
:1022980000080140341D01084C1D01083146A020EA
:1022A800FFF7FCFC4FF4FC6300932B460C4A3946BD
:1022B8002046FFF73FFD1F2300932B46094A494656
:1022C8002046FFF7A5FD4BF6404300932B46064AF0
:1022D80041462046FFF718FE03B0BDE8F08F00BF67
:1022E8005C1D0108741D01088C1D0108FFF774FAB4
:1022F8000B480C490C4A002302E0D458C45004335C
:10230800C4188C42F9D3094A094C002301E0136030
:102318000432A242FBD307F085FEFEF7EFFF7047B9
:1023280000000020DC070020C8550108DC07002059
:10233800141F0020FEE7704770B5A0B04FF6FF707D
:10234800FFF7D2FB2A4B1B78012B13D04FF47844AC
:1023580000944FF6FF73274A00210846FFF758FDFF
:1023680000944FF6FF73244A00210846FFF750FDFA
:1023780020B070BD4FF4FC6400944FF6FF731F4A01
:1023880000210846FFF744FD00944FF6FF731C4AEE
:1023980019210020FFF73CFD1A4E706DFEF746FA32
:1023A8000546B06DFEF742FA2946FDF719FF4FF0D2
:1023B8006A51FDF715FF4FF06A51FDF711FFFEF75F
:1023C80027F902460B46104902A807F017FD0094AA
:1023D8004FF6FF7302AA31210020FFF719FD009480
:1023E8004FF6FF73094A49210020FFF711FDBFE7A7
:1023F80044080020EC1D0108001E0108A41D010866
:10240800B81D010860080020CC1D0108DC1D01086A
:1024180010B504460E4B1A784FF47A73B3FBF2F3F7
:102428000C4A1068B0FBF3F000F0B4F868B90F2C50
:1024380001D901200AE0002221464FF0FF3000F0C8
:102448008BF8054B1C60002000E0012010BD00BF88
:1024580004000020000000200800002008B5074AFA
:10246800136843F010031360032000F063F80020A2
:10247800FFF7CEFFFFF7FCF8002008BD0020024060
:10248800034A1168034B1B780B441360704700BF65
:10249800740F002004000020014B1868704700BF2B
:1024A800740F002038B50446FFF7F6FF0546B4F16F
:1024B800FF3F02D0044B1B781C44FFF7EDFF401B85
:1024C800A042FAD338BD00BF04000020002808DB72
:1024D8000901C9B200F1604000F5614080F80013BD
:1024E800704700F00F000901C9B2014B1954704739
:1024F80014ED00E000B500F00700C0F1070CBCF1D6
:10250800040F28BF4FF0040C031D062B0FD9C31E60
:102518004FF0FF3E0EFA0CF021EA000199400EFA46
:1025280003FE22EA0E0241EA02005DF804FB0023E2
:10253800EEE70000074AD36823F4E0631B041B0C92
:10254800000200F4E060034343F0BF6343F4003348
:10255800D360704700ED00E010B50446054BD8681D
:10256800C0F30220FFF7C6FF01462046FFF7AEFF83
:1025780010BD00BF00ED00E0002807DB00F01F02DF
:10258800400901239340024A42F82030704700BFB7
:1025980000E100E00138B0F1807F0BD24FF0E0237A
:1025A8005861054AF02182F823100020986107221B
:1025B8001A6170470120704700ED00E0002838D00C
:1025C80010B4024601681C4B994227D81B4B0B4498
:1025D8001B48A0FB03031B099B001364194BD3631F
:1025E800022382F8213008686FF30D10536894684D
:1025F8002343D468234314692343546923439469C8
:102608002343D469234303430B60002090630123D1
:1026180082F8213082F8200010BC70470A4B0B4426
:102628000748A0FB03031B099B001364074BD363F4
:10263800D6E70120704700BF07040240F8FFFDBF3E
:10264800CDCCCCCC00000240F8FBFDBF000402401A
:10265800034690F82120D2B2022A06D004228263CF
:10266800002280F820200120704701680A6822F0C3
:102678000E020A6001680A6822F001020A60026C10
:10268800C06B012101FA02F2426083F82110002098
:1026980083F820007047000008B590F82130DBB2BD
:1026A800022B03D004238363012008BD026813684A
:1026B80023F00E0313600268136823F0010313600C
:1026C80003684C4A93424ED9783A934224D0143244
:1026D800934230D0143293422FD0143293422FD0E9
:1026E800143293422FD0143293422FD01432934293
:1026F8002FD002F5627293422ED0143293422DD01D
:10270800143293422CD01432934202D04FF48032C8
:1027180003E04FF4805200E00122374B5A60012356
:1027280080F82130002380F82030436B002B5ED0E6
:1027380098470020B9E71022EFE74FF48072ECE7E2
:102748004FF48052E9E74FF48032E6E74FF4801205
:10275800E3E74FF08072E0E70122DEE71022DCE7D2
:102768004FF48072D9E7254A934224D01432934219
:1027780025D01432934224D01432934224D01432F8
:10278800934224D01432934224D01432934224D05A
:1027980002F56272934223D01432934222D014324B
:1027A800934221D01432934202D04FF4803203E096
:1027B8004FF4805200E00122114B5A60AFE710221B
:1027C800FAE74FF48072F7E74FF48052F4E74FF4DA
:1027D8008032F1E74FF48012EEE74FF08072EBE7BA
:1027E8000122E9E71022E7E74FF48072E4E70020CE
:1027F8005BE700BF8000024000040240080002407E
:102808000000024038B5C36B1A6804682568016C7B
:1028180004238B40134200F09B8015F0040F00F056
:102828009780236813F0200F03D1236823F0040353
:10283800236003689A4A934246D9783A934224D04F
:102848001432934228D01432934227D01432934240
:1028580027D01432934227D01432934227D014320F
:10286800934227D002F56272934226D014329342E3
:1028780025D01432934224D01432934202D04FF41C
:10288800802203E04FF4804200E00422854B5A6026
:10289800C36A03B1984738BD4022F7E74FF4806216
:1028A800F4E74FF48042F1E74FF48022EEE74FF46B
:1028B8008002EBE74FF08062E8E70422E6E7402277
:1028C800E4E74FF48062E1E7774A934224D0143278
:1028D800934225D01432934224D01432934224D008
:1028E8001432934224D01432934224D014329342A7
:1028F80024D002F56272934223D01432934222D03C
:102908001432934221D01432934202D04FF48022E1
:1029180003E04FF4804200E00422644B5A60B7E7BA
:102928004022FAE74FF48062F7E74FF48042F4E779
:102938004FF48022F1E74FF48002EEE74FF0806217
:10294800EBE70422E9E74022E7E74FF48062E4E797
:1029580002238B40134200F0AB8015F0020F00F009
:10296800A780236813F0200F06D1236823F00A03F9
:102978002360012380F821300368494A93424BD9E8
:10298800783A934224D0143293422DD01432934291
:102998002CD0143293422CD0143293422CD01432BF
:1029A80093422CD0143293422CD002F56272934297
:1029B8002BD0143293422AD01432934229D01432A5
:1029C800934202D04FF4003203E04FF4005200E08B
:1029D8000222344B5A60002380F82030836A002B8F
:1029E8003FF459AF984756E72022F2E74FF40072B8
:1029F800EFE74FF40052ECE74FF40032E9E74FF409
:102A08000012E6E74FF00072E3E70222E1E7202236
:102A1800DFE74FF40072DCE7234A934224D01432F4
:102A2800934225D01432934224D01432934224D0B6
:102A38001432934224D01432934224D01432934255
:102A480024D002F56272934223D01432934222D0EA
:102A58001432934221D01432934202D04FF4003200
:102A680003E04FF4005200E00222104B5A60B2E734
:102A78002022FAE74FF40072F7E74FF40052F4E728
:102A88004FF40032F1E74FF40012EEE74FF0007216
:102A9800EBE70222E9E72022E7E74FF40072E4E7D8
:102AA800800002400004024008000240000002408A
:102AB80008238B4013423FF4EEAE15F0080F3FF4A5
:102AC800EAAE236823F00E032360026CC16B012376
:102AD80003FA02F24A60836380F82130002380F809
:102AE8002030036B002B3FF4D6AE9847D3E600BFE7
:102AF80070B582B00024A446ABE0854DAB4214D03B
:102B08000CD8A5F58015AB420FD005F57025AB4262
:102B18000BD0A5F58015AB4210D106E07D4DAB4238
:102B280003D005F58035AB4208D18B68002B5AD00D
:102B3800012B53D04261082400E0CC68BEF1FF0F9E
:102B480053D806464FEA8C0233680F25954023EA8E
:102B5800050304FA02F2134333604B6813F0805FF5
:102B680075D06D4B9A6942F001029A619B6903F036
:102B780001030193019B4FEA9C02951C674B53F894
:102B880025600CF00305AD000F23AB4026EA0306D1
:102B9800634B984230D003F58063984200F09680EA
:102BA80003F58063984200F0938003F580639842B0
:102BB80000F0908003F58063984200F08D8003F563
:102BC8008063984216D0062317E0CC680434B5E732
:102BD800CC680834B2E7CC680C34AFE7026108244B
:102BE800ACE70024AAE70424A8E7061DACF1080214
:102BF8009200A9E7052300E00023AB4033430232EB
:102C0800464D45F822304B6813F4801F66D0454A7C
:102C1800936843EA0E0393604B6813F4001F63D074
:102C2800404AD36843EA0E03D3604B6813F4003F6D
:102C380060D03C4A536843EA0E0353604B6813F470
:102C4800803F5DD0374A136843EA0E0313600CF1E6
:102C5800010C0B6833FA0CF258D0012202FA0CF27C
:102C680003EA020E32EA0303F1D14B68122B3FF656
:102C780044AF122B3FF662AF01A555F823F000BF11
:102C8800332B0008432B0008D92B0008EB2B000836
:102C9800452B0008452B0008452B0008452B00084C
:102CA800452B0008452B0008452B0008452B00083C
:102CB800452B0008452B0008452B0008452B00082C
:102CC800452B0008D32B0008DF2B0008012394E7CD
:102CD800022392E7032390E704238EE7114A9368BF
:102CE80023EA0E03936097E70E4AD36823EA0E039C
:102CF800D3609AE70B4A536823EA0E0353609DE7B3
:102D0800084A136823EA0E031360A0E702B070BDF7
:102D180000002210000031100010024000000140A5
:102D280000080140000401400AB10161704709042C
:102D38000161704708B5054B5B69034200D108BDC6
:102D4800024B5861FFF7F7FAF9E700BF00040140AA
:102D580038B512F4804F44D00468B4F850309BB2B0
:102D680091F800C003EBCC03023304EB4304B4F83E
:102D78000044C4F309048B69A34228D31B1B8B614D
:102D88008B697BB9056835F82C309BB223F48043F6
:102D980023F0700383F4005343F4004343F08003AB
:102DA80025F82C3012F0400F0ED002680D7832F85A
:102DB80025309BB223F4E04323F0700343F400432F
:102DC80043F0C00322F8253024B9204638BD00233B
:102DD8008B61D5E723460A894969006804F0ACFC91
:102DE800F3E70468B4F850309BB291F800C003EBE5
:102DF800CC03063304EB4304B4F80044C4F30904D9
:102E08008B69A3422FD31B1B8B618B697BB9056828
:102E180035F82C309BB223F4804323F0700383F4FD
:102E2800005343F4004343F0800325F82C3012F09C
:102E3800400F0FD1026891F800C032F82C309BB2D5
:102E480023F4E04323F0700343F4004343F0C0034A
:102E580022F82C30002CB8D023464A8949690068EA
:102E680004F06AFCB1E700238B61CEE770B586B049
:102E7800002800F08180044690F8A932EBB10323C2
:102E880084F8A932206803F0E6FC254655F8106B53
:102E9800EC460FCDACE80F002B68CCF80030231DB2
:102EA8000ECB304603F0C7FC054658B1022384F820
:102EB800A9320125284606B070BD80F8A83206F070
:102EC8005DFCDCE70021206803F0CFFC2B4616E010
:102ED8005A1C02EB820104EBC1010120487002EB8D
:102EE800820104F8313004EBC1000021C17003EB0A
:102EF800830004EBC0008163C1630164D3B26168DD
:102F08008B42E5D316E005EB850304EBC3030022EF
:102F180083F8692183F8685183F86B21C3F8782115
:102F2800C3F87C2105EB850304EBC303C3F88021B8
:102F38000135EDB2A942E6D8254655F8106BEC46A6
:102F48000FCDACE80F002B68CCF80030231D0ECB5A
:102F5800304603F08CFC054620B1022384F8A932E0
:102F68000125A7E7002384F82430012384F8A93237
:102F7800206803F0DFFF9DE701259BE738B590F84F
:102F8800A832012B11D00446012580F8A852006808
:102F980003F058FC2946204606F005FD206803F09A
:102FA800C7FF002084F8A80238BD0220FCE770B5EE
:102FB80005460C46164612F0400F00F00E810268D6
:102FC800B2F850309BB2097803EBC103023302EB2D
:102FD8004302B2F80024C2F30902A36993424ED90E
:102FE8009B1AA361A369002B66D16378002B49D192
:102FF8002B68B3F8502092B2134403EB0113B3F8D3
:103008000424C2F30902A3F80424B3F804246FEAE1
:1030180042426FEA524292B2A3F804242B686278C3
:10302800002A3CD1B3F8502092B21344227803EB23
:103038000213B3F80C24C2F30902A3F80C24B3F862
:103048000C246FEA42426FEA524292B2A3F80C246F
:103058002178284606F0C6FB16F4804F41D02A682E
:10306800217832F821309BB223F4E04323F0700337
:1030780043F4404343F0800322F8213031E0002339
:10308800A361AFE7012BC9D12B68B3F8502092B2E6
:10309800134403EB01130022A3F80424BEE7012A1A
:1030A800D6D1B3F8502092B21344227803EB02131E
:1030B8000022A3F80C24CBE716F4804F0DD0286823
:1030C80030F821309BB223F4E04323F0700343F43B
:1030D800404343F0800320F8213094F82430012B3A
:1030E80012D02A68217832F821309BB223F4E043C9
:1030F80023F0400383F0300343F4004343F080039C
:1031080022F82130002070BD636913446361E369CC
:103118001344E361216A2369994224D3C91A2162BD
:103128006278002A44D12A68B2F8501089B20A4459
:10313800217802EB0112B2F80414C1F30901A2F8D4
:1031480004143E2B1BD9580913F01F0F00D1013866
:10315800B2F8041489B2800280B2014341F40041FC
:10316800A2F8041426E021B9002384F82430134679
:10317800D6E7002384F8243023620B46D0E74BB906
:10318800B2F804146FEA41416FEA514189B2A2F8DA
:1031980004140FE0590813F0010F00D00131B2F800
:1031A800040480B2890289B20143A2F8041401E040
:1031B800012A06D09BB222896169286803F0C2FE01
:1031C8008FE72A68B2F8501089B20A44217802EBD6
:1031D800011299B2A2F80414ECE70268B2F8503070
:1031E8009BB2097803EBC103063302EB4302B2F842
:1031F8000024C2F30902A36993424FD39B1AA36127
:10320800A369002B67D16378002B4AD12B68B3F8E8
:10321800502092B2134403EB0113B3F80424C2F311
:103228000902A3F80424B3F804246FEA42426FEABF
:10323800524292B2A3F804242B686278002A3DD146
:10324800B3F8502092B21344227803EB0213B3F878
:103258000C24C2F30902A3F80C24B3F80C246FEA77
:1032680042426FEA524292B2A3F80C2421782846CF
:1032780006F0B8FA16F4804F7FF433AF2A68217845
:1032880032F821309BB223F4E04323F0700343F477
:10329800404343F0800322F8213022E70023A36152
:1032A800AEE7012BC8D12B68B3F8502092B2134473
:1032B80003EB01130022A3F80424BDE7012AD5D1AA
:1032C800B3F8502092B21344227803EB0213002281
:1032D800A3F80C24CAE716F4804F0DD1286830F8FB
:1032E80021309BB223F4E04323F0700343F44043BE
:1032F80043F0800320F8213094F82430012B7FF428
:10330800F0AE636913446361E3691344E361216ABE
:103318002369994224D3C91A21622A68617800294D
:1033280043D1B2F8501089B20A44217802EB011255
:10333800B2F80C14C1F30901A2F80C143E2B1BD9E6
:10334800580913F01F0F00D10138B2F80C1489B2D4
:10335800800280B2014341F40041A2F80C1426E037
:1033680021B9002384F824301346D6E700232362CA
:1033780084F824300B46D0E74BB9B2F80C146FEA46
:1033880041416FEA514189B2A2F80C140FE0590883
:1033980013F0010F00D00131B2F80C0480B2890299
:1033A80089B20143A2F80C1401E0012906D09BB2AE
:1033B80062896169286803F0C5FD92E6B2F8501089
:1033C80089B20A44217802EB011299B2A2F80C14CE
:1033D800EDE72DE9F04105462868B0F8443013F4CC
:1033E800004F00F09282B0F84440A3B214F00F04EA
:1033F80040F0E28013F0100F6BD003889AB213F4F8
:10340800006F40F09D8012F4004FE5D0038823F050
:1034180070031B051B0D43F0800303802868B0F878
:1034280050309BB295F8682103EBC203063300EBDA
:103438004303B3F80034C3F30903C5F884318BB1EF
:10344800D5F87C1171B1B5F86E2104F075F9D5F88D
:103458007C31D5F884211344C5F87C3100212846F5
:1034680006F0B4F92A68138899B213F4006FB3D13F
:1034780001F44051B1F5405FAED0B2F850309BB284
:103488001A44B2F80C34C3F30903A2F80C34D5F883
:1034980078313E2B77D9590913F01F0F00D1013924
:1034A800B2F80C349BB2890289B20B4343F400434F
:1034B800A2F80C342A6813889BB223F4804323F0C3
:1034C800700383F4405343F4004343F080031380B4
:1034D80082E703889BB223F4E14323F070036FEA89
:1034E80043436FEA53439BB203802A68B2F85030D3
:1034F8009BB295F8281003EBC103023302EB430299
:10350800B2F80034C3F309036B64EA6B1A44EA6344
:103518000021284606F066F995F82430002B3FF480
:103528005BAF2B6C002B7FF457AF95F824302A68DB
:1035380043F08003A2F84C30002385F824304BE791
:10354800B0F850309BB295F8682103EBC2030633FC
:1035580000EB4303B3F80034C3F30903C5F884311F
:10356800B5F86E2105F52C7104F0E6F82A68138881
:1035780023F070031B051B0D43F0800313802846BE
:1035880006F01CF928E74BB9B2F80C346FEA43434C
:103598006FEA53439BB2A2F80C348BE7590813F037
:1035A800010F00D00131B2F80C3498B28B029BB2F3
:1035B8000343A2F80C347DE730F824309EB213F4AC
:1035C800004F4CD116F0800F3FF406AF621C02EB9F
:1035D800820105EBC101286830F824309BB223F43E
:1035E800E14323F070036FEA43436FEA53439BB20E
:1035F80020F82430CB78012B00F0F28016F4807F7D
:1036080040F07E812868B0F850309BB2621C02EB13
:10361800820215F8326003EBC603023300EB430362
:10362800B3F80034C3F3090304EB840205EBC202C8
:10363800126C9A4240F24C8104EB840705EBC707F1
:10364800D21A3A6404EB840205EBC202126C002A17
:1036580040F045813146284606F0C4F8BCE630F80B
:10366800243023F070031B051B0D43F0800320F862
:10367800243004EB8401C90001F5B47105EB01089D
:1036880004EB840305EBC30393F87431002B42D198
:103698002868B0F850309BB204EB840205EBC202F4
:1036A80092F8682103EBC203063300EB4303B3F837
:1036B8000074C7F3090717BB04EB840305EBC303C6
:1036C800D3F884213A44C3F88421D3F87C213A44BE
:1036D800C3F87C21D3F880313BB104EB840305EBBC
:1036E800C303D3F878319F4275D204EB840305EB0A
:1036F800C30393F86811284606F068F862E704EBFC
:10370800840105EBC1013B46B1F86E21D1F87C116B
:1037180004F012F8D0E704EB840305EBC30393F835
:103728006B31022B35D0296804EB840205EBC20209
:1037380092F8680131F820309BB223F4E04323F07B
:10374800700343F4004343F0C00321F82030286895
:1037580092F8682130F8223013F4804F20D0B0F866
:1037680050309BB203EBC203023300EB4303B3F8C0
:103778000074C7F30907002F9ED004EB840105EB02
:10378800C1013B46B1F87021D1F87C1103F0D4FF98
:1037980092E7324641462846FFF7DAFA07468BE7B2
:1037A800B0F850309BB203EBC203063300EB43037F
:1037B800B3F80074C7F30907002F3FF47DAF04EB9B
:1037C800840105EBC1013B46B1F87221D1F87C11A7
:1037D80003F0B2FF70E74146286803F0C6FBF1E644
:1037E80004EB840305EBC30300221A6493F8343016
:1037F800FBB116F0400F37D04B781BBB2B68B3F8E2
:10380800502092B21344621C02EB820215F8322057
:1038180003EB0213B3F80424C2F30902A3F8042447
:10382800B3F804246FEA42426FEA524292B2A3F814
:103838000424013404EB840415F83410284605F0F8
:10384800D1FFC9E5012BF4D12B68B3F8502092B20F
:103858001344621C02EB820215F8322003EB0213B8
:103868000022A3F80424E4E72A68631C03EB83031B
:1038780005EBC3035B78D3B9B2F850309BB213445D
:10388800621C02EB820215F8322003EB0213B3F834
:103898000C24C2F30902A3F80C24B3F80C246FEA31
:1038A80042426FEA524292B2A3F80C24C1E7012BBC
:1038B800BFD1B2F850309BB21344621C02EB8202B3
:1038C80015F8322003EB02130022A3F80C24B0E70A
:1038D80004EB840205EBC20200271764B2E604EB8E
:1038E800840205EBC202D66B1E44D663526C04EB0D
:1038F800840405EBC4041344636403F036FB6BE5EE
:1039080032462846FFF753FB66E50020BDE8F08104
:1039180090F8A832012B0DD010B50446012380F889
:10392800A83280F82410006803F0FCFA002084F81C
:10393800A80210BD0220704710B584B00446006884
:1039480003F0FAFA10F4004F20D110F4806F21D15F
:1039580010F4804F2FD110F4005F37D110F4805F3E
:103968003ED110F4006F40F0878010F4007F40F0E3
:10397800AE8010F4807F27D02268B2F844309BB222
:1039880023F480739BB2A2F844301DE02046FFF771
:1039980020FD19E02268B2F844309BB223F480631A
:1039A8009BB2A2F84430204605F02DFF00212046A6
:1039B800FFF7AEFF08E02268B2F844309BB223F468
:1039C80080439BB2A2F8443004B010BD2268B2F81C
:1039D80044309BB223F400539BB2A2F84430F3E77F
:1039E8002268B2F840309BB223F004039BB2A2F8DD
:1039F80040302268B2F840309BB223F008039BB2F3
:103A0800A2F84030204605F021FF2268B2F8443081
:103A18009BB223F480539BB2A2F84430D4E72268C7
:103A280032F8231004AA02EB430222F8101C0133D7
:103A3800DBB2072BF3D92268B2F840309BB243F0CF
:103A48000103A2F840302268B2F840309BB223F05C
:103A580001039BB2A2F840302368B3F8442012F463
:103A6800806FF9D0B3F8442092B222F4806292B207
:103A7800A3F8442000230BE00023DAE7226804A916
:103A880001EB430131F8101C22F823100133DBB29B
:103A9800072BF3D92268B2F840309BB243F00803F1
:103AA800A2F840302268B2F844309BB223F4006395
:103AB8009BB2A2F844302268B2F840309BB243F07F
:103AC8000403A2F84030204605F0B0FE7CE72268E7
:103AD800B2F844309BB223F400739BB2A2F844308E
:103AE800204605F08AFE6FE710B50446084611F037
:103AF800800F25D101F0070C0CEB8C01C90001F5F2
:103B0800B47E04EB0E010CEB8C0C04EBCC0C4FF0E8
:103B1800000E8CF869E100F0070008700A61CB70AC
:103B2800022B1AD094F8A832012B19D0012384F85B
:103B3800A832206802F0B0FE002084F8A80210BD68
:103B480001F0070C0CF1010C0CEB8C0104EBC1012A
:103B58004FF0010E81F801E0DDE700230B71E1E78A
:103B68000220ECE710B504460B4611F0800F1FD178
:103B780001F0070202EB8201C90001F5B4710144AA
:103B880002EB820200EBC202002082F8690103F016
:103B980007030B7094F8A832012B13D0012384F883
:103BA800A832206803F05DF8002084F8A80210BD50
:103BB80001F00702013202EB820100EBC101012092
:103BC8004870E4E70220F2E710B501F0070C0CEBAF
:103BD8008C01C90001F5B4710CEB8C0E00EBCE0E14
:103BE800CEF87C21CEF880310024CEF884418EF8BE
:103BF80069418EF868C10144006803F0B6F92046AF
:103C080010BD01F0070101EB810100EBC100D0F804
:103C18008401704738B501F0070404F1010C0CEB7E
:103C28008C0104EB840E00EBCE0ECEF83C20CEF8CF
:103C3800403001228EF84C20CEF848300025CEF8CE
:103C4800445000EBC1035A7000F83140194600682F
:103C580003F08BF9284638BD38B501F007054268EE
:103C6800954231D804460B4611F0800F1ED101EB66
:103C78008101C90001F5B471014403EB830300EB32
:103C8800C303002283F8692101238B700D7094F817
:103C9800A832012B1AD0012384F8A832206803F037
:103CA800CBF85DB1002084F8A80238BD6B1C03EB8B
:103CB800830100EBC10101224A70E5E704F52C718C
:103CC800206803F03DF9EDE70120EEE70220ECE77C
:103CD8000B4601F00F014268914230D810B50446F6
:103CE80013F0800F21D103F0070202EB8201C90013
:103CF80001F5B471014402EB820200EBC20200201C
:103D080082F8690100228A7003F007030B7094F8A7
:103D1800A832012B15D0012384F8A832206803F0BB
:103D2800B0F8002084F8A80210BD03F007020132A1
:103D380002EB820100EBC10101204870E2E701209B
:103D480070470220F0E790F8A832012B14D010B584
:103D58000446012380F8A83211F0800F06D10068CC
:103D680002F098FD002084F8A80210BD01F00701B8
:103D7800006802F08DFDF5E70220704711F0800F12
:103D88000BD001F00701013101EB810100EBC1000B
:103D980052B90273C3800020704701EB8101C9004A
:103DA80001F5B4710844F3E70122027303811B0C87
:103DB8004381F0E7014B01221A62704700000E426E
:103DC80082B0084B1B68084AA2FB03235B0A00FB6E
:103DD80003F3019300BF019B5A1E0192002BF9D1F6
:103DE80002B0704700000020D34D6210002800F098
:103DF800F18170B582B00446036813F0010F2CD02E
:103E0800994B5B6803F00C03042B1DD0964B5B6841
:103E180003F00C03082B12D06368B3F5803F41D040
:103E2800002B55D103F1804303F504331A6822F4BB
:103E380080321A601A6822F480221A6037E08A4BAE
:103E48005B6813F4803FE7D0874B1B6813F4003F8F
:103E580003D06368002B00F0BF81236813F0020FC2
:103E680075D0814B5B6813F00C0F5FD07E4B5B689D
:103E780003F00C03082B54D02369002B00F08A8030
:103E88007A4B01221A60FEF707FB0546764B1B6842
:103E980013F0020F75D1FEF7FFFA401B0228F5D97F
:103EA80003209EE1704A136843F48033136063680B
:103EB80043B3FEF7F1FA05466B4B1B6813F4003F5A
:103EC800CBD1FEF7E9FA401B6428F5D9032088E135
:103ED800B3F5A02F09D0644B1A6822F480321A6017
:103EE8001A6822F480221A60E1E703F18043A3F5FF
:103EF8003C331A6842F480221A601A6842F480320D
:103F08001A60D4E7FEF7C8FA0546574B1B6813F446
:103F1800003FA2D0FEF7C0FA401B6428F5D9032061
:103F28005FE1514B5B6813F4803FA5D14E4B1B6892
:103F380013F0020F03D02369012B40F04F814A4A46
:103F4800136823F0F803616943EAC1031360236827
:103F580013F0080F33D0A369002B5CD0434B012228
:103F6800C3F88024FEF798FA05463F4B5B6A13F0C6
:103F7800020F21D1FEF790FA401B0228F5D9032041
:103F88002FE1394A136823F0F803616943EAC10352
:103F98001360DCE7354B00221A60FEF77DFA054610
:103FA800314B1B6813F0020FD1D0FEF775FA401B96
:103FB8000228F5D9032014E10120FFF701FF236847
:103FC80013F0040F00F09680274BDB6913F0805F35
:103FD80034D1254BDA6942F08052DA61DB6903F0AB
:103FE80080530193019B0125214B1B6813F4807FAB
:103FF80026D0E368012B3DD0002B53D103F1804339
:1040080003F504331A6A22F001021A621A6A22F0CE
:1040180004021A6233E0154B0022C3F88024FEF72D
:104028003BFA0546104B5B6A13F0020FC7D0FEF748
:1040380033FA401B0228F5D90320D2E00025D3E744
:104048000B4A136843F480731360FEF725FA06469B
:10405800074B1B6813F4807FCBD1FEF71DFA801B3A
:104068006428F5D90320BCE0001002400000424259
:10407800007000405F4A136A43F001031362E3686B
:1040880033B3FEF709FA06465A4B1B6A13F0020FC0
:104098002FD1FEF701FA801B41F288339842F3D9F9
:1040A80003209EE0052B09D0524B1A6A22F0010228
:1040B8001A621A6A22F004021A62E0E74D4B1A6A81
:1040C80042F004021A621A6A42F001021A62D6E742
:1040D800FEF7E2F90646474B1B6A13F0020F08D0B9
:1040E800FEF7DAF9801B41F288339842F3D90320AE
:1040F80077E0E5B9E369002B72D03E4A526802F0D6
:104108000C02082A56D0022B17D03B4B00221A6605
:10411800FEF7C2F90446374B1B6813F0007F47D0FF
:10412800FEF7BAF9001B0228F5D9032059E0314AF5
:10413800D36923F08053D361DCE72F4B00221A6642
:10414800FEF7AAF905462B4B1B6813F0007F06D033
:10415800FEF7A2F9401B0228F5D9032041E0236AA3
:10416800B3F5803F1AD023494B6823F47413226AAD
:10417800606A024313434B601F4B01221A66FEF725
:104188008BF904461B4B1B6813F0007F0ED1FEF71A
:1041980083F9001B0228F5D9032022E0154A536849
:1041A80023F40033A1680B435360DCE7002018E0D8
:1041B800002016E0012B16D00E4B5B6803F480310B
:1041C800226A914211D103F47013626A93420ED1AC
:1041D800002006E001207047012002E0012000E0F5
:1041E800002002B070BD0120FBE70120F9E70120A3
:1041F800F7E700BF00100240000042420F4B5B6827
:1042080003F00C02082A01D00D487047C3F383421B
:104218000C49885C13F4803F0BD0084B5B68C3F3F0
:104228004043094AD35C064A02FB00F0B0FBF3F0B6
:104238007047064B03FB00F0704700BF00100240B8
:1042480000127A00DC520108D852010800093D002A
:10425800002800F0A08070B50D460446524B1B683C
:1042680003F007038B420BD24F4A136823F007036E
:104278000B431360136803F007038B4240F08D80F3
:10428800236813F0020F17D013F0040F04D0474A25
:10429800536843F4E0635360236813F0080F04D0B5
:1042A800424A536843F460535360404A536823F0CA
:1042B800F003A1680B435360236813F0010F31D05A
:1042C8006368012B20D0022B25D0384A126812F0DF
:1042D800020F64D035494A6822F0030213434B6049
:1042E800FEF7DAF80646314B5B6803F00C036268A8
:1042F800B3EB820F16D0FEF7CFF8801B41F288335C
:104308009842F0D9032045E0284A126812F4003F89
:10431800E0D101203EE0254A126812F0007FD9D191
:10432800012037E0204B1B6803F00703AB420AD992
:104338001D4A136823F007032B431360136803F027
:104348000703AB422DD1236813F0040F06D0174A98
:10435800536823F4E063E1680B435360236813F068
:10436800080F07D0114A536823F46053216943EAC0
:10437800C1035360FFF742FF0C4B5B68C3F30313A1
:104388000B4AD35CD8400B4B18600B4B1868FEF7F0
:104398003FF8002070BD012070470120FAE7012096
:1043A800F8E70120F6E700BF0020024000100240B5
:1043B800C02001080000002008000020014B1868F8
:1043C800704700BF0000002008B5FFF7F7FF044B57
:1043D8005B68C3F30223034AD35CD84008BD00BF1F
:1043E80000100240B820010808B5FFF7E7FF044BAA
:1043F8005B68C3F3C223034AD35CD84008BD00BF3F
:1044080000100240B820010870B582B00446036865
:1044180013F0010F36D03F4BDB6913F0805F49D1B1
:104428003C4BDA6942F08052DA61DB6903F0805371
:104438000193019B0125384B1B6813F4807F3BD007
:10444800344B1B6A13F4407313D0626802F4407251
:104458009A420ED02F4A136A23F440702F4901263E
:10446800C1F840640026C1F84064106213F0010FDF
:1044780036D1284A136A23F4407361680B431362E8
:10448800002D3ED1236813F0020F06D0214A53684D
:1044980023F44043A1680B435360236813F0100FC3
:1044A80034D01C4A536823F4800361690B4353607A
:1044B80000202CE00025BEE7174A136843F48073F8
:1044C8001360FDF7E9FF0646134B1B6813F4807F62
:1044D800B6D1FDF7E1FF801B6428F5D9032016E06B
:1044E800FDF7DAFF06460B4B1B6A13F0020FC0D12B
:1044F800FDF7D2FF801B41F288339842F3D903209D
:1045080005E0D36923F08053D361BBE7002002B0F4
:1045180070BD00BF00100240007000400000424221
:1045280008B501380F2863D8DFE800F03557622F47
:104538006262623262626262626262082F4B5A6829
:10454800186810F0807054D0C2F383432C49C85CBB
:1045580012F4803F15D0294B5B68C3F34043294AC6
:10456800D25C294BB3FBF2F303FB00F0234B5B68EF
:1045780013F4800F3DD14000244BA3FB00304008CA
:1045880037E0234B03FB00F0F0E7FFF737FE30E09E
:10459800FFF734FE2DE0194B1B6A40F202321A4035
:1045A800B2F5817F26D003F44073B3F5007F04D0C1
:1045B800B3F5407F09D000201BE0104A526A12F080
:1045C800020FF5D049F6404013E00C4B186810F480
:1045D80000300ED04FF224400BE0FFF705FF074BE9
:1045E8005B68C3F3813301335B00B0FBF3F000E099
:1045F800002008BD4FF40040FBE700BF0010024058
:10460800F0520108EC52010800127A00ABAAAAAADB
:1046180000093D0000B5036899691FFA81FED86951
:104628009A691FFA82FCE64505D0D86980B240EA4B
:1046380002405DF804FB80B240EA0140F9E70368F4
:10464800186A5B6A9BB243EA00407047030903EBB0
:10465800830300F00F0000EB4300C0B27047000076
:1046680000F5FA6C022921D801EB4103C1EBC30123
:104678001E4BA3FB013102EB5103634400F2CF70E0
:1046880003EB90031A4AA2FB0020A3EB501303EBA1
:10469800D01304331748A0FB03201A1A00EB52006A
:1046A8008008C0EBC000181AC0B2704701EB410384
:1046B800C1EBC3010D4BA3FB013102EB5103634472
:1046C80003EB9C030A4AA2FB0C12A3EB521303EB65
:1046D800D21302330748A0FB03201A1A00EB52003A
:1046E8008008C0EBC000181ADEE700BF398EE33837
:1046F8001F85EB512549922438B50446FDF7CCFEB9
:10470800054623685A6812F0200F07D1FDF7C4FE4A
:10471800401BB0F57A7FF4D9032004E05A6842F0D0
:1047280010025A60002038BD38B504460268536844
:1047380023F010035360FDF7AFFE054623685B685E
:1047480013F0200F07D1FDF7A7FE401BB0F57A7FC5
:10475800F4D9032000E0002038BD38B505460C46E2
:10476800FFF7CAFF08B1012038BD2B68220C9A61F7
:104778002B68A4B2DC612846FFF7D6FF0028F3D0E7
:104788000120F1E738B505460C46FFF7B5FF08B13B
:10479800012038BD2B68220C1A622B68A4B25C6217
:1047A8002846FFF7C1FF0028F3D00120F1E770B5D4
:1047B800002857D00D460646002955D0037C012B0A
:1047C80054D00123037402234374BAB90B784C788C
:1047D800C4EB0414A4004FF4616202FB03448B7819
:1047E8001C4421463046FFF7B8FF0546C8B10423EC
:1047F8007374002333740125284670BD0878FFF7C9
:1048080025FF4FF4616303FB00F46878FFF71EFF90
:10481800C0EB001004EB8004A878FFF717FF0444EE
:10482800DFE73268536823F0050353603046FFF72B
:1048380006FFB0F1FF3F01D0844204D8012373740E
:1048480000233374D8E700F5A83101F5C07130466C
:10485800FFF798FF0028F1D0042373740023337402
:104868000125C9E70125C7E70125C5E70225C3E7F3
:1048780000285AD038B50D460446002957D0037C85
:10488800012B56D00123037402234374BAB9CB78A1
:10489800C3734B7843738B788373A27B617BE07B14
:1048A800FFF7DEFE207328702046FFF7B3FE224B89
:1048B800984211D8012363740020207438BDC87849
:1048C800FFF7C4FEE0736878FFF7C0FE6073A8784E
:1048D800FFF7BCFEA073E0E7184DA5FB00352D0CD3
:1048E800174B03FB150529462046FFF736FF28B16D
:1048F80004236374002323740120DFE72046FFF7B5
:104908009EFEB0F1FF3FD5D08542D3D900F5A8313E
:1049180001F5C0712046FFF735FF0028CAD00423EF
:104928006374002323740120C8E701207047012025
:10493800C4E70220C2E700BF8F5F010007452EC20F
:10494800805101007047000010B5044603681A68DA
:1049580012F0020F03D05B6813F0020F06D1074B69
:104968004FF400325A610123637410BDFFF7EAFF68
:104978002268536823F002035360F0E70004014003
:10498800C0B138B505460268536823F00803536080
:10499800FDF782FD04462B685B6813F0080F07D10A
:1049A800FDF77AFD001BB0F57A7FF4D9032000E00B
:1049B800002038BD01207047002850D010B50446AB
:1049C800437C4BB1022363742046FFF7D9FF38B10B
:1049D80004236374012010BD0374FCF769FDF1E73B
:1049E8002046FFF789FE28BB2268536823F0070397
:1049F8005360A36823B11B4A136B23F001031363AD
:104A0800184AD36A23F46073A1680B43D3626368BE
:104A1800B3F1FF3F12D02268C3F3034191602268CB
:104A28009BB2D3602046FFF77FFE88B104236374EE
:104A38000120D0E7042363740120CCE70120FFF7AD
:104A48006FFD08B1431EE6E7042363740120C2E743
:104A58000023E37301236373A3736374BBE701202B
:104A6800704700BF006C00407047704703681A68C1
:104A780012F0010F1CD010B504465A6812F0010F4D
:104A880010D05B6813F0040F0DD0FFF7EEFF23681A
:104A98006FF004025A60042363742268536823F099
:104AA8000103536010BDFFF7DFFF01236374F4E7D0
:104AB8007047000070B582B0044600230193006877
:104AC80001F0D9FB054610B1284602B070BD206838
:104AD80001F09AFE38B90123A364A36C012B0BD013
:104AE8002E46284614E00023A364206801F0C3FB87
:104AF8000028F2D00546E7E70021206801F022FDF2
:104B08000028EDD04FF08055DEE7019B013301937B
:104B1800019A4FF6FE739A4213D896B9002120687D
:104B280001F010FDE0B91249206801F0B9FD064610
:104B3800C0B90021206801F089FBC30FE5D01E46EB
:104B4800E3E7019A4FF6FE739A420ED810F08043BD
:104B580002D001236364B7E7002262641D46B3E70D
:104B68000546B1E74FF08055AEE74FF08075ABE7EB
:104B7800000010C170B581B104460E46016D0904EC
:104B8800006801F0F7FC054608B1284670BD002111
:104B9800206801F05BFB3060F7E74FF00065F4E751
:104BA8002DE9F04F87B005460C4616469B46DDF8C2
:104BB80040A0FDF771FC002C36D0814695F8347082
:104BC800FFB2012F40F005810023AB6306EB0B0316
:104BD800EA6D93422ED8032385F834302B680022DF
:104BE800DA626B6C012B00D076024FF0FF33009332
:104BF8004FEA4B230193902302930223039300234C
:104C08000493012305936946286801F022FBBBF150
:104C1800010F14D902232B633146286801F018FCD0
:104C2800A0B9DDF8048038E0AB6B43F00063AB63F8
:104C38000127D3E0AB6B43F00073AB63CEE00123F5
:104C48002B633146286801F0EBFBE9E72B68654ADE
:104C58009A63AB6B0343AB63012385F834300023BD
:104C68002B63BBE0286801F0CEFA2070C0F307235D
:104C78006370C0F30743A370000EE0700434A8F11A
:104C880004080136072EEDD9FDF706FCA0EB090054
:104C9800504510D2BAF1000F0DD02868466B40F28B
:104CA8002A331E4015D1436B13F4004FECD0B8F1F2
:104CB800000FE9D0E6E72B684A4A9A63AB6B43F0EA
:104CC8000043AB63012385F8343000232B630327AB
:104CD80084E0436B13F4807F05D0BBF1010F02D948
:104CE8006B6C032B38D12B685A6B12F0080F44D128
:104CF8005A6B12F0020F4CD15A6B12F0200F54D19C
:104D08002868436B13F4001F5BD0B8F1000F58D02C
:104D180001F079FA2070C0F307236370C0F30743EA
:104D2800A370000EE0700434A8F10408FDF7B4FB8A
:104D3800A0EB0900504502D2BAF1000FE0D12B6870
:104D4800284A9A63AB6B43F00043AB63012385F8B1
:104D5800343000232B6341E001F0C2FB03460028F6
:104D6800C1D02A681F499163AA6B1343AB6301231F
:104D780085F8343000232B6330E01A4A9A63AB6B12
:104D880043F00803AB63012385F8343000232B6319
:104D980024E0144A9A63AB6B43F00203AB6301232C
:104DA80085F8343000232B6318E00E4A9A63AB6B06
:104DB80043F02003AB63012385F8343000232B63D1
:104DC8000CE040F23A538363012385F8343000271E
:104DD80004E0AB6B43F00053AB630127384607B0E0
:104DE800BDE8F08FFF0540002DE9F04F8BB0054678
:104DF8000C4616469B46DDF850A0FDF74DFB002CEF
:104E080037D0804695F83470FFB2012F40F0E28029
:104E18000023AB6306EB0B03EA6D93422FD8032301
:104E280085F834302B680022DA626B6C012B00D0D5
:104E380076024FF0FF3304934FEA4B2305939023F8
:104E480006930023079308930123099304A928686C
:104E580001F0FFF9BBF1010F16D920232B6331466E
:104E6800286801F025FB0190019BABB9DDF814908F
:104E780040E0AB6B43F00063AB630127AFE0AB6B83
:104E880043F00073AB63AAE010232B633146286814
:104E980001F0F6FA0190E7E72B68534A9A63AB6B87
:104EA800019A1343AB63012385F8343000232B6345
:104EB80095E023780393627843EA02230393A27868
:104EC80043EA02430393E27843EA02630393043418
:104ED800A9F1040903A9286801F098F90136072EF9
:104EE800E7D9FDF7D9FAA0EB0800504510D2BAF17E
:104EF800000F0DD02868466B40F21A331E4015D1BA
:104F0800436B13F4804FECD0B9F1000FE9D0E6E71A
:104F18002B68354A9A63AB6B019A1343AB63012341
:104F280085F8343000232B63032758E0436B13F4D0
:104F3800807F05D0BBF1010F02D96B6C032B18D110
:104F48002B685A6B12F0080F24D15A6B12F0020F1B
:104F58002CD15A6B12F0100F34D0234A9A63AB6BE2
:104F680043F01003AB63012385F8343000232B632F
:104F780035E001F0B5FA03460028E1D02A681A495D
:104F88009163AA6B1343AB63012385F83430002384
:104F98002B6324E0144A9A63AB6B43F00803AB63BA
:104FA800012385F8343000232B6318E00E4A9A63F6
:104FB800AB6B43F00203AB63012385F83430002365
:104FC8002B630CE040F23A529A63012385F834309F
:104FD800002704E0AB6B43F00053AB63012738466E
:104FE8000BB0BDE8F08F00BFFF0540000346426EDE
:104FF800920F0A70426EC2F383624A7090F867207B
:1050080002F003028A7090F86620CA7090F8652052
:105018000A7190F864204A71826E120DCA80B0F845
:105028006A2002F00F020A72826EC2F3C0324A721C
:10503800826EC2F380328A72826EC2F34032CA72C2
:10504800826EC2F300320A7300224A73426C002A4D
:1050580040F08680806E40F6FC7202EA8002D86ECC
:1050680042EA90720A61DA6EC2F3C2620A7593F874
:105078006F2002F007024A75DA6EC2F342528A754F
:10508800DA6EC2F38242CA75DA6EC2F3C2320A76A7
:105098000A6901325A65087E00F007000230824032
:1050A8005A6591F808C00CF00F0C012000FA0CF0BA
:1050B8009865400A00FB02F2DA654FF400721A663E
:1050C800DA6EC2F380324A76DA6EC2F3C6128A7694
:1050D800DA6E02F07F02CA761A6FD20F0A771A6F59
:1050E800C2F341724A771A6FC2F382628A771A6FE3
:1050F800C2F38352CA771A6FC2F3405281F8202054
:10510800002081F82100B3F8722002F0010281F832
:1051180022201A6FC2F3C03281F823201A6FC2F31B
:10512800803281F824201A6FC2F3403281F825209A
:105138001A6FC2F3003281F826201A6FC2F3812257
:1051480081F827201A6FC2F3012281F828201B6FEB
:10515800C3F3460381F82930012381F82A307047C8
:10516800012A11D1826E120402F47C12B0F86E008A
:1051780002430A610A69013292025A65DA654FF4FC
:1051880000729A651A669BE7026805499163826B0B
:1051980042F080528263012083F83400704700BFD8
:1051A800FF05400070B590B004460123ADF81230F9
:1051B800006801F034F800286CD0636C032B45D1EB
:1051C800636C032B5DD1636C032B1DD0BDF81210EB
:1051D80021650904206801F028FA054600285BD1FA
:1051E8000021206801F032F860660421206801F08F
:1051F8002DF8A0660821206801F028F8E0660C2147
:10520800206801F023F820670421206801F01EF8C7
:10521800000DE06405A92046FFF7E8FE00283ED10E
:10522800226D12040023206801F074F9054698BB2A
:10523800234653F8106B93E807008DE80700043401
:1052480094E80E00304600F0C5FF25E0206801F024
:10525800D7F9054600BB0021206800F0F7FF60671A
:105268000421206800F0F2FFA0670821206800F000
:10527800EDFFE0670C21206800F0E8FFC4F880002B
:105288009EE70DF11201206801F074FA0546002826
:1052980099D001E04FF08065284610B070BD4FF0FE
:1052A8008055F9E770B58AB0044600230493059346
:1052B800069307930893762309930AAB13E907002B
:1052C8008DE8070004AB0ECB206800F083FF18B10F
:1052D800012528460AB070BD05461A4E0023C6F8B7
:1052E800A030206800F097FF0123C6F8A030022004
:1052F800FDF7D8F82046FFF7DDFB30B1012584F82B
:105308003450A36B0343A363E3E72046FFF74AFF48
:1053180030B1012584F83450A36B0343A363D8E765
:105328004FF40071206801F063F80028D1D0236899
:1053380005499963A36B0343A363012584F834509B
:10534800C7E700BF00003042FF054000A8B110B514
:10535800044690F8343063B1032384F8343020468F
:10536800FFF7A0FF58B9A0632063012384F8343005
:1053780010BD0377FCF7DCF8EEE701207047012049
:10538800F6E7436C0B60836C4B60C36C8B60036DFA
:10539800CB60436D0B61836D4B61C36D8B61036E95
:1053A800CB610020704710B582B0044600230193FA
:1053B80001A9FFF7DFFB10B1A36B0343A3630198B7
:1053C800C0F3432002B010BD002856D010B50446E3
:1053D800436A33B94368B3F5827F05D00023C361BC
:1053E80002E00023036143610023A36294F8513073
:1053F800002B3CD0022384F851302268136823F034
:1054080040031360636803F48273A26802F40442E1
:105418001343E26802F400621343226902F00202B5
:105428001343626902F001021343A26902F4007295
:105438001343E26902F038021343226A02F0800241
:105448001343A26A02F40052216813430B60638B72
:10545800226803F0040353602268D36923F40063CD
:10546800D36100206065012384F8513010BD84F8B1
:1054780050302046FCF7C2F8BCE70120704760B303
:1054880070B50E46154604468369B3F5807F26D06D
:1054980090F84130E3B1214651F8080B00F000FEC6
:1054A800A2683146206800F02FFE236BA2682946C7
:1054B800606800F051FE2268A16852F8213043F07C
:1054C800010342F82130012384F84130002070BDE7
:1054D80080F84030FBF722FEDDE70120704701200D
:1054E800F5E710B4036A046A24F0010404628469CD
:1054F80024F0F00C4CEA021223F00A030B438261F9
:10550800036210BC704710B4036A046A24F01004E4
:105518000462846924F4704C4CEA023223F0A0033C
:1055280043EA01138261036210BC7047836823F069
:1055380070030B4343F0070383607047704770475D
:1055480070477047704710B5044603681A6912F02F
:10555800020F11D0DA6812F0020F0DD06FF00202BC
:105568001A610123037703689B6913F0030F70D056
:10557800FFF7E6FF0023237723681A6912F0040F68
:1055880012D0DA6812F0040F0ED06FF004021A611C
:105598000223237723689B6913F4407F5FD020465A
:1055A800FFF7CEFF0023237723681A6912F0080F4C
:1055B80012D0DA6812F0080F0ED06FF008021A61E4
:1055C800042323772368DB6913F0030F4ED02046AA
:1055D800FFF7B6FF0023237723681A6912F0100F2C
:1055E80012D0DA6812F0100F0ED06FF010021A61A4
:1055F800082323772368DB6913F4407F3DD02046D6
:10560800FFF79EFF0023237723681A6912F0010F22
:1056180003D0DA6812F0010F36D123681A6912F044
:10562800800F03D0DA6812F0800F34D123681A692A
:1056380012F0400F03D0DA6812F0400F32D123681D
:105648001A6912F0200F03D0DA6812F0200F30D157
:1056580010BDFFF774FF2046FFF773FF8AE7204667
:10566800FFF76DFF2046FFF76CFF9BE72046FFF72B
:1056780066FF2046FFF765FFACE72046FFF75FFFB0
:105688002046FFF75EFFBDE76FF001021A61204672
:10569800FFF754FFC1E76FF080021A61204600F05F
:1056A80052F9C3E76FF040021A612046FFF74AFF3C
:1056B800C5E76FF020021A61204600F043F9C7E7FA
:1056C8000368244A904212D002F5006290420ED03C
:1056D800B0F1804F0BD0A2F59832904207D002F576
:1056E8008062904203D002F58062904203D123F099
:1056F80070034A681343174A904212D002F50062B9
:1057080090420ED0B0F1804F0BD0A2F59832904263
:1057180007D002F58062904203D002F58062904281
:1057280003D123F44073CA68134323F080034A6902
:10573800134303608B68C3620B688362054B98420E
:1057480003D003F50063984201D10B690363012379
:1057580043617047002C014040B310B5044690F8EF
:105768003D30F3B1022384F83D30214651F8040B53
:10577800FFF7A6FF012384F8463084F83E3084F80A
:105788003F3084F8403084F8413084F8423084F85F
:10579800433084F8443084F8453084F83D300020A4
:1057A80010BD80F83C30FCF751F8DBE7012070476A
:1057B80010B4846824F47F4C42EA03220A4342EA84
:1057C8000C02826010BC704790F83C30012B78D0F6
:1057D80010B50446012380F83C30022380F83D30A0
:1057E8000268936823F47F4323F0770393600B6880
:1057F800602B4CD023D8402B54D011D8202B03D069
:105808000AD80BB1102B05D119462068FFF78EFE78
:10581800002028E0012026E0302BF5D0012022E0EE
:10582800502B0AD1CA6849680068FFF75AFE502110
:105838002068FFF77BFE002015E0012013E0B3F598
:10584800805F3AD0B3F5005F14D0702B37D1CB68A6
:105858004A6889680068FFF7ABFF2268936843F0DD
:10586800770393600020012384F83D30002384F8F7
:105878003C3010BDCB684A6889680068FFF798FF1C
:105888002268936843F4804393600020EBE7CA687A
:1058980049680068FFF737FE60212068FFF746FE79
:1058A8000020E0E7CA6849680068FFF71AFE40214F
:1058B8002068FFF73BFE0020D5E70020D3E7012052
:1058C800D1E702207047000090F83C20012A34D02C
:1058D80010B40346012280F83C20022280F83D20C3
:1058E80002685068946820F0700C086840EA0C0060
:1058F80050601A681248824212D000F50060824255
:105908000ED0B2F1804F0BD0A0F59830824207D06C
:1059180000F58060824203D000F58060824204D1A5
:1059280024F08004496821439160012283F83D20D6
:10593800002083F83C0010BC70470220704700BF6D
:10594800002C014070477047026802F10C0353E8CD
:10595800003F23F490730C3242E800310029F3D160
:10596800026802F1140353E8003F23F001031432E4
:1059780042E800310029F3D1036B012B05D0202325
:1059880080F84230002303637047026802F10C0379
:1059980053E8003F23F010030C3242E8003100299D
:1059A800F3D1ECE790F84130DBB2212B01D0022093
:1059B80070478368B3F5805F17D0036A5A1C026288
:1059C8001A7803685A60C38C9BB2013B9BB2C384AC
:1059D8004BB90268D36823F08003D3600268D368A8
:1059E80043F04003D360002070470369002BE4D1E3
:1059F800036A1B880268C3F308035360036A02330F
:105A08000362E0E710B504460268136923F44053C3
:105A1800C1680B43136183680269134342691A43DF
:105A28000168CB6823F4B05323F00C031343CB6015
:105A38000268536923F4407381690B435361026818
:105A4800134B9A4220D0FEF7BFFC024602EB8202BB
:105A580002EB820263689B00B2FBF3F20D48A0FBE5
:105A680002314909642303FB11231B013233A0FBD4
:105A780003035B0903F0F00202EB011203F00F03CA
:105A8800216813448B6010BDFEF7AEFC0246DDE7CB
:105A9800003801401F85EB512DE9F84305460F46B4
:105AA80016469946DDF820802B681C6837EA0404FE
:105AB8000CBF01240024B4422DD1B8F1FF3FF3D02C
:105AC800B8F1000F05D0FCF7E7FCA0EB0900404552
