:020000040800F2
:100000000000012065290008351D0008371D000883
:10001000391D00083B1D00083D1D000800000000C0
:100020000000000000000000000000003F1D00086C
:10003000411D000800000000431D0008451D000888
:10004000AD290008AD290008AD2900084D1D0008A4
:10005000AD2900085D1D00085F1D0008691D00082E
:10006000AD290008731D00087D1D0008AD2900089A
:10007000AD290008AD290008AD290008891D000838
:10008000AD290008AD290008AD290008AD290008F8
:10009000991D0008AD290008AD290008AD29000808
:1000A000AD290008AD290008AD290008AD290008D8
:1000B000AD290008AD290008A91D0008AD290008D8
:1000C000AD290008AD290008AD290008AD290008B8
:1000D000AD290008B91D0008AD290008C91D000898
:1000E000AD290008D91D0008AD290008AD29000878
:1000F000AD290008AD290008AD290008AD29000888
:10010000AD290008AD290008AD290008AD29000877
:10011000AD290008AD290008AD290008AD29000867
:10012000AD290008AD290008AD290008AD29000857
:1001300000000000000000000000000000000000BF
:1001400000000000000000000000000000000000AF
:10015000000000000000000000000000000000009F
:10016000000000000000000000000000000000008F
:10017000000000000000000000000000000000007F
:10018000000000000000000000000000000000006F
:10019000000000000000000000000000000000005F
:1001A000000000000000000000000000000000004F
:1001B000000000000000000000000000000000003F
:1001C000000000000000000000000000000000002F
:1001D000000000000000000000000000000000001F
:0401E0005FF8E0F1F3
:1001E80081F0004102E000BF83F0004330B54FEAE0
:1001F80041044FEA430594EA050F08BF90EA020F4D
:100208001FBF54EA000C55EA020C7FEA645C7FEADF
:10021800655C00F0E2804FEA5454D4EB5555B8BF02
:100228006D420CDD2C4480EA020281EA030382EA73
:10023800000083EA010180EA020281EA0303362D05
:1002480088BF30BD11F0004F4FEA01314FF4801CD8
:100258004CEA113102D0404261EB410113F0004FEA
:100268004FEA03334CEA133302D0524263EB4303A1
:1002780094EA050F00F0A780A4F10104D5F1200E3F
:100288000DDB02FA0EFC22FA05F2801841F100019A
:1002980003FA0EF2801843FA05F359410EE0A5F16E
:1002A80020050EF1200E012A03FA0EFC28BF4CF09F
:1002B800020C43FA05F3C01851EBE37101F0004555
:1002C80007D54FF0000EDCF1000C7EEB00006EEB62
:1002D8000101B1F5801F1BD3B1F5001F0CD34908EC
:1002E8005FEA30004FEA3C0C04F101044FEA445243
:1002F80012F5800F80F09A80BCF1004F08BF5FEACA
:10030800500C50F1000041EB045141EA050130BDA9
:100318005FEA4C0C404141EB0101013C28BFB1F5BB
:10032800801FE9D291F0000F04BF01460020B1FA06
:1003380081F308BF2033A3F10B03B3F120020CDAD9
:100348000C3208DD02F1140CC2F10C0201FA0CF0B7
:1003580021FA02F10CE002F11402D8BFC2F1200C1C
:1003680001FA02F120FA0CFCDCBF41EA0C019040D2
:10037800E41AA2BF01EB0451294330BD6FEA04041B
:100388001F3C1CDA0C340EDC04F11404C4F1200206
:1003980020FA04F001FA02F340EA030021FA04F318
:1003A80045EA030130BDC4F10C04C4F1200220FA6F
:1003B80002F001FA04F340EA0300294630BD21FAAD
:1003C80004F0294630BD94F0000F83F4801306BF73
:1003D80081F480110134013D4EE77FEA645C18BF67
:1003E8007FEA655C29D094EA050F08BF90EA020FFE
:1003F80005D054EA000C04BF1946104630BD91EAF6
:10040800030F1EBF0021002030BD5FEA545C05D1F8
:100418004000494128BF41F0004130BD14F5800437
:100428003CBF01F5801130BD01F0004545F0FE41AB
:1004380041F470014FF0000030BD7FEA645C1ABFE0
:10044800194610467FEA655C1CBF0B46024650EA17
:10045800013406BF52EA033591EA030F41F4002143
:1004680030BD00BF90F0000F04BF0021704730B5C9
:100478004FF4806404F132044FF000054FF000019E
:1004880050E700BF90F0000F04BF0021704730B55F
:100498004FF4806404F1320410F0004548BF404234
:1004A8004FF000013EE700BF42004FEAE2014FEA89
:1004B80031014FEA02701FBF12F07F4393F07F4F64
:1004C80081F06051704732F07F4208BF704793F067
:1004D8007F4F04BF41F40021704730B54FF460747A
:1004E80001F0004521F000411CE700BF50EA01027D
:1004F80008BF704730B54FF000050AE050EA010226
:1005080008BF704730B511F0004502D5404261EB95
:1005180041014FF4806404F132045FEA915C3FF4D6
:10052800D8AE4FF003025FEADC0C18BF03325FEA73
:10053800DC0C18BF033202EBDC02C2F1200300FA24
:1005480003FC20FA02F001FA03FE40EA0E0021FA49
:1005580002F11444BDE600BF4FF0FF3C06E000BFC7
:100568004FF0010C02E000BF4FF0010C4DF804CD34
:100578004FEA410C7FEA6C5C4FEA430C18BF7FEAF4
:100588006C5C1BD001B050EA410C0CBF52EA430C22
:1005980091EA030F02BF90EA020F0020704710F1A2
:1005A800000F91EA030F58BF994208BF90422CBF31
:1005B800D8176FEAE37040F0010070474FEA410C2A
:1005C8007FEA6C5C02D150EA013C07D14FEA430C48
:1005D8007FEA6C5CD6D152EA033CD3D05DF8040BB9
:1005E800704700BF8446104662468C4619466346EB
:1005F80000E000BF01B5FFF7B7FF002848BF10F1C2
:10060800000F01BD4DF808EDFFF7F4FF0CBF012006
:1006180000205DF808FB00BF4DF808EDFFF7EAFF82
:1006280034BF012000205DF808FB00BF4DF808ED3D
:10063800FFF7E0FF94BF012000205DF808FB00BF32
:100648004DF808EDFFF7CEFF94BF012000205DF8BC
:1006580008FB00BF4DF808EDFFF7C4FF34BF0120C9
:1006680000205DF808FB00BF4FEA410C7FEA6C5C94
:1006780002D150EA013C0AD14FEA430C7FEA6C5C94
:1006880002D152EA033C02D14FF0000070474FF00C
:10069800010070474FEA410212F5001215D211D538
:1006A8006FF47873B3EB625212D94FEAC12343F067
:1006B800004343EA505311F0004F23FA02F018BFE9
:1006C800404270474FF00000704750EA013005D1B2
:1006D80011F0004008BF6FF0004070474FF0000075
:1006E800704700BF4FEA4102B2F1E04324BFB3F5BF
:1006F800001CDCF1FE5C0DD901F0004C4FEAC00291
:100708004CEA5070B2F1004F40EB830008BF20F074
:100718000100704711F0804F21D113F13872BCBF2E
:1007280001F00040704741F480114FEA5252C2F183
:100738001802C2F1200C10FA0CF320FA02F018BFCC
:1007480040F001004FEAC1234FEAD32303FA0CFC1F
:1007580040EA0C0023FA02F34FEA4303CCE77FEAAE
:10076800625307D150EA01331EBF4FF0FE4040F4F8
:100778004000704701F0004040F0FE4040F40000A7
:10078800704700BF80F0004002E000BF81F00041E8
:1007980042001FBF5FEA410392EA030F7FEA226C1F
:1007A8007FEA236C6AD04FEA1262D2EB1363C1BFAF
:1007B800D218414048404140B8BF5B42192B88BF1E
:1007C800704710F0004F40F4000020F07F4018BF41
:1007D800404211F0004F41F4000121F07F4118BF61
:1007E800494292EA030F3FD0A2F1010241FA03FC09
:1007F80010EB0C00C3F1200301FA03F100F00043F1
:1008080002D5494260EB4000B0F5000F13D3B0F1B8
:10081800807F06D340084FEA310102F10102FE2A27
:1008280051D2B1F1004F40EBC25008BF20F0010097
:1008380040EA03007047490040EB0000013A28BF36
:10084800B0F5000FEDD2B0FA80FCACF1080CB2EBB9
:100858000C0200FA0CF0AABF00EBC2505242184337
:10086800BCBFD0401843704792F0000F81F40001DC
:1008780006BF80F400000132013BB5E74FEA4103AF
:100888007FEA226C18BF7FEA236C21D092EA030F1B
:1008980004D092F0000F08BF0846704790EA010F95
:1008A8001CBF0020704712F07F4F04D1400028BFC2
:1008B80040F00040704712F100723CBF00F50000A4
:1008C800704700F0004343F0FE4040F400007047DA
:1008D8007FEA226216BF08467FEA23630146420286
:1008E80006BF5FEA412390EA010F40F48000704799
:1008F8004FF0000304E000BF10F0004348BF40423F
:100908005FEA000C08BF704743F0964301464FF07A
:1009180000001CE050EA010208BF70474FF00003D6
:100928000AE000BF50EA010208BF704711F0004317
:1009380002D5404261EB41015FEA010C02BF8446E7
:100948000146002043F0B64308BFA3F18053A3F546
:100958000003BCFA8CF2083AA3EBC25310DB01FA8D
:1009680002FC634400FA02FCC2F12002BCF1004F11
:1009780020FA02F243EB020008BF20F001007047A2
:1009880002F1200201FA02FCC2F1200250EA4C00F6
:1009980021FA02F243EB020008BF20EADC7070473C
:1009A8004FF0FF0C1CEAD0521EBF1CEAD15392EA4A
:1009B8000C0F93EA0C0F6FD01A4480EA010C400226
:1009C80018BF5FEA41211ED04FF0006343EA501080
:1009D80043EA5111A0FB01310CF00040B1F5000FC2
:1009E8003EBF490041EAD3715B0040EA010062F171
:1009F8007F02FD2A1DD8B3F1004F40EBC25008BF5B
:100A080020F00100704790F0000F0CF0004C08BF78
:100A180049024CEA502040EA51207F3AC2BFD2F145
:100A2800FF0340EAC250704740F400004FF0000353
:100A3800013A5DDC12F1190FDCBF00F0004070478D
:100A4800C2F10002410021FA02F1C2F1200200FACB
:100A580002FC5FEA310040F1000053EA4C0308BF92
:100A680020EADC70704792F0000F00F0004C02BFE3
:100A7800400010F4000F013AF9D040EA0C0093F05E
:100A8800000F01F0004C02BF490011F4000F013BB8
:100A9800F9D041EA0C018FE70CEAD15392EA0C0F26
:100AA80018BF93EA0C0F0AD030F0004C18BF31F091
:100AB800004CD8D180EA010000F00040704790F067
:100AC800000F17BF90F0004F084691F0000F91F00B
:100AD800004F14D092EA0C0F01D142020FD193EAD1
:100AE8000C0F03D14B0218BF084608D180EA010059
:100AF80000F0004040F0FE4040F40000704740F035
:100B0800FE4040F4400070474FF0FF0C1CEAD05202
:100B18001EBF1CEAD15392EA0C0F93EA0C0F69D05E
:100B2800A2EB030280EA010C49024FEA402037D0C9
:100B38004FF0805343EA111143EA10130CF00040C0
:100B48008B4238BF5B0042F17D024FF4000C8B42B0
:100B580024BF5B1A40EA0C00B3EB510F24BFA3EB90
:100B6800510340EA5C00B3EB910F24BFA3EB910360
:100B780040EA9C00B3EBD10F24BFA3EBD10340EABA
:100B8800DC001B0118BF5FEA1C1CE0D1FD2A3FF600
:100B980050AF8B4240EBC25008BF20F001007047B5
:100BA8000CF0004C4CEA50207F32C2BFD2F1FF0358
:100BB80040EAC250704740F400004FF00003013A89
:100BC80037E792F0000F00F0004C02BF400010F42D
:100BD800000F013AF9D040EA0C0093F0000F01F041
:100BE800004C02BF490011F4000F013BF9D041EA63
:100BF8000C0195E70CEAD15392EA0C0F08D1420296
:100C08007FF47DAF93EA0C0F7FF470AF084676E768
:100C180093EA0C0F04D14B023FF44CAF08466EE741
:100C280030F0004C18BF31F0004CCAD130F000420F
:100C38007FF45CAF31F000437FF43CAF5FE700BF67
:100C48004FF0FF3C06E000BF4FF0010C02E000BF90
:100C58004FF0010C4DF804CD4FEA40024FEA410332
:100C68007FEA226C18BF7FEA236C11D001B052EAE8
:100C7800530C18BF90EA010F58BFB2EB030088BFAE
:100C8800C81738BF6FEAE17018BF40F0010070471D
:100C98007FEA226C02D15FEA402C05D17FEA236CFF
:100CA800E4D15FEA412CE1D05DF8040B704700BF46
:100CB800844608466146FFE70FB5FFF7C9FF0028DD
:100CC80048BF10F1000F0FBD4DF808EDFFF7F4FF16
:100CD8000CBF012000205DF808FB00BF4DF808EDAF
:100CE800FFF7EAFF34BF012000205DF808FB00BFD2
:100CF8004DF808EDFFF7E0FF94BF012000205DF8F4
:100D080008FB00BF4DF808EDFFF7D2FF94BF0120A4
:100D180000205DF808FB00BF4DF808EDFFF7C8FF9D
:100D280034BF012000205DF808FB00BF80EA010CF9
:100D38001CF0030F37D110F0030C20F0030021F052
:100D4800030150F8042B08BF51F8043B0ED08CF077
:100D5800030C6FF07F434FEACC0C23FA0CFC51F8DC
:100D6800043B42EA0C0243EA0C0300BFA2F1013C37
:100D78009A4201BF2CEA020C1CF0803F50F8042B69
:100D880051F8043BF2D04FEA02604FEA12220128E0
:100D980028BFB0EB036F08BF1B0AF4D003F0FF03B2
:100DA800000EC01A704710F0030F0AD010F8012B7C
:100DB80011F8013B012A28BF9A42F4D0A2EB0300A4
:100DC80070474DF8045D50F8042B01F0030521F03D
:100DD800030151F8043B022D26D04DD822F07F455F
:100DE800B5EB132FA2F1013C2CEA020C0DD11CF03B
:100DF800803C08BF51F8043B0AD185EA0205B5EBEF
:100E0800036F0CD150F8042BE8E74FEA13235BE09B
:100E18003CF07F4C54D10B784FEA126554E04FEA0E
:100E2800126503F0FF034FE04FEA0245A2F1013CCF
:100E38004FEA15452CEA020CB5EB134F18D11CF0FC
:100E4800803C08BF51F8043B07D185EA0205B5EBA1
:100E5800034F09D150F8042BE6E75FEA0C4C2FD179
:100E68000B884FEA12452FE04FEA03434FEA124539
:100E78004FEA134328E000BF02F0FF05B5EB136FFC
:100E8800A2F1013C2CEA020C0DD11CF0803C08BFF9
:100E980051F8043B0AD185EA0205B5EB032F0AD1C4
:100EA80050F8042BE8E74FEA13630DE012F0FF0F48
:100EB80006D051F8043B4FEA122523F07F4303E0A4
:100EC8004FF0000020BC704705F0FF0203F0FF0060
:100ED800012828BF904204BF2D0A1B0AF4D0A2EBB8
:100EE800000020BC704700BF844641EA000313F0AD
:100EF800030349D1403A23D30B6803604B6843602E
:100F08008B688360CB68C3600B6903614B6943617D
:100F18008B698361CB69C3610B6A03624B6A436265
:100F28008B6A8362CB6AC3620B6B03634B6B43634D
:100F38008B6B8363CB6BC36340304031403ADBD269
:100F480030320BD30B6803604B6843608B68836057
:100F5800CB68C36010301031103AF3D20C3205D38D
:100F680051F8043B40F8043B043AF9D2043208D063
:100F7800D2071CBF11F8013B00F8013B01D30B88D5
:100F880003806046704700BF082A13D38B07B1D08F
:100F980010F00303AED0C3F10403D21ADB071CBF61
:100FA80011F8013B00F8013BA4D331F8023B20F8CB
:100FB800023B9FE7043AD9D3013A11F8013B00F804
:100FC800013BF9D20B7803704B7843708B788370B0
:100FD8006046704770B54FF0FF0C4CF4E06C1CEAAB
:100FE80011541DBF1CEA135594EA0C0F95EA0C0F17
:100FF80000F0DEF82C4481EA030621EA4C5123EA8A
:101008004C5350EA013518BF52EA033541F48011B8
:1010180043F4801338D0A0FB02CE4FF00005E1FB6B
:1010280002E506F00042E0FB03E54FF00006E1FBB5
:1010380003569CF0000F18BF4EF0010EA4F1FF04F8
:10104800B6F5007F64F5407404D25FEA4E0E6D4138
:1010580046EB060642EAC62141EA55514FEAC52049
:1010680040EA5E504FEACE2EB4F1FD0C88BFBCF5C5
:10107800E06F1ED8BEF1004F08BF5FEA500E50F176
:10108800000041EB045170BD06F0004646EA01013C
:1010980040EA020081EA0301B4EB5C04C2BFD4EB6E
:1010A8000C0541EA045170BD41F480114FF0000E67
:1010B800013C00F3AB8014F1360FDEBF002001F0D5
:1010C800004170BDC4F10004203C35DA0C341BDC4F
:1010D80004F11404C4F1200500FA05F320FA04F021
:1010E80001FA05F240EA020001F0004221F0004155
:1010F80010EBD37021FA04F642EB06015EEA430EC8
:1011080008BF20EAD37070BDC4F10C04C4F12005F7
:1011180000FA04F320FA05F001FA04F240EA0200AA
:1011280001F0004110EBD37041F100015EEA430E7B
:1011380008BF20EAD37070BDC4F1200500FA05F29B
:101148004EEA020E20FA04F301FA05F243EA02031A
:1011580021FA04F001F0004121FA04F220EA020029
:1011680000EBD3705EEA430E08BF20EAD37070BD6F
:1011780094F0000F0FD101F00046400041EB01014F
:1011880011F4801F08BF013CF7D041EA060195F031
:10119800000F18BF704703F00046520043EB0303EB
:1011A80013F4801F08BF013DF7D043EA06037047D8
:1011B80094EA0C0F0CEA135518BF95EA0C0F0CD0E3
:1011C80050EA410618BF52EA4306D1D181EA030129
:1011D80001F000414FF0000070BD50EA410606BF23
:1011E8001046194652EA430619D094EA0C0F02D168
:1011F80050EA013613D195EA0C0F05D152EA0336AD
:101208001CBF104619460AD181EA030101F00041CA
:1012180041F0FE4141F470014FF0000070BD41F013
:10122800FE4141F4780170BD70B54FF0FF0C4CF4ED
:10123800E06C1CEA11541DBF1CEA135594EA0C0F0C
:1012480095EA0C0F00F0A7F8A4EB050481EA030E59
:1012580052EA03354FEA013100F088804FEA033340
:101268004FF0805545EA131343EA12634FEA02220E
:1012780045EA111545EA10654FEA00260EF00041CF
:101288009D4208BF964244F1FD0404F5407402D221
:101298005B084FEA3202B61A65EB03055B084FEAB2
:1012A80032024FF480104FF4002CB6EB020E75EBAF
:1012B800030E22BFB61A754640EA0C005B084FEAD7
:1012C8003202B6EB020E75EB030E22BFB61A754654
:1012D80040EA5C005B084FEA3202B6EB020E75EB9F
:1012E800030E22BFB61A754640EA9C005B084FEA17
:1012F8003202B6EB020E75EB030E22BFB61A754624
:1013080040EADC0055EA060E18D04FEA051545EA12
:1013180016754FEA06164FEAC30343EA52734FEABB
:10132800C2025FEA1C1CC0D111F4801F0BD141EA34
:1013380000014FF000004FF0004CB6E711F4801F99
:1013480004BF01430020B4F1FD0C88BFBCF5E06F79
:101358003FF6AFAEB5EB030C04BFB6EB020C5FEA89
:10136800500C50F1000041EB045170BD0EF0004EDE
:101378004EEA113114EB5C04C2BFD4EB0C0541EA10
:10138800045170BD41F480114FF0000E013C90E60D
:1013980045EA060E8DE60CEA135594EA0C0F08BFD1
:1013A80095EA0C0F3FF43BAF94EA0C0F0AD150EAD0
:1013B80001347FF434AF95EA0C0F7FF425AF104663
:1013C80019462CE795EA0C0F06D152EA03353FF48B
:1013D800FDAE1046194622E750EA410618BF52EA08
:1013E80043067FF4C5AE50EA41047FF40DAF52EADC
:1013F80043057FF4EBAE12E74A0011D212F5001252
:1014080011D20DD56FF47873B3EB62520ED44FEA54
:10141800C12343F0004343EA505323FA02F07047D4
:101428004FF00000704750EA013002D14FF0FF3012
:1014380070474FF00000704753B94AB9002908BFF8
:1014480000281CBF4FF0FF314FF0FF3000F00CB800
:10145800ADF1080C6DE904CE19F0F2FADDF804E0FC
:10146800DDE9022304B07047704700BF0348044B0E
:10147800834202D0034B03B118477047F40700209A
:10148800F4070020000000000548064B1B1AD90F7E
:1014980001EBA301491002D0034B03B11847704771
:1014A800F4070020F40700200000000010B5064CE7
:1014B800237843B9FFF7DAFF044B13B10448AFF3BD
:1014C80000800123237010BDF407002000000000F5
:1014D800FCAC010808B5054B1BB105490548AFF33D
:1014E8000080BDE80840FFF7CFBF00BF0000000044
:1014F800F8070020FCAC010800B583B00A4B5A6914
:1015080042F001025A615B6903F001030193019BF8
:10151800002211460F2003F043FC0F2003F050FC7B
:1015280003B05DF804FB00BF0010024030B587B07F
:1015380000230293039304930593134B1B680BB189
:1015480007B030BD104B01221A60104B5A6942F4A3
:1015580080725A615B6903F480730193019B4FF6B3
:1015680080730293022503950324059402A9084871
:1015780003F032FF4CF6B37302930395059402A966
:10158800044803F029FFDBE71008002000100240A0
:10159800001801400014014010B588B000220192E3
:1015A80002920392049205920692079216484FF00F
:1015B8002043036003F5827343608260C260026166
:1015C800102141618261C261026242624FF480531C
:1015D8008362C2620263426382630F2301930293B0
:1015E800FF240394049305911123069301A906F09F
:1015F80002FD30B9054AD36943F48063D36108B06A
:1016080010BD00F009F9F5E71408002000000140BA
:1016180008B5FFF78BFF08BD2DE9F0478AB0002415
:1016280006940794089409944B4B9A6942F0100267
:101638009A619A6902F010020192019A9A6942F03D
:1016480004029A619A6902F004020292029A9A6963
:1016580042F008029A619A6902F008020392039A1A
:101668009A6942F040029A619A6902F04002049233
:10167800049A9A6942F020029A619B6903F0200358
:101688000593059BDFF8D4A001222021504603F0E2
:10169800C6FFDFF8CC9001220421484603F0BFFFC3
:1016A800304E22464FF40041304603F0B8FF4FF069
:1016B8000908CDF818802C4B07930225089506A930
:1016C800304603F089FE12230693284B079301271F
:1016D800089706A9304603F07FFE20230693079754
:1016E8000894099506A9504603F076FE042306934C
:1016F80007970894099506A9484603F06DFE4FF42C
:101708000043069307970894099506A9304603F005
:1017180063FE22462946062003F042FB062003F01A
:101728004FFB22462946072003F03AFB072003F027
:1017380047FB22462946404603F032FB404603F069
:101748003FFB224629460A2003F02AFB0A2003F021
:1017580037FB0AB0BDE8F0870010024000100140D6
:10176800000C014000080140000011100000211089
:1017780038B502680C4B9A4200D038BD0B4C204655
:1017880002F0EEFA78252A46002120460EF062FC87
:101798002A462146064807F07DFB064B1A6813685F
:1017A80023F004031360E8E70038014064080020D0
:1017B800AC0A0020200A002010B50446002200F1DF
:1017C8000C0105F03BFE134BDB78E27B934204D11E
:1017D800104B5978637B994215D00221204605F0B9
:1017E80015FF627B0321204605F010FFA27B042130
:1017F800204605F00BFFE27B064BDA70627B5A70DD
:10180800A27B9A7010BD034B9978A37B9942E4D1CF
:10181800F8E700BF5C08002072B6FEE700B597B095
:10182800282200210CA80EF015FC0023079308932A
:1018380009930A930B9301930293039304930593DB
:10184800069309230C934FF480330D9301221092D1
:1018580012920222139214934FF4E01315930CA8DA
:1018680004F040FFD8B90F23079302210891002301
:1018780009934FF480620A920B9307A805F064F964
:1018880078B9112301934FF4007302930023069350
:1018980001A805F035FA30B917B05DF804FBFFF779
:1018A800BBFFFFF7B9FFFFF7B7FF000010B503F064
:1018B800F9F9FFF7B3FF264C204600F053F8FFF77D
:1018C800ABFEFFF719FEFFF767FE00F0BFFA00F066
:1018D80015FB00F04FF900F02BFB08F073FE0CF03D
:1018E800DBF900F0AFF800F099F900F0B3FE7822C8
:1018F8001849204607F0CEFA174B1A68136823F0E8
:101908000403136015480EF0B5F902F01BFB02F052
:1019180023FE00240EE002F071FC78B90134E4B231
:101928004FF6FF7000F018FC0D4B00221A7005E00E
:1019380002F0B8FB0A4B1B78022BECD0002CF7D036
:10194800012C01D00024F5E702F05EFCF2E700BFAD
:10195800AC0A002064080020200A002018AD010805
:101968006008002008B5054B1860054B186800236F
:101978000222194680680EF085F908BDE0080020AB
:10198800C8060020022801D80120704708B50EF0CB
:101998007FFE09230360002008BD000010B5013850
:1019A80001280AD814464FF0FF3392B2074800685E
:1019B80006F004FF40B9204610BD0EF069FE092369
:1019C80003604FF0FF30F7E70520F5E7E008002057
:1019D800022801D80020704708B50EF059FE0923E7
:1019E80003604FF0FF3008BD08B50EF051FE092323
:1019F80003604FF0FF3008BD08B548B94FF0FF331A
:101A080001220848006806F038FF40B9012008BDE7
:101A18000EF03EFE092303604FF0FF30F7E7052084
:101A2800F5E700BFE008002008B5022804D84FF405
:101A380000534B60002008BD0EF02AFE0923036006
:101A4800F8E7000010B582B00023ADF804308DF837
:101A5800063000932D482E4B03604FF0FF33436050
:101A68004FF48073836005F055FD78BB2748026802
:101A7800136843F001031360012105F0CFFD41F223
:101A88003423984225D000228DF804208DF80520B3
:101A98008DF8062001A91D4805F07FFB78BB0123BE
:101AA8008DF800308DF801308DF8023000228DF865
:101AB80003206946154805F057FC18BB41F234224B
:101AC8000121124805F0A2FD02B010BDFFF7A4FEE7
:101AD800CCE70E4C0221204605F0A0FDE07303215F
:101AE800204605F09BFD60730421204605F096FD15
:101AF800A073002201A9204605F0B0FBE4E7FFF738
:101B08008BFECCE7FFF788FED8E700BFE40800208B
:101B1800002800400268144B9A4200D0704700B574
:101B280083B004F0C3FD114BDA6942F00062DA6158
:101B3800DB6903F000630193019B0D4B0122C3F89D
:101B48003C2400220321084603F02AF9032003F06D
:101B580037F900220321292003F022F9292003F074
:101B68002FF903B05DF804FB002800400010024084
:101B780000004242054B064A1A6000225A609A60E9
:101B8800DA601A615A6104229A617047F8080020E5
:101B98000080014030B589B0002304930593069373
:101BA800079302681A4B9A4201D009B030BD03F579
:101BB80010435A6942F480625A615A6902F4806299
:101BC8000192019A9A6942F010029A619A6902F0A8
:101BD80010020292029A9A6942F020029A619B6965
:101BE80003F020030393039B4FF4885304930225C7
:101BF80005950324079404A9064803F0EDFB042384
:101C080004930595079404A9034803F0E5FBCCE782
:101C180000800140001001400014014008B50E4842
:101C28000E4B03604FF48273436000238360C360EC
:101C3800036143614FF4007282610822C26103624A
:101C4800436283620A23C36206F07AF900B908BDC9
:101C5800FFF7E2FDFBE700BF7C09002000300140F0
:101C680010B586B00023029303930493059302688A
:101C7800164B9A4201D006B010BD03F560439A692D
:101C880042F480529A619A6902F480520092009A52
:101C98009A6942F004029A619B6903F00403019374
:101CA800019BA02302930223039303230593084C6B
:101CB80002A9204603F090FB4023029300230393DC
:101CC800049302A9204603F087FBD4E700300140C3
:101CD8000008014000B583B0124B9A6942F0010236
:101CE8009A619A6902F001020092009ADA6942F058
:101CF8008052DA61DB6903F080530193019B002273
:101D08001146052003F04CF8052003F059F8064A5F
:101D1800536823F0E06343F00073536003B05DF849
:101D280004FB00BF0010024000000140FEE7FEE790
:101D3800FEE7FEE7FEE770477047704708B502F018
:101D4800C3FF08BD08B5024805F03DFC08BD00BF4B
:101D5800E4080020704708B5012003F067FC08BDBF
:101D680008B5022003F062FC08BD08B5082003F09E
:101D78005DFC08BD08B5102003F058FC08BD000044
:101D880008B5024803F0B2F908BD00BF200A0020D8
:101D980008B5024804F04CFA08BD00BFFC1B00203F
:101DA80008B5024806F0DFF908BD00BFD8090020D1
:101DB80008B5024806F07EFE08BD00BFAC0A002048
:101DC80008B5024806F076FE08BD00BF640A002088
:101DD80008B5024805F066FB08BD00BFE40800200E
:101DE8000120704708B50EF053FC162303604FF02E
:101DF800FF3008BD08B54FF0FF31FFF7F3FFFEE7EE
:101E080010B503460C4A0D490D48006840B10C480E
:101E180000680344521A934206D8094A136010BD59
:101E28000748084C0460F2E70EF032FC0C2303600C
:101E38004FF0FF30F3E700BF00000120000400006E
:101E4800D4090020002200207047000000B587B0A8
:101E58000023029303930493059300930193154879
:101E6800154A026047224260836040F2E732C2604E
:101E78000361836106F080FA90B94FF480530293AE
:101E880002A90C4806F0B0FA68B900230093019340
:101E98006946084806F028FB40B907B05DF804FB1E
:101EA800FFF7BAFCE9E7FFF7B7FCEEE7FFF7B4FC8A
:101EB800F3E700BFD80900200008004002680E4B75
:101EC8009A4200D0704700B583B003F50233DA694F
:101ED80042F00402DA61DB6903F004030193019B19
:101EE800002201211E2002F05BFF1E2002F068FF85
:101EF80003B05DF804FB00BF0008004008B50A48BD
:101F08000A4B03604FF4E133436000238360C360EE
:101F180003610C2242618361C36106F01FFC00B9B2
:101F280008BDFFF779FCFBE7AC0A00200038014048
:101F380008B50A480A4B03604FF4E13343600023B5
:101F48008360C36003610C2242618361C36106F050
:101F580005FC00B908BDFFF75FFCFBE7640A002039
:101F68000048004070B588B0002304930593069399
:101F780007930368404A934204D0404A934248D0AA
:101F880008B070BD04463E4B9A6942F480429A619B
:101F98009A6902F480420092009A9A6942F0040217
:101FA8009A619B6903F004030193019B4FF400734A
:101FB80004930223059303230793324E04A9304662
:101FC80003F00AFA4FF480630493002505950695FB
:101FD80004A9304603F000FA2B482C4B03604560F7
:101FE80085608023C360056145618561C56102F034
:101FF8001FFF58B9244BE3635C62002202212520AD
:1020080002F0CEFE252002F0DBFEB9E7FFF704FC64
:10201800F0E71B4BDA6942F48022DA61DA6902F4EC
:1020280080220292029A9A6942F008029A619B6998
:1020380003F008030393039B4FF480630493022384
:10204800059303250795124E04A9304603F0C4F9F9
:102058004FF40063049300240594069404A93046C1
:1020680003F0BAF922462946272002F099FE2720D4
:1020780002F0A6FE84E700BF003801400048004097
:102088000010024000080140200A002058000240C9
:10209800000C0140034B044A1A60044B023A1A60D0
:1020A800704700BF081000200000026004100020E4
:1020B8000B4B2A225A812B229A812C221A81002228
:1020C8009A71F0221A804FF4A0725A80054B1B684F
:1020D80036221A80044B1B6808221A80704700BFFA
:1020E800F40F0020041000200810002070B5174ECF
:1020F8003468174DB5F80AC0A4F800C0154C4FEA6B
:10210800102CD4F800E0AEF800C0C0B2D4F800C07B
:10211800ACF8000020684FEA122CA0F800C0206834
:10212800D2B202803268A88910802268080A10801A
:102138002268C9B211802268190A11802268DBB2AC
:10214800138033682A891A8070BD00BF04100020EC
:10215800F40F00200810002010B504460A4B1A8816
:102168005B88013B013A9BB292B200210846FFF717
:10217800BDFF002303E0054A126814800133B3F55C
:10218800963FF8D310BD00BFF40F002008100020C0
:102198000020704700207047002070472DE9F84361
:1021A8008046894616461F46BDF82050BDF8244093
:1021B8001EE0194A12681580013B002B08DB41FA22
:1021C80003F212F0010FF4D0134A12681480F3E7F7
:1021D80002301F2806DC335C3218517841EA0321AB
:1021E8000F23EAE708F110082036B8F1E00F11DCF8
:1021F8003B46013FBFB26BB11FFA88F01FFA89F165
:1022080001F10F0300F10F029BB292B2FFF76EFFCC
:102218000020DEE7BDE8F883081000202DE9F84328
:102228008046894616461F46BDF82050BDF8244012
:102238001AE0174A12681580013B002B08DB41FAA7
:1022480003F212F0010FF4D0114A12681480F3E778
:102258000130472802DC315C0723EEE708F1180853
:102268004836B8F1D80F11DC3B46013FBFB26BB11D
:102278001FFA88F01FFA89F101F1170300F117021C
:102288009BB292B2FFF732FF0020E2E7BDE8F88385
:10229800081000202DE9F8438046894616461F4657
:1022A800BDF82050BDF824401AE0174A126815807E
:1022B800013B002B08DB41FA03F212F0010FF4D0C6
:1022C800114A12681480F3E701307F2802DC315C80
:1022D8000723EEE708F120088036B8F1D00F11DCAB
:1022E8003B46013FBFB26BB11FFA88F01FFA89F174
:1022F80001F11F0300F11F029BB292B2FFF7F6FE35
:102308000020E2E7BDE8F883081000202DE9F04737
:1023180007468A4690461D46BDF8206010460EF0D6
:10232800FBF95FFA80F900242DE0B8B21FFA8AF1B0
:10233800CB1D421D9BB292B2FFF7D8FE18F80400DD
:102348002038C000002111E0144B1B681D800CF1DF
:10235800FF3CBCF1010F08DD42FA0CF313F0010F4A
:10236800F2D00E4B1B681E80F1E70131072905DC0E
:1023780043180B4AD25C4FF0070CEAE70637E92FFF
:102388000ADC0134E4B24C4506D218F90430002BBB
:10239800CBDA0134E4B2F1E7BDE8F0870810002099
:1023A8003CE601082DE9F04F83B007468A4690467F
:1023B8001C46BDF8305010460EF0AEF95FFA80F9B1
:1023C800002633E0B8B21FFA8AF101F10F03C21DEB
:1023D8009BB292B2FFF78AFE18F806002038000177
:1023E800002116E0234B1B681C800CF1010C1FFA1E
:1023F8008CFCBCF1070F0AD8CCF1070342FA03F3AF
:1024080013F0010FEED01B4B1B681D80EDE7013167
:1024180089B20F2905D84318174AD25C4FF0000C2F
:10242800E7E708370136F6B2E82F20DC4E451ED222
:1024380008EB060118F90630002BC3DA14220F48FE
:10244800FFF7A6FE834610B90236F6B2ECE701950F
:102458000094C0F34F13094A51463846FFF79EFED1
:1024680007EB5B0706EB1B1B5FFA8BF6DCE703B099
:10247800BDE8F08F081000204CE00108F40A0020A5
:102488002DE9F04F85B08046039191461C46BDF872
:10249800385010460EF040F95FFA80FB002637E00E
:1024A8001FFA88F0BDF80C1001F1170300F10B02B8
:1024B8009BB292B2FFF71AFE19F80630203B03EBE5
:1024C8004303284F07EB0317002011E0264A126840
:1024D8001480013B9BB2032B08D941FA03F212F096
:1024E800010FF3D0204A12681580F2E7023080B25B
:1024F8002F2806D83B5C3A18517841EA03210F236C
:10250800E9E708F10C080136F6B2B8F1E40F26DC69
:102518005E4524D209EB060119F90630002BBFDA13
:1025280014221248FFF736FE074610B90236F6B2F3
:10253800EBE70F4BA3FB003A01950094CAF30F1386
:102548000A4A03994046FFF769FE0A4BA3FB07377F
:1025580008EB570806EBDA0A5FFA8AF6D5E705B002
:10256800BDE8F08FACCE010808100020F40A002066
:10257800398EE338ABAAAAAA2DE9F04F83B080467A
:102588008B4617461C46BDF8305010460EF0C4F86E
:102598005FFA80F9002634E01FFA88F01FFA8BF101
:1025A80001F11F0300F10F029BB292B2FFF79EFDEB
:1025B800BB5D203B244A02EB831C00200FE0234A2A
:1025C80012681480013B002B08DB41FA03F212F079
:1025D800010FF4D01D4A12681580F3E702303F2836
:1025E80008DC1CF800300CEB0002517841EA0321AA
:1025F8000F23E8E708F110080136F6B2B8F1E40F46
:102608001EDC4E451CD2B919BB57002BC4DA142264
:102618000F48FFF7C1FD824610B90236F6B2EDE762
:1026280001950094C0F3CF13094A59464046FFF775
:1026380031FE08EB9A0806EB9A1A5FFA8AF6DDE78C
:1026480003B0BDE8F08F00BF2CB7010808100020C8
:10265800F40A00202DE9F04F83B0FFF71BFDA64DCB
:102668002B68CF221A80A54B1A68002414801A6898
:10267800C9211180196830220A802968ED20088054
:1026880019686420088019680320088019681220D6
:1026980008801968812008802968E820088019685E
:1026A80085200880196810270F8019687A2008800B
:1026B8002968CB20088019683920088019682C20DF
:1026C800088019680C80196834200880196802206D
:1026D80008802968F720088019684FF02009A1F8B8
:1026E80000902968EA20088019680C8019680C8015
:1026F8002968C020088019681B2008802968C12023
:10270800088019680C802968C520088019680A8023
:1027180019680A802A68C72111801A68B7211180B0
:102728002A684FF03608A2F800801A680826168032
:102738002A683A2111801A68552111802A68B12126
:1027480011801A6814801A681A2111802A68B62123
:1027580011801A680A2111801A68A22010802A683C
:10276800F22010801A6814802A68262010801A68BF
:102778004FF0010EA2F800E02A68E02010801868E7
:102788000F22028018684FF02A0AA0F800A01868E3
:102798004FF0280CA0F800C01868068018684FF0A1
:1027A8000E0CA0F800C01868068018684FF0540C8A
:1027B800A0F800C018684FF0A90CA0F800C018686D
:1027C8004FF0430CA0F800C01868018019680A800F
:1027D80019680C8019680C8019680C8019680C80BD
:1027E8002968E120088019680C801968152008807C
:1027F80019681720088019680720088019684FF0A1
:10280800110BA1F800B019680620088019684FF06C
:102818002B0CA1F800C019685620088019683C20C4
:10282800088019680520088019680F8019680A80CF
:1028380018683F21018018680180186802802A689A
:10284800A2F800C01A6814801A6814801A68A2F8DE
:1028580000E01A6811802A68A2F800A01A6814809B
:102868001A6814801A6814801B68EF221A802B6873
:10287800A3F800B0782002F039FA2B6829221A80D0
:10288800FFF716FC1E4AD36843F40043D3604FF4A5
:102898007840FFF761FCC82002F028FA4FF4FC608A
:1028A800FFF75AFCC82002F021FA1F20FFF754FC5A
:1028B800C82002F01BFA4FF6FF70FFF74DFCC82046
:1028C80002F014FA4FF4784500954FF6FF730D4A5D
:1028D80021462046FFF766FDDFF82CA000954FF64D
:1028E800FF7352462146A020FFF710FD4FF6FF75F3
:1028F80000952346524609E00410002008100020E5
:10290800000801402CAD010844AD01083146A02063
:10291800FFF7FCFC4FF4FC6300932B460C4A394646
:102928002046FFF73FFD1F2300932B46094A4946DF
:102938002046FFF7A5FD4BF6404300932B46064A79
:1029480041462046FFF718FE03B0BDE8F08F00BFF0
:1029580054AD01086CAD010884AD0108FFF774FAA5
:102968000B480C490C4A002302E0D458C4500433E5
:10297800C4188C42F9D3094A094C002301E01360BA
:102988000432A242FBD30DF089FEFEF78FFF704799
:1029980000000020F4070020C4580208F4070020B3
:1029A80000220020FEE7000020B3844621B38842BD
:1029B80024D000B50DE086460B78124AD25C02F0AE
:1029C8000302012A10D09E4510D1C8B10CF1010CA8
:1029D80001319CF800000B4B1B5C03F00303012B37
:1029E800E9D100F1200EE7E72033ECE7AEEB030076
:1029F8005DF804FB012070470120704700207047F4
:102A08000020F5E781EA01082E2070472DE9F84FEC
:102A180082468B4614461D4621F00049164623F08F
:102A280000473B464946FDF715FE08B156464F4656
:102A380022462B4650465946FDF7D6FB044621F060
:102A480000450022084B30463946FEF7C3FA0246D5
:102A58000B46012620462946FDF7E8FD00B9002669
:102A68003046BDE8F88F00BF0000B03C8446002225
:102A780010460BE0A1F14103DBB2052B12D80B186D
:102A8800A3F13700022A00D800010132032A12D824
:102A98001CF80210A1F13003DBB2092BEAD8084474
:102AA8003038EFE7A1F16103DBB2052B04D80B182E
:102AB800A3F15700E6E7704700207047F8B50B1AF6
:102AC800052B61DD06460F4615460230FFF7CEFF9F
:102AD8000446A0F55C43B3F5806F57D3A0F558437F
:102AE800B3F5806F1CD2B31DFF1A052F50DDB379E3
:102AF8005C2B4FD1F379752B4ED106F10800FFF707
:102B0800B5FFA0F55C43B3F5806F47D2254B03EAC8
:102B18008423C0F30900034303F580340C2002E04A
:102B28007F280CD90620B4F5006F0ED3B4F5803F8A
:102B38000ED3B4F5881F33D2F027042602E006200E
:102B480000270126731EDBB20EE0C0270226F9E734
:102B5800E0270326F6E704F03F012A6841F08001E8
:102B6800D154A409013BDBB2002BF4D1012E06D9C4
:102B78002B6827431F702B6833442B6005E02B68B4
:102B880004F07F041C70F6E70020F8BD0020FCE785
:102B98000020FAE70020F8E70020F6E70020F4E735
:102BA8000020F2E700FC0F002DE9F04182B08046DA
:102BB8000E460F688B685D1C3D4400220192F81890
:102BC800FB5C222B43D12C46944600E00134E11BE8
:102BD800726891420BD22378222B08D05C2BF5D156
:102BE8000134E31B934232D20CF1010CEEE791421F
:102BF8002DD22378222B2AD1201AA0EB0C0033697E
:102C080001309847074610B3019030E0631B002B52
:102C18001ADD6B78752B17D85C2B11D35C3B192BFD
:102C280012D8DFE803F04C11111111111D11111107
:102C38003011111111111111371111113E11455394
:102C4800222B3CD02F2B3AD0736938469847002D59
:102C580054D03368ED1AB560002002B0BDE8F081A9
:102C6800019B5A1C019208221A7002231D44A54296
:102C780035D22B785C2BC9D0019B5A1C019215F8D0
:102C8800012B1A70F3E7019B5A1C01920C221A704F
:102C98000223EBE7019B5A1C01920A221A700223B5
:102CA800E4E7019B5A1C01920D221A700223DDE70A
:102CB800019B5A1C019209221A700223D6E7019B34
:102CC8005A1C01926A781A700223CFE701AA21469A
:102CD8002846FFF7F3FE03460028C7D1B4E7019B57
:102CE80000221A701023C8F80C30C8F81070336826
:102CF800E41AB4600134B4600120AEE70020ACE708
:102D08000246D0B110B40468ACB18368406883420D
:102D180002D30AE0013393609368984202D9E15CD8
:102D28002029F7D99368984202D0104610BC704702
:102D3800013B9360F9E72246F7E770470160486076
:102D48007047A1B138B504460D4690B1814212D002
:102D580083683BB1586880B1FFF7F0FFA3685D60F6
:102D6800012038BD816049600B600120F9E700202F
:102D780070470020F5E70020F3E70120F1E77047EE
:102D880050B138B50546006828B1AC6820440DF04C
:102D9800C3FC0444AC6038BD704770B5064670B1DA
:102DA8000D460DF0B9FC441C2B6820469847054693
:102DB80018B122463146FEF797F8284670BD0546F9
:102DC800FBE768B32DE9F0410D4614461E46074659
:102DD80041B34AB3904229D0069BBBB10846FFF7DE
:102DE800CEFF8046E56845F40075E36813F4007F7C
:102DF80003D1206A08B173689847C4F82080E56059
:102E080021463846FFF79DFFBDE8F0813146284648
:102E1800FFF7C3FF804658B1E56825F40075E4E77D
:102E2800002070470020EFE70020EDE70020EBE7E7
:102E38000698E9E770B50546002846D0066836B317
:102E4800436813B18268934241D9002941DBAA68DB
:102E5800114401318B420AD22B69002B3BD1B1F1CD
:102E6800804F08D3002904DB6FF0004404E01644C7
:102E78000DE000260BE04C002B6A8BB12146304652
:102E88009847064628B16C602E60AB681E443046F1
:102E980070BDEB692868984700236B602B60F6E7E4
:102EA800AB6920469847064640B1AA6801322968AE
:102EB800FEF71AF8EB6928689847E4E7EB69286891
:102EC800984700236B602B60E1E70646DFE70026A2
:102ED800DDE70026DBE70026D9E710B503682820E0
:102EE8009847044618B1282200210DF0B3F820466F
:102EF80010BD000038B5044678B1006878B1A568FF
:102F08007DB92B1D6268934207D2032206492844E3
:102F18000DF0F0F808B90335A560204638BD044621
:102F2800FBE70024F9E700BF9CAD010800000000A2
:102F38002DE9F04393B005460C4600231193FFF7A3
:102F480063FD002C65D02368002B64D0002330E09B
:102F5800652A28D048336B44002203F8442C0DF12D
:102F6800040911A948460CF029FD06460F46DDF86C
:102F78004480C84551D0C5E9066729A3D3E9002391
:102F8800FDF75EFB002833D06FF000436B61082328
:102F9800EB60A36801AAA8EB02084344A3600120E0
:102FA80013B0BDE8F08303F14801694401F8442CEB
:102FB80001333E2BCED8A2681A4461688A42C9D22E
:102FC80021688A5C452AC3D82B2AC3D3A2F12B06D1
:102FD800F6B20121B140144E0E40002EE3D111F09B
:102FE800080FB7D003F148026A4402F8440CDFE73F
:102FF80000220E4B30463946FDF718FB18B14FF04A
:1030080000436B61C3E730463946FDF743FB68610F
:10301800BDE70020C4E70020C2E70020C0E700BFEA
:103028000000C0FFFFFFDF41E57F00040000E0C1B2
:10303800002900F09480F8B50546084615B12A46DF
:10304800002614E00321FFF7F5FE002800F0898030
:10305800464A118892780180827001207EE05C2BBC
:1030680003D01F2B02D8053600E001360132137851
:1030780063B1222BF3D8082BF3D3A3F10804E4B2ED
:103088003B49E14011F0010FEFD1EAE7521B9419D7
:10309800E11CFFF7CFFE0746002864D026B106469C
:1030A800222306F8013B30E0222600F8016B224675
:1030B8002946FDF719FF631CFE54023400233B55D3
:1030C80001204BE030465C2300F8013B2A78222A95
:1030D80015D8082A36D3A2F108031A2B32D8DFE80C
:1030E80003F0222E2831252B313131313131313164
:1030F8003131313131313131313131311F005C2AD7
:1031080020D15C2373700135461C2B78FBB11F2B33
:10311800D8D9222BD6D05C2BD4D033703046F2E7E6
:1031280022237370EFE762237370ECE766237370F2
:10313800E9E76E237370E6E772237370E3E774239D
:103148007370E0E70B490CF06FFE701DDBE7631C42
:103158002222FA54023400233B550120F8BD0020F6
:1031680070470020FAE70020F8E700BFA0AD01088B
:1031780037000004A4AD010808B50069FFF758FF3F
:1031880008BD00002DE9F0478AB082460C46D0E918
:103198000667002303930493059306930793089304
:1031A800ADF82430FFF730FC00220023CDE90023DE
:1031B800002C76D0054632463B4630463946FDF768
:1031C80053FA88B927F000494FF0FF32374B3046A1
:1031D8004946FDF749FAB8B94FF0FF32334B30464C
:1031E8004946FDF723FA78B9314B93E80300039079
:1031F8008DF810104FF004084646B8F1190F32D96F
:1032080000200AB0BDE8F087DAF814804046FDF7E0
:1032180039F932463B46FDF7F5F930B142462549C2
:1032280003A80CF001FE8046E6E732463B462249F9
:1032380003A80CF0F9FD80466A46204903A80CF063
:1032480015FE012807D132463B46DDE90001FFF7AC
:10325800DDFB0028D0D132463B46194903A80CF0C3
:10326800E3FD8046C8E708F101012046FFF7E2FDCB
:103278000146C0B1002302E02E22CA5401339E4207
:1032880008D903F128026A4412F81C2CAA42F3D088
:10329800CA54F3E70022CA54A3681E44A66001205A
:1032A800AFE70020ADE70020ABE700BFFFFFEF7FEF
:1032B800ACAD0108B4AD0108B8AD0108C0AD010856
:1032C800C4AD010870B500286CD00D46064600292B
:1032D8006AD0047B202C16DC002C67D0631E1F2BC1
:1032E80066D8DFE803F0364265286565654F656591
:1032F8006565656565536565656565656565656588
:10330800656565656557402C48D0802C11D10069EA
:10331800002856D00DF000FA441C21462846FFF735
:1033280089FD00284FD022463169FDF7DDFD0124D3
:103338003FE000243DE005212846FFF77BFD0346DA
:10334800002838D0214A1068186012791A710124AF
:103358002FE006212846FFF76DFD034668B31C4A97
:103368001068186092889A8023E005212846FFF7A4
:1033780061FD034618B3174A1068186012791A716C
:10338800012416E0FFF7FEFE044612E0FFF7F4FE04
:1033980004460EE000F06EF804460AE000F0BEF8BD
:1033A800044606E0002404E0002402E0002400E0D3
:1033B8000024204670BD0024FBE70024F9E7002420
:1033C800F7E70024F5E70024F3E700BFACAD0108F8
:1033D800CCAD0108D4AD010870B58AB006460D46DB
:1033E80014462422002101A80CF034FE23684FF46F
:1033F80080709847034601904FF4807202920695B8
:1034080094E807000AAD05E9070023B101A9304691
:10341800FFF758FF40B9019D1DB1636828469847DA
:10342800002528460AB070BD01A8FFF7A9FCA368CB
:103438004BB1039901310198984705460028EAD015
:1034480000230193EDE72368039801309847054668
:103458000028E0D0039A0132029B9A4228BF1A46FC
:103468000199FDF741FD039B0022EA546368019826
:103478009847D6E770B58568002946D00C460121E3
:103488002046FFF7D7FC002842D05B220270A368D1
:103498000133A360E3680133E36007E0012616E027
:1034A80000221A70A3683344A3602D68FDB1214639
:1034B8002846FFF707FF034640B32046FFF760FCA6
:1034C8002B68002BF1D06369002BE7D00226711C12
:1034D8002046FFF7AFFCE8B103462C2103F8011B97
:1034E80061690029DCD0831C20214170D8E70221C2
:1034F8002046FFF79FFC78B15D22027000224270DF
:10350800E368013BE360012300E00023184670BD37
:103518000023FBE70023F9E70023F7E770B5856888
:10352800002900F0A3800C464B69A3B10226711C48
:103538002046FFF77FFC002800F09B807B23037068
:10354800E3680133E36063690BB10A234370A3683E
:103558003344A36022E00126E9E7E1682046FFF74B
:1035680069FC0346002800F08680002203E0092158
:1035780003F8011B0132E1689142F8D8A3681944A5
:10358800A16010E001261CE0002637E0002339E0A6
:1035980000221A70A3683344A3602D68002D44D01C
:1035A8006369002BD9D12146286AFFF741FD0346FC
:1035B80000285CD02046FFF7E3FB6369002BE1D0CD
:1035C800022631462046FFF735FC002855D03A221E
:1035D800027062690AB109224270A3683344A36089
:1035E80021462846FFF76EFE034600283FD02046B6
:1035F800FFF7C6FB6369002BC6D001262B68002B9A
:10360800C4D001231E44711C2046FFF713FC034657
:10361800A8B32A6812B12C2203F8012B6269002A88
:10362800B6D00A2203F8012BB2E763698BB1E168CF
:1036380001312046FFF7FEFB034610B362699AB9D1
:103648007D221A7000225A70E368013BE36001236F
:103658000DE00221EDE7092203F8012B0131E268B0
:10366800013A8A42F7D8EBE70021F8E70023184629
:1036780070BD0023FBE70023F9E70023F7E70023E9
:10368800F5E70023F3E738B50446C8B10D46C9B1DC
:1036980084680AB90AE024687CB1216A69B12846BD
:1036A800FDF744FB0028F6D107E024682CB1216A15
:1036B8002846FFF779F90028F7D12CB1236A2BB1F6
:1036C800204638BD0C46FBE70024F9E70024F7E75D
:1036D80038B5044616E0E36813F4807F04D1206906
:1036E80010B10F4B5B689847E36813F4007F04D16F
:1036F800206A10B10A4B5B689847094B5B68204603
:1037080098472C4654B12568E36813F4807FE2D1CA
:10371800A0680028DFD0FFF7DBFFDCE738BD00BF7B
:1037280004000020CB68B3F57A7F80F08B802DE908
:10373800F04106460C460133CB60002900F0848036
:103748008B684A68934280F081800A68D25C7B2A41
:1037580002D00020BDE8F08101338B600846FFF7F6
:10376800CFFAA3686268934203D22268D35C7D2BA8
:1037780059D0A3686268934204D2013BA360002534
:103788002F4634E0013BA3600020E3E70746A36827
:103798000133A3602046FFF7B3FA21462846FFF716
:1037A80003FA002839D02046FFF7AAFA2B692B62C2
:1037B80000232B61A368626893422ED22268D25CF0
:1037C8003A2A2AD10133A3602046FFF799FA214605
:1037D800284600F03FF800B32046FFF791FAA368A7
:1037E8006268934211D22268D35C2C2B0DD1A84673
:1037F80004F11000FFF771FB054670B1002FC5D02A
:10380800C8F80000C0F80480C1E7A3686268934262
:1038180003D22268D35C7D2B07D0CFB13846FFF79F
:1038280057FF002096E700252F46E368013BE36039
:1038380007B17D604023F360B760A3680133A360DC
:10384800012087E700207047002083E7002081E7F8
:1038580000207FE700296AD02DE9F84380460D460D
:103868000F68002F65D08C6804F104094E68B145D3
:1038780005D80422314938190CF03CFC50B3631DBB
:103888009E4205D305222E4938190CF033FC48B363
:10389800B14505D804222B4938190CF02BFC40B34C
:1038A800B44202D23B5D222B2DD0B44206D23B5DFE
:1038B8002D2B2DD0303BDBB2092B29D9B44202D2B3
:1038C8003B5D5B2B29D0B44236D23B5D7B2B29D0A4
:1038D80000202FE00423C8F80C30AB680433AB6039
:1038E800012027E00120C8F80C00AA680532AA6068
:1038F80020E00223C8F80C300120C8F81400AA6898
:103908000432AA6016E029464046FFF74DF911E057
:1039180029464046FFF70CFB0CE02946404600F0DC
:1039280013F807E029464046FFF7FCFE02E00020B6
:1039380070470020BDE8F8830020FBE7ACAD010824
:10394800CCAD0108D4AD0108CB68B3F57A7F6DD250
:103958002DE9F04106460C460133CB600A688B68B6
:10396800D25C5B2A02D00020BDE8F08101338B6075
:103978000846FFF7C5F984B1A3686268934203D289
:103988002268D35C5D2B42D0A3686268934204D25C
:10399800013BA36000252F461CE0A368013BA36000
:1039A8000020E1E70746A3680133A3602046FFF73C
:1039B800A7F921462846FFF74DFF10B32046FFF729
:1039C8009FF9ACB1A3686268934211D22268D35CB4
:1039D8002C2B0DD1A84604F11000FFF77EFA0546FE
:1039E80078B1002FDED0C8F80000C0F80480DAE70C
:1039F8003CB1A3686268934203D22268D35C5D2B12
:103A080007D0AFB13846FFF763FE0020ACE70025CA
:103A18002F46E368013BE36007B17D602023F36034
:103A2800B760A3680133A36001209DE700207047B9
:103A3800002099E70000000070B5064614461D46B0
:103A480011A3D3E9002320462946FCF7F9FD38B134
:103A58006FF000437361C6E906452046294670BDEC
:103A680000220B4B20462946FCF7E0FD18B14FF029
:103A780000437361EFE720462946FCF70BFE7061AF
:103A8800E9E700BFAFF300800000C0FFFFFFDF41A0
:103A98000000E0C1F0B58BB015461E460024039423
:103AA800049405940694079408940994294B1C607F
:103AB8005C60044600B1B9B9002C49D001940023D8
:103AC8000293059A049B9A423DD2029215B1029B39
:103AD80023442B601F4B01AA92E8030083E80300EC
:103AE800002738460BB0F0BD039004911A4B93E8B9
:103AF80007000AAF07E907001846FFF7EEF907467F
:103B08000028D9D003A8FFF7F5F9FFF7F9F801461F
:103B18003846FFF79FFE90B136B9002DE1D0039BE0
:103B2800059A13442B60DCE703A8FFF7E9F8059B27
:103B3800049A934203D2039AD35C002BEDD0384603
:103B4800FFF7C6FDB8E7002BC0D0013B0293BDE7E5
:103B58002746C6E70C1000200400002070B5044674
:103B680048B10D4616460CF0D7FD33462A46411C8F
:103B78002046FFF78FFF70BD08B500221146FFF7FA
:103B8800EDFF08BD08B5024A0121FFF725FC08BD75
:103B98000400002008B50122FFF775FD08BD0000EC
:103BA80070B504460D461648FFF797F9064670B1FA
:103BB8000823C360C0E906450FA3D3E900232046C4
:103BC8002946FCF73DFD20B16FF000437361304694
:103BD80070BD00220B4B20462946FCF727FD18B183
:103BE8004FF000437361F2E720462946FCF752FD87
:103BF8007061ECE7AFF300800000C0FFFFFFDF411A
:103C0800040000200000E0C170B582B005460E46F1
:103C180010461946FFF7C4FF044600230093074BDC
:103C2800024631462846FFF7CCF810B1204602B0CC
:103C380070BD2046FFF74CFD0024F7E70400002084
:103C480038B504460A48FFF748F9054640B110233D
:103C5800C36007492046FFF7A0F80446286108B169
:103C6800284638BD2846FFF733FD2546F8E700BF4C
:103C78000400002070B582B005460E461046FFF7D6
:103C8800DFFF044600230093074B024631462846CF
:103C9800FFF797F810B1204602B070BD2046FFF735
:103CA80017FD0024F7E700BF0400002008B503480B
:103CB800FFF713F908B14023C36008BD04000020D2
:103CC80028B1007B082814BF00200120704700207D
:103CD800704728B1007B102814BF002001207047CE
:103CE80000207047C8B130B583B014461D46B1B145
:103CF800BAB1C3B1009313460A460F490CF0B6F89F
:103D0800032812D12368013B0B2B10D82B68013BE9
:103D18001E2B0ED8002003B030BDFF207047FF20B7
:103D2800F9E7FF20F7E7FF20F5E7FD20F3E7FC20A0
:103D3800F1E7FB20EFE700BFDCAD010800B583B079
:103D4800009313460A4605490CF090F8032803D05F
:103D5800002003B05DF804FB0120FAE7E8AD010894
:103D680010B588B004463D490CF070FB10B13C4BCF
:103D780001221A703B4920460CF068FB10B1384B01
:103D880002221A70364B1B78012B09D0344B1B7852
:103D9800022B37D0214634480BF00CFF08B010BD79
:103DA80032480BF067FF32480BF064FF05AB06AAF8
:103DB80007A92046FFF796FF0146F8B9059B069A22
:103DC80007992C480BF0F6FE079A2B4981FB023124
:103DD800D317C3EB6113642101FB13238DF807305C
:103DE8009DF818308DF805309DF814308DF80630A0
:103DF800002201A9214803F0B7FAC7E720480BF0D1
:103E0800D9FEC3E71F480BF035FF1F480BF032FF00
:103E180002AB03AA04A92046FFF790FF0146012838
:103E280003D01A480BF0C6FEB4E7029B039A049924
:103E380017480BF0BFFE9DF810308DF800309DF844
:103E48000C308DF801309DF808308DF802300022D2
:103E580069460A4803F0A1F99CE700BFF4AD0108E0
:103E680014100020FCAD01087CB1010804AE010863
:103E780024AE01083CAE01081F85EB51E408002080
:103E88005CAE010874AE010898AE0108D4AE010812
:103E9800ACAE010810B50446012806D0022C14D097
:103EA800102C22D0082C30D010BD01211C4801F064
:103EB800AFFB0128F2D10121194801F0A9FB012823
:103EC800F9D0184B01221A70E8E70221144801F0D2
:103ED8009FFB0028E4D10221114801F099FB00283A
:103EE800F9D0104B02221A70DAE710210C4801F0C1
:103EF8008FFB0028D6D11021094801F089FB002842
:103F0800F9D0084B03221A70CCE70821044801F0C5
:103F18007FFB0128C8D1044A138801331380C3E703
:103F2800000801406008002016100020014B188886
:103F3800704700BF16100020014B1880704700BF63
:103F48001610002070B5A0B04FF6FF70FEF704F908
:103F58002E4B1B78012B1AD04FF4784400944FF65F
:103F6800FF732B4A00210846FEF78AFA00944FF6A1
:103F7800FF73284A00210846FEF782FA142000F051
:103F8800B5FE4FF6FF70FEF7E7F820B070BD4FF4AE
:103F9800FC6400944FF6FF731F4A00210846FEF7A1
:103FA8006FFA00944FF6FF731C4A19210020FEF7A0
:103FB80067FA1B4E706DFCF79BFC0546B06DFCF76D
:103FC80097FC01462846FCF7EBFC4FF06A51FCF7DA
:103FD800E7FC4FF06A51FCF7E3FCFCF765FA024690
:103FE8000B46104902A80BF01FFF00944FF6FF7311
:103FF80002AA31210020FEF743FA00944FF6FF731E
:10400800094A49210020FEF73BFAB7E7DC080020FF
:1040180034AF010848AF0108ECAE010800AF010851
:10402800F808002014AF010824AF010810B58CB0BF
:10403800194C00220BA9204603F010F900220AA906
:10404800204603F0FBF99DF82A3000939DF82930AB
:104058009DF82B20114902A80BF0E6FE1F240094BE
:104068004FF6FF7302AA00213C20FEF709FA9DF8DB
:104078002E3000939DF82D309DF82C20084902A879
:104088000BF0D2FE00944FF6FF7302AA19214820C4
:10409800FEF7F6F90CB010BDE40800205CAF01088B
:1040A80070AF010830B589B0FFF7C0FF0024029453
:1040B8000394049405940694ADF81C4000F06AFB40
:1040C800FCF7F2F902460B46424902A80BF0ACFE97
:1040D8001F2500954FF6FF7302AA78210A20FEF7E4
:1040E800CFF900F05DFBFCF7DFF902460B463A49D1
:1040F80002A80BF099FE00954FF6FF7302AA9121D2
:104108000A20FEF7BDF900F051FBFCF7CDF9024695
:104118000B46324902A80BF087FE00954FF6FF7355
:1041280002AAAA210A20FEF7ABF900F03FFB0546D8
:1041380000F030FB01462846FCF732FCFCF7B4F9E6
:1041480002460B46264902A80BF06EFE00944FF675
:10415800FF7302AADC212046FEF792F9214B1B7857
:10416800032B09D0204B1B78012B0CD01E4B1B783E
:10417800032B17D009B030BD1B4A137801331370D5
:10418800184B1C70EEE7194803F094FF002000F06C
:1041980013FB00220421164801F041FA124B0222B7
:1041A8001A70E3E7114803F0C1FF00F00FFC012883
:1041B8000BD010480BF05EFD012204210C4801F0E1
:1041C8002EFA094B00221A70D4E70B480BF052FD67
:1041D800F2E700BF80AF010894AF0108A8AF01085B
:1041E800BCAF0108600800201D100020D80900207D
:1041F800000C0140F0AF0108D4AF0108014B18785A
:10420800704700BF1C10002010B588B01F23009312
:104218004FF6FF73724A00210A20FEF731F900F0C9
:10422800B9FA704B1968FCF7B1FAFCF73DF9024688
:104238000B466D4903A80BF0F7FD6C4B1B7893B147
:104248006B4B1B78032B18D0684B1B78012B1CD0A9
:10425800664B1B78022B53D0644B1B78032B00F062
:104268008C8008B010BD1F2300934FF6FF7303AA7C
:1042780032210A20FEF704F9E2E75C4A1378013399
:1042880013705B4B00221A70DEE74FF6FF74009440
:104298001F2303AA32210A20FEF7F2F80023009315
:1042A8002346544A4B210A20FEF7EAF8504B1B7864
:1042B800012B16D04E4B1B78022BC9D1494C4E49C5
:1042C8002068FCF765FA206020F0004400F062FAEC
:1042D80001462046FCF716FD68B9454B00221A70C6
:1042E800B6E7404C44492068FCF750FA2060404B40
:1042F80000221A70DEE700F04DFA3A4B1860ECE73E
:104308004FF6FF7400941F2303AA32210A20FEF7F8
:10431800B7F8002300932346384A4B210A20FEF7BA
:10432800AFF8334B1B78012B17D0314B1B78022B7E
:1043380092D12C4C4FF07E512068FCF729FA20606E
:1043480020F0004400F026FA01462046FCF7DAFC8B
:1043580070B9274B00221A707EE7224C4FF07E512D
:104368002068FCF713FA2060214B00221A70DCE762
:1043780000F010FA1B4B1860EBE74FF6FF73009341
:104388001F2303AA32210A20FEF77AF800F002FA66
:10439800144B1968FCF7FAF900F014FA01280FD049
:1043A8001F2300934FF6FF73154A64210A20FEF776
:1043B80067F80E4B00221A700A4B00221A6050E769
:1043C8001F2300934FF6FF730E4A64210A20FEF75D
:1043D80057F8064B00221A70024B00221A6040E779
:1043E80004B001081810002014B001081C100020A7
:1043F8006008002028B00108CDCCCC3D30B00108C1
:1044080048B0010838B0010830B585B0002203A9CA
:10441800324803F013F8102009F082FE05469DF893
:104428000E3000939DF80D309DF80F202C490BF0AD
:10443800FBFCFFF73BFC04462A462A49FFF71AFC17
:10444800294B1868FCF730F802460B4627492046E6
:10445800FFF7DAFB264B1868FCF726F802460B46EE
:1044680024492046FFF7D0FB234A24492046FFF77A
:1044780001FC234A23492046FFF7FCFB2046FFF7AF
:1044880081FB044607222049204808F063FDF8B95B
:104498001F480BF0EFFB20460CF03EF9024602AB3A
:1044A80021461A4808F03DFF50B1184809F0B5F800
:1044B800284609F03DFE204609F03AFE05B030BD19
:1044C80014480BF0D7FB214613480BF073FBECE7BD
:1044D800014612480BF06EFBEAE700BFE408002033
:1044E8005CAF01085CB001081400002064B001084A
:1044F800100000206CB001087CB0010884B00108ED
:1045080090B001089CB00108A0B001083810002044
:10451800B4B00108CCB00108E4B00108ECB001085F
:1045280010B501220A490B4808F014FD044638B1B9
:10453800042809D0074809F070F80124204610BD66
:10454800044809F06AF8F9E7FFF75EFFF2E700BFF1
:10455800A0B001083810002070B586B0FFF7E0FF62
:1045680000285DD001226E496E4808F0F3FC00284F
:104578005AD16C4BD3F80C4221466B480BF01AFB0E
:10458800684D2146284609F05CF8D5F808620021F4
:10459800284609F056F8701C09F0C2FD044604AB21
:1045A80032460146284608F0C6FD002846D05D4838
:1045B80009F033F82046FFF7DFFA0546002845D012
:1045C8005A492846FFF7E6FA064618B1FFF781FB75
:1045D800002842D156480BF04DFB56492846FFF7B4
:1045E800D9FA0646002861D0FFF76AFB00285DD09B
:1045F80073693BB100220023D6E90601FCF702F8F3
:10460800002853D1D6E90601FCF76CF84A4B18602C
:10461800FBF74AFF02460B4648480BF0CBFA4BE043
:1046280047480BF027FB9DE746480BF023FB3D4B23
:10463800D3F80C4244480BF01DFB9DE7049B002275
:10464800E254214641480BF0B5FAB0E740480BF078
:1046580011FB204609F06CFDB2E730693D4B18604C
:1046680003AB02AA01A9FFF73DFB28B1394B196832
:1046780039480BF09FFAB0E7019A384981FB0231BB
:10468800D317C3EB6113642101FB13238DF8173093
:104698009DF808308DF815309DF80C308DF81630DF
:1046A800002205A92E4802F05FFEDFE72D480BF037
:1046B800E1FA214B2C4A1A602C492846FFF76AFA7E
:1046C800064610B1FFF705FBE0B929480BF0D2FA0E
:1046D800284B294A1A6029492846FFF75BFA0646FB
:1046E80010B1FFF7F6FAA0B925480BF0C3FA254B2D
:1046F800254A1A602846FEF7EBFF204609F018FD08
:1047080006B070BD31691B4B196020480BF052FA96
:10471800E1E731691B4B19601D480BF04BFAE9E7DB
:10472800A0B001083810002054B101085CB001089D
:10473800A0B1010864B0010814000020B0B101085C
:1047480008B101081CB101083CB1010870B10108A9
:1047580080B101083010002094B101081F85EB5189
:10476800E4080020C0B101080000404084B00108FE
:10477800E0B101082C1000207CB001089CB00108B1
:1047880000B201082810002090B00108D0B101083B
:10479800F4B10108014B1868704700BF14000020ED
:1047A800014B1868704700BF20100020014B1868A3
:1047B800704700BF24100020014B1860704700BFED
:1047C800241000202DE9F04383B0804601224A4995
:1047D8004A4808F0BFFB002857D10646474DD5F890
:1047E8000C12284608F02DFFD5F80872002128463B
:1047F80008F027FF781C09F093FC044601AB3A4601
:104808000146284608F097FC10B9019B0022E254A3
:104818003A4808F002FF2046FFF7AEF9074600289D
:104828003BD03749FFF7B6F9054618B1FFF748FA04
:10483800002839D13846FFF7A5F9054602222E4946
:104848002E4808F087FB8146002836D128460BF011
:1048580063FF02466B462946284808F062FD002897
:1048680038D128480BF006FA274BC3F800802348B4
:1048780008F0D3FE3846FEF72BFF204609F058FC17
:10488800284609F055FC012603E020480BF0F2F910
:104898000026304603B0BDE8F0831D480BF0EAF966
:1048A800204609F045FCF4E74046FBF7FDFD0246CB
:1048B8000B462846FFF7C0F8BCE716480BF0DAF9B4
:1048C8003846FEF705FF204609F032FC284609F075
:1048D8002FFCDEE710480BF0CDF9084808F09DFEE4
:1048E8003846FEF7F5FE204609F022FC284609F076
:1048F8001FFC4E46CDE700BFA0B0010838100020CD
:1049080064B001085CB201081400002010B201086C
:104918002CB2010844B2010878B2010810B586B07B
:104928000446694609F0A6F8B8B121460E480BF0CE
:1049380041F921460D480BF03DF9204609F0BEF833
:1049480028B121460A480BF035F900200AE0214633
:1049580008480BF02FF9012004E0214606480BF027
:1049680029F9012006B010BD90B20108A8B20108CB
:10497800C0B20108D8B20108F4B2010810B5ADF50B
:104988000E7D014606A808F0E4FFE0B9002400E027
:104998000134694606A809F03DF868B99DF8093060
:1049A80053B12E2BF4D19DF80A30002BF1D09DF88D
:1049B8000B30002BECD1ECE706A809F01AF82046DA
:1049C8000DF50E7D10BD4FF0FF34F8E7F0B597B048
:1049D8006948FFF7A3FF002800F0AA80002215A964
:1049E800664802F02BFD9DF8563000939DF855302F
:1049F8009DF85720624910A80BF016FA10A8FFF787
:104A08008DFF0546002800F09A8010A8FFF7B6FF32
:104A1800461C9DF8563000939DF855309DF8572058
:104A280058490BA80BF000FAFFF740F904460BAA07
:104A38005549FFF71FF9002214A9504802F00EFC4F
:104A48009DF8523000939DF851309DF850204F4901
:104A58000BA80BF0E9F93046FBF714FD02460B46AC
:104A68004B492046FFF7D0F80BAA4A492046FFF7E2
:104A780001F9FFF78FFEFBF717FD02460B46464D7F
:104A880029460BA80BF0D0F90BAA44492046FFF79A
:104A9800F1F8FFF78BFEFBF707FD02460B462946A8
:104AA8000BA80BF0C1F90BAA3D492046FFF7E2F825
:104AB800FFF770FE0746FFF779FE01463846FBF719
:104AC8006FFFFBF7F1FC02460B4629460BA80BF0DB
:104AD800ABF90BAA33492046FFF7CCF82046FFF77D
:104AE80051F80746334610AA2F4904A80BF09CF941
:104AF800072204A92D4808F02DFA054620BB3846A0
:104B08000BF00AFE024603AB3946284808F009FCB8
:104B180018BB314626480BF04DF8244808F07DFDB7
:104B2800384609F005FB2046FEF7D2FD012503E0D3
:104B3800054620480BF09EF8284617B0F0BD10A98E
:104B48001D480BF037F8F7E731461C480BF032F8F0
:104B5800164808F062FD0025EEE7314618480BF0CC
:104B680029F8124808F059FD384609F0E1FA2046BC
:104B7800FEF7AEFDE0E700BF04B30108E40800203B
:104B880024B301085CAF010850B3010870AF0108F5
:104B980058B301085CB3010864B301086CB3010899
:104BA80074B301087CB3010888B3010838100020E9
:104BB800ACB301080CB301083CB3010894B3010875
:104BC800C0B3010838B502681A4B9A4200D038BD04
:104BD800194A138801339BB21380B3F57A7FF6D153
:104BE800FFF7A4F9FBF784FE1449FBF78DFF144C7B
:104BF8002168FBF7D5FE1349FBF7D2FE124D28605A
:104C080000200D4B1880FFF797F928680146FBF73D
:104C1800BFFD0E49FBF7C4FE2168FBF7C1FE0C4936
:104C2800FBF7BEFE01460B4C2068FBF7B1FD206088
:104C3800CDE700BF000800401E1000200000A04182
:104C4800100000206666664020100020C3F548402A
:104C5800B4A291392410002010B504460E4B1A78DE
:104C68004FF47A73B3FBF2F30C4A1068B0FBF3F01D
:104C780000F0B4F868B90F2C01D901200AE000222D
:104C880021464FF0FF3000F08BF8054B1C600020E8
:104C980000E0012010BD00BF180000200000002027
:104CA8001C00002008B5074A136843F0100313607E
:104CB800032000F063F80020FFF7CEFFFDF70AF8A5
:104CC800002008BD00200240034A1168034B1B78EE
:104CD8000B441360704700BF3410002018000020F8
:104CE800014B1868704700BF3410002038B50446DF
:104CF800FFF7F6FF0546B4F1FF3F02D0044B1B78DF
:104D08001C44FFF7EDFF401BA042FAD338BD00BF9B
:104D180018000020002808DB0901C9B200F1604032
:104D280000F5614080F80013704700F00F0009019A
:104D3800C9B2014B1954704714ED00E000B500F0FA
:104D48000700C0F1070CBCF1040F28BF4FF0040C9A
:104D5800031D062B0FD9C31E4FF0FF3E0EFA0CF0B1
:104D680021EA000199400EFA03FE22EA0E0241EA06
:104D780002005DF804FB0023EEE70000074AD36851
:104D880023F4E0631B041B0C000200F4E0600343FF
:104D980043F0BF6343F40033D360704700ED00E095
:104DA80010B50446054BD868C0F30220FFF7C6FFCC
:104DB80001462046FFF7AEFF10BD00BF00ED00E042
:104DC800002807DB00F01F02400901239340024A34
:104DD80042F82030704700BF00E100E00138B0F130
:104DE800807F0BD24FF0E0235861054AF02182F80A
:104DF80023100020986107221A617047012070472C
:104E080000ED00E030B40124056CAC40C56B6C606B
:104E1800046863604368102B05D0036899600368D1
:104E2800DA6030BC704703689A600368D960F8E7B5
:104E3800002838D010B4024601681C4B994227D884
:104E48001B4B0B441B48A0FB03031B099B0013646B
:104E5800194BD363022382F8213008686FF30D10D1
:104E6800536894682343D4682343146923435469DB
:104E7800234394692343D469234303430B600020ED
:104E88009063012382F8213082F8200010BC70471B
:104E98000A4B0B440748A0FB03031B099B00136440
:104EA800074BD363D6E70120704700BF07040240D1
:104EB800F8FFFDBFCDCCCCCC00000240F8FBFDBF15
:104EC8000004024038B5044690F82000012832D08A
:104ED800012084F8200094F82100C0B2012804D0F1
:104EE800002384F82030022038BD022084F82100F5
:104EF8000020A0632568286820F00100286020466B
:104F0800FFF780FFE36A5BB12268136843F00E0382
:104F180013602268136843F0010313600020E3E77D
:104F28002268136823F0040313602268136843F0AF
:104F38000A031360EDE70220D6E7034690F8212024
:104F4800D2B2022A06D004228263002280F82020EE
:104F58000120704701680A6822F00E020A600168A1
:104F68000A6822F001020A60026CC06B012101FA92
:104F780002F2426083F82110002083F82000704775
:104F880008B590F82130DBB2022B03D004238363E9
:104F9800012008BD0268136823F00E03136002683D
:104FA800136823F00103136003684C4A93424ED9F7
:104FB800783A934224D01432934230D01432934238
:104FC8002FD0143293422FD0143293422FD0143260
:104FD80093422FD0143293422FD002F5627293423B
:104FE8002ED0143293422DD0143293422CD0143246
:104FF800934202D04FF4803203E04FF4805200E035
:105008000122374B5A60012380F82130002380F8B1
:105018002030436B002B5ED098470020B9E7102260
:10502800EFE74FF48072ECE74FF48052E9E74FF472
:105038008032E6E74FF48012E3E74FF08072E0E752
:105048000122DEE71022DCE74FF48072D9E7254A17
:10505800934224D01432934225D01432934224D060
:105068001432934224D01432934224D014329342FF
:1050780024D01432934224D002F56272934223D092
:105088001432934222D01432934221D014329342E4
:1050980002D04FF4803203E04FF4805200E0012246
:1050A800114B5A60AFE71022FAE74FF48072F7E726
:1050B8004FF48052F4E74FF48032F1E74FF4801256
:1050C800EEE74FF08072EBE70122E9E71022E7E70D
:1050D8004FF48072E4E700205BE700BF80000240E5
:1050E80000040240080002400000024038B5C36BCB
:1050F8001A6804682568016C04238B40134200F089
:105108009B8015F0040F00F09780236813F0200FA0
:1051180003D1236823F00403236003689A4A934267
:1051280046D9783A934224D01432934228D0143284
:10513800934227D01432934227D01432934227D077
:105148001432934227D01432934227D002F5627268
:10515800934226D01432934225D01432934224D05D
:105168001432934202D04FF4802203E04FF480427D
:1051780000E00422854B5A60C36A03B1984738BDE2
:105188004022F7E74FF48062F4E74FF48042F1E7FA
:105198004FF48022EEE74FF48002EBE74FF0806295
:1051A800E8E70422E6E74022E4E74FF48062E1E71B
:1051B800774A934224D01432934225D01432934232
:1051C80024D01432934224D01432934224D014327F
:1051D800934224D01432934224D002F5627293424F
:1051E80023D01432934222D01432934221D0143265
:1051F800934202D04FF4802203E04FF4804200E053
:105208000422644B5A60B7E74022FAE74FF4806201
:10521800F7E74FF48042F4E74FF48022F1E74FF4C8
:105228008002EEE74FF08062EBE70422E9E74022D4
:10523800E7E74FF48062E4E702238B40134200F073
:10524800AB8015F0020F00F0A780236813F0200F41
:1052580006D1236823F00A032360012380F8213054
:105268000368494A93424BD9783A934224D014327E
:1052780093422DD0143293422CD0143293422CD026
:10528800143293422CD0143293422CD014329342CD
:105298002CD002F5627293422BD0143293422AD05A
:1052A8001432934229D01432934202D04FF4003280
:1052B80003E04FF4005200E00222344B5A6000230E
:1052C80080F82030836A002B3FF459AF984756E79F
:1052D8002022F2E74FF40072EFE74FF40052ECE7B8
:1052E8004FF40032E9E74FF40012E6E74FF000729E
:1052F800E3E70222E1E72022DFE74FF40072DCE770
:10530800234A934224D01432934225D01432934234
:1053180024D01432934224D01432934224D014322D
:10532800934224D01432934224D002F562729342FD
:1053380023D01432934222D01432934221D0143213
:10534800934202D04FF4003203E04FF4005200E0E1
:105358000222104B5A60B2E72022FAE74FF400729B
:10536800F7E74FF40052F4E74FF40032F1E74FF457
:105378000012EEE74FF00072EBE70222E9E7202285
:10538800E7E74FF40072E4E78000024000040240BF
:10539800080002400000024008238B4013423FF4FB
:1053A800EEAE15F0080F3FF4EAAE236823F00E03C3
:1053B8002360026CC16B012303FA02F24A60836323
:1053C80080F82130002380F82030036B002B3FF455
:1053D800D6AE9847D3E600BF70B582B00024A44685
:1053E800ABE0854DAB4214D00CD8A5F58015AB4287
:1053F8000FD005F57025AB420BD0A5F58015AB4253
:1054080010D106E07D4DAB4203D005F58035AB42A7
:1054180008D18B68002B5AD0012B53D04261082445
:1054280000E0CC68BEF1FF0F53D806464FEA8C0265
:1054380033680F25954023EA050304FA02F2134363
:1054480033604B6813F0805F75D06D4B9A6942F0FA
:1054580001029A619B6903F001030193019B4FEAE2
:105468009C02951C674B53F825600CF00305AD00B2
:105478000F23AB4026EA0306634B984230D003F56E
:105488008063984200F0968003F58063984200F0AC
:10549800938003F58063984200F0908003F5806361
:1054A800984200F08D8003F58063984216D0062359
:1054B80017E0CC680434B5E7CC680834B2E7CC68A8
:1054C8000C34AFE702610824ACE70024AAE70424FF
:1054D800A8E7061DACF108029200A9E7052300E041
:1054E8000023AB4033430232464D45F822304B6827
:1054F80013F4801F66D0454A936843EA0E0393600D
:105508004B6813F4001F63D0404AD36843EA0E0384
:10551800D3604B6813F4003F60D03C4A536843EAB9
:105528000E0353604B6813F4803F5DD0374A13680D
:1055380043EA0E0313600CF1010C0B6833FA0CF20A
:1055480058D0012202FA0CF203EA020E32EA0303EF
:10555800F1D14B68122B3FF644AF122B3FF662AFE6
:1055680001A555F823F000BF1B5400082B54000870
:10557800C1540008D35400082D5400082D540008C5
:105588002D5400082D5400082D5400082D540008EF
:105598002D5400082D5400082D5400082D540008DF
:1055A8002D5400082D5400082D540008BB54000841
:1055B800C7540008012394E7022392E7032390E7E6
:1055C80004238EE7114A936823EA0E03936097E752
:1055D8000E4AD36823EA0E03D3609AE70B4A53684E
:1055E80023EA0E0353609DE7084A136823EA0E0373
:1055F8001360A0E702B070BD000022100000311057
:105608000010024000000140000801400004014071
:105618008368194201D001207047002070470AB101
:1056280001617047090401617047000008B5054B26
:105638005B69034200D108BD024B5861FEF72AFCA2
:10564800F9E700BF0004014038B512F4804F44D098
:105658000468B4F850309BB291F800C003EBCC0357
:10566800023304EB4304B4F80044C4F309048B691F
:10567800A34228D31B1B8B618B697BB9056835F85E
:105688002C309BB223F4804323F0700383F400533F
:1056980043F4004343F0800325F82C3012F0400F08
:1056A8000ED002680D7832F825309BB223F4E0431F
:1056B80023F0700343F4004343F0C00322F825307D
:1056C80024B9204638BD00238B61D5E723460A89D3
:1056D8004969006804F05EFFF3E70468B4F85030E5
:1056E8009BB291F800C003EBCC03063304EB4304F0
:1056F800B4F80044C4F309048B69A3422FD31B1BDD
:105708008B618B697BB9056835F82C309BB223F423
:10571800804323F0700383F4005343F4004343F0C1
:10572800800325F82C3012F0400F0FD1026891F851
:1057380000C032F82C309BB223F4E04323F070030E
:1057480043F4004343F0C00322F82C30002CB8D0B7
:1057580023464A894969006804F01CFFB1E7002321
:105768008B61CEE770B586B0002800F081800446D2
:1057780090F8A932EBB1032384F8A932206803F02A
:1057880098FF254655F8106BEC460FCDACE80F0096
:105798002B68CCF80030231D0ECB304603F079FF80
:1057A800054658B1022384F8A9320125284606B0D7
:1057B80070BD80F8A83208F09DFBDCE70021206866
:1057C80003F081FF2B4616E05A1C02EB820104EB22
:1057D800C1010120487002EB820104F8313004EB6A
:1057E800C1000021C17003EB830004EBC00081639A
:1057F800C1630164D3B261688B42E5D316E005EB5F
:10580800850304EBC303002283F8692183F86851F8
:1058180083F86B21C3F87821C3F87C2105EB850355
:1058280004EBC303C3F880210135EDB2A942E6D8E1
:10583800254655F8106BEC460FCDACE80F002B68E9
:10584800CCF80030231D0ECB304603F03EFF054652
:1058580020B1022384F8A9320125A7E7002384F8A0
:105868002430012384F8A932206804F091FA9DE7D6
:1058780001259BE738B590F8A832012B11D00446D2
:10588800012580F8A852006803F00AFF294620463F
:1058980008F045FC206804F079FA002084F8A80292
:1058A80038BD0220FCE770B505460C46164612F0D6
:1058B800400F00F00E810268B2F850309BB20978B0
:1058C80003EBC103023302EB4302B2F80024C2F334
:1058D8000902A36993424ED99B1AA361A369002BBD
:1058E80066D16378002B49D12B68B3F8502092B267
:1058F800134403EB0113B3F80424C2F30902A3F819
:105908000424B3F804246FEA42426FEA524292B286
:10591800A3F804242B686278002A3CD1B3F85020FD
:1059280092B21344227803EB0213B3F80C24C2F3A7
:105938000902A3F80C24B3F80C246FEA42426FEA78
:10594800524292B2A3F80C242178284608F006FBAC
:1059580016F4804F41D02A68217832F821309BB262
:1059680023F4E04323F0700343F4404343F08003FF
:1059780022F8213031E00023A361AFE7012BC9D120
:105988002B68B3F8502092B2134403EB01130022A2
:10599800A3F80424BEE7012AD6D1B3F8502092B266
:1059A8001344227803EB02130022A3F80C24CBE75C
:1059B80016F4804F0DD0286830F821309BB223F4BC
:1059C800E04323F0700343F4404343F0800320F89E
:1059D800213094F82430012B12D02A68217832F82B
:1059E80021309BB223F4E04323F0400383F03003DB
:1059F80043F4004343F0800322F82130002070BDB7
:105A0800636913446361E3691344E361216A2369A9
:105A1800994224D3C91A21626278002A44D12A689B
:105A2800B2F8501089B20A44217802EB0112B2F898
:105A38000414C1F30901A2F804143E2B1BD9580918
:105A480013F01F0F00D10138B2F8041489B2800294
:105A580080B2014341F40041A2F8041426E021B9C0
:105A6800002384F824301346D6E7002384F8243032
:105A780023620B46D0E74BB9B2F804146FEA4141F0
:105A88006FEA514189B2A2F804140FE0590813F0E3
:105A9800010F00D00131B2F8040480B2890289B242
:105AA8000143A2F8041401E0012A06D09BB222891E
:105AB8006169286804F074F98FE72A68B2F8501011
:105AC80089B20A44217802EB011299B2A2F80414AF
