:020000040800F2
:10000000000001203D0A0008C9080008CB080008CC
:10001000CD080008CF080008D10800080000000043
:10002000000000000000000000000000D3080008ED
:10003000D508000800000000D7080008D90800080B
:10004000850A0008850A0008850A0008850A000854
:10005000850A0008850A0008850A0008850A000844
:10006000850A0008850A0008850A0008850A000834
:10007000850A0008850A0008850A0008E1080008CA
:10008000850A0008850A0008850A0008850A000814
:10009000850A0008850A0008850A0008850A000804
:1000A000850A0008850A0008850A0008850A0008F4
:1000B000850A0008850A0008850A0008850A0008E4
:1000C000850A0008850A0008850A0008850A0008D4
:1000D000850A0008F1080008850A0008850A00085A
:1000E000850A0008850A0008850A0008850A0008B4
:1000F000850A0008850A0008850A0008850A0008A4
:10010000850A0008850A0008850A0008850A000893
:10011000850A0008850A0008850A0008850A000883
:10012000850A0008850A0008850A0008850A000873
:1001300000000000000000000000000000000000BF
:1001400000000000000000000000000000000000AF
:10015000000000000000000000000000000000009F
:10016000000000000000000000000000000000008F
:10017000000000000000000000000000000000007F
:10018000000000000000000000000000000000006F
:10019000000000000000000000000000000000005F
:1001A000000000000000000000000000000000004F
:1001B000000000000000000000000000000000003F
:1001C000000000000000000000000000000000002F
:1001D000000000000000000000000000000000001F
:0401E0005FF8E0F1F3
:1001E4000348044B834202D0034B03B118477047C2
:1001F4005805002058050020000000000548064B63
:100204001B1AD90F01EBA301491002D0034B03B110
:1002140018477047580500205805002000000000CA
:1002240010B5064C237843B9FFF7DAFF044B13B13A
:100234000448AFF300800123237010BD580500204B
:10024400000000008034000808B5054B1BB10549C7
:100254000548AFF30080BDE80840FFF7CFBF00BFFB
:10026400000000005C0500208034000800B583B065
:100274000A4B5A6942F001025A615B6903F00103B7
:100284000193019B002201210F2000F09FFC0F200D
:1002940000F0ACFC03B05DF804FB00BF00100240AA
:1002A40030B587B000230293039304930593134B53
:1002B4001B680BB107B030BD104B01221A60104B04
:1002C4005A6942F480725A615B6903F48073019342
:1002D400019B4FF680730293022503950324059432
:1002E40002A9084800F03EFF4CF6B373029303954D
:1002F400059402A9044800F035FFDBE774050020EB
:1003040000100240001801400014014010B588B0EC
:10031400002201920292039204920592069207929D
:1003240016484FF02043036003F5827343608260F4
:10033400C2600261102141618261C2610262426253
:100344004FF480538362C2620263426382630F2369
:1003540001930293FF2403940493059111230693BC
:1003640001A901F045FB30B9054AD36943F4806320
:10037400D36108B010BD00F0C3F9F5E7780500209B
:100384000000014008B5FFF78BFF08BD30B589B008
:10039400002404940594069407941D4B9A6942F032
:1003A40010029A619A6902F010020092009A9A6906
:1003B40042F040029A619A6902F040020192019A65
:1003C4009A6942F020029A619A6902F0200202922C
:1003D400029A9A6942F004029A619B6903F0040349
:1003E4000393039B0B4D22464FF40041284600F033
:1003F400D5FF4FF40043049301230593069402238D
:10040400079304A9284600F0ADFE09B030BD00BF33
:100414000010024000080140014B188880B2704768
:1004240000000260034608B1032807D1164A0021E0
:100434009171F02151804FF4A07191805A1FD2B272
:10044400012A10D9032B17D0052B17D00022062B15
:1004540016D04FF0C0433621198042F0080203F54C
:1004640000331A807047084A012191714FF4A0713A
:100474005180F0219180E5E7C022E8E76022E6E7B9
:1004840042F0A002E5E700BFC005002010B54FF020
:10049400C04C2A24ACF800404FEA102E114CA4F8AA
:1004A40000E05FFA80FEA4F800E01044421EC2F3AC
:1004B4000F22228080B20138C0B220802B22ACF8F7
:1004C40000200A0A2280CAB2228019444B1EC3F3B8
:1004D4000F23238089B20139C9B221802C23ACF8BF
:1004E400003010BD0000026038B5BDF8105003FBA9
:1004F40002F4FFF7CBFF02E0034A15801C46631E9B
:10050400002CF9D138BD00BF000002602DE9F04194
:1005140082B001224FF40041764800F03FFF4FF0D3
:10052400C043D3221A80FFF777FFFFF775FFFFF769
:1005340073FF714C208100022081FFF76DFF238936
:10054400184380B2208149F24133984202D002B06C
:10055400BDE8F0814FF0C044CF232380674B0025D2
:100564001D80C1261E8030221A80ED212180642145
:100574001980032119801221198081211980E82111
:10058400218085211980102119807A201880CB20A0
:100594002080392018802C2018801D803420188059
:1005A40002201880F720208020201880EA20208054
:1005B4001D801D80B12020801D801A201880B62047
:1005C40020800A201880A2271F80C02727801B278D
:1005D4001F80268001261E80C52727801A801A8046
:1005E400C7222280B7221A80F22222801D8026226E
:1005F40022801E80E02222800F221A802A271F8058
:100604004FF0280CA3F800C04FF0080CA3F800C06A
:100614004FF00E0EA3F800E0A3F800C04FF0540C06
:10062400A3F800C04FF0A90CA3F800C04FF0430C8E
:10063400A3F800C018801A801D801D801D801D80B5
:100644004FF0E10CA4F800C01D804FF0150CA3F886
:1006540000C04FF0170CA3F800C04FF0070CA3F82C
:1006640000C04FF0110CA3F800C04FF0060EA3F821
:1006740000E04FF02B0EA3F800E04FF05608A3F86B
:1006840000804FF03C08A3F800804FF00508A3F861
:10069400008019801A803F21198019801A802780D0
:1006A4001D801D801D80EF221A80A4F800E01D80AB
:1006B4001D801E8019803A22228055221A80A4F8B7
:1006C40000C000F029FA292323802846FFF7AAFE58
:1006D400084A136943F400431361074C4FF6FF7350
:1006E4000093A388628829462846FFF7FDFE2670FA
:1006F4002DE700BF00080140C00500200000026093
:1007040072B6FEE700B591B02822002106A801F0D8
:10071400D5FF0023019302930393049305930122CD
:1007240006924FF4803307930A9202220D920E939D
:100734004FF4E0130F9306A800F04CFE80B90F238A
:10074400019302210291002303934FF480620492E7
:10075400059301A801F070F820B911B05DF804FB0D
:10076400FFF7CEFFFFF7CCFF08B500F0B1F9FFF7B4
:10077400C9FFFFF70BFEFFF779FD00F0E5F8FFF77F
:10078400C5FD00F001F8FEE700B583B0084800F0AD
:1007940013F8FFF7BBFE074A4FF6FF7300939388E5
:1007A400528800210846FFF79FFE03B05DF804FB62
:1007B40018060020C005002008B5054B1860054B3D
:1007C4001868002302221946806801F05DFE08BD06
:1007D400CC0500201800002010B5013801280AD8E3
:1007E40014464FF0FF3392B20748006801F04CFA08
:1007F40040B9204610BD02F005F8092303604FF00C
:10080400FF30F7E70520F5E7CC050020022801D8E2
:100814000020704708B501F0F5FF092303604FF08D
:10082400FF3008BD08B501F0EDFF092303604FF068
:10083400FF3008BD08B548B94FF0FF33012208481E
:10084400006801F080FA40B9012008BD01F0DAFF28
:10085400092303604FF0FF30F7E70520F5E700BFF9
:10086400CC05002008B5022804D84FF400534B608F
:10087400002008BD01F0C6FF09230360F8E700006B
:1008840082B00E4B9A6942F001029A619A6902F0B1
:1008940001020092009ADA6942F08052DA61DB695F
:1008A40003F080530193019B054A536823F0E063EE
:1008B40043F00073536002B0704700BF0010024061
:1008C40000000140FEE7FEE7FEE7FEE7FEE77047B3
:1008D4007047704708B500F00DF908BD08B5024827
:1008E40000F0CAFA08BD00BFD405002008B50248CC
:1008F40001F01AFB08BD00BF1806002010B503461E
:100904000C4A0D490D48006840B10C480068034486
:10091400521A934206D8094A136010BD0748084C7E
:100924000460F2E701F06EFF0C2303604FF0FF3028
:10093400F3E700BF0000012000040000D005002000
:10094400780900207047000008B50A480A4B036084
:100954004FF4E133436000238360C36003610C22DE
:1009640042618361C36101F05FF900B908BDFFF71B
:10097400C7FEFBE7180600200038014070B586B0BA
:10098400002302930393049305930268264B9A422F
:1009940001D006B070BD044603F558439A6942F489
:1009A40080429A619A6902F480420092009A9A699C
:1009B40042F004029A619B6903F004030193019BD2
:1009C4004FF4007302930223039303230593174EFA
:1009D40002A9304600F0C6FB4FF480630293002561
:1009E4000395049502A9304600F0BCFB1048114B56
:1009F4000360456085608023C3600561456185614E
:100A0400C56100F015F958B9094BE3635C62002233
:100A14000221252000F0DAF8252000F0E7F8B8E7F5
:100A2400FFF76EFEF0E700BF003801400008014008
:100A3400D405002058000240FFF784FF0B480C49FE
:100A44000C4A002302E0D458C4500433C4188C4226
:100A5400F9D3094A094C002301E013600432A2428D
:100A6400FBD301F0D5FEFFF77FFE704700000020A6
:100A740058050020D03400085805002078090020CB
:100A8400FEE7000010B504460E4B1A784FF47A7353
:100A9400B3FBF2F30C4A1068B0FBF3F000F0B4F8C7
:100AA40068B90F2C01D901200AE0002221464FF039
:100AB400FF3000F08BF8054B1C60002000E00120A3
:100AC40010BD00BF0400002000000020080000202A
:100AD40008B5074A136843F010031360032000F0BD
:100AE40063F80020FFF7CEFFFFF7CAFE002008BD21
:100AF40000200240034A1168034B1B780B44136027
:100B0400704700BF6006002004000020014B1868F5
:100B1400704700BF6006002038B50446FFF7F6FFB3
:100B24000546B4F1FF3F02D0044B1B781C44FFF789
:100B3400EDFF401BA042FAD338BD00BF04000020E3
:100B4400002808DB0901C9B200F1604000F56140EA
:100B540080F80013704700F00F000901C9B2014B7F
:100B64001954704714ED00E000B500F00700C0F11F
:100B7400070CBCF1040F28BF4FF0040C031D062B17
:100B84000FD9C31E4FF0FF3E0EFA0CF021EA00010C
:100B940099400EFA03FE22EA0E0241EA02005DF8D1
:100BA40004FB0023EEE70000074AD36823F4E06364
:100BB4001B041B0C000200F4E060034343F0BF631A
:100BC40043F40033D360704700ED00E010B50446F1
:100BD400054BD868C0F30220FFF7C6FF0146204644
:100BE400FFF7AEFF10BD00BF00ED00E0002807DBFB
:100BF40000F01F02400901239340024A42F82030CA
:100C0400704700BF00E100E00138B0F1807F0BD2F3
:100C14004FF0E0235861054AF02182F823100020A8
:100C2400986107221A6170470120704700ED00E0C7
:100C3400002838D010B4024601681C4B994227D8CA
:100C44001B4B0B441B48A0FB03031B099B001364B1
:100C5400194BD363022382F8213008686FF30D1017
:100C6400536894682343D468234314692343546921
:100C7400234394692343D469234303430B60002033
:100C84009063012382F8213082F8200010BC704761
:100C94000A4B0B440748A0FB03031B099B00136486
:100CA400074BD363D6E70120704700BF0704024017
:100CB400F8FFFDBFCDCCCCCC00000240F8FBFDBF5B
:100CC40000040240034690F82120D2B2022A06D042
:100CD40004228263002280F82020012070470168EA
:100CE4000A6822F00E020A6001680A6822F0010212
:100CF4000A60026CC06B012101FA02F2426083F8BF
:100D04002110002083F820007047000008B590F8F7
:100D14002130DBB2022B03D004238363012008BDFE
:100D24000268136823F00E0313600268136823F04B
:100D34000103136003684C4A93424ED9783A9342B4
:100D440024D01432934230D0143293422FD0143230
:100D540093422FD0143293422FD0143293422FD087
:100D6400143293422FD002F5627293422ED0143281
:100D740093422DD0143293422CD01432934202D099
:100D84004FF4803203E04FF4805200E00122374BED
:100D94005A60012380F82130002380F82030436B0F
:100DA400002B5ED098470020B9E71022EFE74FF4FC
:100DB4008072ECE74FF48052E9E74FF48032E6E7C3
:100DC4004FF48012E3E74FF08072E0E70122DEE7A0
:100DD4001022DCE74FF48072D9E7254A934224D0ED
:100DE4001432934225D01432934224D014329342C5
:100DF40024D01432934224D01432934224D0143297
:100E0400934224D002F56272934223D01432934267
:100E140022D01432934221D01432934202D04FF4A0
:100E2400803203E04FF4805200E00122114B5A60FB
:100E3400AFE71022FAE74FF48072F7E74FF48052DD
:100E4400F4E74FF48032F1E74FF48012EEE74FF00D
:100E54008072EBE70122E9E71022E7E74FF48072A2
:100E6400E4E700205BE700BF80000240000402408A
:100E7400080002400000024038B5C36B1A680468D9
:100E84002568016C04238B40134200F09B8015F00D
:100E9400040F00F09780236813F0200F03D1236818
:100EA40023F00403236003689A4A934246D9783AAC
:100EB400934224D01432934228D01432934227D040
:100EC4001432934227D01432934227D014329342DF
:100ED40027D01432934227D002F56272934226D06F
:100EE4001432934225D01432934224D014329342C4
:100EF40002D04FF4802203E04FF4804200E0042249
:100F0400854B5A60C36A03B1984738BD4022F7E75E
:100F14004FF48062F4E74FF48042F1E74FF480220B
:100F2400EEE74FF48002EBE74FF08062E8E704223B
:100F3400E6E74022E4E74FF48062E1E7774A934230
:100F440024D01432934225D01432934224D0143244
:100F5400934224D01432934224D01432934224D0A6
:100F64001432934224D002F56272934223D0143295
:100F7400934222D01432934221D01432934202D0AD
:100F84004FF4802203E04FF4804200E00422644BDB
:100F94005A60B7E74022FAE74FF48062F7E74FF46C
:100FA4008042F4E74FF48022F1E74FF48002EEE749
:100FB4004FF08062EBE70422E9E74022E7E74FF4D1
:100FC4008062E4E702238B40134200F0AB8015F00B
:100FD400020F00F0A780236813F0200F06D12368C6
:100FE40023F00A032360012380F821300368494A6F
:100FF40093424BD9783A934224D0143293422DD061
:10100400143293422CD0143293422CD01432934293
:101014002CD0143293422CD0143293422CD002F5AB
:10102400627293422BD0143293422AD014329342E8
:1010340029D01432934202D04FF4003203E04FF42B
:10104400005200E00222344B5A60002380F8203022
:10105400836A002B3FF459AF984756E72022F2E702
:101064004FF40072EFE74FF40052ECE74FF4003214
:10107400E9E74FF40012E6E74FF00072E3E70222DB
:10108400E1E72022DFE74FF40072DCE7234A9342D2
:1010940024D01432934225D01432934224D01432F3
:1010A400934224D01432934224D01432934224D055
:1010B4001432934224D002F56272934223D0143244
:1010C400934222D01432934221D01432934202D05C
:1010D4004FF4003203E04FF4005200E00222104BC0
:1010E4005A60B2E72022FAE74FF40072F7E74FF4B0
:1010F4000052F4E74FF40032F1E74FF40012EEE748
:101104004FF00072EBE70222E9E72022E7E74FF411
:101114000072E4E78000024000040240080002403C
:101124000000024008238B4013423FF4EEAE15F05A
:10113400080F3FF4EAAE236823F00E032360026C29
:10114400C16B012303FA02F24A60836380F8213001
:10115400002380F82030036B002B3FF4D6AE984771
:10116400D3E600BF70B582B00024A446ABE0854D41
:10117400AB4214D00CD8A5F58015AB420FD005F5C1
:101184007025AB420BD0A5F58015AB4210D106E01B
:101194007D4DAB4203D005F58035AB4208D18B6859
:1011A400002B5AD0012B53D04261082400E0CC68B4
:1011B400BEF1FF0F53D806464FEA8C0233680F2561
:1011C400954023EA050304FA02F2134333604B68A3
:1011D40013F0805F75D06D4B9A6942F001029A61F9
:1011E4009B6903F001030193019B4FEA9C02951C48
:1011F400674B53F825600CF00305AD000F23AB409B
:1012040026EA0306634B984230D003F58063984284
:1012140000F0968003F58063984200F0938003F514
:101224008063984200F0908003F58063984200F058
:101234008D8003F58063984216D0062317E0CC68AE
:101244000434B5E7CC680834B2E7CC680C34AFE7B3
:1012540002610824ACE70024AAE70424A8E7061DD9
:10126400ACF108029200A9E7052300E00023AB409B
:1012740033430232464D45F822304B6813F4801F45
:1012840066D0454A936843EA0E0393604B6813F4AF
:10129400001F63D0404AD36843EA0E03D3604B680F
:1012A40013F4003F60D03C4A536843EA0E03536092
:1012B4004B6813F4803F5DD0374A136843EA0E034A
:1012C40013600CF1010C0B6833FA0CF258D00122B4
:1012D40002FA0CF203EA020E32EA0303F1D14B687C
:1012E400122B3FF644AF122B3FF662AF01A555F81F
:1012F40023F000BFA3110008B3110008491200082D
:101304005B120008B5110008B5110008B5110008FA
:10131400B5110008B5110008B5110008B511000891
:10132400B5110008B5110008B5110008B511000881
:10133400B5110008B5110008431200084F12000847
:10134400012394E7022392E7032390E704238EE723
:10135400114A936823EA0E03936097E70E4AD36811
:1013640023EA0E03D3609AE70B4A536823EA0E0379
:1013740053609DE7084A136823EA0E031360A0E74D
:1013840002B070BD000022100000311000100240B5
:101394000000014000080140000401400AB101615D
:1013A400704709040161704782B0084B1B68084A02
:1013B400A2FB03235B0A00FB03F3019300BF019B21
:1013C4005A1E0192002BF9D102B070470000002090
:1013D400D34D6210002800F0F18170B582B004464C
:1013E400036813F0010F2CD0994B5B6803F00C03D6
:1013F400042B1DD0964B5B6803F00C03082B12D012
:101404006368B3F5803F41D0002B55D103F180438D
:1014140003F504331A6822F480321A601A6822F43D
:1014240080221A6037E08A4B5B6813F4803FE7D070
:10143400874B1B6813F4003F03D06368002B00F054
:10144400BF81236813F0020F75D0814B5B6813F0E2
:101454000C0F5FD07E4B5B6803F00C03082B54D059
:101464002369002B00F08A807A4B01221A60FFF76F
:101474004DFB0546764B1B6813F0020F75D1FFF741
:1014840045FB401B0228F5D903209EE1704A1368EE
:1014940043F480331360636843B3FFF737FB0546B7
:1014A4006B4B1B6813F4003FCBD1FFF72FFB401BA2
:1014B4006428F5D9032088E1B3F5A02F09D0644B43
:1014C4001A6822F480321A601A6822F480221A60A0
:1014D400E1E703F18043A3F53C331A6842F4802228
:1014E4001A601A6842F480321A60D4E7FFF70EFBE0
:1014F4000546574B1B6813F4003FA2D0FFF706FBC9
:10150400401B6428F5D903205FE1514B5B6813F459
:10151400803FA5D14E4B1B6813F0020F03D0236903
:10152400012B40F04F814A4A136823F0F8036169A4
:1015340043EAC1031360236813F0080F33D0A3698F
:10154400002B5CD0434B0122C3F88024FFF7DEFA62
:1015540005463F4B5B6A13F0020F21D1FFF7D6FA21
:10156400401B0228F5D903202FE1394A136823F0E0
:10157400F803616943EAC1031360DCE7354B0022D9
:101584001A60FFF7C3FA0546314B1B6813F0020FCC
:10159400D1D0FFF7BBFA401B0228F5D9032014E190
:1015A4000120FFF701FF236813F0040F00F0968079
:1015B400274BDB6913F0805F34D1254BDA6942F0A5
:1015C4008052DA61DB6903F080530193019B0125AA
:1015D400214B1B6813F4807F26D0E368012B3DD098
:1015E400002B53D103F1804303F504331A6A22F02C
:1015F40001021A621A6A22F004021A6233E0154BDD
:101604000022C3F88024FFF781FA0546104B5B6A79
:1016140013F0020FC7D0FFF779FA401B0228F5D95F
:101624000320D2E00025D3E70B4A136843F4807308
:101634001360FFF76BFA0646074B1B6813F4807FB1
:10164400CBD1FFF763FA801B6428F5D90320BCE0F3
:101654000010024000004242007000405F4A136ADA
:1016640043F001031362E36833B3FFF74FFA06460E
:101674005A4B1B6A13F0020F2FD1FFF747FA801B56
:1016840041F288339842F3D903209EE0052B09D018
:10169400524B1A6A22F001021A621A6A22F00402F8
:1016A4001A62E0E74D4B1A6A42F004021A621A6A9F
:1016B40042F001021A62D6E7FFF728FA0646474BC2
:1016C4001B6A13F0020F08D0FFF720FA801B41F2C7
:1016D40088339842F3D9032077E0E5B9E369002B16
:1016E40072D03E4A526802F00C02082A56D0022BED
:1016F40017D03B4B00221A66FFF708FA0446374B13
:101704001B6813F0007F47D0FFF700FA001B022884
:10171400F5D9032059E0314AD36923F08053D361CA
:10172400DCE72F4B00221A66FFF7F0F905462B4B36
:101734001B6813F0007F06D0FFF7E8F9401B02286E
:10174400F5D9032041E0236AB3F5803F1AD0234939
:101754004B6823F47413226A606A024313434B6098
:101764001F4B01221A66FFF7D1F904461B4B1B6875
:1017740013F0007F0ED1FFF7C9F9001B0228F5D939
:10178400032022E0154A536823F40033A1680B4375
:101794005360DCE7002018E0002016E0012B16D08F
:1017A4000E4B5B6803F48031226A914211D103F439
:1017B4007013626A93420ED1002006E00120704744
:1017C400012002E0012000E0002002B070BD0120F1
:1017D400FBE70120F9E70120F7E700BF0010024012
:1017E400000042420F4B5B6803F00C02082A01D050
:1017F4000D487047C3F383420C49885C13F4803F5F
:101804000BD0084B5B68C3F34043094AD35C064AD8
:1018140002FB00F0B0FBF3F07047064B03FB00F053
:10182400704700BF0010024000127A00B434000870
:10183400B034000800093D00002800F0A08070B515
:101844000D460446524B1B6803F007038B420BD230
:101854004F4A136823F007030B431360136803F024
:1018640007038B4240F08D80236813F0020F17D0DA
:1018740013F0040F04D0474A536843F4E063536001
:10188400236813F0080F04D0424A536843F46053AA
:101894005360404A536823F0F003A1680B4353603C
:1018A400236813F0010F31D06368012B20D0022B81
:1018B40025D0384A126812F0020F64D035494A68BC
:1018C40022F0030213434B60FFF720F90646314B25
:1018D4005B6803F00C036268B3EB820F16D0FFF76A
:1018E40015F9801B41F288339842F0D9032045E072
:1018F400284A126812F4003FE0D101203EE0254A54
:10190400126812F0007FD9D1012037E0204B1B6808
:1019140003F00703AB420AD91D4A136823F00703F7
:101924002B431360136803F00703AB422DD12368E4
:1019340013F0040F06D0174A536823F4E063E168F8
:101944000B435360236813F0080F07D0114A536800
:1019540023F46053216943EAC1035360FFF742FF54
:101964000C4B5B68C3F303130B4AD35CD8400B4B9B
:1019740018600B4B1868FFF785F8002070BD012034
:1019840070470120FAE70120F8E70120F6E700BFDD
:101994000020024000100240A03400080000002093
:1019A40008000020014B1868704700BF00000020A9
:1019B40008B5FFF7F7FF044B5B68C3F30223034A40
:1019C400D35CD84008BD00BF001002409834000822
:1019D40008B5FFF7E7FF044B5B68C3F3C223034A70
:1019E400D35CD84008BD00BF001002409834000802
:1019F40060B370B50E46154604468369B3F5807F1F
:101A040026D090F84130E3B1214651F8080B00F09C
:101A1400CDFBA2683146206800F0FCFB236BA26872
:101A24002946606800F01EFC2268A16852F8213043
:101A340043F0010342F82130012384F841300020AF
:101A440070BD80F84030FEF79DFCDDE70120704753
:101A54000120F5E7026802F10C0353E8003F23F488
:101A640090730C3242E800310029F3D1026802F18C
:101A7400140353E8003F23F00103143242E8003119
:101A84000029F3D1036B012B05D0202380F84230C9
:101A9400002303637047026802F10C0353E8003F1C
:101AA40023F010030C3242E800310029F3D1ECE7B3
:101AB40090F84130DBB2212B01D0022070478368BB
:101AC400B3F5805F17D0036A5A1C02621A78036860
:101AD4005A60C38C9BB2013B9BB2C3844BB902686E
:101AE400D36823F08003D3600268D36843F04003D3
:101AF400D360002070470369002BE4D1036A1B887C
:101B04000268C3F308035360036A02330362E0E725
:101B140010B504460268136923F44053C1680B43AB
:101B2400136183680269134342691A430168CB68ED
:101B340023F4B05323F00C031343CB6002685369BE
:101B440023F4407381690B4353610268134B9A4237
:101B540020D0FFF72DFF024602EB820202EB820245
:101B640063689B00B2FBF3F20D48A0FB0231490904
:101B7400642303FB11231B013233A0FB03035B0922
:101B840003F0F00202EB011203F00F032168134487
:101B94008B6010BDFFF71CFF0246DDE700380140F3
:101BA4001F85EB512DE9F84305460F461646994625
:101BB400DDF820802B681C6837EA04040CBF01247C
:101BC4000024B4422DD1B8F1FF3FF3D0B8F1000F97
:101BD40005D0FEF79BFFA0EB09004045EAD92A682F
:101BE40002F10C0353E8003F23F4D0730C3242E8B3
:101BF40000310029F3D12A6802F1140353E8003FAD
:101C040023F00103143242E800310029F3D12023E8
:101C140085F8413085F84230002385F840300320B0
:101C240000E00020BDE8F88360B310B5044690F8E6
:101C3400413013B3242384F841302268D36823F459
:101C44000053D3602046FFF763FF2268136923F42F
:101C5400904313612268536923F02A035361226875
:101C6400D36843F40053D36000206064202384F8D5
:101C7400413084F84230606310BD80F84030FEF794
:101C84007DFED7E7012070472DE9F04182B01E4662
:101C940090F84130DBB2202B4BD104460D469046E0
:101CA40000294AD00AB9012044E0002343642123D7
:101CB40080F84130FEF72AFF0746A4F82480A4F8F0
:101CC4002680A368B3F5805F02D04FF000080FE0D0
:101CD4002369FBB14FF000080AE038F8023B2268A0
:101CE400C3F308035360E28C92B2013A92B2E284E5
:101CF400E38C9BB28BB100963B46002280212046A8
:101D0400FFF750FFD8B9002DE7D015F8012B236851
:101D14005A60E8E7A8460025EAE700963B46002219
:101D240040212046FFF73EFF58B9202384F8413074
:101D340000E0022002B0BDE8F0810120FAE70320B0
:101D4400F8E70320F6E72DE9F04182B01E4690F84B
:101D54004230DBB2202B53D104460D469046002975
:101D640052D00AB901204CE000234364222280F8B7
:101D740042200363FEF7CAFE0746A4F82C80A4F8A9
:101D84002E80A368B3F5805F02D04FF0000817E0FF
:101D9400236913B14FF0000812E0A84600250FE0B4
:101DA40023685B68C3F3080328F8023B03E0236855
:101DB4005B682B700135E28D92B2013A92B2E285F2
:101DC400E38D9BB2BBB100963B4600222021204606
:101DD400FFF7E8FED0B9002DE2D0A368B3F5805F29
:101DE400E5D013B92369002BE1D023685B6803F0C5
:101DF4007F032B70DEE7202384F84230002000E0CC
:101E0400022002B0BDE8F0810120FAE70320F8E7E0
:101E1400704708B50168CA6822F04002CA602022EF
:101E240080F84120FFF7F4FF002008BD7047704799
:101E340008B5406A0023C385C384FFF7F8FF08BDD3
:101E4400704790F84230DBB2222B69D18368B3F536
:101E5400805F4FD0826AB3F5805F04D0002B56D1E7
:101E64000369002B53D103685B681370836A0133E1
:101E74008362C38D9BB2013B9BB2C385002B51D1BE
:101E840000B583B00268D36823F02003D3600268EE
:101E9400D36823F48073D3600268536923F0010389
:101EA4005361202380F8423000234363036B012BEA
:101EB40033D100230363026802F10C0353E8003FAB
:101EC40023F010030C3242E800310029F3D10368F7
:101ED4001A6812F0100F06D0002201921A680192BB
:101EE4005B680193019B818DFFF7AAFF002003B07B
:101EF4005DF804FB0269002AACD1826A03685B685E
:101F0400C3F308031380836A02338362B1E703686F
:101F14005B6803F07F031370A8E7FFF787FFE5E72B
:101F2400022070470020704710B582B00446026852
:101F34001368D068516913F00F0F09D113F0200F03
:101F44000CD010F0200F09D02046FFF77AFF16E0DE
:101F540011F0010115D110F4907F12D1216B0129E8
:101F640079D013F0800F03D010F0800F40F013816C
:101F740013F0400F03D010F0400F40F0108102B076
:101F840010BD13F0010F06D010F4807F03D0626CF3
:101F940042F00102626413F0040F04D019B1626CC0
:101FA40042F00202626413F0020F04D019B1626CB1
:101FB40042F00402626413F0080F07D010F0200FFF
:101FC40000D119B1626C42F008026264626C002AAA
:101FD400D5D013F0200F02D010F0200F29D12368A0
:101FE4005B6903F04003626C12F0080F00D163B325
:101FF4002046FFF72FFD23685B6913F0400F20D0C4
:10200400226802F1140353E8003F23F04003143222
:1020140042E800310029F3D1E36B73B1624A5A6399
:10202400E06BFEF773FE0028A9D0E06B436B984782
:10203400A5E72046FFF705FFD1E72046FFF7F7FEA7
:102044009DE72046FFF7F3FE99E72046FFF7EFFEF2
:102054000023636493E713F0100F82D010F0100F85
:102064003FF47FAF002301931368019353680193F6
:10207400019B536913F0400F51D0E26B13685B6806
:102084009BB2002B3FF47BAFA18D99427FF677AFD3
:10209400E3859369202B37D0226802F10C0353E8BF
:1020A400003F23F480730C3242E800310029F3D15D
:1020B400226802F1140353E8003F23F001031432B1
:1020C40042E800310029F3D1226802F1140353E8F5
:1020D400003F23F04003143242E800310029F3D1D9
:1020E400202384F8423000232363226802F10C0386
:1020F40053E8003F23F010030C3242E8003100297A
:10210400F3D1E06BFEF7DEFD02236363A18DE38D63
:102114009BB2C91A89B22046FFF792FE2FE7A18D20
:10212400E38D9BB2C91A89B2E38D9BB2002B3FF4B5
:1021340026AF00293FF423AF226802F10C0353E8D1
:10214400003F23F490730C3242E800300028F3D1AE
:10215400226802F1140353E8003F23F00103143210
:1021640042E800300028F3D1202384F842300023D1
:102174002363226802F10C0353E8003F23F01003A9
:102184000C3242E800300028F3D102236363204676
:10219400FFF756FEF3E62046FFF78AFCEFE62046FB
:1021A400FFF737FEEBE600BF351E000810B40A68DF
:1021B40050F8223023F0010340F822308B68082BBA
:1021C40024D000244A6822431343CA6813430A698B
:1021D40013434A691343CA6913430A6A13434A6A95
:1021E40013438A6A1343CA6A13430A6B13438A6903
:1021F4001A434B6B1A43096850F82140044B23409F
:10220400134340F82130002010BC70474024D9E724
:102214008000F0FF00B5013250F8223003F0404C4A
:102224000B68D1F804E043EA0E13D1F808E043EA5E
:102234000E23D1F80CE043EA0E43D1F810E00EF17E
:10224400FF3E43EA0E53D1F814E0AEF1020E43EA26
:102254000E6389690B434CEA030340F822300020E3
:102264005DF804FBB3F5804F05D06FF0704340F880
:1022740022300020704730B450F82230094C1C4002
:102284000B684D6843EA05138D6843EA05238D699D
:102294002B43C96843EA01431C4340F82240002011
:1022A40030BC70470000F0CF024A0349034800F0F5
:1022B400C9B800BF0C000020D53000082000002061
:1022C4000C4B416810B59942044601D000F000FF60
:1022D400A168094B994202D0204600F0F9FEE1685A
:1022E400064B994204D02046BDE8104000F0F0BEF1
:1022F40010BD00BF64060020CC0600203407002077
:102304002DE9F84300250423304C314A3149DFF8E4
:10231400C890DFF8C880324F324E116004F15C007F
:1023240029460822C4E90335C4E90055C4E9055522
:10233400A560656600F0C2F904F15800C4E90749D4
:10234400C4E90987E66200F08BFA274B2946082284
:1023540004F1C4006367C4E91A55C4E91E5525672E
:10236400C4F8CC50C4F8805000F0A8F904F1680314
:1023740004F1C000C4F88430C4E92298C4E9247686
:1023840000F06EFA194B294604F596700822C4F839
:10239400DC30C4E93455C4E93855C4F8D850C4F81D
:1023A4003451C4F8E85000F089F904F1D003C4E9C9
:1023B4003D87C4F8F09004F59470C4F8FC60C4F848
:1023C400EC30BDE8F84300F04BBA00BF64060020CF
:1023D4009C070020AD22000831260008552600087D
:1023E40095260008B9260008090001001200020021
:1023F40010B504460A4800F037FA636B23B9094B59
:10240400094A1B68626323B1BDE81040044800F028
:102414002DBAFFF775FFBDE81040014800F026BA59
:10242400AC0700209C070020C5220008014800F0EA
:102434001BBA00BFAC070020014800F017BA00BF68
:10244400AC0700202DE9F8434FF0000980460F4601
:102454001646D6E90154013D10D4A389012B08D9AD
:10246400B4F90E30013304D021464046B84749EA56
:102474000009013D6B1C04F16804EED13668002E9E
:10248400E7D14846BDE8F8832DE9F043664C0E4693
:10249400D4F80080174604461D4683B0B8F1000FF7
:1024A40004D0D8F83430002B00F0A680022F05D0D9
:1024B400012F00F2A580002DC0F2A280636EDA071E
:1024C40051D52146404600F0F7FE216B41B104F19D
:1024D4004003994202D0404600F036FA00232363B9
:1024E4000023B4F90CC0A3611CF0800F63605DD1BC
:1024F4002CF44A6C2CF0030C022FA4F80CC063D00B
:1025040001AB214640466A4600F000FFA389184308
:10251400A081002D2ED0002E2DD0D8F83430002BE1
:1025240037D0009AB4F90C30AA421CBF43F40063BC
:10253400A381012F04BF43F00103A38113F0080218
:10254400C4E90465266028D0D90753D50022A260C7
:10255400626E6D42D207A56123D49B0521D4A06D80
:1025640000F084F91DE0A3899B05AAD4A06D00F0B6
:102574007BF9A6E7009D284600F0E2FA064600280B
:1025840041D0A38943F08003A381D8F83430002BD1
:10259400C7D14046FFF72CFFC3E7A260626ED207A3
:1025A400DBD50025284603B0BDE8F0834046216909
:1025B40000F0CAF9B4F90CC0022F2CF44A6C2CF0C8
:1025C400030CA4F80CC09BD100250021012204F1C6
:1025D400430323602361636E4CF00200A081D8079B
:1025E400A1606261DED41CF4007FDBD1A06D00F039
:1025F4003DF9D7E7A560D1E74046FFF7F9FE55E777
:102604004FF0FF35CEE7DDF80090A94506D04846E7
:1026140000F096FA064608B14D46B2E74FF0FF3592
:10262400B4F90CC0D1E700BF1800002010B50C4667
:10263400B1F90E1000F0BAF8002803DB236D03444F
:10264400236510BDA38923F48053A38110BD00BF6B
:102654002DE9F0410C46B1F90C101F46CB05054697
:1026640016460BD421F48051A1813B4632462846BC
:10267400B4F90E10BDE8F04100F0AEB8B4F90E1094
:102684000223002200F07CF8B4F90C10EAE700BF42
:1026940010B50C46B1F90E1000F072F8B4F90C3014
:1026A400421C0EBF23F4805343F480532065A3815E
:1026B40010BD00BFB1F90E1000F050B870B5860718
:1026C40047D0541E002A3ED00346CAB201E0013C62
:1026D40039D303F8012B9D07F9D1032C2CD9CDB2A2
:1026E40005EB05250F2C1A4605EB054534D9A4F155
:1026F400100C2CF00F0603F1100EB6444FEA1C1C0C
:10270400C2E90055C2E9025510327245F8D10CF104
:10271400010214F00C0F03EB021204F00F0C13D09F
:10272400ACF1040323F003030433134442F8045BC1
:102734009342FBD10CF003042CB1C9B21C4403F83E
:10274400011BA342FBD170BD64461346002CF4D197
:10275400F9E703461446C0E7A446E1E7002238B58A
:10276400064D044608462A60FEF750F8431C00D084
:1027740038BD2B68002BFBD0236038BDA007002098
:1027840038B50C46114600228446074D20462A607F
:102794001A466446FEF746F8431C00D038BD2B6841
:1027A400002BFBD0236038BDA007002038B50C46B1
:1027B400114600228446074D20462A601A46644684
:1027C400FEF738F8431C00D038BD2B68002BFBD033
:1027D400236038BDA007002038B50C4611460022FE
:1027E4008446074D20462A601A466446FDF7F4FFE6
:1027F400431C00D038BD2B68002BFBD0236038BDB0
:10280400A0070020014B1868704700BF1800002083
:1028140070B50F4B0F4DAB42A3EB050607D0002458
:10282400B61055F8043B01349847A642F9D800F095
:1028340025FE094D094B5E1BAB424FEAA60606D0A6
:10284400002455F8043B01349847A642F9D870BDDA
:10285400C4340008C4340008C4340008CC3400086C
:10286400704700BF704700BF704700BF704700BF8C
:10287400024B13B1024800F005B870470000000095
:10288400BD330008002301461A46184600F0B6BDC1
:102894002DE9F84306460820894600F0A1FD0546C7
:1028A400DFF89880304600F007FCD8F808305F68FD
:1028B40027F00307A7F11104A4EB09042C44B4FB8B
:1028C400F5F4013C05FB04F4A54208DC0021304684
:1028D40000F060FDD8F808303B44984205D03046FB
:1028E40000F0F0FB0020BDE8F8833046614200F0C0
:1028F40051FD01300FD0124AD8F808303F1B47F081
:1029040001075F60136830461B1B136000F0DAFB9D
:102914000120BDE8F8830021304600F03BFDD8F8E3
:102924000820831A0F2BDADD43F001035360054BB3
:1029340003491B68C01A0860D1E700BF500100209A
:10294400B40700204401002000297CD0F8B50C46CF
:10295400064600F0B1FB54F8043C764FA4F1080598
:1029640023F001016818D7F808C04268844522F0B2
:10297400030200F08380DB07426000EB020C33D4D7
:1029840054F8084CDCF804302D1B2144AC6807F1E2
:10299400080C644503F0010364D0D5F80CE0C4F8D6
:1029A4000CE0CEF80840002B00F0818041F00103D8
:1029B4006B600160B1F5007F22D20122CB08490986
:1029C4008A40796801330A437A6057F8331007EB79
:1029D400C302083AC5E9021247F83350CD603046C5
:1029E400BDE8F84000F06EBBDCF80430DB072BD503
:1029F40041F00103B1F5007F44F8043C0160DCD3ED
:102A0400B1F5206F4FEA512353D28B0903F13900FA
:102A140003F13802C300F818FB580838984203D170
:102A240061E09B68984204D05A6822F003028A420B
:102A3400F7D8D868C5E9023085603046DD60BDE866
:102A4400F84000F03FBB7047114407F1080C83685D
:102A540063453FD0C268DA60936041F001036B6064
:102A64006950A7E7002B5FD10A44D0E90213CB6079
:102A7400996042F001036B60AA50B0E70A44D90799
:102A840007D454F8083CED1A1A44D5E90213CB6074
:102A9400996042F001036B60274BBD601B68934251
:102AA4009DD8264B30461968FFF7F2FE97E711448C
:102AB400CDE7142B08D9542B1DD80B0B03F16F0051
:102AC40003F16E02C300A6E703F15C0003F15B02AD
:102AD400C300A0E741F00103C7E90455C5E902CCEE
:102AE4006B6069507BE70121921001FA02F2796868
:102AF4000A437A609EE7B3F5AA7F06D8CB0B03F1AD
:102B0400780003F17702C30085E740F25452934200
:102B140006D88B0C03F17D0003F17C02C3007AE735
:102B24004FF47E737E2276E741F001036B6001600F
:102B340055E700BF5001002048010020E4070020B1
:102B4400024B0146186800F003B800BF18000020CB
:102B54002DE9F04F01F10B05162D064683B024D85C
:102B6400102900F2AD8000F0A7FA102518234FF0C9
:102B7400020CB84F3B445C68A3F10802944200F095
:102B84001D8130466368E268A16823F00303CA60CC
:102B9400234491605A68083442F001025A6000F0FC
:102BA40091FA204603B0BDE8F08F35F0070500F137
:102BB4008780A94200F2848000F07EFAB5F5FC7F9C
:102BC400C0F06F816B0A7FD0042B00F21E81AB0929
:102BD40003F1390C03F1380E4FEACC009D4F384411
:102BE40044680838A04207D10DE0002AE16880F269
:102BF400DF80884207D00C46636823F003035A1B26
:102C04000F2AF2DDF446DFF850823C69444500F0B7
:102C1400BC80636823F00309A9EB05030F2B00F3C1
:102C24004581002BC7E9048880F22F81B9F5007F24
:102C3400D7F804E080F0C98001234FEAD9014FEAB4
:102C44005919194403FA09F357F831204EEA030ECF
:102C540007EBC103083BA260E360C7F804E047F850
:102C64003140D46001204FEAAC039840704532D81B
:102C740010EA0E0F07D12CF0030C400010EA0E0FDF
:102C84000CF1040CF9D007EBCC0AD646E146DEF889
:102C94000C300BE059681C4621F003014A1B0F2A33
:102CA400DB6800F3BF80002A80F2E2809E45F1D108
:102CB40009F1010919F0030F0EF1080EE7D11FE124
:102CC4000C23336000246CE74FF400704FF0400C89
:102CD4004FF03F0E82E7BC68636823F00309A945FF
:102CE40003D3A9EB05030F2B52DC5C4B08201B68B4
:102CF40003F1100804EB0903009300F071FB584A38
:102D040083461368A844013305D008F1FF38804492
:102D1400434203EA08084146304600F03BFBB0F169
:102D2400FF3F82464E4A00F0DC8004EB09038342F5
:102D340000F2D5804B4B0BF1FF31186840448446B8
:102D4400186040F0FB801AEA010F40F0F780D7F8D2
:102D540008A0C84448F00102CAF804205446424B73
:102D64001968814238BF1860404B1968814238BFE6
:102D7400186022F00308A845A8EB050301D30F2B24
:102D840006DC304600F09EF99CE7D7F804E069E7DA
:102D9400621943F0010345F0010565603046BA60ED
:102DA4000834536000F08EF9204603B0BDE8F08F7C
:102DB400A2683046D16023448A60EBE6DC68A34213
:102DC4007FF4DFAE0CF1020C1DE7B9F5206F4FEA7A
:102DD40059227DD3142A00F2118102F15C03DB0035
:102DE4005B32F918FB580839994203D1ECE09B682F
:102DF400994204D05A6822F003024A45F7D8D968A8
:102E0400C4E902318C60DC602CE7142B6CD9542BA0
:102E140000F2FD802B0B03F16F0C03F16E0E4FEAF1
:102E2400CC00DBE6D4F808C03046661945F001054D
:102E34006560CCF80C30C3F808C042F00103C7E960
:102E44000466C6E902887360625000F03BF90834F6
:102E5400A7E600BF5001002058010020E40700202D
:102E640044010020B4070020E0070020DC07002014
:102E740021444A68304642F001024A6054F8082F5F
:102E8400D3609A6000F01EF98BE6A144D9F80430AF
:102E9400304643F00103C9F8043000F013F9083454
:102EA4007FE64FEAD50C05F1080362E6621943F0A8
:102EB400010145F0010565603046C7E90422C2E915
:102EC4000288516044F8093000F0FCF8083468E6E0
:102ED4004FEA991202F13903DB00383281E7BC4230
:102EE40024D0BC68626844E703F15C0C03F15B0E18
:102EF4004FEACC0072E65AF80839534540F0D880BE
:102F04001CF0030F0CF1FF3CF5D17B6823EA0003AE
:102F14007B60400098423FF6DEAE18B9DBE6400025
:102F240009F104091842FAD0CC46ACE6614B0BF126
:102F3400FF31186808EB000CC3F800C010680130BA
:102F440070D004EB0902AAEB020262441A601AF080
:102F54000702CDE9002340D0C2F108029244D044D4
:102F640008EA01005A44121A02EA010B5946304693
:102F740000F010FA421C019B71D0A0EB0A0000EB98
:102F84000B08186848F001025844BC42C7F808A06E
:102F94001860CAF804203FF4E1AEB9F10F0F44D928
:102FA4004FF0050C6168A9F10C0222F0070201F050
:102FB4000101114361600F2A04EB0201C1E901CC54
:102FC40055D8DAF80420C9E60120921000FA02F27A
:102FD4004EEA020EC7F804E012E70AEB08020A40C0
:102FE400ABEB020202EA010B5946304600F0D2F97B
:102FF400431C019BC1D1DDF800B0C2E7542A18D8A4
:103004004FEA193202F16F03DB006E32E9E6B3F5E1
:10301400AA7F18D8EB0B03F1780C03F1770E4FEA73
:10302400CC00DBE5C2F800A091E70123CAF8043024
:10303400A7E6B2F5AA7F25D84FEAD93202F1780380
:10304400DB007732CDE640F25452934225D8AB0CE4
:1030540003F17D0C03F17C0E4FEACC00BEE5009A2F
:103064004FF0000B083A9044A8EB0A0889E7304671
:1030740004F108010093FFF767FC009BD7F808A050
:1030840018689EE740F254539A420DD84FEA994289
:1030940002F17D03DB007C32A3E64FF47E704FF037
:1030A4007F0C4FF07E0E99E54FF47E737E2298E6F6
:1030B4007B682EE7B40700200148FFF7D5BB00BFAB
:1030C400A40700200148FFF7D1BB00BFA4070020DC
:1030D40070B500293FD006460C4610B1436B002B57
:1030E4003CD0636EB4F90C20DD0732D4900538D59A
:1030F4002146304600F04CF8E36A054633B13046C9
:10310400E16998470028B8BF4FF0FF35A3891A0634
:1031140039D4216B41B104F14003994202D03046C5
:10312400FFF712FC00232363616C21B13046FFF7E3
:103134000BFC00236364FFF779F90022636EA2811C
:10314400DB071CD5A06DFFF78DFBFFF775F928464B
:1031540070BD002ACCD10025284670BDFFF748F980
:10316400BFE7A06DFFF780FBB4F90C30002BBFD193
:10317400636ED907EFD4A06DFFF778FBEBE7A06D82
:10318400FFF774FBDEE730462169FFF7DDFBC0E79C
:10319400B1F90C20F8B516070C46074648D449681F
:1031A40042F400630029A3815FDDA56A002D3DD0B0
:1031B400002112F480523E683960E16961D1012333
:1031C4003846A847451C02466AD0B4F90C30A56AB3
:1031D400E169580705D56368D21A236B0BB1E36B19
:1031E400D21A00233846A847411C4CD13968B4F997
:1031F4000C301D293FD82F4ACA40D2073BD50022A4
:1032040062602269DD04226023F40062A28101D598
:10321400002943D0216B3E6041B104F1400399423F
:1032240002D03846FFF790FB002323630020F8BD4B
:103234000E69002EFAD0920718BF00230D6808BF4C
:103244004B690E60AD1B8B600CE02B463246D4F804
:1032540024C03846E169E047B0F1000CA5EB0C0549
:10326400664406DD002DF0DCE0E7E16B00299CDC20
:10327400DCE7B4F90C3043F040034FF0FF30A38196
:10328400F8BD226DA5E70022B4F90C306260226912
:10329400226023F40062DB04A281BBD52065B9E778
:1032A4003B68002B91D01D2B01D0162BE1D13E6041
:1032B400BCE700BF0100402038B505460C4608B104
:1032C400436B03B3B4F90C0088B1636EDB0701D41C
:1032D40081050FD528462146FFF75AFF636E054640
:1032E400DA0702D4A3899B0508D5284638BD0546CC
:1032F400284638BDA06DFFF7B7FAEBE7A06DFFF7DE
:10330400B5FA284638BDFFF773F8DBE770B50C460D
:10331400B1F90E10154600291E4696B014DB6A4614
:1033240000F024F800280FDB01994FF4806301F4C6
:103334007041A1F50051B1FA81F14FF400604909DF
:1033440031602B6016B070BDA18911F0800106D0E8
:1033540000214023084631602B6016B070BD4FF445
:103364008063084631602B6016B070BD70B50026CE
:10337400074D0446084611462E60FDF773FA431CB8
:1033840000D070BD2B68002BFBD0236070BD00BF44
:10339400A0070020002238B5064D044608462A60DE
:1033A400FDF7ACFA431C00D038BD2B68002BFBD0D2
:1033B400236038BDA007002038B5074D074C2C1BEF
:1033C400A41005D0013C55F8043D9847002CF9D1D0
:1033D400BDE8384000F058B8D0340008CC340008B8
:1033E400082802D14FF48050704708B5FFF70AFA55
:1033F400162203464FF0FF301A6008BD2DE9F8434A
:103404001B4D0646286898460F469146FFF72CFA4E
:10341400184B1C681CB3286865681F2D22DC4EB944
:103424006B1C0235636044F82570FFF71FFA002017
:10343400BDE8F883012304EB8501C1F88890D4F832
:103444008821AB401A43022EC4F88821C1F80881B0
:10345400E6D1D4F88C211A43C4F88C21E0E7064C59
:103464001C60D8E7FFF702FA4FF0FF30E0E700BF37
:1034740040010020B0070020E8070020F8B500BF95
:10348400F8BC08BC9E467047F8B500BFF8BC08BC41
:043494009E46704799
:10349800000000000102030400000000000000001A
:1034A80001020304060708090102000002030405DB
:0C34B800060708090A0B0C0D0E0F10107F
:0834C400752800084D02000804
:0434CC0025020008CD
:1034D0000024F400010000001000000000000000C3
:1034E000030000006406002020000020000000000F
:1034F0000000000064060020CC06002034070020F5
:1035000000000000000000000000000000000000BB
:1035100000000000000000000000000000000000AB
:10352000000000000000000000000000000000009B
:10353000000000000000000000000000000000008B
:10354000000000000000000000000000000000007B
:10355000000000000000000000000000000000006B
:10356000000000000000000000000000000000005B
:10357000000000000000000000000000000000004B
:10358000000000000000000001000000000000003A
:103590000E33CDAB34126DE6ECDE05000B000000FF
:1035A000000000000000000000000000000000001B
:1035B000000000000000000000000000000000000B
:1035C00000000000000000000000000000000000FB
:1035D00000000000000000000000000000000000EB
:1035E00000000000000000000000000000000000DB
:1035F00000000000000000000000000000000000CB
:1036000000000000000000000000000000000000BA
:10361000A8070020FFFFFFFF0000020000000000DD
:1036200000000000000000005001002050010020B8
:103630005801002058010020600100206001002096
:103640006801002068010020700100207001002046
:1036500078010020780100208001002080010020F6
:1036600088010020880100209001002090010020A6
:103670009801002098010020A0010020A001002056
:10368000A8010020A8010020B0010020B001002006
:10369000B8010020B8010020C0010020C0010020B6
:1036A000C8010020C8010020D0010020D001002066
:1036B000D8010020D8010020E0010020E001002016
:1036C000E8010020E8010020F0010020F0010020C6
:1036D000F8010020F8010020000200200002002074
:1036E0000802002008020020100200201002002022
:1036F00018020020180200202002002020020020D2
:103700002802002028020020300200203002002081
:103710003802002038020020400200204002002031
:1037200048020020480200205002002050020020E1
:103730005802002058020020600200206002002091
:103740006802002068020020700200207002002041
:1037500078020020780200208002002080020020F1
:1037600088020020880200209002002090020020A1
:103770009802002098020020A0020020A002002051
:10378000A8020020A8020020B0020020B002002001
:10379000B8020020B8020020C0020020C0020020B1
:1037A000C8020020C8020020D0020020D002002061
:1037B000D8020020D8020020E0020020E002002011
:1037C000E8020020E8020020F0020020F0020020C1
:1037D000F8020020F802002000030020000300206F
:1037E000080300200803002010030020100300201D
:1037F00018030020180300202003002020030020CD
:10380000280300202803002030030020300300207C
:10381000380300203803002040030020400300202C
:1038200048030020480300205003002050030020DC
:10383000580300205803002060030020600300208C
:10384000680300206803002070030020700300203C
:1038500078030020780300208003002080030020EC
:10386000880300208803002090030020900300209C
:103870009803002098030020A0030020A00300204C
:10388000A8030020A8030020B0030020B0030020FC
:10389000B8030020B8030020C0030020C0030020AC
:1038A000C8030020C8030020D0030020D00300205C
:1038B000D8030020D8030020E0030020E00300200C
:1038C000E8030020E8030020F0030020F0030020BC
:1038D000F8030020F803002000040020000400206A
:1038E0000804002008040020100400201004002018
:1038F00018040020180400202004002020040020C8
:103900002804002028040020300400203004002077
:103910003804002038040020400400204004002027
:1039200048040020480400205004002050040020D7
:103930005804002058040020600400206004002087
:103940006804002068040020700400207004002037
:1039500078040020780400208004002080040020E7
:103960008804002088040020900400209004002097
:103970009804002098040020A0040020A004002047
:10398000A8040020A8040020B0040020B0040020F7
:10399000B8040020B8040020C0040020C0040020A7
:1039A000C8040020C8040020D0040020D004002057
:1039B000D8040020D8040020E0040020E004002007
:1039C000E8040020E8040020F0040020F0040020B7
:1039D000F8040020F8040020000500200005002065
:1039E0000805002008050020100500201005002013
:1039F00018050020180500202005002020050020C3
:103A00002805002028050020300500203005002072
:103A10003805002038050020400500204005002022
:083A20004805002048050020C4
:0400000508000A3DA8
:00000001FF
