:020000040800F2
:1000000000000120A10C0008050A0008070A0008EA
:10001000090A00080B0A00080D0A00080000000089
:100020000000000000000000000000000F0A0008AF
:10003000110A000800000000130A0008150A000851
:10004000E90C0008E90C0008E90C0008E90C0008BC
:10005000E90C0008E90C0008E90C0008E90C0008AC
:10006000E90C0008E90C0008E90C0008E90C00089C
:10007000E90C00081D0A0008E90C00082D0A000818
:10008000E90C0008E90C0008E90C00083D0A00082A
:100090004D0A0008E90C0008E90C0008E90C00080A
:1000A000E90C0008E90C0008E90C0008E90C00085C
:1000B000E90C0008E90C0008E90C0008E90C00084C
:1000C000E90C0008E90C0008E90C0008E90C00083C
:1000D000E90C00085D0A0008E90C00086D0A000838
:1000E000E90C0008E90C0008E90C0008E90C00081C
:1000F000E90C0008E90C0008E90C0008E90C00080C
:10010000E90C00087D0A0008E90C0008E90C000869
:10011000E90C0008E90C0008E90C0008E90C0008EB
:10012000E90C0008E90C0008E90C0008E90C0008DB
:1001300000000000000000000000000000000000BF
:1001400000000000000000000000000000000000AF
:10015000000000000000000000000000000000009F
:10016000000000000000000000000000000000008F
:10017000000000000000000000000000000000007F
:10018000000000000000000000000000000000006F
:10019000000000000000000000000000000000005F
:1001A000000000000000000000000000000000004F
:1001B000000000000000000000000000000000003F
:1001C000000000000000000000000000000000002F
:1001D000000000000000000000000000000000001F
:0401E0005FF8E0F1F3
:1001E40010B5054C237833B9044B13B10448AFF36D
:1001F40000800123237010BD64090020000000006A
:100204003C8A000808B5034B1BB103490348AFF30C
:10021400008008BD00000000680900203C8A000836
:1002240000B583B00E4B5A6942F001025A615B6912
:1002340003F001030193019B002201210D2000F032
:10024400C3FD0D2000F0F8FD002201210F2000F075
:10025400BBFD0F2000F0F0FD03B05DF804FB00BF10
:100264000010024030B587B0002302930393049337
:100274000593134B1B680BB107B030BD104B012223
:100284001A60104B5A6942F480725A615B6903F434
:1002940080730193019B4FF68073029302250395AB
:1002A4000324059402A9084801F084F84CF6B373BA
:1002B40002930395059402A9044801F07BF8DBE757
:1002C4008009002000100240001801400014014081
:1002D40010B588B000220192029203920492059212
:1002E4000692079216484FF02043036003F5827389
:1002F40043608260C2600261102141618261C26117
:10030400026242624FF480538362C26202634263B8
:1003140082630F2301930293FF24039404930591B2
:100324001123069301A903F095FD30B9054AD36959
:1003340043F48063D36108B010BD00F0CBF9F5E756
:10034400840900200000014008B5FFF78BFF08BDB9
:1003540030B58BB000240694079408940994214B7B
:100364009A6942F040029A619A6902F0400201924D
:10037400019A9A6942F008029A619A6902F00802A5
:100384000292029A9A6942F020029A619A6902F0F2
:1003940020020392039A9A6942F010029A619A69C0
:1003A40002F010020492049A9A6942F004029A61DB
:1003B4009B6903F004030593059B0B4D22464FF400
:1003C4000041284601F016F94FF400430693012337
:1003D400079308940223099306A9284600F0EAFF2C
:1003E4000BB030BD0010024000080140014B1888DA
:1003F40080B2704700000260034608B1032807D1A9
:10040400164A00219171F02151804FF4A07191801E
:100414005A1FD2B2012A10D9032B17D00022052B60
:1004240016D0062B17D04FF0C0433621198042F066
:10043400080203F500331A807047084A01219171BC
:100444004FF4A0715180F0219180E5E7C022E6E7E6
:1004540042F06002E5E742F0A002E4E7CC090020A4
:1004640010B54FF0C04C2A24ACF800404FEA102ECF
:10047400114CA4F800E05FFA80FEA4F800E01044F8
:10048400421EC2F30F22228080B20138C0B2208003
:100494002B22ACF800200A0A2280CAB22280194416
:1004A4004B1EC3F30F23238089B20139C9B22180C3
:1004B4002C23ACF8003010BD0000026038B5BDF844
:1004C400105003FB02F4FFF7CBFF02E0034A158050
:1004D4001C46631E002CF9D138BD00BF0000026029
:1004E4002DE9F04182B001224FF40041764801F039
:1004F40081F84FF0C043D3221A80FFF777FFFFF74C
:1005040075FFFFF773FF714C208100022081FFF714
:100514006DFF2389184380B2208149F24133984208
:1005240002D002B0BDE8F0814FF0C044CF23238055
:10053400674B00251D80C1261E8030221A80ED21C4
:1005440021806421198003211980122119808121BD
:100554001980E821218085211980102119807A20B1
:100564001880CB202080392018802C2018801D80F2
:100574003420188002201880F72020802020188042
:10058400EA2020801D801D80B12020801D801A203B
:100594001880B62020800A201880A2271F80C02738
:1005A40027801B271F80268001261E80C5272780C1
:1005B4001A801A80C7222280B7221A80F22222804F
:1005C4001D80262222801E80E02222800F221A8093
:1005D4002A271F804FF0280CA3F800C04FF0080C06
:1005E400A3F800C04FF00E0EA3F800E0A3F800C07B
:1005F4004FF0540CA3F800C04FF0A90CA3F800C0AE
:100604004FF0430CA3F800C018801A801D801D8091
:100614001D801D804FF0E10CA4F800C01D804FF038
:10062400150CA3F800C04FF0170CA3F800C04FF04E
:10063400070CA3F800C04FF0110CA3F800C04FF052
:10064400060EA3F800E04FF02B0EA3F800E04FF0E5
:100654005608A3F800804FF03C08A3F800804FF040
:100664000508A3F8008019801A803F211980198099
:100674001A8027801D801D801D80EF221A80A4F817
:1006840000E01D801D801E8019803A2222805522A0
:100694001A80A4F800C000F071FB292323802846A7
:1006A400FFF7AAFE084A136943F400431361074C99
:1006B4004FF6FF730093A388628829462846FFF704
:1006C400FDFE26702DE700BF00080140CC09002084
:1006D4000000026072B6FEE700B597B02822002140
:1006E4000CA807F029F900230793089309930A93A8
:1006F4000B930193029303930493059306930923A5
:100704000C934FF480330D93012210921292022223
:10071400139214934FF4E01315930CA801F0BAFF4D
:10072400D8B90F23079302210891002309934FF4AA
:1007340080620A920B9307A802F0DEF978B91123BC
:1007440001934FF4007302930023069301A802F06F
:10075400AFFA30B917B05DF804FBFFF7BBFFFFF742
:10076400B9FFFFF7B7FF08B500F0E4FAFFF7B4FFED
:10077400FFF7EEFDFFF754FD00F0ACF900F0C4F90B
:10078400FFF7A6FD00F086F800F0BAF805F0DCFAF1
:1007940006F070FE00F002F8FEE7000000B583B03A
:1007A400084800F013F8FFF79BFE074A4FF6FF7363
:1007B40000939388528800210846FFF77FFE03B018
:1007C4005DF804FB000B0020CC09002008B5054BA4
:1007D4001860054B1868002302221946806807F048
:1007E400FDF808BDD80900202401002010B5013807
:1007F40001280AD814464FF0FF3392B20748006824
:1008040003F076FC40B9204610BD07F06BF80923CD
:1008140003604FF0FF30F7E70520F5E7D809002023
:10082400022801D80020704708B507F05BF80923B7
:1008340003604FF0FF3008BD08B507F053F80923F3
:1008440003604FF0FF3008BD08B548B94FF0FF33DF
:1008540001220848006803F0AAFC40B9012008BD41
:1008640007F040F8092303604FF0FF30F7E7052055
:10087400F5E700BFD809002008B5022804D84FF4D2
:1008840000534B60002008BD07F02CF809230360D7
:10089400F8E7000008B50848084B03604FF0FF3341
:1008A40043604FF48073836002F056FB00B908BDC7
:1008B400FFF710FFFBE700BFDC0900200028004021
:1008C40002680C4B9A4200D0704700B583B001F027
:1008D400C5FE094BDA6942F00062DA61DB6903F0B4
:1008E40000630193019B054B0122C3F83C2403B030
:1008F4005DF804FB00280040001002400000424262
:10090400064B074A1A6000225A609A60DA604FF474
:10091400006119615A6104229A617047F00900204C
:100924000080014030B589B00023049305930693F9
:10093400079302681E4B9A4201D009B030BD03F5FB
:1009440010435A6942F480625A615A6902F480621F
:100954000192019A9A6942F010029A619A6902F02E
:1009640010020292029A9A6942F020029A619B69EB
:1009740003F020030393039B4FF4F85304930225DD
:1009840005950324079404A90A4800F013FD0423E1
:1009940004930595079404A9074800F00BFD002271
:1009A4000521312000F010FA312000F045FAC4E7A7
:1009B40000800140001001400014014082B00E4B41
:1009C4009A6942F001029A619A6902F00102009266
:1009D400009ADA6942F08052DA61DB6903F08053ED
:1009E4000193019B054A536823F0E06343F00073CD
:1009F400536002B0704700BF001002400000014085
:100A0400FEE7FEE7FEE7FEE7FEE770477047704744
:100A140008B500F0A1F908BD08B5024800F054FB80
:100A240008BD00BFBC0A002008B5024800F04CFB1A
:100A340008BD00BF780A002008B5024801F0D0FBC9
:100A440008BD00BF6C10002008B5024801F0C8FBC7
:100A540008BD00BF6C10002008B5024803F098FCE4
:100A640008BD00BF000B002008B5024803F090FC4D
:100A740008BD00BF480B002008B5024803F004F984
:100A840008BD00BFF009002010B503460C4A0D490B
:100A94000D48006840B10C4800680344521A934260
:100AA40006D8094A136010BD0748084C0460F2E7F1
:100AB40006F018FF0C2303604FF0FF30F3E700BF8C
:100AC4000000012000040000740A00201816002011
:100AD4007047000008B50A480A4B03604FF4E1333D
:100AE400436000238360C36003610C22426183611D
:100AF400C36103F0CDFA00B908BDFFF7EBFDFBE7D6
:100B0400000B00200038014008B50A480A4B036076
:100B14004FF4E133436000238360C36003610C221C
:100B240042618361C36103F0B3FA00B908BDFFF702
:100B3400D1FDFBE7480B00200048004070B588B0A9
:100B440004460023049305930693079303684A4AD3
:100B5400934204D0494A934247D008B070BD484BF1
:100B64009A6942F480429A619A6902F4804200923E
:100B7400009A9A6942F004029A619B6903F00403A3
:100B84000193019B4FF40073049302230593032301
:100B940007933C4E04A9304600F00CFC4FF48063EC
:100BA400049300250595069504A9304600F002FC3F
:100BB4003548364B0360456085608023C36005611A
:100BC40045618561C56100F059F958B92E4BE3635D
:100BD4005C6200220221252000F0F6F8252000F0B6
:100BE4002BF9BAE7FFF776FDF0E7254BDA6942F413
:100BF4008022DA61DA6902F480220292029A9A6906
:100C040042F008029A619B6903F008030393039B73
:100C14004FF48063049302230593032307931C4E2C
:100C240004A9304600F0C6FB4FF40063049300258A
:100C34000595069504A9304600F0BCFB1548164BF3
:100C44000360456085608023C360056145618561FB
:100C5400C56100F013F958B90E4BE3635C620022DE
:100C64000221272000F0B0F8272000F0E5F874E70F
:100C7400FFF730FDF0E700BF0038014000480040B6
:100C84000010024000080140780A00205800024089
:100C9400000C0140BC0A002030000240FFF718FF9E
:100CA4000B480C490C4A002302E0D458C4500433C6
:100CB400C4188C42F9D3094A094C002301E013609B
:100CC4000432A242FBD306F013FEFFF74CFD70473B
:100CD4000000002064090020388B0008640900200B
:100CE40014160020FEE7000010B504460E4B1878D9
:100CF4004FF47A73B3FBF0F30C4A1068B0FBF3F0D3
:100D040000F0A8F868B90F2C01D901200AE00022EC
:100D140021464FF0FF3000F057F8054B1C600020CF
:100D240000E0012010BD00BF0400002000000020EE
:100D34000800002008B5074A136843F01003136045
:100D4400032000F02FF80020FFF7CEFFFFF736FE58
:100D5400002008BD00200240034A1168034B1B78A1
:100D64000B441360704700BF900B00200400002068
:100D7400014B1868704700BF900B002038B504463B
:100D8400FFF7F6FF0546B4F1FF3F02D0044B1B7892
:100D94001C44FFF7EDFF401BA042FAD338BD00BF4F
:100DA40004000020074AD36823F4E0631B041B0CEF
:100DB400000200F4E060034343F0BF6343F40033F4
:100DC400D360704700ED00E000B5194BDB68C3F356
:100DD4000223C3F1070CBCF1040F28BF4FF0040C2D
:100DE40003F1040EBEF1060F18D9033B4FF0FF3E8A
:100DF4000EFA0CFC21EA0C0199400EFA03F322EAE4
:100E04000303194300280BDB0901C9B200F1604058
:100E140000F5614080F800135DF804FB0023E5E76A
:100E240000F00F000901C9B2024B1954F4E700BFE6
:100E340000ED00E014ED00E0002807DB00F01F02E5
:100E4400400901239340024A42F82030704700BF12
:100E540000E100E00138B0F1807F0BD24FF0E023D5
:100E64005861054AF02182F8231000209861072276
:100E74001A6170470120704700ED00E000283AD065
:100E840010B4024600681D4B984229D81C4B0344F9
:100E94001C49A1FB03131B099B0013641A4BD36366
:100EA400022382F82130016821F47F5121F03001BE
:100EB400536894682343D4682343146923435469CF
:100EC400234394692343D46923430B4303600020E1
:100ED4009063012382F8213082F8200010BC70470F
:100EE4000A4B03440749A1FB03131B099B0013642A
:100EF400074BD363D4E70120704700BF07040240C7
:100F0400F8FFFDBFCDCCCCCC00000240F8FBFDBF08
:100F14000004024090F82130DBB2022B06D00423F7
:100F24008363002380F8203001207047026813682F
:100F340023F00E0313600268136823F001031360A7
:100F4400036CC16B012202FA03F34B6080F8212089
:100F5400002380F8203018467047000008B590F848
:100F64002130DBB2022B03D004238363012008BDAC
:100F74000268136823F00E0313600268136823F0F9
:100F84000103136003684C4A93424ED9783A934262
:100F940024D01432934230D0143293422FD01432DE
:100FA40093422FD0143293422FD0143293422FD035
:100FB400143293422FD002F5627293422ED014322F
:100FC40093422DD0143293422CD01432934202D047
:100FD4004FF4803203E04FF4805200E00122374B9B
:100FE4005A60012380F82130002380F82030436BBD
:100FF400002B5ED098470020B9E71022EFE74FF4AA
:101004008072ECE74FF48052E9E74FF48032E6E770
:101014004FF48012E3E74FF08072E0E70122DEE74D
:101024001022DCE74FF48072D9E7254A934224D09A
:101034001432934225D01432934224D01432934272
:1010440024D01432934224D01432934224D0143244
:10105400934224D002F56272934223D01432934215
:1010640022D01432934221D01432934202D04FF44E
:10107400803203E04FF4805200E00122114B5A60A9
:10108400AFE71022FAE74FF48072F7E74FF480528B
:10109400F4E74FF48032F1E74FF48012EEE74FF0BB
:1010A4008072EBE70122E9E71022E7E74FF4807250
:1010B400E4E700205BE700BF800002400004024038
:1010C400080002400000024038B5C36B1A68046887
:1010D4002568016C04238B40134200F09B8015F0BB
:1010E400040F00F09780236813F0200F03D12368C6
:1010F40023F00403236003689A4A934246D9783A5A
:10110400934224D01432934228D01432934227D0ED
:101114001432934227D01432934227D0143293428C
:1011240027D01432934227D002F56272934226D01C
:101134001432934225D01432934224D01432934271
:1011440002D04FF4802203E04FF4804200E00422F6
:10115400854B5A60C36A03B1984738BD4022F7E70C
:101164004FF48062F4E74FF48042F1E74FF48022B9
:10117400EEE74FF48002EBE74FF08062E8E70422E9
:10118400E6E74022E4E74FF48062E1E7774A9342DE
:1011940024D01432934225D01432934224D01432F2
:1011A400934224D01432934224D01432934224D054
:1011B4001432934224D002F56272934223D0143243
:1011C400934222D01432934221D01432934202D05B
:1011D4004FF4802203E04FF4804200E00422644B89
:1011E4005A60B7E74022FAE74FF48062F7E74FF41A
:1011F4008042F4E74FF48022F1E74FF48002EEE7F7
:101204004FF08062EBE70422E9E74022E7E74FF47E
:101214008062E4E702238B40134200F0AB8015F0B8
:10122400020F00F0A780236813F0200F06D1236873
:1012340023F00A032360012380F821300368494A1C
:1012440093424BD9783A934224D0143293422DD00E
:10125400143293422CD0143293422CD01432934241
:101264002CD0143293422CD0143293422CD002F559
:10127400627293422BD0143293422AD01432934296
:1012840029D01432934202D04FF4003203E04FF4D9
:10129400005200E00222344B5A60002380F82030D0
:1012A400836A002B3FF459AF984756E72022F2E7B0
:1012B4004FF40072EFE74FF40052ECE74FF40032C2
:1012C400E9E74FF40012E6E74FF00072E3E7022289
:1012D400E1E72022DFE74FF40072DCE7234A934280
:1012E40024D01432934225D01432934224D01432A1
:1012F400934224D01432934224D01432934224D003
:101304001432934224D002F56272934223D01432F1
:10131400934222D01432934221D01432934202D009
:101324004FF4003203E04FF4005200E00222104B6D
:101334005A60B2E72022FAE74FF40072F7E74FF45D
:101344000052F4E74FF40032F1E74FF40012EEE7F5
:101354004FF00072EBE70222E9E72022E7E74FF4BF
:101364000072E4E7800002400004024008000240EA
:1013740000000240082303FA01F111423FF4EDAEEC
:1013840015F0080F3FF4E9AE236823F00E03236041
:10139400026CC16B012303FA02F24A60836380F892
:1013A4002130002380F82030036B002B3FF4D5AEAE
:1013B4009847D2E670B582B00024A446B0E0874DC9
:1013C400AA4210D007D9864DAA420CD005F5803523
:1013D400AA4208D013E0A5F58015AA4203D005F56A
:1013E4007025AA4207D18A68002A62D0012A5BD0FC
:1013F4004361082403E0A5F58015AA42F3D0BEF1A9
:10140400FF0F58D80646BEF1FF0F56D84FEA8C029C
:1014140033680F25954023EA050304FA02F21343C7
:1014240033604B6813F0805F78D06E4B9A6942F05A
:1014340001029A619B6903F001030193019B4FEA46
:101444009C02951C684B53F825600CF003039D0027
:101454000F23AB4026EA0306644B984233D003F5CE
:101464008063984200F0988003F58063984200F00E
:10147400958003F58063984200F0928003F58063C1
:10148400984200F08F8003F58063984219D00623B8
:101494001AE0CC68B3E7CC680434B0E7CC6808340D
:1014A400ADE7CC680C34AAE703610824A7E700245D
:1014B400A5E70424A3E7061DA5E7ACF10802920002
:1014C400A6E7052300E00023AB4033430232464D38
:1014D40045F822304B6813F4801F65D0444A936862
:1014E40043EA0E0393604B6813F4001F62D0404A32
:1014F400D36843EA0E03D3604B6813F4003F5FD014
:101504003B4A536843EA0E0353604B6813F4803F2D
:101514005CD0374A136843EA0E0313600CF1010CE4
:101524000A6832FA0CF357D0012303FA0CF302EAE7
:10153400030E33EA0202F1D14A68122A3FF63FAFA2
:10154400122A3FF65CAF01A555F822F0EB13000810
:1015540097140008A1140008B31400080314000829
:1015640003140008031400080314000803140008FB
:1015740003140008031400080314000803140008EB
:1015840003140008031400080314000803140008DB
:101594009B140008A7140008012395E7022393E78E
:1015A400032391E704238FE7114A936823EA0E0388
:1015B400936098E70E4AD36823EA0E03D3609BE74F
:1015C4000B4A536823EA0E0353609EE7084A1368E4
:1015D40023EA0E031360A1E702B070BD00002210DD
:1015E40000003110001002400000014000080140DA
:1015F400000401400AB101617047090401617047A8
:1016040038B512F4804F44D00468B4F850309BB21B
:1016140091F800C003EBCC03023304EB4303B3F8AB
:101624000044C4F309048B69A34228D31B1B8B61B8
:101634008B697BB9056835F82C309BB223F4804361
:1016440023F0700383F4005343F4004343F0800316
:1016540025F82C3012F0400F0ED002680D7832F8C5
:1016640025309BB223F4E04323F0700343F400439A
:1016740043F0C00322F8253024B9204638BD0023A6
:101684008B61D5E723460A894969006804F043FB66
:10169400F3E70468B4F850309BB291F800C003EB50
:1016A400CC03063304EB4303B3F80044C4F3090446
:1016B4008B69A3422FD31B1B8B618B697BB9056894
:1016C40035F82C309BB223F4804323F0700383F469
:1016D400005343F4004343F0800325F82C3012F008
:1016E400400F0FD1026891F800C032F82C309BB241
:1016F40023F4E04323F0700343F4004343F0C003B6
:1017040022F82C30002CB8D023464A894969006855
:1017140004F001FBB1E700238B61CEE770B586B01E
:10172400002800F08180044690F8A932EBB103232D
:1017340084F8A932206803F07CFB254655F8106B29
:10174400EC460FCDACE80F002B68CCF80030231D1D
:101754000ECB304603F05DFB054658B1022384F8F6
:10176400A9320125284606B070BD80F8A83205F0DC
:101774009BFFDCE70021206803F065FB2B4616E0A5
:101784005A1C02EB820104EBC1010120487002EBF8
:10179400820104F8313004EBC1000021C17003EB75
:1017A400830004EBC0008163C1630164D3B2616848
:1017B4008B42E5D316E005EB850304EBC30300225B
:1017C40083F8692183F8685183F86B21C3F8782181
:1017D400C3F87C2105EB850304EBC303C3F8802124
:1017E4000135EDB2A942E6D8254655F8106BEC4612
:1017F4000FCDACE80F002B68CCF80030231D0ECBC6
:10180400304603F022FB054620B1022384F8A932B6
:101814000125A7E7002384F82430012384F8A932A2
:10182400206803F075FE9DE701259BE738B590F825
:10183400A832012B11D00446012580F8A852006873
:1018440003F0EEFA2946204606F04BF8206803F030
:101854005DFE002084F8A80238BD0220FCE770B5C4
:1018640005460C46164612F0400F00F00E81026841
:10187400B2F850309BB2097803EBC103023302EB98
:101884004303B3F80024C2F30902A36993424ED977
:101894009B1AA361A369002B66D16378002B49D1FD
:1018A4002B68B3F8502092B2134403EB0111B1F842
:1018B4000434C3F30903A1F80434B1F804346FEA1F
:1018C40043436FEA53439BB2A1F804342B68627814
:1018D400002A3CD1B3F8502092B21344227803EB8F
:1018E4000213B3F80C24C2F30902A3F80C24B3F8CE
:1018F4000C246FEA42426FEA524292B2A3F80C24DB
:101904002178284605F00CFF16F4804F41D02A6850
:10191400217832F821309BB223F4E04323F07003A2
:1019240043F4404343F0800322F8213031E00023A4
:10193400A361AFE7012BC9D12B68B3F8502092B251
:10194400134403EB01110023A1F80434BEE7012A78
:10195400D6D1B3F8502092B21344227803EB021389
:101964000022A3F80C24CBE716F4804F0DD028688E
:1019740030F821309BB223F4E04323F0700343F4A6
:10198400404343F0800320F8213094F82430012BA5
:1019940012D02A68217832F821309BB223F4E04334
:1019A40023F0400383F0300343F4004343F0800307
:1019B40022F82130002070BD636913446361E36938
:1019C4001344E361216A2369994224D3C91A216229
:1019D4006278002A44D12A68B2F8501089B20A44C5
:1019E400217802EB0112B2F80414C1F30901A2F840
:1019F40004143E2B1BD9580913F01F0F00D10138D2
:101A0400B2F8041489B2800280B2014341F4004167
:101A1400A2F8041426E021B9002384F824301346E4
:101A2400D6E7002384F8243023620B46D0E74BB971
:101A3400B2F804146FEA41416FEA514189B2A2F845
:101A440004140FE0590813F0010F00D00131B2F86B
:101A5400040480B2890289B20143A2F8041401E0AB
:101A6400012A06D09BB222896169286803F058FDD7
:101A74008FE72A68B2F8501089B20A44217802EB41
:101A8400011299B2A2F80414ECE70268B2F85030DB
:101A94009BB2097803EBC103063302EB4303B3F8AB
:101AA4000024C2F30902A36993424FD39B1AA36192
:101AB400A369002B67D16378002B4AD12B68B3F854
:101AC400502092B2134403EB0111B1F80434C3F370
:101AD4000903A1F80434B1F804346FEA43436FEA0C
:101AE40053439BB2A1F804342B686278002A3DD199
:101AF400B3F8502092B21344227803EB0213B3F8E4
:101B04000C24C2F30902A3F80C24B3F80C246FEAE2
:101B140042426FEA524292B2A3F80C24217828463A
:101B240005F0FEFD16F4804F7FF433AF2A68217868
:101B340032F821309BB223F4E04323F0700343F4E2
:101B4400404343F0800322F8213022E70023A361BD
:101B5400AEE7012BC8D12B68B3F8502092B21344DE
:101B640003EB01110023A1F80434BDE7012AD5D108
:101B7400B3F8502092B21344227803EB02130022EC
:101B8400A3F80C24CAE716F4804F0DD1286830F866
:101B940021309BB223F4E04323F0700343F4404329
:101BA40043F0800320F8213094F82430012B7FF493
:101BB400F0AE636913446361E3691344E361216A2A
:101BC4002369994224D3C91A21622A6861780029B9
:101BD40043D1B2F8501089B20A44217802EB0112C1
:101BE400B2F80C14C1F30901A2F80C143E2B1BD952
:101BF400580913F01F0F00D10138B2F80C1489B240
:101C0400800280B2014341F40041A2F80C1426E0A2
:101C140021B9002384F824301346D6E70023236235
:101C240084F824300B46D0E74BB9B2F80C146FEAB1
:101C340041416FEA514189B2A2F80C140FE05908EE
:101C440013F0010F00D00131B2F80C0480B2890204
:101C540089B20143A2F80C1401E0012906D09BB219
:101C640062896169286803F05BFC92E6B2F850105F
:101C740089B20A44217802EB011299B2A2F80C1439
:101C8400EDE72DE9F04105462868B0F8443013F437
:101C9400004F00F08E82B0F84440A3B214F00F0459
:101CA40040F0E28013F0100F6BD003889AB213F463
:101CB400006F40F09D8012F4004FE5D0038823F0BC
:101CC40070031B051B0D43F0800303802868B0F8E4
:101CD40050309BB295F8682103EBC203063300EB46
:101CE4004303B3F80034C3F30903C5F884318BB15B
:101CF400D5F87C1171B1B5F86E2104F00CF8D5F863
:101D04008421D5F87C311344C5F87C310021284660
:101D140005F0FAFC2A68138899B213F4006FB3D162
:101D240001F44051B1F5405FAED0B2F850309BB2EF
:101D34001A44B2F80C34C3F30903A2F80C34D5F8EE
:101D440078313E2B77D9590913F01F0F00D101398F
:101D5400B2F80C349BB2890289B20B4343F40043BA
:101D6400A2F80C342A6813889BB223F4804323F02E
:101D7400700383F4405343F4004343F0800313801F
:101D840082E703889BB223F4E14323F070036FEAF4
:101D940043436FEA53439BB203802A68B2F850303E
:101DA4009BB295F8281003EBC103023302EB430303
:101DB400B3F80034C3F309036B64EA6B1344EB63B5
:101DC4000021284605F0ACFC95F82430002B3FF4A4
:101DD4005BAF2B6C002B7FF457AF95F824302A6847
:101DE40043F08003A2F84C30002385F824304BE7FD
:101DF400B0F850309BB295F8682103EBC203063368
:101E040000EB4303B3F80034C3F30903C5F884318A
:101E1400B5F86E2105F52C7103F07DFF2A6813884F
:101E240023F070031B051B0D43F080031380284629
:101E340005F062FC28E74BB9B2F80C346FEA43436F
:101E44006FEA53439BB2A2F80C348BE7590813F0A2
:101E5400010F00D00131B2F80C3498B28B029BB25E
:101E64000343A2F80C347DE730F824309EB213F417
:101E7400004F4CD116F0800F3FF406AF621C02EB0A
:101E8400820105EBC101286830F824309BB223F4A9
:101E9400E14323F070036FEA43436FEA53439BB279
:101EA40020F82430CB78012B00F0F28016F4807FE8
:101EB40040F07A812868B0F850309BB2621C02EB83
:101EC400820215F8326003EBC603023300EB4303CE
:101ED400B3F80034C3F3090304EB840205EBC20234
:101EE400126C9A4240F24C8104EB840705EBC7075D
:101EF400D21A3A6404EB840205EBC202126C002A83
:101F040040F045813146284605F00AFCBCE630F82D
:101F1400243023F070031B051B0D43F0800320F8CD
:101F2400243004EB8401C90001F5B47105EB010808
:101F340004EB840305EBC30393F87431002B42D103
:101F44002868B0F850309BB204EB840205EBC2025F
:101F540092F8682103EBC203063300EB4303B3F8A2
:101F64000074C7F3090717BB04EB840305EBC30331
:101F7400D3F884213A44C3F88421D3F87C213A4429
:101F8400C3F87C21D3F880313BB104EB840305EB27
:101F9400C303D3F878319F4275D204EB840305EB75
:101FA400C30393F86811284605F0AEFB62E704EB1F
:101FB400840105EBC1013B46B1F86E21D1F87C11D7
:101FC40003F0A9FED0E704EB840305EBC30393F805
:101FD4006B31022B35D0296804EB840205EBC20275
:101FE40092F8680131F820309BB223F4E04323F0E7
:101FF400700343F4004343F0C00321F82030286801
:1020040092F8682130F8223013F4804F20D0B0F8D1
:1020140050309BB203EBC203023300EB4303B3F82B
:102024000074C7F30907002F9ED004EB840105EB6D
:10203400C1013B46B1F87021D1F87C1103F06BFE6D
:1020440092E7324641462846FFF7DAFA07468BE71D
:10205400B0F850309BB203EBC203063300EB4303EA
:10206400B3F80074C7F30907002F3FF47DAF04EB06
:10207400840105EBC1013B46B1F87221D1F87C1112
:1020840003F049FE70E74146286803F05DFAF1E683
:1020940004EB840305EBC30300221A6493F8343081
:1020A400FBB116F0400F37D04B781BBB2B68B3F84D
:1020B400502092B21344621C02EB820215F83220C3
:1020C40003EB0213B3F80424C2F30902A3F80424B3
:1020D400B3F804246FEA42426FEA524292B2A3F880
:1020E4000424013404EB840415F83410284605F064
:1020F40017FBC9E5012BF4D12B68B3F8502092B239
:102104001344621C02EB820215F8322003EB021323
:102114000022A3F80424E4E72A68631C03EB830386
:1021240005EBC3035B78D3B9B2F850309BB21344C8
:10213400621C02EB820215F8322003EB0213B3F89F
:102144000C24C2F30902A3F80C24B3F80C246FEA9C
:1021540042426FEA524292B2A3F80C24C1E7012B27
:10216400BFD1B2F850309BB21344621C02EB82021E
:1021740015F8322003EB02130022A3F80C24B0E775
:1021840004EB840205EBC20200271764B2E604EBF9
:10219400840205EBC202D66B1E44D663546C2344FE
:1021A400536403F0D1F96FE532462846FFF757FB35
:1021B4006AE50020BDE8F08190F8A832012B0DD02B
:1021C40010B50446012380F8A83280F82410006872
:1021D40003F096F9002084F8A80210BD022070478D
:1021E40010B584B00446006803F094F910F4004F6D
:1021F40020D110F4806F21D110F4804F2FD110F42E
:10220400005F37D110F4805F3ED110F4006F40F0CE
:10221400878010F4007F40F0AE8010F4807F27D0D8
:102224002268B2F844309BB223F480739BB2A2F8C4
:1022340044301DE02046FFF724FD19E02268B2F87F
:1022440044309BB223F480639BB2A2F8443020460E
:1022540005F077FA00212046FFF7AEFF08E0226878
:10226400B2F844309BB223F480439BB2A2F84430CA
:1022740004B010BD2268B2F844309BB223F400537A
:102284009BB2A2F84430F3E72268B2F840309BB224
:1022940023F004039BB2A2F840302268B2F8403025
:1022A4009BB223F008039BB2A2F84030204605F00D
:1022B4006BFA2268B2F844309BB223F480539BB289
:1022C400A2F84430D4E7226832F8231004AA02EBBF
:1022D400430222F8101C0133DBB2072BF3D9226826
:1022E400B2F840309BB243F00103A2F840302268B8
:1022F400B2F840309BB223F001039BB2A2F8403005
:102304002368B3F8442012F4806FF9D0B3F8442062
:1023140092B222F4806292B2A3F8442000230BE02C
:102324000023DAE7226804A901EB430131F8101C09
:1023340022F823100133DBB2072BF3D92268B2F859
:1023440040309BB243F00803A2F840302268B2F850
:1023540044309BB223F400639BB2A2F84430226859
:10236400B2F840309BB243F00403A2F84030204658
:1023740005F0FAF97CE72268B2F844309BB223F402
:1023840000739BB2A2F84430204605F0D4F96FE7FD
:1023940010B50446084611F0800F25D101F0070C52
:1023A4000CEB8C01C90001F5B47E04EB0E010CEBBF
:1023B4008C0C04EBCC0C4FF0000E8CF869E100F0AF
:1023C400070008700A61CB70022B1AD094F8A83267
:1023D400012B19D0012384F8A832206802F04AFDA9
:1023E400002084F8A80210BD01F0070C0CF1010CC8
:1023F4000CEB8C0104EBC1014FF0010E81F801E0FC
:10240400DDE700230B71E1E70220ECE710B5044699
:102414000B4611F0800F1FD101F0070202EB82017D
:10242400C90001F5B471014402EB820200EBC2025F
:10243400002082F8690103F007030B7094F8A832B6
:10244400012B13D0012384F8A832206802F0F7FE90
:10245400002084F8A80210BD01F00702013202EB4B
:10246400820100EBC10101204870E4E70220F2E799
:1024740010B501F0070C0CEB8C01C90001F5B47127
:102484000CEB8C0E00EBCE0ECEF87C21CEF8803116
:102494000024CEF884418EF869418EF868C1014465
:1024A400006803F051F8204610BD01F0070101EB6C
:1024B400810100EBC101D1F88401704738B501F006
:1024C400070404F1010C0CEB8C0104EB840E00EB0B
:1024D400CE0ECEF83C20CEF8403001228EF84C20AF
:1024E400CEF848300025CEF8445000EBC1035A70B2
:1024F40000F831401946006803F026F8284638BD34
:1025040038B501F007054268954231D804460B46B8
:1025140011F0800F1ED101EB8101C90001F5B471E6
:10252400014403EB830300EBC303002283F8692116
:1025340001238B700D7094F8A832012B1AD001235B
:1025440084F8A832206802F065FF5DB1002084F8A9
:10255400A80238BD6B1C03EB830100EBC10101220F
:102564004A70E5E704F52C71206802F0D7FFEDE727
:102574000120EEE70220ECE70B4601F00F01426870
:10258400914230D810B5044613F0800F21D103F0E6
:10259400070202EB8201C90001F5B471014402EBA8
:1025A400820200EBC202002082F8690100228A70D4
:1025B40003F007030B7094F8A832012B15D0012304
:1025C40084F8A832206802F04AFF002084F8A802A8
:1025D40010BD03F00702013202EB820100EBC101DE
:1025E40001204870E2E7012070470220F0E790F8EC
:1025F400A832012B14D010B50446012380F8A83268
:1026040011F0800F06D1006802F032FC002084F83B
:10261400A80210BD01F00701006802F027FCF5E7ED
:102624000220704711F0800F0BD001F00701013137
:1026340001EB810100EBC10152B90A73CB80002088
:10264400704701EB8101C90001F5B4710144F3E75E
:1026540001220A730B811B0C4B81F0E7014B012211
:102664001A62704700000E4282B0084B1B68084A89
:10267400A2FB03235B0A00FB03F3019300BF019B4E
:102684005A1E0192002BF9D102B0704700000020BD
:10269400D34D6210002800F0F18170B582B0044679
:1026A400036813F0010F2CD0994B5B6803F00C0303
:1026B400042B1DD0964B5B6803F00C03082B12D03F
:1026C4006368B3F5803F41D0002B55D103F18043BB
:1026D40003F504331A6822F480321A601A6822F46B
:1026E40080221A6037E08A4B5B6813F4803FE7D09E
:1026F400874B1B6813F4003F03D06368002B00F082
:10270400BF81236813F0020F75D0814B5B6813F00F
:102714000C0F5FD07E4B5B6803F00C03082B54D086
:102724002369002B00F08A807A4B01221A60FEF79D
:102734001FFB0546764B1B6813F0020F75D1FEF79D
:1027440017FB401B0228F5D903209EE1704A136849
:1027540043F480331360636843B3FEF709FB054613
:102764006B4B1B6813F4003FCBD1FEF701FB401BFE
:102774006428F5D9032088E1B3F5A02F09D0644B70
:102784001A6822F480321A601A6822F480221A60CD
:10279400E1E703F18043A3F53C331A6842F4802255
:1027A4001A601A6842F480321A60D4E7FEF7E0FA3D
:1027B4000546574B1B6813F4003FA2D0FEF7D8FA26
:1027C400401B6428F5D903205FE1514B5B6813F487
:1027D400803FA5D14E4B1B6813F0020F03D0236931
:1027E400012B40F04F814A4A136823F0F8036169D2
:1027F40043EAC1031360236813F0080F33D0A369BD
:10280400002B5CD0434B0122C3F88024FEF7B0FABE
:1028140005463F4B5B6A13F0020F21D1FEF7A8FA7D
:10282400401B0228F5D903202FE1394A136823F00D
:10283400F803616943EAC1031360DCE7354B002206
:102844001A60FEF795FA0546314B1B6813F0020F28
:10285400D1D0FEF78DFA401B0228F5D9032014E1EC
:102864000120FFF701FF236813F0040F00F09680A6
:10287400274BDB6913F0805F34D1254BDA6942F0D2
:102884008052DA61DB6903F080530193019B0125D7
:10289400214B1B6813F4807F26D0E368012B3DD0C5
:1028A400002B53D103F1804303F504331A6A22F059
:1028B40001021A621A6A22F004021A6233E0154B0A
:1028C4000022C3F88024FEF753FA0546104B5B6AD6
:1028D40013F0020FC7D0FEF74BFA401B0228F5D9BC
:1028E4000320D2E00025D3E70B4A136843F4807336
:1028F4001360FEF73DFA0646074B1B6813F4807F0E
:10290400CBD1FEF735FA801B6428F5D90320BCE04F
:102914000010024000004242007000405F4A136A07
:1029240043F001031362E36833B3FEF721FA06466A
:102934005A4B1B6A13F0020F2FD1FEF719FA801BB2
:1029440041F288339842F3D903209EE0052B09D045
:10295400524B1A6A22F001021A621A6A22F0040225
:102964001A62E0E74D4B1A6A42F004021A621A6ACC
:1029740042F001021A62D6E7FEF7FAF90646474B1F
:102984001B6A13F0020F08D0FEF7F2F9801B41F224
:1029940088339842F3D9032077E0E5B9E369002B43
:1029A40072D03E4A526802F00C02082A56D0022B1A
:1029B40017D03B4B00221A66FEF7DAF90446374B70
:1029C4001B6813F0007F47D0FEF7D2F9001B0228E2
:1029D400F5D9032059E0314AD36923F08053D361F8
:1029E400DCE72F4B00221A66FEF7C2F905462B4B93
:1029F4001B6813F0007F06D0FEF7BAF9401B0228CB
:102A0400F5D9032041E0236AB3F5803F1AD0234966
:102A14004B6823F47413226A606A024313434B60C5
:102A24001F4B01221A66FEF7A3F904461B4B1B68D1
:102A340013F0007F0ED1FEF79BF9001B0228F5D995
:102A4400032022E0154A536823F40033A1680B43A2
:102A54005360DCE7002018E0002016E0012B16D0BC
:102A64000E4B5B6803F48031226A914211D103F466
:102A74007013626A93420ED1002006E00120704771
:102A8400012002E0012000E0002002B070BD01201E
:102A9400FBE70120F9E70120F7E700BF001002403F
:102AA400000042420F4B5B6803F00C02082A01D07D
:102AB4000D487047C3F383420C49885C13F4803F8C
:102AC4000BD0084B5B68C3F34043094AD35C064A06
:102AD40002FB00F0B0FBF3F07047064B03FB00F081
:102AE400704700BF0010024000127A006C8A000890
:102AF4007C8A000800093D00002800F0A08070B521
:102B04000D460446524B1B6803F007038B420BD25D
:102B14004F4A136823F007030B431360136803F051
:102B240007038B4240F08D80236813F0020F17D007
:102B340013F0040F04D0474A536843F4E06353602E
:102B4400236813F0080F04D0424A536843F46053D7
:102B54005360404A536823F0F003A1680B43536069
:102B6400236813F0010F31D06368012B20D0022BAE
:102B740025D0384A126812F0020F64D035494A68E9
:102B840022F0030213434B60FEF7F2F80646314B82
:102B94005B6803F00C036268B3EB820F16D0FEF798
:102BA400E7F8801B41F288339842F0D9032045E0CE
:102BB400284A126812F4003FE0D101203EE0254A81
:102BC400126812F0007FD9D1012037E0204B1B6836
:102BD40003F00703AB420AD91D4A136823F0070325
:102BE4002B431360136803F00703AB422DD1236812
:102BF40013F0040F06D0174A536823F4E063E16826
:102C04000B435360236813F0080F07D0114A53682D
:102C140023F46053216943EAC1035360FFF742FF81
:102C24000C4B5B68C3F303130B4AD35CD8400B4BC8
:102C340018600B4B1868FEF757F8002070BD012090
:102C440070470120FAE70120F8E70120F6E700BF0A
:102C54000020024000100240548A000800000020B6
:102C640008000020014B1868704700BF00000020D6
:102C740008B5FFF7F7FF044B5B68C3F30223034A6D
:102C8400D35CD84008BD00BF00100240648A00082D
:102C940008B5FFF7E7FF044B5B68C3F3C223034A9D
:102CA400D35CD84008BD00BF00100240648A00080D
:102CB40070B582B00446036813F0010F36D03F4B61
:102CC400DB6913F0805F49D13C4BDA6942F08052F2
:102CD400DA61DB6903F080530193019B0125384BD2
:102CE4001B6813F4807F3BD0344B1B6A13F440738E
:102CF40013D0626802F440729A420ED02F4A136ACB
:102D040023F440702F490126C1F840640026C1F81D
:102D14004064106213F0010F36D1284A136A23F479
:102D2400407361680B431362002D3ED1236813F096
:102D3400020F06D0214A536823F44043A1680B4391
:102D44005360236813F0100F34D01C4A536823F4E3
:102D5400800361690B43536000202CE00025BEE72B
:102D6400174A136843F480731360FEF701F80646AC
:102D7400134B1B6813F4807FB6D1FDF7F9FF801B5A
:102D84006428F5D9032016E0FDF7F2FF06460B4B45
:102D94001B6A13F0020FC0D1FDF7EAFF801B41F25A
:102DA40088339842F3D9032005E0D36923F0805394
:102DB400D361BBE7002002B070BD00BF0010024029
:102DC400007000400000424208B501380F2863D863
:102DD400DFE800F03557622F62626232626262623B
:102DE400626262082F4B5A68186810F0807054D0E1
:102DF400C2F383432C49C85C12F4803F15D0294B9D
:102E04005B68C3F34043294AD25C294BB3FBF2F31A
:102E140003FB00F0234B5B6813F4800F3DD14000AB
:102E2400244BA3FB0030400837E0234B03FB00F0A6
:102E3400F0E7FFF737FE30E0FFF734FE2DE0194BE3
:102E44001B6A40F202321A40B2F5817F26D003F4A5
:102E54004073B3F5007F04D0B3F5407F09D0002060
:102E64001BE0104A526A12F0020FF5D049F64040B6
:102E740013E00C4B186810F400300ED04FF22440CD
:102E84000BE0FFF705FF074B5B68C3F381330133A6
:102E94005B00B0FBF3F000E0002008BD4FF40040FD
:102EA400FBE700BF00100240808A0008908A0008F7
:102EB40000127A00ABAAAAAA00093D0038B504465C
:102EC400FDF756FF054623685A6812F0200F07D114
:102ED400FDF74EFF401BB0F57A7FF4D9032004E0E0
:102EE4005A6842F010025A60002038BD38B50446D2
:102EF4000268536823F010035360FDF739FF054659
:102F040023685B6813F0200F07D1FDF731FF401BE6
:102F1400B0F57A7FF4D9032000E0002038BDC0B1B9
:102F240038B505460268536823F008035360FDF77B
:102F34001FFF04462B685B6813F0080F07D1FDF7E9
:102F440017FF001BB0F57A7FF4D9032000E00020BE
:102F540038BD012070470000002850D010B5044649
:102F6400437C4BB1022363742046FFF7D8FF38B18A
:102F740004236374012010BD0374FDF7A1FCF1E781
:102F84002046FFF79BFF28BB2268536823F0070302
:102F94005360A36823B11B4A136B23F0010313632B
:102FA400184AD36A23F46073A1680B43D36263683D
:102FB400B3F1FF3F12D02268C3F30341916022684A
:102FC4009BB2D3602046FFF791FF88B1042363745A
:102FD4000120D0E7042363740120CCE70120FFF72C
:102FE400F3FE08B1431EE6E7042363740120C2E73D
:102FF4000023E37301236373A3736374BBE70120AA
:10300400704700BF006C004070B582B004460023D6
:103014000193006801F0EDFB054610B1284602B0AB
:1030240070BD206801F0DEFE38B90123A364A36CEF
:10303400012B0BD02E46284614E00023A3642068FD
:1030440001F0D7FB0028F2D00546E7E7002120680D
:1030540001F036FD0028EDD04FF08055DEE7019BEE
:1030640001330193019A4FF6FE739A4213D896B92D
:103074000021206801F024FDE0B91249206801F024
:10308400FDFD0646C0B90021206801F09DFBC30F79
:10309400E5D01E46E3E7019A4FF6FE739A420ED836
:1030A40010F0804302D001236364B7E70022626416
:1030B4001D46B3E70546B1E74FF08055AEE74FF044
:1030C4008075ABE7000010C1F8B5846AC66AA6B97A
:1030D400F8BD386801F053FB2070C0F30723637018
:1030E400C0F30743A370000EE0700434043E0135BE
:1030F400072DEED9BC62FE62EAE707460025F7E732
:10310400F0B583B0046A466ADEB903B0F0BD237833
:103114000193627843EA02230193A27843EA0243CB
:103124000193E27843EA026301930434043E01A963
:10313400386801F027FB0135072DE8D93C627E622F
:10314400E3E707460025F7E7F0B589B004460F46E4
:10315400FDF70EFE06460023009301930821206824
:1031640001F004FC054610B1284609B0F0BD216DFC
:103174000904206801F0A4FC05460028F4D14FF0AE
:10318400FF3302930823039330230493022305930C
:10319400002306930123079302A9206801F017FB7B
:1031A400206801F0BDFC054658B1DDE701F0E7FAFF
:1031B4004DF825000135FDF7DBFD831BB3F1FF3F1F
:1031C4003FD02068436B13F02A0F07D1436B13F4ED
:1031D400001FEBD1436B13F4005FECD1436B13F08E
:1031E400080F25D1436B13F0020F24D1456B15F062
:1031F400200523D140F23A538363019A130203F466
:103204007F0343EA0263110A01F47F410B4343EA5B
:1032140012633B60009A130203F47F0343EA0263E0
:10322400110A01F47F410B4343EA12637B609BE77D
:103234000825856398E70225856395E7202585633E
:1032440092E74FF000458FE710B582B004460021A5
:1032540000910191006801F0B7FA10F0007F13D1DA
:1032640069462046FFF770FF80B9019B13F4802F55
:103274000ED0216D0904206801F022FC30B902212E
:10328400206801F035FC01E04FF4006002B010BD8D
:103294004FF08060FAE710B582B004460021009137
:1032A4000191006801F090FA10F0007F13D1694693
:1032B4002046FFF749FF80B9019B13F4803F0ED0ED
:1032C400216D0904206801F0FBFB30B9002120685E
:1032D40001F00EFC01E04FF4006002B010BD4FF0AD
:1032E4008060FAE770B581B104460E46016D0904A9
:1032F400006801F02DFC054608B1284670BD002188
:10330400206801F061FA3060F7E74FF00065F4E7F8
:103314002DE9F04F87B005460C4616469B46DDF86E
:1033240040A0FDF725FD002C36D0814695F8347079
:10333400FFB2012F40F005810023AB6306EB0B03C2
:10334400EA6D93422ED8032385F834302B6800228B
:10335400DA626B6C012B00D076024FF0FF330093DE
:103364004FEA4B23019390230293022303930023F8
:103374000493012305936946286801F028FABBF1F8
:10338400010F14D902232B633146286801F01EFB78
:10339400A0B9DDF8048038E0AB6B43F00063AB63A5
:1033A4000127D3E0AB6B43F00073AB63CEE00123A2
:1033B4002B633146286801F0F1FAE9E72B68654A86
:1033C4009A63AB6B1843A863012385F83430002358
:1033D4002B63BBE0286801F0D2F92070C0F3072307
:1033E4006370C0F30743A370000EE0700434A8F1C7
:1033F40004080136072EEDD9FDF7BAFCA0EB09004D
:10340400504510D2BAF1000F0DD02868466B40F237
:103414002A331E4015D1436B13F4004FECD0B8F19E
:10342400000FE9D0E6E72B684A4A9A63AB6B43F096
:103434000043AB63012385F8343000232B63032757
:1034440084E0436B13F4807F05D0BBF1010F02D9F4
:103454006B6C032B38D12B685A6B12F0080F44D1D4
:103464005A6B12F0020F4CD15A6B12F0200F54D148
:103474002868436B13F4001F5BD0B8F1000F58D0D9
:1034840001F07DF92070C0F307236370C0F3074394
:10349400A370000EE0700434A8F10408FDF768FC82
:1034A400A0EB0900504502D2BAF1000FE0D12B681D
:1034B400284A9A63AB6B43F00043AB63012385F85E
:1034C400343000232B6341E001F0C8FA034600289E
:1034D400C1D02A681F499163AA6B1343AB630123CC
:1034E40085F8343000232B6330E01A4A9A63AB6BBF
:1034F40043F00803AB63012385F8343000232B63C6
:1035040024E0144A9A63AB6B43F00203AB630123D8
:1035140085F8343000232B6318E00E4A9A63AB6BB2
:1035240043F02003AB63012385F8343000232B637D
:103534000CE040F23A538363012385F834300027CA
:1035440004E0AB6B43F00053AB630127384607B08C
:10355400BDE8F08FFF0540002DE9F04F8BB0054624
:103564000C4616469B46DDF850A0FDF701FC002CE6
:1035740037D0804695F83470FFB2012F40F0E280D6
:103584000023AB6306EB0B03EA6D93422FD80323AE
:1035940085F834302B680022DA626B6C012B00D082
:1035A40076024FF0FF3304934FEA4B2305939023A5
:1035B40006930023079308930123099304A9286819
:1035C40001F005F9BBF1010F16D920232B63314615
:1035D400286801F02BFA0190019BABB9DDF8149037
:1035E40040E0AB6B43F00063AB630127AFE0AB6B30
:1035F40043F00073AB63AAE010232B6331462868C1
:1036040001F0FCF90190E7E72B68534A9A63A86B31
:10361400019B1843A863012385F8343000232B63EE
:1036240095E023780393627843EA02230393A27814
:1036340043EA02430393E27843EA026303930434C4
:10364400A9F1040903A9286801F09CF80136072EA2
:10365400E7D9FDF78DFBA0EB0800504510D2BAF175
:10366400000F0DD02868466B40F21A331E4015D166
:10367400436B13F4804FECD0B9F1000FE9D0E6E7C7
:103684002B68354A9A63A86B019B1843A8630123EE
:1036940085F8343000232B63032758E0436B13F47D
:1036A400807F05D0BBF1010F02D96B6C032B18D1BD
:1036B4002B685A6B12F0080F24D15A6B12F0020FC8
:1036C4002CD15A6B12F0100F34D0234A9A63AB6B8F
:1036D40043F01003AB63012385F8343000232B63DC
:1036E40035E001F0BBF903460028E1D02A681A4905
:1036F4009163AA6B1343AB63012385F83430002331
:103704002B6324E0144A9A63AB6B43F00803AB6366
:10371400012385F8343000232B6318E00E4A9A63A2
:10372400AB6B43F00203AB63012385F83430002311
:103734002B630CE040F23A529A63012385F834304B
:10374400002704E0AB6B43F00053AB63012738461A
:103754000BB0BDE8F08F00BFFF05400070470000CC
:10376400436E9B0F0B70436EC3F383634B7090F8EF
:10377400673003F003038B7090F86630CB7090F8D9
:1037840065300B7190F864304B71836E1B0DCB80E8
:10379400B0F86A3003F00F030B72836EC3F3C033C7
:1037A4004B72836EC3F380338B72836EC3F34033E7
:1037B400CB72836EC3F300330B7300234B73436CE0
:1037C400002B40F08680826E40F6FC7303EA82038D
:1037D400C26E43EA92730B61C36EC3F3C2630B758B
:1037E40090F86F3003F007034B75C36EC3F3425375
:1037F4008B75C36EC3F38243CB75C36EC3F3C233FD
:103804000B760B69013343650A7E02F0070202322C
:10381400934043650A7A02F00F0C012202FA0CF27B
:103824008265520A02FB03F3C3654FF40073036617
:10383400C36EC3F380334B76C36EC3F3C6138B7668
:10384400C36E03F07F03CB76036FDB0F0B77036F3D
:10385400C3F341734B77036FC3F382638B77036FB7
:10386400C3F38353CB77036FC3F3405381F8203002
:10387400002381F82130B0F8722002F0010281F8AF
:103884002220026FC2F3C03281F82320026FC2F3F8
:10389400803281F82420026FC2F3403281F825205F
:1038A400026FC2F3003281F82620026FC2F3812234
:1038B40081F82720026FC2F3012281F82820026FC9
:1038C400C2F3460281F82920012281F82A201846F1
:1038D4007047012B11D1836E1B0403F47C13B0F8E1
:1038E4006E2013430B610B6901339B024365C3656F
:1038F4004FF40073836503669AE70368054A9A6385
:10390400836B43F080538363012380F8343018467B
:10391400704700BFFF05400070B590B00446012316
:10392400ADF81230006800F036FF00286CD0636CEC
:10393400032B45D1636C032B5DD1636C032B1DD02A
:10394400BDF8121021650904206801F05CF90546F0
:1039540000285BD10021206800F036FF6066042156
:10396400206800F031FFA0660821206800F02CFFD9
:10397400E0660C21206800F027FF206704212068FE
:1039840000F022FF000DE06405A92046FFF7E8FEE1
:1039940000283ED1226D12040023206801F078F83B
:1039A400054698BB234653F8106B93E807008DE84F
:1039B4000700043494E80E00304600F0C7FE25E00A
:1039C400206801F00BF9054600BB0021206800F0D7
:1039D400FBFE60670421206800F0F6FEA067082162
:1039E400206800F0F1FEE0670C21206800F0ECFE96
:1039F400C4F880009EE70DF11201206801F0A8F9D7
:103A04000546002899D001E04FF08065284610B0A3
:103A140070BD4FF08055F9E770B58AB004460023B5
:103A240004930593069307930893762309930AABAB
:103A340013E907008DE8070004AB0ECB206800F003
:103A440085FE18B1012528460AB070BD05461A4EF8
:103A54000023C6F8A030206800F099FE0123C6F8C0
:103A6400A0300220FDF78AF92046FFF7CDFA30B1E5
:103A7400012584F83450A36B0343A363E3E7204692
:103A8400FFF74AFF30B1012584F83450A36B034398
:103A9400A363D8E74FF40071206800F067FF0028A3
:103AA400D1D0236805499963A36B0343A36301251C
:103AB40084F83450C7E700BF00003042FF054000DF
:103AC400A8B110B5044690F8343063B1032384F8E8
:103AD40034302046FFF7A0FF58B9A06320630123C8
:103AE40084F8343010BD0377FCF71CFFEEE70120A7
:103AF40070470120F6E7436C0B60836C4B60C36C2A
:103B04008B60036DCB60436D0B61836D4B61C36D43
:103B14008B61036ECB6100207047000030B58BB021
:103B240004460D46032380F83430436C032B1CD029
:103B3400B1F5805F08D0B1F5006F0AD079B1836B1D
:103B440043F00063836314E0836B43F08053836327
:103B54000FE0FFF779FBA36B0343A36309E0FFF7CF
:103B64009AFBA36B0343A36303E0836B43F080538B
:103B74008363A36BC3B12368174A9A63012584F84E
:103B840034504FF40071206800F0F0FE30B1236827
:103B940011499963A36B0343A3630125012384F8AB
:103BA400343028460BB030BD63680493A368059392
:103BB400E3680693079563690893A36909930AABBD
:103BC40013E907008DE8070004AB0ECB206800F072
:103BD400BDFD0025D5E700BFFF05400010B582B04C
:103BE40004460023019301A9FFF77CFB10B1A36BEA
:103BF4000343A3630198C0F3432002B010BD10B582
:103C0400446A236840F23A529A632046FFF7E6FF7B
:103C1400012384F83430002323630538012805D9AF
:103C2400A36B53B9204602F0D0F810BD206800F011
:103C340015FFA36B0343A363F2E72046FFF78EFD52
:103C4400F3E710B5446A236840F23A529A63204677
:103C5400FFF7C4FF012384F83430002323630538BD
:103C6400012805D9A36B53B9204602F0AEF810BD64
:103C7400206800F0F3FEA36B0343A363F2E720463E
:103C8400FFF76CFDF3E7000038B50446056B0368E5
:103C94005A6B12F4004F02D015F0080F28D15A6B5A
:103CA40012F4807F5AD04FF480729A632268D36BE7
:103CB40023F4414323F03A03D3632268D36A23F005
:103CC4000103D36215F0080F26D015F0220F12D18C
:103CD400236840F23A529A63012384F83430002373
:103CE400236315F0030F13D0204602F078F801E0A7
:103CF400FFF7EAF938BD206800F0B0FE034600285B
:103D0400E6D0A26B1343A3632046FFF727FDDFE74A
:103D1400204602F05FF8EDE715F0800FEAD015F0C9
:103D2400200F0ED115F0030FE4D12268D36A23F0DB
:103D34000803D362012384F83430204602F04AF8A1
:103D4400D8E7206800F08AFE03460028EAD0A26B78
:103D54001343A3632046FFF701FDE3E75A6B12F414
:103D6400804F02D015F0080F4CD15A6B12F03A0F65
:103D7400C0D05A6B12F0020F03D0A26B42F00202C1
:103D8400A2635A6B12F0080F03D0A26B42F0080230
:103D9400A2635A6B12F0200F03D0A26B42F02002F0
:103DA400A2635A6B12F0100F03D0A26B42F0100200
:103DB400A26340F23A729A632268D36B23F44E737F
:103DC40023F00203D363206800F048FEA36B03438F
:103DD400A36315F0080F19D115F0800F8AD015F0E0
:103DE400300F1CD115F0030F26D0236C174A5A63E9
:103DF400206CFDF7B3F800283FF47CAF206CFFF78C
:103E040020FF77E72046FFF77BF973E7012384F867
:103E14003430002323632046FFF7A0FC6AE7E36BFA
:103E24000B4A5A63E06BFDF799F800283FF462AF40
:103E3400E06BFFF7E4FE5DE70023A363012284F84F
:103E440034202363204601F0C0FF53E7473C0008B9
:103E5400033C000860B370B50E46154604468369FA
:103E6400B3F5807F26D090F84130E3B1214651F874
:103E7400080B00F0D1FBA2683146206800F000FC7A
:103E8400236BA2682946606800F022FC2268A168BE
:103E940052F8213043F0010342F82130012384F821
:103EA4004130002070BD80F84030FCF74DFADDE76A
:103EB400012070470120F5E7026802F10C0353E882
:103EC400003F23F490730C3242E800310029F3D10F
:103ED400026802F1140353E8003F23F00103143293
:103EE40042E800310029F3D1036B012B05D02023D4
:103EF40080F84230002303637047026802F10C0328
:103F040053E8003F23F010030C3242E8003100294B
:103F1400F3D1ECE790F84130DBB2212B01D0022041
:103F240070478368B3F5805F17D0036A5A1C026236
:103F34001A7803685A60C38C9BB2013B9BB2C3845A
:103F44004BB90268D36823F08003D3600268D36856
:103F540043F04003D360002070470369002BE4D191
:103F6400036A1B880268C3F308035360036A0233BD
:103F74000362E0E710B504460268136923F4405372
:103F8400C1680B43136183680269134342691A438E
:103F94000168CB6823F4B05323F00C031343CB60C4
:103FA4000268536923F4407381690B4353610268C7
:103FB400134B9A4220D0FEF75BFE024602EB8202CC
:103FC40002EB820263689B00B2FBF3F20D48A0FB94
:103FD40002314909642303FB11231B013233A0FB83
:103FE40003235B0903F0F00202EB011203F00F0359
:103FF400216813448B6010BDFEF74AFE0246DDE7DC
:10400400003801401F85EB512DE9F84305460F4662
:1040140016469946DDF820802C68246837EA0403A4
:104024000CBF4FF0010C4FF0000CB4452DD1B8F18A
:10403400FF3FF1D0B8F1000F05D0FCF799FEA0EBDB
:1040440009004045E8D92A6802F10C0353E8003F0F
:1040540023F4D0730C3242E800310029F3D12A68EA
:1040640002F1140353E8003F23F00103143242E841
:1040740000310029F3D1202385F8413085F84230FE
:10408400002385F84030032000E00020BDE8F883D9
:1040940060B310B5044690F8413013B3242384F878
:1040A40041302268D36823F40053D3602046FFF7DD
:1040B40061FF2268136923F49043136122685369F2
:1040C40023F02A0353612268D36843F40053D36076
:1040D40000206064202384F8413084F84230606317
:1040E40010BD80F84030FCF729FDD7E70120704768
:1040F4002DE9F04182B01E4690F84130DBB2202B0E
:104104004BD104460D46904600294AD00AB90120F5
:1041140044E000234364212380F84130FCF728FE67
:104124000746A4F82480A4F82680A368B3F5805F2A
:1041340002D04FF000080FE02369FBB14FF00008F4
:104144000AE038F8023B2268C3F308035360E28CA8
:1041540092B2013A92B2E284E38C9BB28BB10096A4
:104164003B46002280212046FFF74EFFD8B9002DA0
:10417400E7D015F8012B23685A60E8E7A846002524
:10418400EAE700963B46002240212046FFF73CFF29
:1041940058B9202384F8413000E0022002B0BDE881
:1041A400F0810120FAE70320F8E70320F6E72DE980
:1041B400F04182B01E4690F84230DBB2202B53D13E
:1041C40004460D469046002952D00AB901204CE01D
:1041D40000234364222280F842200363FCF7C8FDD5
:1041E4000746A4F82C80A4F82E80A368B3F5805F5A
:1041F40002D04FF0000817E0236913B14FF0000814
:1042040012E0A84600250FE023685B68C3F30803A7
:1042140028F8023B03E023685B682B700135E28DCC
:1042240092B2013A92B2E285E38D9BB2BBB10096A1
:104234003B46002220212046FFF7E6FED0B9002DA0
:10424400E2D0A368B3F5805FE5D013B92369002BEE
:10425400E1D023685B6803F07F032B70DEE7202343
:1042640084F84230002000E0022002B0BDE8F08172
:104274000120FAE70320F8E7704708B50168CA6827
:1042840022F04002CA60202280F84120FFF7F4FFA8
:10429400002008BD7047704708B5406A0023C385F5
:1042A400C384FFF7F8FF08BD704790F84230DBB2D3
:1042B400222B69D18368B3F5805F4FD0826AB3F54E
:1042C400805F04D0002B56D10369002B53D10368BF
:1042D4005B681370836A01338362C38D9BB2013BB5
:1042E4009BB2C385002B51D100B583B00268D3685B
:1042F40023F02003D3600268D36823F48073D3606F
:104304000268536923F001035361202380F842308B
:1043140000234363036B012B33D10023036302683F
:1043240002F10C0353E8003F23F010030C3242E87F
:1043340000310029F3D103681A6812F0100F06D077
:10434400002201921A6801925B680193019B818D9E
:10435400FFF7AAFF002003B05DF804FB0269002AFE
:10436400ACD1826A03685B68C3F308031380836A71
:1043740002338362B1E703685B6803F07F03137061
:10438400A8E7FFF787FFE5E70220704700207047A2
:1043940030B583B0044602681368D068516913F0DD
:1043A4000F0505D113F0200F02D010F0200F19D102
:1043B4002DB111F0010119D110F4907F16D1216BA8
:1043C40001297DD013F0800F03D010F0800F40F04E
:1043D400188113F0400F03D010F0400F40F0158106
:1043E40003B030BD2046FFF760FFF9E713F0010F7B
:1043F40006D010F4807F03D0626C42F00102626444
:1044040013F0040F04D019B1626C42F0020262642A
:1044140013F0020F04D019B1626C42F0040262641A
:1044240013F0080F07D010F0200F00D119B1626CFF
:1044340042F008026264626C002AD1D013F0200FAB
:1044440002D010F0200F29D123685B6903F04003E8
:10445400626C12F0080F00D163B32046FFF72CFD05
:1044640023685B6913F0400F20D0226802F1140323
:1044740053E8003F23F04003143242E8003100299E
:10448400F3D1E36B73B1634A5A63E06BFCF766FDE7
:104494000028A5D0E06B436B9847A1E72046FFF7BF
:1044A40004FFD1E72046FFF7F6FE99E72046FFF721
:1044B400F2FE95E72046FFF7EEFE002363648FE7E4
:1044C40013F0100F3FF47EAF10F0100F3FF47AAFEB
:1044D400002301931368019353680193019B53696B
:1044E40013F0400F51D0E26B13685B689BB2002B52
:1044F4003FF476AFA18D99427FF672AFE38593695D
:10450400202B37D0226802F10C0353E8003F23F438
:1045140080730C3242E800310029F3D1226802F1A1
:10452400140353E8003F23F00103143242E800313E
:104534000029F3D1226802F1140353E8003F23F069
:104544004003143242E800310029F3D1202384F8D7
:10455400423000232363226802F10C0353E8003F36
:1045640023F010030C3242E800310029F3D1E06B50
:10457400FCF7D0FC02236363A18DE38D9BB2C91ABF
:1045840089B22046FFF790FE2AE7A18DE38D9BB206
:10459400C91A89B2E38D9BB2002B3FF421AF0029E5
:1045A4003FF41EAF226802F10C0353E8003F23F4EA
:1045B40090730C3242E800300028F3D1226802F1F3
:1045C400140353E8003F23F00103143242E800309F
:1045D4000028F3D1202384F8423000232363226887
:1045E40002F10C0353E8003F23F010030C3242E8BD
:1045F40000300028F3D1022363632046FFF754FE02
:10460400EEE62046FFF786FCEAE62046FFF735FE95
:10461400E6E600BF9D42000810B40A6850F8223054
:1046240023F0010340F822308B68082B24D00024A7
:104634004A6822431343CA6813430A6913434A6905
:104644001343CA6913430A6A13434A6A13438A6ABF
:104654001343CA6A13430A6B13438A6913434A6BAD
:104664001343096850F82140044A22401A4340F891
:104674002120002010BC70474024D9E78000F0FFBF
:1046840000B5013250F8223003F0404C0B68D1F8E9
:1046940004E043EA0E13D1F808E043EA0E23D1F80C
:1046A4000CE043EA0E43D1F810E00EF1FF3E43EA7A
:1046B4000E53D1F814E0AEF1020E43EA0E63896999
:1046C4000B434CEA030340F8223000205DF804FB5E
:1046D400B3F5804F05D06FF0704340F822300020CE
:1046E400704730B450F82230094C1C400B684D68B8
:1046F40043EA05138D6843EA05238D692B43C96892
:1047040043EA0143234340F82230002030BC704781
:104714000000F0CF0B4B1B680B4AA2FB03235B0A80
:1047240041F2883202FB03F31A46013B3AB1426B71
:1047340012F0800FF8D0C5238363002070474FF038
:104744000040704700000020D34D621084B00DF18A
:10475400040C8CE80E000B461343039A1343049A8B
:104764001343059A1343069A1343426822F4FD4205
:1047740022F07F0213434360002004B07047D0F856
:10478400800070470B68C0F8803000207047032316
:10479400036000207047006800F0030070470B6856
:1047A40083604B688A681343CA6813430A691343D6
:1047B400C26822F47F6222F00F021343C360002018
:1047C40070470069C0B270471430405870470B6896
:1047D40043624B6883628B68CA6813430A69134354
:1047E4004A691343C26A22F0F7021343C3620020EA
:1047F400704710B586B004460023019302930393D7
:1048040004934FF48063059301A9FFF7C8FF204682
:10481400FFF780FF06B010BD38B504460D46504B77
:104824001B685049A1FB03135B0A03FB02F2134606
:10483400013A002B5DD0636B13F0450FF7D013F4EE
:10484400006FF4D1636B13F0040F06D1636B13F0A4
:10485400010F05D00120A0634DE00420A0634AE0CD
:10486400C523A3632046FFF7ACFFA84201D0012073
:1048740041E000212046FFF7A7FF03463A481840CD
:10488400C8B3002B38DB13F0804F38D113F0005F2E
:1048940037D113F0805F36D113F0006F36D113F0A7
:1048A400806F36D113F0807F36D113F4000F36D1E8
:1048B40013F4800F36D113F4001F36D113F4801F84
:1048C40036D113F4802F36D113F4003F36D113F4CC
:1048D400803F36D113F4004F36D113F4804F36D1D4
:1048E40013F4005F36D113F0080F36D04FF40000F4
:1048F40001E04FF0004038BD4FF00070FBE740206E
:10490400F9E78020F7E74FF48070F4E74FF4007084
:10491400F1E74FF48060EEE74FF40060EBE74FF40B
:104924008050E8E74FF40050E5E74FF48040E2E7B9
:104934004FF40040DFE74FF40030DCE74FF4802011
:10494400D9E74FF40020D6E74FF48010D3E74FF4B3
:104954000010D0E74FF48000CDE74FF48030CAE771
:1049640000000020D34D621008E0FFFD30B587B091
:1049740004460191102502954023039300230493D8
:104984004FF48063059301A9FFF709FF41F28832D0
:1049940029462046FFF740FF07B030BD30B587B049
:1049A40004460191112502954023039300230493A7
:1049B4004FF48063059301A9FFF7F1FE41F28832B9
:1049C40029462046FFF728FF07B030BD30B587B031
:1049D4000446019112250295402303930023049376
:1049E4004FF48063059301A9FFF7D9FE41F28832A1
:1049F40029462046FFF710FF07B030BD30B587B019
:104A0400044601911825029540230393002304933F
:104A14004FF48063059301A9FFF7C1FE41F2883288
:104A240029462046FFF7F8FE07B030BD30B587B001
:104A3400044601911925029540230393002304930E
:104A44004FF48063059301A9FFF7A9FE41F2883270
:104A540029462046FFF7E0FE07B030BD30B587B0E9
:104A64000446002301930C250295402203920493EB
:104A74004FF48063059301A9FFF791FE034A294689
:104A84002046FFF7C9FE07B030BD00BF00E1F505C1
:104A940030B587B00446019207250295402303935D
:104AA400002304934FF48063059301A9FFF777FE75
:104AB40041F2883229462046FFF7AEFE07B030BDEA
:104AC40030B587B0044601913725029540230393FE
:104AD400002304934FF48063059301A9FFF75FFE5D
:104AE40041F2883229462046FFF796FE07B030BDD2
:104AF40030B587B0044601910625029540230393FF
:104B0400002304934FF48063059301A9FFF747FE44
:104B140041F2883229462046FFF77EFE07B030BDB9
:104B240030B587B004460023019333250295402213
:104B3400039204934FF48063059301A9FFF72FFEBA
:104B440041F2883229462046FFF766FE07B030BDA1
:104B540030B587B0044601910D2502954023039397
:104B6400002304934FF48063059301A9FFF717FE14
:104B740041F2883229462046FFF74EFE07B030BD89
:104B84000146144B1B68144AA2FB03235B0A41F23F
:104B9400883202FB03F31A46013BBAB14A6B12F0A6
:104BA400450FF8D012F4006FF5D14B6B13F0040FDE
:104BB40006D1486B10F0010005D1C5238B63704703
:104BC4000420886370470120886370474FF00040D9
:104BD400704700BF00000020D34D621010B586B0AE
:104BE40004460023019302220292C02203920493FA
:104BF4004FF48063059301A9FFF7D1FD2046FFF729
:104C0400BFFF06B010BD10B586B00446019109235C
:104C14000293C0230393002304934FF4806305930A
:104C240001A9FFF7BCFD2046FFF7AAFF06B010BD9F
:104C34000146104B1B68104AA2FB03235B0A41F296
:104C4400883202FB03F31A46013B82B14A6B12F02D
:104C5400450FF8D012F4006FF5D1486B10F0040042
:104C640002D1C5238B6370470420886370474FF0DB
:104C74000040704700000020D34D621010B586B08C
:104C8400044641F0004141F480110191292302932B
:104C940040230393002304934FF48063059301A9F5
:104CA400FFF77DFD2046FFF7C3FF06B010BD0000EF
:104CB400F8B505460E461746234B1B68234AA2FB4C
:104CC40003235B0A41F2883202FB03F31A46013BD9
:104CD4008AB36C6B14F0450FF8D014F4006FF5D15F
:104CE4006B6B13F0040F06D16B6B13F0010F05D03F
:104CF4000120A86321E00420A8631EE02846FFF7F2
:104D040060FDB04201D0012017E0C523AB63002150
:104D14002846FFF759FD034610F4604008D013F409
:104D2400804F0BD113F4004F0BD04FF4805004E0AC
:104D34001B0C3B8001E04FF00040F8BD4FF40050E5
:104D4400FBE74FF48030F8E700000020D34D6210F9
:104D540070B586B004460D460023019303260296DF
:104D64004022039204934FF48063059301A9FFF753
:104D740016FD2A4631462046FFF79AFF06B070BD5D
:104D84000146164B1B68164AA2FB03235B0A41F239
:104D9400883202FB03F31A46013BE2B14A6B12F07C
:104DA400450FF8D012F4006FF5D14B6B13F0040FDC
:104DB4000BD14B6B13F001030AD1486B10F0400088
:104DC4000BD040228A6318467047042088637047DA
:104DD4000120886370474FF00040704700000020B6
:104DE400D34D621010B586B004464FF4D5730193C9
:104DF4000823029340230393002304934FF4806316
:104E0400059301A9FFF7CBFC2046FFF7B9FF06B0D5
:104E140010BD84B001A880E80E00002004B07047E3
:104E240003460020A3F844004FF43F42A3F8402077
:104E34007047B0F8403023F47C535B045B0CA0F85B
:104E44004030002070470020704784B0844601A899
:104E540080E80E000123ACF840300020ACF840009C
:104E6400ACF84400ACF8500004B070470020704720
:104E74000020704710B5034691F800C030F82C208C
:104E840092B222F4EC4222F0700292B2C878032863
:104E940061D8DFE800F0555C0258002048F2800E2B
:104EA40042EA0E0223F82C2091F800C033F82C209B
:104EB40092B222F4E04222F070024CEA020242EA88
:104EC4000E0223F82C200A7B002A40F0DC804A786A
:104ED400002A51D0B3F8502092B21A440C7802EB55
:104EE4000412B1F806C04FEA5C0C4FEA4C0CA2F86D
:104EF40000C40C7833F8242012F0400F0CD033F89F
:104F0400242092B222F4E04222F0700242F40042E1
:104F140042F0C00223F82420CA78012A1DD009785F
:104F240033F8212092B222F4E04222F0400282F0CF
:104F3400200242F4004242F0800223F8212017E1CB
:104F440042F40072AAE742F4C0620020A6E742F4E9
:104F540080620020A2E70120A0E7097833F821202D
:104F640092B222F4E04222F0400242F4004242F0C3
:104F7400800223F82120FBE0B3F8502092B21A44B7
:104F84000C7802EB0412B1F806C04FEA5C0C4FEA4D
:104F94004C0CA2F808C4B3F8502092B21A440C780E
:104FA40002EB0412B2F80CC4CCF3090CA2F80CC442
:104FB4000C693E2C39D94FEA541E14F01F0F01D14D
:104FC4000EF1FF3EB2F80CC41FFA8CFC4FEA8E2E91
:104FD4001FFA8EFE4CEA0E0C4CF4004CA2F80CC4E2
:104FE4000C7833F8242012F4804F0CD033F82420AA
:104FF40092B222F4E04222F0700242F4404242F0C3
:10500400800223F82420097869BB33F8212092B266
:1050140022F4804222F0700282F4405242F40042B0
:1050240042F0800223F82120A2E04CB9B2F80C44EB
:105034006FEA44446FEA5444A4B2A2F80C44CFE7A4
:105044004FEA540C14F0010F01D00CF1010CB2F82A
:105054000C44A4B24FEA8C2C1FFA8CFC44EA0C0CCE
:10506400A2F80CC4BCE733F8212092B222F48042A7
:1050740022F0700282F4005242F4004242F08002B4
:1050840023F8212074E0CA78022A72D00C7833F80D
:10509400242092B222F4E24222F0700242F400424E
:1050A40042F0800223F82420B3F8502092B21A442C
:1050B40091F800C002EB0C12B1F808C04FEA5C0C86
:1050C4004FEA4C0CA2F800C4B3F8502092B21A4430
:1050D40091F800C002EB0C12B1F80AC04FEA5C0C64
:1050E4004FEA4C0CA2F808C44A78002A50D10C7834
:1050F40033F8242012F4804F0CD033F8242092B2D9
:1051040022F4E04222F0700242F4404242F0800273
:1051140023F824200C7833F8242012F0400F0CD00C
:1051240033F8242092B222F4E04222F0700242F4D6
:10513400004242F0C00223F8242091F800C033F862
:105144002C2092B222F4804222F0700282F4405267
:1051540048F28004224323F82C20097833F82120D4
:1051640092B222F4E04222F04002224323F82120AA
:1051740010BD0C7833F8242092B222F4E04222F0DD
:10518400700242F4014242F0800223F824208BE7AB
:105194000C7833F8242012F4804F0CD033F82420F8
:1051A40092B222F4E04222F0700242F4404242F011
:1051B400800223F824200C7833F8242012F0400FC6
:1051C4000CD033F8242092B222F4E04222F0700290
:1051D40042F4004242F0C00223F82420CA78012A93
:1051E4001ED00C7833F8242092B222F4E04222F04C
:1051F400400282F0200242F4004242F0800223F88E
:105204002420097833F8212092B222F4804222F03B
:10521400700242F4004242F0800223F82120A7E702
:105224000C7833F8242092B222F4E04222F04002B7
:1052340042F4004242F0800223F82420E1E70B7B91
:10524400002B46D14B7813B30A7830F8223013F090
:10525400400F0CD030F822309BB223F4E04323F00B
:10526400700343F4004343F0C00320F822300A786B
:1052740030F822309BB223F4E04323F0400343F49C
:10528400004343F0800320F82230002070470A785E
:1052940030F8223013F4804F0CD030F822309BB217
:1052A40023F4E04323F0700343F4404343F08003CA
:1052B40020F822300A7830F822309BB223F480435D
:1052C40023F0700343F4004343F0800320F82230BA
:1052D400DBE74B78002B4ED10A7830F8223013F4F8
:1052E400804F0CD030F822309BB223F4E04323F0FB
:1052F400700343F4404343F0800320F822300A78DB
:1053040030F8223013F0400F0CD030F822309BB22A
:1053140023F4E04323F0700343F4004343F0C00359
:1053240020F822300A7830F822309BB223F4E0438C
:1053340023F0700343F4004343F0C00320F8223009
:105344000B7830F8232092B222F4804222F07002CB
:1053540048F2800C42EA0C0220F823200A7830F844
:1053640022309BB223F4E04323F0400343EA0C03CE
:1053740020F8223089E70A7830F8223013F4804F7D
:105384000CD030F822309BB223F4E04323F07003B6
:1053940043F4404343F0800320F822300A7830F885
:1053A400223013F0400F0CD030F822309BB223F49B
:1053B400E04323F0700343F4004343F0C00320F8B8
:1053C40022300A7830F822309BB223F4E04323F0F1
:1053D400700343F4404343F0800320F822300B78F9
:1053E40030F8232092B222F4E04222F0400248F244
:1053F400800C42EA0C0220F823200A7830F822308C
:105404009BB223F4804323F0700343EA0C0320F897
:1054140022303AE74B788BB10A7830F822309BB2CD
:1054240023F4E04323F0400383F0100343F40043E8
:1054340043F0800320F82230002070470A7830F8C7
:1054440022309BB223F4804323F0700383F480530F
:1054540043F4004343F0800320F82230ECE70B7B55
:10546400002B4BD14B7833B30A7830F8223013F049
:10547400400F0CD030F822309BB223F4E04323F0E9
:10548400700343F4004343F0C00320F82230CB7888
:10549400012B33D00A7830F822309BB223F4E04356
:1054A40023F0400383F0200343F4004343F08003DC
:1054B40020F8223022E00A7830F8223013F4804FAA
:1054C4000CD030F822309BB223F4E04323F0700375
:1054D40043F4404343F0800320F822300A7830F844
:1054E40022309BB223F4804323F0700383F44053AF
:1054F40043F4004343F0800320F822300020704737
:1055040011B98023A0F84C30002070470020704768
:1055140000207047B0F8440080B270470020704704
:1055240010B45C1C640800EB420202F5806207E0E0
:105534000B78487843EA002322F8043B0231013C0B
:10554400002CF5D110BC704770B505460C464A785E
:10555400012A3BD00B7B002B40F0A6828B690A69A1
:10556400934240F284829B1A8B61B5F850309BB20F
:105574002B44217803EB0113B3F80C14C1F3090194
:10558400A3F80C143E2A40F27682510912F01F0F40
:1055940000D10139B3F80C2492B2890289B20A43CA
:1055A40042F40042A3F80C24227835F822309BB24E
:1055B40023F4804323F0700383F4405343F4004303
:1055C40043F0800325F82230002070BD8E690969FC
:1055D4008E4200D90E46237B73B3E378022B4DD061
:1055E400236A9B1B2362217835F8213013F0400F86
:1055F40000F0F581002A40F0E281B5F850309BB20A
:105604002B4403EB0113B3F80C24C2F30902A3F8EF
:105614000C243E2E40F2BA81710916F01F0F00D1FE
:105624000139B3F80C2492B2890289B20A4342F4D4
:105634000042A3F80C24CBE1B6B23346E288616998
:105644002846FFF76DFFB5F850309BB22B44227803
:1056540003EB0213A3F80464227835F822309BB2DA
:1056640023F4E04323F0400383F0300343F4004386
:1056740043F0800325F822300020A6E7236A9942EC
:1056840080F06681227835F822309BB223F4E0431F
:1056940023F0700343F4014343F0800325F82230E0
:1056A400236A9B1B2362227835F8223013F0400FC3
:1056B40000F0A7806378B3BBB5F850309BB22B449D
:1056C40003EB0213B3F80C24C2F30902A3F80C246D
:1056D4003E2E0FD9710916F01F0F00D10139B3F80E
:1056E4000C2492B2890289B20A4342F40042A3F81C
:1056F4000C241AE04EB9B3F80C246FEA42426FEA64
:10570400524292B2A3F80C240FE0720816F0010F73
:1057140000D00132B3F80C1489B2920292B20A4357
:10572400A3F80C2401E0012B30D0B3B26289616983
:105734002846FFF7F5FE636933446361236A2269EF
:1057440093422DD99B1B23626378002B45D1B5F876
:1057540050309BB22B44227803EB0213B3F8042499
:10576400C2F30902A3F804243E2E1DD9710916F0D0
:105774001F0F00D10139B3F8042492B2890289B20F
:105784000A4342F40042A3F8042428E0B5F8503058
:105794009BB22B4403EB0213B2B2A3F80C24C4E76C
:1057A400002222621E46CFE74EB9B3F804246FEA02
:1057B40042426FEA524292B2A3F804240FE0720804
:1057C40016F0010F00D00132B3F8041489B292022A
:1057D40092B20A43A3F8042401E0012B06D0B3B229
:1057E400228961692846FFF79BFE35E7B5F85030FA
:1057F4009BB22B44227803EB0213B2B2A3F8042425
:10580400EDE76378B3BBB5F850309BB22B4403EBA0
:105814000213B3F80424C2F30902A3F804243E2EAD
:105824000FD9710916F01F0F00D10139B3F8042400
:1058340092B2890289B20A4342F40042A3F80424D2
:105844001AE04EB9B3F804246FEA42426FEA5242B6
:1058540092B2A3F804240FE0720816F0010F00D0EE
:105864000132B3F8041489B2920292B20A43A3F843
:10587400042401E0012B30D0B3B2228961692846A7
:10588400FFF74EFE636933446361236A22699342DE
:105894002DD99B1B23626378002B45D1B5F850307A
:1058A4009BB22B44227803EB0213B3F80C24C2F30B
:1058B4000902A3F80C243E2E1DD9710916F01F0FFE
:1058C40000D10139B3F80C2492B2890289B20A4397
:1058D40042F40042A3F80C2428E0B5F850309BB2FF
:1058E4002B4403EB0213B2B2A3F80424C4E700224E
:1058F40022621E46CFE74EB9B3F80C246FEA424247
:105904006FEA524292B2A3F80C240FE0720816F028
:10591400010F00D00132B3F80C1489B2920292B292
:105924000A43A3F80C2401E0012B06D0B3B2628928
:1059340061692846FFF7F4FD8EE6B5F850309BB256
:105944002B44227803EB0213B2B2A3F80C24EDE744
:10595400217835F8212092B222F4E24222F070023A
:1059640042F4004242F0800225F82120B5F850208C
:1059740092B22A44217802EB01129BB2A2F80434B9
:10598400228961692846FFF7CBFD65E64EB9B3F875
:105994000C246FEA42426FEA524292B2A3F80C24FA
:1059A40016E0720816F0010F00D00132B3F80C149F
:1059B40089B2920292B20A43A3F80C2408E0B5F823
:1059C40050309BB22B4403EB0113B2B2A3F80C2466
:1059D400B3B2628961692846FFF7A2FD3CE6B2BB17
:1059E400B5F850309BB22B4403EB0113B3F80424F5
:1059F400C2F30902A3F804243E2E0FD9710916F04C
:105A04001F0F00D10139B3F8042492B2890289B27C
:105A14000A4342F40042A3F8042421E04EB9B3F847
:105A240004246FEA42426FEA524292B2A3F8042479
:105A340016E0720816F0010F00D00132B3F8041416
:105A440089B2920292B20A43A3F8042408E0B5F89A
:105A540050309BB22B4403EB0113B2B2A3F80424DD
:105A6400B3B2228961692846FFF75AFDF4E50022A2
:105A74008A611A4679E54AB9B3F80C246FEA4242BE
:105A84006FEA524292B2A3F80C248DE5510812F049
:105A9400010F00D00131B3F80C2492B2890289B20B
:105AA4001143A3F80C147FE5CB78022B4DD0012BC6
:105AB40040F02F8189692369994240F2E680C91A2E
:105AC400A161F2B9B5F8502092B22A44217802EBD0
